:020000022000DC
:106000000000012019620200016202000362020026
:10601000056202000762020009620200000000003F
:106020000000000000000000000000000B62020001
:106030000D620200000000000F6202001162020007
:10604000D1A1020013620200F9AF02001362020044
:106050001362020013620200F5AE02001362020036
:106060001362020013620200136202001362020054
:106070001362020013620200136202001362020044
:1060800013620200EDE302001362020013620200D9
:106090001362020013620200210F03001362020068
:1060A0001362020013620200136202001362020014
:1060B00013620200136202000000000000000000F2
:1060C00013620200136202001362020013620200F4
:1060D000136202001362020013620200000000005B
:1060E00000000000000000000000000000000000B0
:1060F00000000000000000000000000000000000A0
:10610000000000000000000000000000000000008F
:10611000000000000000000000000000000000007F
:10612000000000000000000000000000000000006F
:10613000000000000000000000000000000000005F
:10614000000000000000000000000000000000004F
:10615000000000000000000000000000000000003F
:10616000000000000000000000000000000000002F
:10617000000000000000000000000000000000001F
:10618000000000000000000000000000000000000F
:1061900000000000000000000000000000000000FF
:1061A00000000000000000000000000000000000EF
:1061B00000000000000000000000000000000000DF
:1061C00000000000000000000000000000000000CF
:1061D00000000000000000000000000000000000BF
:1061E00000000000000000000000000000000000AF
:1061F000000000000000000000000000000000009F
:10620000FEE7FEE7FEE7FEE7FEE7FEE7FEE7FEE766
:10621000FEE7FEE700F002B8FFF7FCBF0F484FF0C3
:106220000701884385460E4880470E48016841F4BF
:1062300070010160BFF34F8FBFF36F8F00F01AB88A
:1062400009480A490A4A884207D0521A05D00378F9
:1062500001300B700131013AF9D170470000012083
:106260008176020088ED00E07C160300F022002019
:10627000F0220020344935480A1A02D007229143FF
:106280008D46334933480A1A06D00722914381F3D9
:106290000988022282F314882F483049304A00F0DE
:1062A00041F830483049314A00F03CF83048314933
:1062B000314A00F037F831483149324A00F032F8BB
:1062C00031483249324A00F02DF832483249334AD7
:1062D00000F028F832483349334A00F023F83348B5
:1062E0003349002200F029F832483349002200F0F7
:1062F00024F832483249091A0BF040F9314A9047E4
:106300001F482049884205D00268043003B49047F2
:1063100003BCF7E700208646EC46002000212A4A0D
:106320009047FEE7884207D0521A05D00378013023
:106330000B700131013AF9D17047884202D00270E6
:106340000130FAE7704700000000012000E0002063
:10635000000001200000012088360300F022002008
:10636000A4230020CC630200CC630200901503003C
:1063700088360300F0220020F02200207C16030063
:106380007C1603007C1603007C1603007C160300B9
:106390007C1603007C1603007C1603008536030080
:1063A0003C370300A4230020A4230020A4230020C2
:1063B0009C2C00209C2C00209C2C00209C2C00203D
:0C63C0009C4C0020416202001D6D020098
:1063CC0000B585B00190019B002B0AD0074B43F020
:1063DC0001030393019B9B010293039B0298984733
:1063EC0000E000BF05B05DF804FB00BF9017030090
:1063FC0000B583B00190019B002B0AD04FF47A704A
:10640C00FFF7DEFF019B013B0193019B002BF5D1B4
:10641C0000E000BF03B05DF804FB72DF704700BF03
:10642C00184673DF704700BF184676DF704700BF11
:10643C0018467ADF704700BF18467CDF704700BFF4
:10644C0018467FDF704700BF18468FDF704700BFCC
:10645C001846B1DF704700BF1846000000B583B086
:10646C0003460091ADF80630BDF80630009A194687
:10647C00034806F039FE00BF03B05DF804FB00BF13
:10648C00EFBEADDE08B5012000F0CCFD00BF08BDAD
:10649C0000B583B007F0D8F90190019B0093009BE5
:1064AC00002B04D0044AC421009806F01DFE00BF46
:1064BC0003B05DF804FB00BF7C16030000B587B089
:1064CC009DF80030012262F303038DF800309DF833
:1064DC000030012262F307138DF800306B46062260
:1064EC001A491846FFF7A9FF0590059B0493049BD6
:1064FC00002B04D0164AD821049806F0F5FD01AB08
:10650C000822002118460BF003F85023ADF8043094
:10651C00A023ADF806300023ADF808304FF4C87353
:10652C00ADF80A3001AB1846FFF783FF0590059BC9
:10653C000393039B002B04D0054AE221039806F039
:10654C00D3FD00BF07B05DF804FB00BF08170300C4
:10655C007C16030000B583B00021094802F08CFFC3
:10656C000190019B0093009B002B04D0054AEB216A
:10657C00009806F0B9FD00BF03B05DF804FB00BF46
:10658C00C02300207C16030000B5ABB041F22353AE
:10659C00ADF81C30374B9B7C8DF81E3017AB3C2272
:1065AC00002118460AF0B4FF02238DF85C30012359
:1065BC008DF85E3006238DF85F3008AB3C2200214D
:1065CC0018460AF0A5FF0123ADF8303007AB0D9348
:1065DC00294B196817AB294A184601F01BFE299064
:1065EC00299B2893289B002B05D0254A40F20911A2
:1065FC00289806F079FD204B996808AB214A18467B
:10660C0001F008FE2990299B2793279B002B05D08E
:10661C001B4A4FF48671279806F066FD01AB1822D1
:10662C00002118460AF074FF01238DF8193000235D
:10663C00ADF8103001238DF80430002302930023B1
:10664C008DF818304023039301AB1A460A490E48C3
:10665C00FFF7E3FE2990299B2693269B002B05D060
:10666C00074A40F21B11269806F03EFD00BF2BB0E6
:10667C005DF804FBA8230020F4220020F82200205F
:10668C007C16030000230020F222002000B583B00A
:10669C000190054A4FF49471019806F025FD00BF56
:1066AC0003B05DF804FB00BF7C16030008B50DE0D9
:1066BC00002000F03BFC4FF49670FFF799FE002091
:1066CC0000F04EFC4FF49670FFF792FE034B1B78D4
:1066DC00002BEDD100BF00BF08BD00BFA4230020DC
:1066EC0000B583B003460091ADF8063013468DF823
:1066FC0005309DF80530002B0ED0022000F016FC62
:10670C000E4A0F4BD31ADB081B0443F003030D494D
:10671C00184609F0CBFD0DE0022000F021FC074AE1
:10672C00074BD31ADB081B0443F003030649184636
:10673C0009F0BCFD00BF03B05DF804FB1C160300A0
:10674C00F4150300101703002417030000B587B0DD
:10675C000023029300230193144B019301AB1946C0
:10676C00134802F06DFF0590059B0493049B002BCE
:10677C0005D0104A4FF4AC71049806F0B5FC0E4BE2
:10678C00029302AB19460D4803F0AEF80590059B39
:10679C000393039B002B05D0064A4FF4AF7103986B
:1067AC0006F0A2FC00BF07B05DF804FB996602007E
:1067BC00D42300207C160300ED660200A8230020E1
:1067CC0000B585B00190019B1B78002B11D10B4BB0
:1067DC001B883B211846FFF728FE0390039B02936E
:1067EC00029B002B05D0064A4FF4BA71029806F0B2
:1067FC007BFC00BF05B05DF804FB00BFF02200205D
:10680C007C16030000B583B00190054A40F27F115D
:10681C00019806F069FC00BF03B05DF804FB00BFF3
:10682C007C16030000B58BB001AB1C22002118466E
:10683C000AF06EFE002301934FF4A02302934FF451
:10684C00A033039303238DF810300023ADF81230DE
:10685C0000238DF814300C4B06930C4B079301ABB3
:10686C00184601F01DFF0990099B0893089B002B0B
:10687C0005D0074A4FF4CB71089806F035FC00BFE1
:10688C000BB05DF804FB00BFCD670200116802007D
:10689C007C16030000B583B00D4B1B780121184604
:1068AC00FFF7BFFD0190019B0093009B002B05D0CF
:1068BC00084A4FF4D071009806F016FC064B0122E2
:1068CC001A70FFF7F3FE00BF03B05DF804FB00BFC6
:1068DC00F22200207C160300A423002000B58DB00A
:1068EC0001900091019B1B88562B00F0EF80562BDA
:1068FC0000F3FF80522B00F0C280522B00F3F98082
:10690C00212B2DDC102BC0F2F480103B112B00F24C
:10691C00F08001A252F823F075690200E9690200C7
:10692C00FF6A02002F6A0200FF6A0200FF6A02007F
:10693C00FF6A0200FF6A0200FF6A0200FF6A02009F
:10694C00FF6A0200FF6A0200FF6A0200FF6A02008F
:10695C00FF6A0200FF6A0200FF6A0200576A020027
:10696C003B2B00F0A080C4E06A4A6B4BD31ADB08C7
:10697C001B0443F003036949184609F097FC684B64
:10698C0000221A70012000F0D1FA002000F0E8FA81
:10699C00019B9A88634B1A80624B1B88194662488C
:1069AC0002F070FE0B900B9B0493049B002B05D004
:1069BC005E4A4FF4DC71049806F096FB06F0D4FAAC
:1069CC000B900B9B0393039B002B00F09480574A76
:1069DC004FF4DD71039806F087FB8CE04D4A4E4B6B
:1069EC00D31ADB081B0443F003035149184609F082
:1069FC005DFC012000F0B4FA4A4B4FF6FF721A808E
:106A0C0006F0DEFA0B900B9B0593059B002B05D033
:106A1C00464A40F2C311059806F066FBFFF73AFFB1
:106A2C0074E0404B1888002300228521FFF709FDF4
:106A3C000B900B9B0693069B002B5ED03B4A40F2BF
:106A4C00CD11069806F050FB57E000238DF8083066
:106A5C0000238DF80930019B9B8802AA1146184629
:106A6C00FFF7F3FC0B900B9B0793079B002B46D077
:106A7C002E4A40F2D911079806F036FB3FE0294B1D
:106A8C001888002300220021FFF7E3FC0B900B9BDE
:106A9C000993099B002B34D0244A40F2DF1109984A
:106AAC0006F022FB2DE0019B9B8813211846FFF773
:106ABC00BCFC0B900B9B0893089B002B23D01B4A10
:106ACC0040F2E711089806F00FFB1CE0019B9B8835
:106ADC0013211846FFF7A9FC0B900B9B0A930A9BFA
:106AEC00002B12D0114A40F2EF110A9806F0FCFA72
:106AFC000BE000BF0AE000BF08E000BF06E000BFEB
:106B0C0004E000BF02E000BF00E000BF00BF0DB01A
:106B1C005DF804FB1C160300F41503003817030082
:106B2C00A4230020F0220020D42300207C16030094
:106B3C004417030000B587B00AF06AF90590059B6D
:106B4C000493049B002B05D0164A40F202210498B2
:106B5C0006F0CAFA0023019301AB194601200AF092
:106B6C000FFA0590059B0393039B002B05D00D4A50
:106B7C004FF40271039806F0B7FA01AB18460AF00D
:106B8C00F3FA0590059B0293029B002B05D0054A56
:106B9C004FF40371029806F0A7FA00BF07B05DF836
:106BAC0004FB00BF7C16030000B585B003460A4603
:106BBC008DF8073013468DF806309DF807300D2BF5
:106BCC002FD11F4A1F4BD31ADB081B0443F00303BE
:106BDC001D49184609F06AFB1C4B1B889DF80620C2
:106BEC001B49184602F01CFF0390039B002B21D07D
:106BFC00039B43F2020293421CD0039B082B19D037
:106C0C00039B43F20142934214D0039B0293029BD9
:106C1C00002B0FD00F4A40F22621029806F064FA9E
:106C2C0008E09DF807300B4A40F22B21184606F07D
:106C3C005BFA00E000BF00BF05B05DF804FB00BFCD
:106C4C001C160300F415030054170300F022002057
:106C5C00A82300207C16030000B583B040F2333229
:106C6C000121094806F0F8F80190019B0093009B64
:106C7C00002B05D0054A40F23F21009806F034FA6B
:106C8C0000BF03B05DF804FB042300207C16030056
:106C9C0000B583B04FF48041002009F031F8019029
:106CAC00019B0093009B002B05D0064A40F2462125
:106CBC00009806F019FA08F0B9FF00BF03B05DF8B0
:106CCC0004FB00BF7C16030000B583B008F060FC29
:106CDC000190019B0093009B002B05D0044A40F2CD
:106CEC005221009806F000FA00BF03B05DF804FBD7
:106CFC007C16030008B509F035FB034683F001034D
:106D0C00DBB2002B01D008F059FC00BF08BD00001D
:106D1C0008B5012000F086F9FFF7BAFFFFF7B2FBC8
:106D2C00FFF7B6FBFFF798FFFFF7CEFFFFF702FF69
:106D3C00FFF7C4FBFFF70EFCFFF708FDFFF724FC81
:106D4C00FFF770FD074A084BD31ADB081B0443F00E
:106D5C0003030649184609F0A9FAFFF79BFDFFF754
:106D6C00C9FFFCE71C160300F415030070170300A1
:106D7C0000B583B00190019B1B68184600F0B5F874
:106D8C000346002B04D105494FF4F670FFF766FB60
:106D9C004FF0A043184603B05DF804FB98170300AE
:106DAC0000B585B00190084611461A4603468DF889
:106DBC0003300B468DF8023013468DF8013001ABD1
:106DCC001846FFF7D5FF03909DF803209DF802307D
:106DDC005B001A439DF801309B001A439DF8183054
:106DEC001B0242EA03019DF81C301B04019A194353
:106DFC00039B02F5E07243F8221000BF05B05DF86A
:106E0C0004FB00B585B0039000230193002300938D
:106E1C000023012201210398FFF7C2FF00BF05B038
:106E2C005DF804FB00B585B003900B468DF80B3074
:106E3C009DF80B30002201920022009200220021CA
:106E4C000398FFF7ADFF00BF05B05DF804FB00B57C
:106E5C0085B0019001AB1846FFF78AFF0390019BA8
:106E6C00012202FA03F31946039800F02AF800BF36
:106E7C0005B05DF804FB00B585B0019001AB184678
:106E8C00FFF776FF0390019B012202FA03F31946E8
:106E9C00039800F020F800BF05B05DF804FB00B5C6
:106EAC0083B001900091009B002B03D10198FFF758
:106EBC00E2FF02E00198FFF7CAFF00BF03B05DF8E4
:106ECC0004FB82B001900091019B009AC3F8082545
:106EDC0000BF02B0704782B001900091019B009AF4
:106EEC00C3F80C2500BF02B0704784B00190019B21
:106EFC005B09029300230393029B002B03D14FF0F9
:106F0C00FF33039300BF019B03F01F030193039A0C
:106F1C00019B22FA03F303F00103002B14BF01239E
:106F2C000023DBB2184604B07047000000B583B0F4
:106F3C000190019B032B03D907494120FFF78EFADF
:106F4C00064A019B13441B7800211846FFF7A7FF44
:106F5C0000BF03B05DF804FBC8170300441803001E
:106F6C0000B583B00190019B032B03D9074947203F
:106F7C00FFF774FA064A019B13441B78012118464B
:106F8C00FFF78DFF00BF03B05DF804FBC8170300CB
:106F9C004418030000B583B00023019305E0019869
:106FAC00FFF7DEFF019B01330193019B032BF6D905
:106FBC0000BF00BF03B05DF804FB000000B583B058
:106FCC000023019309E0094A019B13441B781846DE
:106FDC00FFF717FF019B01330193019B032BF2D9A0
:106FEC00FFF7D8FF00BF03B05DF804FB44180300A3
:106FFC0000B583B0002301930AE0094A019B1344B6
:10700C001B7803211846FFF70DFF019B01330193F9
:10701C00019B032BF1D900BF00BF03B05DF804FB4B
:10702C004818030000B583B00190019B03F00103E5
:10703C00002B01D0FFF7C2FF019B03F00203002BD2
:10704C0001D0FFF7D5FF00BF03B05DF804FB0000D3
:10705C00BFF34F8F00BF064BDB6803F4E0620449BB
:10706C00044B1343CB60BFF34F8F00BF00BFFDE752
:10707C0000ED00E00400FA0582B01D4B1B68B3F173
:10708C00FF3F0AD11B4B1B68DBB201931A4B1B68E9
:10709C001B0903F00F03009305E0154B1B680193CC
:1070AC00164B1B680093019B062B1DD1009B033BC9
:1070BC00042B17D801A252F823F000BFDD70020098
:1070CC00E1700200E5700200E9700200ED70020050
:1070DC0001230AE0012308E0012306E0012304E078
:1070EC00012302E0012300E00023184602B07047A0
:1070FC0030010010E00F00F0E80F00F03401001038
:10710C0082B0174B1B68DBB20193164B1B681B0933
:10711C0003F00F030093019B062B1DD1009B033B37
:10712C00042B17D801A252F823F000BF4D710200B6
:10713C005171020055710200597102005D7102001B
:10714C0001230AE0002308E0002306E0002304E00A
:10715C00002302E0002300E00023184602B0704731
:10716C00E00F00F0E80F00F082B01D4B1B68B3F18C
:10717C00FF3F0AD11B4B1B68DBB201931A4B1B68F8
:10718C001B0903F00F03009305E0154B1B680193DB
:10719C00164B1B680093019B062B1DD1009B033BD8
:1071AC00042B17D801A252F823F000BFCD710200B6
:1071BC00D1710200D5710200D9710200DD7102009B
:1071CC0001230AE0012308E0012306E0012304E087
:1071DC00012302E0012300E00023184602B07047AF
:1071EC0030010010E00F00F0E80F00F03401001047
:1071FC0082B0174B1B68DBB20193164B1B681B0943
:10720C0003F00F030093019B062B1DD1009B033B46
:10721C00042B17D801A252F823F000BF3D720200D4
:10722C004172020045720200497202004D72020066
:10723C0001230AE0002308E0002306E0002304E019
:10724C00002302E0002300E00023184602B0704740
:10725C00E00F00F0E80F00F082B01D4B1B68B3F19B
:10726C00FF3F0AD11B4B1B68DBB201931A4B1B6807
:10727C001B0903F00F03009305E0154B1B680193EA
:10728C00164B1B680093019B062B1DD1009B033BE7
:10729C00042B17D801A252F823F000BFBD720200D4
:1072AC00C1720200C5720200C9720200CD720200E6
:1072BC0001230AE0012308E0012306E0012304E096
:1072CC00012302E0012300E00023184602B07047BE
:1072DC0030010010E00F00F0E80F00F03401001056
:1072EC0082B0174B1B68DBB20193164B1B681B0952
:1072FC0003F00F030093019B062B1DD1009B033B56
:10730C00042B17D801A252F823F000BF2D730200F2
:10731C003173020035730200397302003D730200B1
:10732C0001230AE0002308E0002306E0002304E028
:10733C00002302E0002300E00023184602B070474F
:10734C00E00F00F0E80F00F082B0174B1B68DBB2C7
:10735C000193164B1B681B0903F00F030093019B51
:10736C00062B1DD1009B033B042B17D801A252F80E
:10737C0023F000BF95730200997302009D73020005
:10738C00A1730200A573020001230AE0002308E0A8
:10739C00002306E0002304E0002302E0002300E0C9
:1073AC000023184602B07047E00F00F0E80F00F021
:1073BC0082B01D4B1B68B3F1FF3F0AD11B4B1B68FE
:1073CC00DBB201931A4B1B681B0903F00F030093EC
:1073DC0005E0154B1B680193164B1B680093019B32
:1073EC00062B1DD1009B033B042B17D801A252F88E
:1073FC0023F000BF15740200197402001D74020002
:10740C00217402002574020000230AE0002308E026
:10741C00012306E0012304E0012302E0012300E044
:10742C000023184602B0704730010010E00F00F046
:10743C00E80F00F03401001082B01D4B1B68B3F153
:10744C00FF3F0AD11B4B1B68DBB201931A4B1B6825
:10745C001B0903F00F03009305E0154B1B68019308
:10746C00164B1B680093019B062B1DD1009B033B05
:10747C00042B17D801A252F823F000BF9D74020010
:10748C00A1740200A5740200A9740200AD7402007C
:10749C0001230AE0012308E0012306E0012304E0B4
:1074AC00012302E0012300E00023184602B07047DC
:1074BC0030010010E00F00F0E80F00F03401001074
:1074CC0082B01D4B1B68B3F1FF3F0AD11B4B1B68ED
:1074DC00DBB201931A4B1B681B0903F00F030093DB
:1074EC0005E0154B1B680193164B1B680093019B21
:1074FC00062B1DD1009B033B042B17D801A252F87D
:10750C0023F000BF25750200297502002D750200BD
:10751C00317502003575020001230AE0012308E0F1
:10752C00012306E0012304E0012302E0012300E033
:10753C000023184602B0704730010010E00F00F035
:10754C00E80F00F03401001082B0154B1B6801935A
:10755C00144B1B680093019B062B1DD1009B033B16
:10756C00042B17D801A252F823F000BF8D7502002E
:10757C009175020095750200997502009D750200C7
:10758C0000230AE0002308E0002306E0012304E0C6
:10759C00012302E0012300E00023184602B07047EB
:1075AC00300100103401001082B0154B1B680193A0
:1075BC00144B1B680093019B062B1DD1009B033BB6
:1075CC00042B17D801A252F823F000BFED7502006E
:1075DC00F1750200F5750200F9750200FD750200E7
:1075EC0000230AE0002308E0002306E0002304E067
:1075FC00012302E0012300E00023184602B070478B
:10760C00300100103401001008B5FFF7CDFF034620
:10761C00002B07D04FF010234FF08042D3F80832E4
:10762C00C2F8583500BF08BD00BF044BD3F8003476
:10763C00002BFAD000BF00BF704700BF00E0014034
:10764C0000B583B00190054A019BC2F80435FFF7E1
:10765C00EBFF00BF03B05DF804FB00BF00E001408E
:10766C00024B034A1A6000BF704700BF0C23002076
:10767C000090D00308B5FFF7FFFC0346002B06D0A3
:10768C00964B1B681B0A964A03F01F031360FFF707
:10769C0037FD0346002B02D0924B934A1A60FFF73A
:1076AC0063FD0346002B06D0904B1B685B0B904A86
:1076BC0003F007031360FFF79BFD0346002B05D077
:1076CC008C4BDB688B4A23F08073D360FFF7C4FDCF
:1076DC000346002B0ED04FF080430022C3F80C2140
:1076EC004FF080430022C3F810214FF0804300225A
:1076FC00C3F83825FFF7F4FD0346002B02D07E4B70
:10770C0003221A60FFF720FE0346002B0BD07B4BA5
:10771C0005221A607A4B01221A607A4B00221A60F9
:10772C00794B3F221A60FFF743FE0346002B76D0BD
:10773C004FF08053754AD3F80434C2F820354FF01B
:10774C008053724AD3F80834C2F824354FF0805372
:10775C006E4AD3F80C34C2F828354FF080536B4A7C
:10776C00D3F81034C2F82C354FF08053674AD3F855
:10777C001434C2F830354FF08053644AD3F81834BF
:10778C00C2F834354FF08053604AD3F81C34C2F839
:10779C0040354FF080535D4AD3F82034C2F844355D
:1077AC004FF08053594AD3F82434C2F848354FF07F
:1077BC008053564AD3F82834C2F84C354FF08053D6
:1077CC00524AD3F82C34C2F850354FF080534F4AFC
:1077DC00D3F83034C2F854354FF080534B4AD3F8B9
:1077EC003434C2F860354FF08053484AD3F83834FB
:1077FC00C2F864354FF08053444AD3F83C34C2F895
:10780C0068354FF08053414AD3F84034C2F86C3598
:10781C004FF080533D4AD3F84434C2F87035FFF72B
:10782C000BFE0346002B05D0394B1B68394A03F07D
:10783C004F031360FFF744FE0346002B0DD04FF0AF
:10784C008043D3F8003403F00103002B05D04FF034
:10785C0080436FF00102C3F80024FFF775FE034666
:10786C00002B05D02C4B1B682B4A43F48063136010
:10787C002A4BD3F88830294A43F47003C2F8883075
:10788C00BFF34F8F00BFBFF36F8F00BFFFF7BCFE7E
:10789C004FF01023D3F80032002B05DB4FF01023F0
:1078AC00D3F80432002B15DA0120FFF7C9FE4FF094
:1078BC0010231522C3F80022FFF7B6FE4FF0102359
:1078CC001522C3F80422FFF7AFFE0020FFF7B8FE25
:1078DC00FFF7BEFBFFF7C4FE00BF08BD240300107A
:1078EC004035014074C007400DF0ADBA44020010A1
:1078FC003C050040F0ED00E0A005004010560040B3
:10790C0088560040185600401456004000C00040F5
:10791C0058020010E40E00403C17004000ED00E05F
:10792C006DDF704700BF184679DF704700BF1846FF
:10793C007DDF704700BF184664DF704700BF1846F4
:10794C0082B003460091ADF80630BDF80630DAB2CD
:10795C00009B1A70BDF806301B0A9AB2009B0133CB
:10796C00D2B21A700223184602B0704700B589B023
:10797C00039002911346ADF80630029B1B8803F16D
:10798C000902BDF806309A4201D90C2353E004AB2E
:10799C001846FFF7C5FF0790079B0693069B002B25
:1079AC0001D0069B47E0029B1B881A46039B13449D
:1079BC0008221A70029B1B8801339AB2029B1A8010
:1079CC00029B1B881A46039B13441B221A70029BB2
:1079DC001B8801339AB2029B1A80029B1B881A46A1
:1079EC00039B981804AB01330622194609F05AFD83
:1079FC00029B1B8806339AB2029B1A809DF81030AA
:107A0C0023F00103DBB2002B07D1029B1B881A4623
:107A1C00039B134400221A7006E0029B1B881A4633
:107A2C00039B134401221A70029B1B8801339AB2E8
:107A3C00029B1A800023184609B05DF804FB00B5C0
:107A4C0089B0039002910192ADF80230039B1B7830
:107A5C00012B05D1039B5B78002B01D1072392E00E
:107A6C00019B1B889A1CBDF802309A420ED8039BCE
:107A7C001B78012B0CD1019B1B881A46039B5B784E
:107A8C0013449A1CBDF802309A4201D90C237AE0B7
:107A9C00019B1B88BDF80220D31A9BB2023BADF8A8
:107AAC001C30BDF81C30ADF81230019B1B88023322
:107ABC00029A13440DF1120211461846FFF738FFD3
:107ACC000690069B0593059B002B01D0059B5AE065
:107ADC00039B1B78022B06D0039B5B789AB2BDF8F4
:107AEC0012309A4209D3BDF81230BDF81C209A42CC
:107AFC0003D309238DF81F3017E008238DF81F30AE
:107B0C00039B1B78012B0CD1039B5B789BB2BDF8BC
:107B1C001C209A4205D3039B5B789BB2ADF81230C4
:107B2C0003E0BDF81C30ADF81230BDF81230FE2B5E
:107B3C0001D90C2327E0BDF81230DAB2019B1B8867
:107B4C001946029B0B440132D2B21A70019B1B885E
:107B5C0001339AB2019B1A80019B1B881A46029B27
:107B6C0013449DF81F201A70019B1B8801339AB295
:107B7C00019B1A80019B1A88BDF8123013449AB2EB
:107B8C00019B1A800023184609B05DF804FB00B570
:107B9C0089B0039002911346ADF80630029B1B8806
:107BAC001A1DBDF806309A4201D90C233BE00DF1A9
:107BBC0016031846FFF7B8FE0790079B0693069B23
:107BCC00002B01D0069B2EE0029B1B881A46039BC0
:107BDC00134403221A70029B1B8801339AB2029B36
:107BEC001A80029B1B881A46039B134419221A7095
:107BFC00029B1B8801339AB2029B1A80BDF8162097
:107C0C00029B1B881946039B0B4419461046FFF731
:107C1C0097FE03461946029B1A888BB213449AB2FC
:107C2C00029B1A800023184609B05DF804FB84B04F
:107C3C00029101921A4603468DF80F301346ADF8A7
:107C4C000C30019B1B88DA1CBDF80C309A4201D910
:107C5C000C2328E0019B1B881A46029B134402222A
:107C6C001A70019B1B8801339AB2019B1A80019BED
:107C7C001B881A46029B134401221A70019B1B8815
:107C8C0001339AB2019B1A80019B1B881A46029BF6
:107C9C0013449DF80F201A70019B1B8801339AB274
:107CAC00019B1A800023184604B0704784B00291DF
:107CBC0001921A4603468DF80F301346ADF80C307E
:107CCC00019B1B88DA1CBDF80C309A4201D90C239D
:107CDC0028E0019B1B881A46029B134402221A704F
:107CEC00019B1B8801339AB2019B1A80019B1B8854
:107CFC001A46029B13440A221A70019B1B880133FB
:107D0C009AB2019B1A80019B1B881A46029B134452
:107D1C009DF80F201A70019B1B8801339AB2019BAE
:107D2C001A800023184604B0704700B58FB003903A
:107D3C0001930B468DF80B3013468DF80A30002357
:107D4C008DF83330109B1B88ADF8303000230D9329
:107D5C0071E0039B5A680D9B9B001A4405AB10689D
:107D6C0018600DF11B0105AB00221846FFF7E4FD6E
:107D7C000A900A9B0993099B002B01D0099B7CE07C
:107D8C009DF81B309DF80A209A4251D19DF8333052
:107D9C00002B01D0002300E002238DF82330109B30
:107DAC001B881A469DF81B301A449DF823301A4440
:107DBC00BDF844309A4201DD0C235EE09DF833306F
:107DCC0083F00103DBB2002B16D0109B1B88013310
:107DDC009AB2109B1A80109B1B881A46019B134465
:107DEC009DF80B201A70109B1B8801339AB2109BC4
:107DFC001A8001238DF83330109B1B881A46019B87
:107E0C001A440DF11B0105AB1846FFF795FD0A90BE
:107E1C000A9B0793079B002B01D0079B2DE0109B1F
:107E2C001A889DF81B309BB213449AB2109B1A808F
:107E3C000D9B01330D93039B1B881A460D9B93429C
:107E4C0087DB9DF83330002B16D0109B1A88BDF8B9
:107E5C003030D31A9BB2013BADF82E30BDF82E302A
:107E6C00FF2B01D90C2308E0BDF83030019A1344E4
:107E7C00BDF82E20D2B21A70002318460FB05DF850
:107E8C0004FB00B58BB0059003930B468DF81330B3
:107E9C0013468DF812309DF81310BDF83430019351
:107EAC000C9B0093039B02220598FFF73EFF099061
:107EBC00099B0893089B002B01D0089B14E09DF8AC
:107ECC001210BDF8343001930C9B0093039B1022CD
:107EDC000598FFF72AFF0990099B0793079B002B36
:107EEC0001D0079B00E0002318460BB05DF804FBA3
:107EFC0082B00190019B1B88052B0AD9019B1B8822
:107F0C00B3F5486F07D9019B1B884FF6FF7293425C
:107F1C0001D0072325E0019B5B88052B0AD9019B27
:107F2C005B88B3F5486F07D9019B5B884FF6FF72EE
:107F3C00934201D0072314E0019B1B884FF6FF727C
:107F4C0093420DD0019B5B884FF6FF72934207D092
:107F5C00019B1A88019B5B889A4201D9072300E098
:107F6C000023184602B0704700B587B00390029109
:107F7C000192ADF80230019B1B889A1DBDF80230AE
:107F8C009A4201D90C234DE00398FFF7B1FF0590FD
:107F9C00059B0493049B002B01D0049B42E0019BA6
:107FAC001B881A46029B134405221A70019B1B88DE
:107FBC0001339AB2019B1A80019B1B881A46029BC3
:107FCC00134412221A70019B1B8801339AB2019B35
:107FDC001A80039B1A88019B1B881946029B0B4431
:107FEC0019461046FFF7ACFC03461946019B1A884C
:107FFC008BB213449AB2019B1A80039B5A88019B43
:10800C001B881946029B0B4419461046FFF798FC37
:10801C0003461946019B1A888BB213449AB2019BF2
:10802C001A800023184607B05DF804FB00B587B032
:10803C00039002910192ADF80230039B9B880233AE
:10804C000593019B1B881A46059B13449A1CBDF88B
:10805C0002309A4201D90C2354E0059BFE2B01D926
:10806C000C234FE0059BDAB2019B1B881946029B3F
:10807C000B440132D2B21A70019B1B8801339AB2A5
:10808C00019B1A80019B1B881A46029B1344FF22FA
:10809C001A70019B1B8801339AB2019B1A80039BB7
:1080AC001A88019B1B881946029B0B4419461046E3
:1080BC00FFF746FC03461946019B1A888BB2134402
:1080CC009AB2019B1A80039B9B88002B19D0039BAF
:1080DC009B68002B01D1072314E0019B1B881A46D7
:1080EC00029B9818039B9968039B9B881A4609F07E
:1080FC00D9F9019B1A88039B9B8813449AB2019B64
:10810C001A800023184607B05DF804FB00B589B04F
:10811C00039002910192ADF80230039B9B6A002BF5
:10812C0001D1072372E000238DF81F3066E0039B1A
:10813C00996A9DF81F2013465B0013449B000B4467
:10814C000693069B9B8802330593059BFE2B01D956
:10815C000C235BE0059BDAB2019B1B881946029B42
:10816C000B440132D2B21A70019B1B8801339AB2B4
:10817C00019B1A80019B1B881A46029B13441622F2
:10818C001A70019B1B8801339AB2019B1A80069BC3
:10819C001A88019B1B881946029B0B4419461046F2
:1081AC00FFF7CEFB03461946019B1A888BB213448A
:1081BC009AB2019B1A80069B9B88002B19D0069BB8
:1081CC009B68002B01D1072320E0019B1B881A46DA
:1081DC00029B9818069B9968069B9B881A4609F087
:1081EC0061F9019B1A88069B9B8813449AB2019BE8
:1081FC001A809DF81F3001338DF81F30039B93F8C4
:10820C002C309DF81F209A4291D30023184609B0B8
:10821C005DF804FB00B595B0059004910392002322
:10822C001393039B1B88ADF84A30039B00221A80E2
:10823C00059B93F82D30002B0ED0BDF84A301A4612
:10824C0003990498FFF792FB1390139B1193119BC6
:10825C00002B01D0119BD8E0059B9B78002B0ED0F6
:10826C00BDF84A301A4603990498FFF790FC139016
:10827C00139B1093109B002B01D0109BC5E0059B0A
:10828C00DB78002B10D0059BDB7858B2BDF84A3058
:10829C00039A0499FFF7CBFC1390139B0F930F9B3E
:1082AC00002B01D00F9BB0E0059B5B68002B11D01D
:1082BC00059B5B6893F90000BDF84A30039A04995A
:1082CC00FFF7F4FC1390139B0E930E9B002B01D025
:1082DC000E9B9AE0059B1B89002B14D0059B03F188
:1082EC000800BDF84A300193039B0093049B0622BF
:1082FC000221FFF7C6FD1390139B0D930D9B002BD2
:10830C0001D00D9B81E0059B1B8A002B14D0059B93
:10831C0003F11000BDF84A300193039B0093049BBA
:10832C0007220321FFF7ADFD1390139B0C930C9BBD
:10833C00002B01D00C9B68E0059B1B8B002B14D0F1
:10834C00059B03F11800BDF84A300193039B009381
:10835C00049B15221421FFF794FD1390139B0B9390
:10836C000B9B002B01D00B9B4FE0059B1B6A002B3A
:10837C000FD0059B186ABDF84A30039A0499FFF791
:10838C00F3FD1390139B0A930A9B002B01D00A9BBD
:10839C003BE0059B5B6A002B0FD0059B586ABDF830
:1083AC004A30039A0499FFF741FE1390139B0993EB
:1083BC00099B002B01D0099B27E0059B93F82C30DF
:1083CC00002B0ED0BDF84A30039A04990598FFF79C
:1083DC009DFE1390139B0893089B002B01D0089BC8
:1083EC0013E0059B1B78002B0ED0BDF84A30039A86
:1083FC0004990598FFF723FB1390139B0793079B96
:10840C00002B01D0079B00E0139B184615B05DF8BC
:10841C0004FB75DF704700BF184676DF704700BF5E
:10842C0018467ADF704700BF18467BDF704700BFE5
:10843C001846000084B00346ADF8063000230393C1
:10844C0016E00F49039A13469B0013449B000B4400
:10845C001B88BDF806209A4207D1039A13469B004D
:10846C0013449B00064A134406E0039B0133039319
:10847C00039B002BE5D00023184604B0704700BFC7
:10848C004024002082B001900B46ADF80230019BD5
:10849C00BDF802201A80019B00221A72019B05492B
:1084AC0003F10A020B4603CB1060516000BF02B00F
:1084BC00704700BF7024002082B00190019B4FF6E2
:1084CC00FF721A8000BF02B0704788B0039002910F
:1084DC0011461A460B46ADF806301346ADF804307B
:1084EC00039B9B881A46BDF8063013440793039BE5
:1084FC009B881946039B9B88BDF80620934228BF96
:10850C0013469BB2CB1A0693039BDB881A46BDF825
:10851C00043013440593039BDB881946039BDB88CB
:10852C00BDF80420934228BF13469BB2CB1A049388
:10853C00029B5A88039B1B889A4205D3029B5A883C
:10854C00039B5B889A4201D900231CE0029B9B8809
:10855C001A46069B934205D8029B9B881A46079B9A
:10856C00934201D200230EE0029BDB881A46049B47
:10857C00934205D8029BDB881A46059B934201D295
:10858C00002300E00123184608B0704700B583B003
:10859C000190064B9B69002B03D0044B9B690198FF
:1085AC00984700BF03B05DF804FB00BF54240020C3
:1085BC0000B585B003460091ADF80630BDF8063025
:1085CC0000991846FFF725FF0390039B002B05D05D
:1085DC00039B112B02D00398FFF7D8FF039B002BB2
:1085EC000CBF01230023DBB2184605B05DF804FB79
:1085FC0000B589B00190019B0793079B9BB218466D
:10860C00FFF718FF0690069B002B42D0069B1A7AA8
:10861C00224B1B7B9A4215D2079B9AB2069B0A33BC
:10862C0019461046FFF7C4FF03468DF813309DF82A
:10863C001330002B2DD0069B1B7A0133DAB2069B2C
:10864C001A7226E0069B00221A72144B1B7C002B1C
:10865C000FD0079B9BB23B211846FFF7DEFE05901F
:10866C00059B002B05D0059B082B02D00598FFF726
:10867C008DFF0A4B5B69002B0BD000238DF80C305F
:10868C00079B9BB2ADF80E30044B5B6903AA1046F6
:10869C00984700BF09B05DF804FB00BF54240020CC
:1086AC0030B587B00190019B002B01D10E2353E014
:1086BC002B4A019B14461D460FCD0FC495E80700AD
:1086CC0084E80700264B274A1A60019B1B68002B85
:1086DC0011D0019B1B681846FFF7A3FE0490049B66
:1086EC00002B01D0049B37E0019B1A681D4B1068CE
:1086FC00516803C308E01B48FFF797FE0490049BE6
:10870C00002B01D0049B27E00023059320E0059A61
:10871C0013469B0013449B00134A13440393039882
:10872C00FFF7CAFE059B5B01104A1A44039B5A6073
:10873C00039B04330E4A0021184605F0C3F804903D
:10874C00049B002B01D0032306E0059B013305930A
:10875C00059B002BDBD00023184607B030BD00BFB3
:10876C0054240020702400204024002020240020C9
:10877C00FD85020000B587B003460091ADF80630C8
:10878C00009B5B7A002B1AD1009B1B7A002B03D128
:10879C00164B5B68059302E0144B9B680593009B9A
:1087AC005B68BDF806200599184605F0C5F80490DD
:1087BC00049B002B16D00498FFF7E8FE12E0009BF8
:1087CC0000221A72094B5B69002B0BD001238DF828
:1087DC000C30BDF80630ADF80E30044B5B6903AAC3
:1087EC001046984700BF07B05DF804FB54240020E6
:1087FC0000B585B00190019BDB7B8DF80F30019BA0
:10880C009B88ADF80C309DF80F30012B2CD14FF616
:10881C00FF70FFF70FFE0290029B002B03D1042088
:10882C00FFF7B4FE21E0BDF80C3019460298FFF7B3
:10883C0029FE029B03F10A00019B03F110014FF684
:10884C00FF7340F2F312FFF740FE03461A46029BF9
:10885C005A72074BDB89002B07D1BDF80C300299FB
:10886C001846FFF787FF00E000BF05B05DF804FB7A
:10887C005424002000B587B00190019B9B88ADF873
:10888C001630BDF816301846FFF7D4FD0490049B43
:10889C00002B0ED0049B5B68184605F0A5F80390DE
:1088AC00039B002B02D00398FFF770FE0498FFF790
:1088BC0003FE00BF07B05DF804FB000000B587B0F5
:1088CC000190019B06330593059B1A88194BDB8994
:1088DC009A422BD1059B5B89022B27D1019B9B884C
:1088EC00ADF81230BDF812301846FFF7A3FD039017
:1088FC00039B002B1AD0059B0C33184600F0FEF995
:10890C000346002B06D0BDF8123003991846FFF72A
:10891C0031FF0BE0039B5B68184605F065F802908D
:10892C00029B002B02D00298FFF730FE00BF07B06D
:10893C005DF804FB5424002000B585B00190019B28
:10894C009B88ADF80E30BDF80E301846FFF772FD5F
:10895C000290029B002B15D0029B03F10A00019B95
:10896C0003F108014FF6FF7340F2F312FFF7ADFD70
:10897C0003461A46029B5A72BDF80E3002991846ED
:10898C00FFF7F8FE00BF05B05DF804FB00B583B03F
:10899C0001900091019B1B88502B12D0502B18DC9E
:1089AC00122B12D0122B14DC102B02D0112B04D052
:1089BC000FE00198FFF71CFF0CE00198FFF75AFF3E
:1089CC0008E00198FFF77AFF04E00198FFF7B4FF85
:1089DC0000E000BF00BF03B05DF804FB30B58FB002
:1089EC000190009100230293009B002B1AD00023CE
:1089FC000D9314E06B460D99184605F032FE0346B4
:108A0C00002B09D0029B5A1C02920D9A92B25B0069
:108A1C0038336B4423F82C2C0D9B01330D930D9B99
:108A2C00132BE7D9019B1D4602AC0FCC0FC50FCC05
:108A3C000FC594E8070085E8070001980FB030BD1A
:108A4C0000B583B00346ADF80630BDF80630132BE5
:108A5C0001D900230CE0BDF806301946064805F094
:108A6C00CFFDBDF806301946044805F0C9FD0123B9
:108A7C00184603B05DF804FB802400207C24002001
:108A8C0000B585B00346ADF80630002303930DE026
:108A9C00039B9B00094A13440433BDF8062011467E
:108AAC00184605F0C5FD039B01330393039B1D2B57
:108ABC00EED900BF00BF05B05DF804FB78240020A0
:108ACC0000B583B00346ADF80630BDF80630194644
:108ADC00034805F0ADFD00BF03B05DF804FB00BF1B
:108AEC008024002030B59BB0184B9B68DB43189357
:108AFC00164B5A6818AB1146184605F011FE189A19
:108B0C006B4611461846FFF769FF0DAC6D460FCD4D
:108B1C000FC40FCD0FC495E8070084E807000023AD
:108B2C0019930BE0199B5B0068336B4433F8303CB2
:108B3C001846FFF7A5FF199B013319930D9B199A42
:108B4C009A42EFD300BF00BF1BB030BD7824002089
:108B5C0000B583B001900B46ADF8023013468DF88A
:108B6C0001309DF80130002B06D0BDF802301946BB
:108B7C00019805F045FD05E0BDF802301946019855
:108B8C0005F056FD00BF03B05DF804FB00B585B0E1
:108B9C0001900091019B9B88ADF80E30019B1B88C6
:108BAC00103B0A2B00F2888001A252F823F000BF80
:108BBC00E98B0200258C0200C58C0200C58C0200DA
:108BCC00C58C0200C58C0200C58C0200C58C02004D
:108BDC00C58C02008F8C0200318C0200FFF782FFE3
:108BEC00BDF80E301846FFF72BFF034683F0010348
:108BFC00DBB2002B05D0324AF021042004F074FAC9
:108C0C0057E0019BDB7B022B53D1BDF80E3019468C
:108C1C002C4805F0F5FC4CE0BDF80E301846FFF77B
:108C2C004FFF49E0019B1B7AC3F30313DBB28DF8B2
:108C3C000D309DF80D30032B8CBF01230023DAB2CD
:108C4C00BDF80E3019462048FFF782FF9DF80D3015
:108C5C00022B8CBF01230023DAB2BDF80E3019466B
:108C6C001A48FFF775FF9DF80D30012B8CBF0123BF
:108C7C000023DAB2BDF80E3019461548FFF768FF2D
:108C8C001AE0019B1B7A002B15D1019B5B7AC3F375
:108C9C00C003DBB2002B14BF012300238DF80C3072
:108CAC009DF80C20BDF80E3019460748FFF750FF11
:108CBC0001E000BF00E000BF00BF05B05DF804FBA1
:108CCC004C18030084240020902400208C240020C5
:108CDC008824002082B00190019B1B781AB2019B62
:108CEC0001331B781B021BB213431BB29BB21846F9
:108CFC0002B07047AADF704700BF184600B585B0B8
:108D0C0001900198FFF7E6FF0346ADF80E30BDF871
:108D1C000E3003F00103002B14BF01230023DBB240
:108D2C00184605B05DF804FB82B0034600918DF83F
:108D3C000730009A13786FF303031370009A1378BB
:108D4C006FF3071313709DF80730052B5BD801A246
:108D5C0052F823F0798D02008F8D0200A98D02004C
:108D6C00C38D0200DD8D0200F78D0200009A13788E
:108D7C006FF303031370009A13786FF307131370D8
:108D8C0040E0009A1378012161F303031370009AF9
:108D9C001378012161F30713137033E0009A1378F1
:108DAC00012161F303031370009A1378022161F31C
:108DBC000713137026E0009A1378012161F3030363
:108DCC001370009A1378032161F30713137019E0E1
:108DDC00009A1378022161F303031370009A13783D
:108DEC00012161F3071313700CE0009A1378022130
:108DFC0061F303031370009A1378022161F30713D4
:108E0C00137000BF00BF00BF02B0704700B595B033
:108E1C00034602910192ADF80E30029B9B78002B19
:108E2C0003D101238DF81E3003E0029B9B788DF853
:108E3C001E30029B1B88ADF81C3006AB03220021B0
:108E4C00184608F065FB029B5B7C06AA1146184687
:108E5C00FFF76AFF029B9A7C06AB0133194610465A
:108E6C00FFF762FF029BDA7B9DF81A3062F3C303B3
:108E7C008DF81A30029B1A7C9DF81A3062F3041399
:108E8C008DF81A30029B1A7B9DF81A3062F300039E
:108E9C008DF81A30029B1B7D002B01D0022200E0C2
:108EAC0001229DF81A3062F342038DF81A300DAB93
:108EBC001C220021184608F02BFB029B5B7B03F065
:108ECC001003DBB2002B06D1029B5B7B03F020036B
:108EDC00DBB2002B24D004AB03220021184608F08F
:108EEC0017FB029BDA7C04AB013319461046FFF7E3
:108EFC001BFF9DF81030012262F303038DF8103034
:108F0C009DF81030012262F307138DF810309DF894
:108F1C001230012262F342038DF8123004AB12932B
:108F2C00029B5B7B8DF83430029B9B7B8DF835303C
:108F3C0008AB14220021184608F0EAFA07AB089394
:108F4C0006AB0993029B9B88ADF82C30029B9B6867
:108F5C00002B06D0029BDB88ADF82830029B9B6867
:108F6C000C93029B9B69002B4FD005AB0322002175
:108F7C00184608F0CDFA029B9B691B88ADF83C3073
:108F8C00029B9B695B88ADF83E30029B9B695B68DA
:108F9C000E9305AB1193029B9B691B7B05AA114693
:108FAC001846FFF7C1FE029B9B695A7B05AB013348
:108FBC0019461046FFF7B8FE029B9B699A7A9DF8FA
:108FCC00163062F3C3038DF81630029B9B69DA7A74
:108FDC009DF8163062F304138DF81630029B9B69D2
:108FEC001A7A9DF8163062F300038DF81630029B46
:108FFC009B699B7B002B01D0022200E001229DF893
:10900C00163062F342038DF81630029BDB69002B9D
:10901C0002D0029BDB69109308AA0DA9BDF80E00C3
:10902C00019BFFF767FE0346184615B05DF804FB7D
:10903C0090DF704700BF1846A5DF704700BF184689
:10904C00B5DF704700BF184682B00190019B172214
:10905C001A80019B17225A80019B00221A71019BD6
:10906C0000225A71019B1B229A71019B1B22DA71FF
:10907C0000BF02B07047000030B589B003460A4605
:10908C00ADF806301346ADF80430BDF80430ADF839
:10909C001430BDF80430ADF816300023ADF818309C
:1090AC000023ADF81A3003AB00221A609A8003AA91
:1090BC0005A9BDF806301846FFF7BAFF0790079BC5
:1090CC00002B39D01E4A1F4BD31ADB081B0443F06C
:1090DC000104BDF80650079806F0B2FB03462A4679
:1090EC001949204607F001F9BDF80C30002B03D1CB
:1090FC00BDF80E30002B0ED0114A124BD31ADB08E0
:10910C001B0443F00100BDF80C301A46BDF80E30BC
:10911C000E4907F0EAF8BDF81030002B0CD0084AC5
:10912C00084BD31ADB081B0443F00103BDF81020D5
:10913C000749184607F0C8F8079B184609B030BD18
:10914C003C160300F4150300E41803003019030067
:10915C007019030010B586B001900091009B9B889C
:10916C00ADF80E30BDF80E30DB00019A1344063317
:10917C000593019B1A79059B9A71009BDB7B012B54
:10918C0002D0022B05D009E0019B1A88059B1A809E
:10919C0004E0019B5A88059B1A8000BF059B1A8826
:1091AC00059B5B889A4226D9059B1A88BDF80E3020
:1091BC0011461846FFF740FF0490049B002B03D187
:1091CC00059B01225A7116E0049B112B03D1059BC0
:1091DC0001221A710FE0114A114BD31ADB081B0440
:1091EC0043F00104049806F02BFB03461A460D4984
:1091FC00204607F069F8059B9A79059BDB799A4222
:10920C0008D9059B9B799AB2BDF80E3011461846C9
:10921C00FFF732FF00BF06B010BD00BF3C160300C5
:10922C00F4150300C819030000B583B00190009138
:10923C00009B9B88DB00019A134406331846FFF70A
:10924C0003FF00BF03B05DF804FB00B587B00190CD
:10925C000091009B9B88ADF81630009B5B89ADF8A4
:10926C001430BDF81630DB00019A13440633049316
:10927C00049B1B88BDF81420934228BF13469AB256
:10928C00049B5A80049B5B88172B38BF17239AB218
:10929C00049B5A80019B1B69002B15D0049B5B79A6
:1092AC00002B11D040F67723ADF80830BDF81630FE
:1092BC00ADF80A30049B5B88ADF80C30019B1B6940
:1092CC0002AA114601989847049B00225A71049BEC
:1092DC0000221A7100BF07B05DF804FB10B588B00E
:1092EC0001900091009B9B88ADF81A30009BDB88A5
:1092FC00ADF81830BDF81A30DB00019A1344063370
:10930C000593BDF81830172B38BF1723ADF818305C
:10931C00059B1B88BDF81820934228BF13469AB2B0
:10932C00059B5A80059B00221A71059B1A88BDF873
:10933C001A3011461846FFF783FE0790079B002B47
:10934C000FD0174A174BD31ADB081B0443F0010448
:10935C00079806F075FA03461A461349204606F09C
:10936C00B3FF059B5B79002B16D1019B1B69002B6E
:10937C0013D040F67723ADF80C30BDF81A30ADF8A9
:10938C000E30059B5B88ADF81030019B1B6903AA5E
:10939C0011460198984700E000BF08B010BD00BF0F
:1093AC003C160300F4150300FC19030030B591B012
:1093BC0001900091009B04AC1D1D0FCD0FC40FCD6F
:1093CC000FC495E8070084E80700BDF81030ADF82D
:1093DC003E30BDF81420BDF83E30D1B2019ADB000E
:1093EC0013440A465A73019B1B69002B19D002AB1C
:1093FC0000221A609A804DF67A23ADF80830BDF839
:10940C003E30ADF80A30BDF83E30019ADB00134413
:10941C005B7B8DF80C30019B1B6902AA11460198ED
:10942C00984700BF11B030BD00B587B001900091D6
:10943C00009B04330593059B1B88DB00019A1344A6
:10944C0006330493059B9B888DF80F30049B9B7906
:10945C009DF80F20934228BF13468DF80E30059BC4
:10946C001B889DF80E2092B211461846FFF704FE99
:10947C0000BF07B05DF804FB00B585B0019000910A
:10948C00019B002B01D10E231DE0019B009A1A6158
:10949C00019B17221A80019B17225A80019B1B22C9
:1094AC001A71002303930AE0039BDB00019A134417
:1094BC0006331846FFF7C8FD039B01330393039B48
:1094CC00002BF1D00023184605B05DF804FB00001A
:1094DC0010B586B001900091009B0593019B9B8871
:1094EC00ADF81230BDF81230002B40F09880019B83
:1094FC001B88552B48D0552B55DC242B32DC102BDC
:10950C0051DB103B142B4ED801A252F823F000BFB4
:10951C007795020081950200B3950200B395020085
:10952C00B3950200B3950200B3950200B395020007
:10953C00B3950200B3950200B3950200B3950200F7
:10954C00B3950200B3950200B3950200B3950200E7
:10955C00B3950200B3950200B3950200A9950200E1
:10956C009F9502003A2B0AD01DE001990598FFF750
:10957C00F1FD19E001990598FFF756FE14E00199E9
:10958C000598FFF762FE0FE001990598FFF7A6FE1C
:10959C000AE001990598FFF709FF05E00199059884
:1095AC00FFF742FF00E000BFBDF81230059ADB0068
:1095BC0013449B7A002B33D0BDF81230059ADB0094
:1095CC001344DA88BDF8123011461846FFF734FD03
:1095DC000390039B002B0ED1BDF81230059ADB00D3
:1095EC00134400229A72BDF81230059ADB00134422
:1095FC000122DA7214E0039B112B11D0094A0A4B99
:10960C00D31ADB081B0443F00104039806F018F985
:10961C0003461A460549204606F056FE00E000BFF8
:10962C0006B010BD3C160300F4150300C819030066
:10963C00B0DF704700BF184666DF704700BF1846A2
:10964C0082B001900091019B002B01D10E2316E0FA
:10965C00009B002B01D10E2311E0019B1B78DE2B0C
:10966C0001D108230BE0009B1A68019B5A60019BF7
:10967C00DE221A70019B4FF6FF725A8000231846A7
:10968C0002B0704782B001900B46ADF80230019BDE
:10969C00002B01D10E230AE0019B1B78DE2B01D09D
:1096AC00082304E0019BBDF802205A8000231846D1
:1096BC0002B0704700B585B00190019B1B7A002B5E
:1096CC0018D0019B5B8800211846FFF7B5FF03906B
:1096DC00039B002B03D1019B00221A720AE0039B0F
:1096EC00112B03D1019B01221A7203E0019B5B68D1
:1096FC000398984700BF05B05DF804FB00B583B034
:10970C0001900091009B1B79012B0BD1009B1A88B7
:10971C00019B5B889A4205D1019B01221A72019828
:10972C00FFF7C8FF00BF03B05DF804FB82B00190E7
:10973C00009100BF02B0704700B589B00190009154
:10974C00009B1A88019B5B889A4236D1009B02339E
:10975C000793079B1B78022B31D1079B1B7A042B99
:10976C0007D0079B1B7A062B03D0079B1B7A052B74
:10977C0027D102AB00221A605A609A60DA60022389
:10978C008DF808304FF4C073ADF80C30079B1B7A82
:10979C00052B02D10023ADF80C30009B1B8802AACC
:1097AC0011461846FFF744FF0690069B002B09D084
:1097BC00019B5B680698984704E000BF02E000BF7D
:1097CC0000E000BF09B05DF804FB00B585B0019066
:1097DC000091009B002B43D0019B002B40D0009BA1
:1097EC000393039B1B78DE2B3AD1019B9A88039B36
:1097FC005B889A4202D10398FFF75CFF019B1B88A0
:10980C00512B18D0512B28DC112B1BD0112B24DC05
:10981C00012B02D0022B07D01FE0019B0433194609
:10982C000398FFF76BFF1BE0019B04331946039869
:10983C00FFF77CFF14E0019B043319460398FFF7F4
:10984C007BFF0DE0019B9A88039B5B889A4206D1B3
:10985C00039B4FF6FF725A8001E000BF00E000BF8F
:10986C0005B05DF804FBA8DF704700BF1846AEDFFB
:10987C00704700BF184662DF704700BF184600B53E
:10988C0085B001900091009B06330393039B1A88CB
:10989C00019B5B889A420FD1039B5B89012B0BD1F7
:1098AC00019B5B69002B07D0019B5B69009A908838
:1098BC00039A127B0199984700BF05B05DF804FB31
:1098CC0000B585B001900091009B0393019B1B8810
:1098DC00502B04D101990398FFF7D1FF00E000BF92
:1098EC0000BF05B05DF804FB10B592B0019000917B
:1098FC00009B1A68019B5A61484B02AC0FCB84E861
:10990C000F00019B03F1120202AB11461846FFF740
:10991C00B2FF1190119B1093109B002B01D0109B48
:10992C0079E0019B9B7C8DF83A3041F22353ADF8E2
:10993C003830019A0EAB19460120FFF794FF1190B5
:10994C00119B0F930F9B002B01D00F9B63E006AB79
:10995C0020220021184607F0DBFD41F22453ADF81C
:10996C001830019B9B7C8DF81A300123ADF81E300A
:10997C000123ADF81C309DF8253043F002038DF81F
:10998C0025309DF8253043F010038DF82530012348
:10999C008DF8293001238DF82B30019B1888019B01
:1099AC0003F10A0206AB1946FFF730FA1190119B2E
:1099BC00002B01D0119B2EE006AB20220021184673
:1099CC0007F0A6FD41F22553ADF81830019B9B7CA6
:1099DC008DF81A300123ADF81E300123ADF81C3080
:1099EC009DF8253043F002038DF825309DF8253085
:1099FC0043F008038DF8253001238DF8293001231D
:109A0C008DF82A30019B1888019B9A1C06AB1946CD
:109A1C00FFF7FCF90346184612B010BD2C1A0300D0
:109A2C0000B589B003460091ADF8063013468DF8A9
:109A3C0005300123ADF80E3004AB1022002118467E
:109A4C0007F066FD01238DF81230009B5B89ADF8A1
:109A5C0010300DF1050307930DF10E03069304AAC4
:109A6C00BDF8063011461846FFF701FF03461846AD
:109A7C0009B05DF804FB000082B003468DF8073096
:109A8C009DF90730002B13DB9DF8073003F01F0204
:109A9C0009499DF907305B09012000FA02F22033D5
:109AAC0041F82320BFF34F8F00BFBFF36F8F00BF70
:109ABC0000BF02B0704700BF00E100E0044BD3F8D8
:109ACC000034002B14BF01230023DBB2184670476F
:109ADC000000014008B507F0EFF9034683F00103DD
:109AEC00DBB2002B03D109497B20FCF7B7FCFFF755
:109AFC00E5FF034683F00103DBB2002B04D000F03A
:109B0C0041FB034B00229A7000BF08BD441A0300AE
:109B1C00F424002000B583B000230193184B1B786C
:109B2C00002B02D0852301931CE0154B00229A6078
:109B3C00134B00225A60124B00221A61104B002268
:109B4C00DA60104800F0E4FA019007F0B5F903462A
:109B5C0083F00103DBB2002B01D000F0FFFA084BBD
:109B6C0001221A70FFF7AAFF0346002B02D0044B08
:109B7C0001229A70019B184603B05DF804FB00BFEC
:109B8C00F4240020699C020084B00190019B1B68A6
:109B9C000393039B002B03D0039B1A68019B1A6051
:109BAC00039B184604B0704700B583B0164B1B7866
:109BBC00002B04D1154940F21710FCF74FFC124B47
:109BCC00DB68002B04D111494FF48C70FCF746FC78
:109BDC0000238DF807300DF10703184603F0D4FF6E
:109BEC00094BDB68013B084AD360074BDB68002B51
:109BFC0001D1FFF76FFF9DF80730184603F0DAFF2D
:109C0C0000BF03B05DF804FBF4240020441A0300E9
:109C1C0000B585B003468DF807309DF80730002B52
:109C2C0002D10C4B039301E00B4B03930398FFF70A
:109C3C00ABFF0290029B002B06D0029B5B689DF849
:109C4C00072010469847F1E700BF00BF05B05DF84C
:109C5C0004FB00BFFC2400200425002000B583B0C9
:109C6C0003468DF807309DF80730002B05D10A4BC1
:109C7C0001225A700020FFF7CBFF9DF80730012B13
:109C8C0005D1054B01229A700120FFF7C1FF00BFDF
:109C9C0003B05DF804FB00BFF424002000B583B0D2
:109CAC0001900091019B002B05D1054B01225A70AC
:109CBC000020FFF7ADFF00BF03B05DF804FB00BF51
:109CCC00F424002000B585B0034600918DF80730D0
:109CDC009DF80730032B29D0032B35DC002B02D049
:109CEC00012B04D030E00020FFF7C6FE2DE000234E
:109CFC008DF80F300DF10F03184603F045FF154B8F
:109D0C001B7883F00103DBB2002B01D0FFF702FFBD
:109D1C00104BDB6801330F4AD3600E4B01229A7053
:109D2C009DF80F30184603F045FF0EE0094B1B78E9
:109D3C00002B04D1084940F25220FCF78FFB00F0B5
:109D4C000DFAFFF731FF00E000BF00BF05B05DF872
:109D5C0004FB00BFF4240020441A030000B589B0B2
:109D6C0001900091009B0793019B1B788DF80C30A0
:109D7C00019B5B680493019B9B68DBB28DF81430EC
:109D8C00019BDB680693074A079B52F82330064970
:109D9C00079A51F8221003AA1046984700BF09B041
:109DAC005DF804FB082500200C25002000B589B0C7
:109DBC0001900091009B0793019B1B788DF80C3050
:109DCC00019B5B680493019B9B68DBB28DF814309C
:109DDC00019BDB680693074A079B52F82330064920
:109DEC00079A51F8221003AA1046984700BF09B0F1
:109DFC005DF804FB082500200C25002030B58FB041
:109E0C00039002910192039B1B780C9326490C9BA7
:109E1C00019A41F82320029B1A6924490C9B41F8B2
:109E2C002320029B5B7F1946214A0C9B13440A4654
:109E3C001A70029B04AC1D460FCD0FC495E80F00A1
:109E4C0084E80F000C9B089300230D93039B1B7855
:109E5C001A46174B9B5C002B0DD0039B181D019BC6
:109E6C00002B01D0134A00E0002204AB194602F08B
:109E7C0023FB0D9014E0039B1B781A460C4B9B5C48
:109E8C00002B0DD1039B03F10C00019B002B01D087
:109E9C00094A00E0002204AB194601F09BFC0D902E
:109EAC000D9B18460FB030BD082500200C25002056
:109EBC0010250020699D0200B99D020082B0034666
:109ECC008DF807309DF90730002B0CDB9DF807301F
:109EDC0003F01F0205499DF907305B09012000FAC8
:109EEC0002F241F8232000BF02B0704700E100E00D
:109EFC0082B0034600918DF807309DF90730002B96
:109F0C000ADB009BDAB20C499DF907305201D2B240
:109F1C000B4483F800230BE0009BDAB207499DF851
:109F2C00073003F00F03043B5201D2B20B441A76F4
:109F3C0000BF02B0704700BF00E100E000ED00E0A0
:109F4C0082B00190019B1B0B5BB2184602B07047AC
:109F5C0000B583B003460A468DF8073013468DF8DA
:109F6C0006309DF80630012B03D99DF80630032BE3
:109F7C000BD99DF80630042B03D99DF80630072B1E
:109F8C0003D908496B20FCF769FA9DF806209DF966
:109F9C00073011461846FFF7ABFF00BF03B05DF862
:109FAC0004FB00BFCC1A030000B583B003468DF848
:109FBC0007309DF907301846FFF780FF00BF03B04C
:109FCC005DF804FB82B003468DF807300F4A9DF90B
:109FDC000730002B00DA1F335B115BB252F82320E1
:109FEC009DF90730594203F01F0301F01F0158BFC0
:109FFC004B425BB222FA03F303F00103002B14BFB4
:10A00C0001230023DBB2184602B0704700E100E0E8
:10A01C0082B001904FF08042019BC2F8083300BF20
:10A02C0002B0704782B003468DF807309DF80730B8
:10A03C0003F1804301221A6000BF02B0704784B064
:10A04C000346ADF80630BDF8063003F1804300221C
:10A05C001A60BDF8063003F180431B680393039B21
:10A06C0000BF04B0704782B00346ADF80630BDF8AF
:10A07C00063003F180431B68002B14BF012300231F
:10A08C00DBB2184602B0704782B001904FF08042AC
:10A09C00019BC2F8183500BF02B070474FF08043E7
:10A0AC00D3F818341B0C03F00103002B14BF01234D
:10A0BC000023DBB21846704700B583B006238DF839
:10A0CC0007304FF08040FFF73BFF03461846FFF781
:10A0DC0079FF034683F00103DBB2002B13D04FF062
:10A0EC008040FFF72DFF03461A469DF807301946AE
:10A0FC001046FFF72DFF4FF08040FFF721FF03467E
:10A10C001846FFF751FF00BF03B05DF804FB0000D9
:10A11C0000B585B00190019B002B03D10D49A42003
:10A12C00FCF79CF9002303930B4B1B79002B02D0FB
:10A13C008523039308E0084A019B1360064B012218
:10A14C001A71054B00225A71039B184605B05DF835
:10A15C0004FB00BF041B03001425002008B5074BAB
:10A16C001B79002B03D10649BD20FCF777F9FFF7CB
:10A17C00A3FF0120FFF788FF00BF08BD14250020B6
:10A18C00041B030008B50D4B1B79002B03D10C49A4
:10A19C00F720FCF763F90220FFF73AFF4FF48270C7
:10A1AC00FFF74DFF0C20FFF73DFF00BFFFF776FFD9
:10A1BC000346002BFAD100BF00BF08BD14250020B8
:10A1CC00041B030008B54FF48070FFF74CFF0346E7
:10A1DC00002B14D04FF48070FFF731FF0120FFF7F4
:10A1EC0017FF114B5B7983F00103DBB2002B06D018
:10A1FC000D4B01225A710C4B1B68002098474FF4F1
:10A20C008270FFF730FF0346002B0AD04FF48270A8
:10A21C00FFF715FF0220FFF7FBFE034B1B68012025
:10A22C00984700BF08BD00BF1425002082B003462C
:10A23C008DF807309DF90730002B0CDB9DF80730AB
:10A24C0003F01F0205499DF907305B09012000FA54
:10A25C0002F241F8232000BF02B0704700E100E099
:10A26C0082B0034600918DF807309DF90730002B22
:10A27C000ADB009BDAB20C499DF907305201D2B2CD
:10A28C000B4483F800230BE0009BDAB207499DF8DE
:10A29C00073003F00F03043B5201D2B20B441A7681
:10A2AC0000BF02B0704700BF00E100E000ED00E02D
:10A2BC0082B00190019B1B0B5BB2184602B0704739
:10A2CC0000B583B003460A468DF8073013468DF867
:10A2DC0006309DF80630012B03D99DF80630032B70
:10A2EC000BD99DF80630042B03D99DF80630072BAB
:10A2FC0003D908496B20FCF7B1F89DF806209DF9AD
:10A30C00073011461846FFF7ABFF00BF03B05DF8EE
:10A31C0004FB00BF8C1B030000B583B003468DF813
:10A32C0007309DF907301846FFF780FF00BF03B0D8
:10A33C005DF804FB00B583B00346ADF80630BDF8FC
:10A34C000630184600F026F803461B68012B0CBF9C
:10A35C0001230023DBB2184603B05DF804FB00B503
:10A36C0085B00346ADF80630BDF80630184600F04F
:10A37C0011F803461A4600231360BDF80630184640
:10A38C0000F008F803461B680393039B00BF05B05D
:10A39C005DF804FB82B00346ADF80630BDF806301C
:10A3AC0003F1804303F5C043184602B07047000028
:10A3BC0082B00190034A019BC2F8043300BF02B083
:10A3CC00704700BF0060004082B00190034A019BBF
:10A3DC00C2F8083300BF02B0704700BF00600040F5
:10A3EC0082B00190034BD3F80423019B1340184611
:10A3FC0002B070470060004082B00190084A019B97
:10A40C0003F5A27352F82330054943F00102019B76
:10A41C0003F5A27341F8232000BF02B0704700BFC0
:10A42C000060004082B00190084A019B03F5A273C2
:10A43C0052F82330054923F00102019B03F5A27366
:10A44C0041F8232000BF02B0704700BF00600040FD
:10A45C0084B00390029113468DF80730144A039B85
:10A46C0003F5A27352F82330114923F4473323F434
:10A47C004073039A02F5A27241F822300C4A039BF6
:10A48C0003F5A27352F82320029B1B0203F4F8512C
:10A49C009DF807301B0403F440330B4304491A4363
:10A4AC00039B03F5A27341F8232000BF04B070474F
:10A4BC000060004082B00190054A019B03F5A27335
:10A4CC0052F823301B0A03F01F03184602B07047E2
:10A4DC000060004082B00190064A019B03F5A27314
:10A4EC0052F823301B0C03F00303DBB2184602B006
:10A4FC00704700BF0060004000B583B00190019B25
:10A50C001B68184600F015F90346002B04D10549C9
:10A51C004FF4F670FBF7A2FF4FF0A043184603B0C0
:10A52C005DF804FBBC1B030000B585B00190084628
:10A53C0011461A4603468DF803300B468DF802304F
:10A54C0013468DF8013001AB1846FFF7D5FF039089
:10A55C009DF803209DF802305B001A439DF80130F2
:10A56C009B001A439DF818301B0242EA03019DF828
:10A57C001C301B04019A1943039B02F5E07243F84B
:10A58C00221000BF05B05DF804FB00B585B0039048
:10A59C000B468DF80B309DF80B30002201920022F7
:10A5AC000092002200210398FFF7BEFF00BF05B008
:10A5BC005DF804FB00B585B0019001AB1846FFF7C0
:10A5CC009BFF0390019A039B02F5E07253F8223033
:10A5DC0023F002030293019A039B02F5E0720299A5
:10A5EC0043F8221000BF05B05DF804FB00B585B040
:10A5FC0001900B468DF8033001AB1846FFF77CFF3A
:10A60C000390019A039B02F5E07253F82230019AF1
:10A61C0023F44031039B02F5E07243F82210019AB7
:10A62C00039B02F5E07253F822309DF803201204CC
:10A63C001146019A1943039B02F5E07243F822106C
:10A64C0000BF05B05DF804FB00B585B0019001AB0F
:10A65C001846FFF751FF0390039800F020F80246CC
:10A66C00019B22FA03F303F00103184605B05DF8D1
:10A67C0004FB00B585B0019001AB1846FFF73CFF19
:10A68C000390019A039B02F5E07253F822301B0CE5
:10A69C0003F00303DBB2184605B05DF804FB82B08F
:10A6AC000190019BD3F81035184602B0704786B064
:10A6BC000390029101924FF0A0430493039B0593E6
:10A6CC0019E0059B9B0018336B4453F8083CD3F8F6
:10A6DC002025019B1A60059B9B0018336B4453F893
:10A6EC00083C019A1268C3F82025019B043301939E
:10A6FC00059B01330593039A029B1344059A9A42D6
:10A70C00DFD300BF00BF06B0704700B585B0019025
:10A71C0001AB1846FFF7F0FE0390019B012202FAF1
:10A72C0003F31A46039BC3F8202500BF05B05DF860
:10A73C0004FB84B00190019B5B09029300230393FB
:10A74C00029B002B03D14FF0FF33039300BF019BFF
:10A75C0003F01F030193039A019B22FA03F303F006
:10A76C000103002B14BF01230023DBB2184604B0F5
:10A77C00704784B001900091009B0393019BDB0810
:10A78C000293019B03F0070301930122019B02FA40
:10A79C0003F30399029A0A4412781340184604B042
:10A7AC00704784B001900091009B0393019BDB08E0
:10A7BC000293019B03F007030193039A029B13443A
:10A7CC001B785AB20121019B01FA03F35BB21343CC
:10A7DC0059B2039A029B1344CAB21A7000BF04B058
:10A7EC007047000082B001900C4A019B1344303337
:10A7FC0093F90030002B09DB084A019B13443033DA
:10A80C0093F90030072B01DC012300E0002303F057
:10A81C000103DBB2184602B0704700BF1C250020B4
:10A82C0082B00190064A019B1344303393F90030F7
:10A83C00072BCCBF01230023DBB2184602B07047B4
:10A84C001C25002082B00190064A019B1344303332
:10A85C0093F90030DB43DBB2DB09DBB2184602B004
:10A86C00704700BF1C25002084B003900291019218
:10A87C008DF80330029B59B20E4A039B13443033BC
:10A88C000A461A700B49029B019A41F823209DF845
:10A89C00033083F00103DBB2002B08D0029B083B92
:10A8AC00039A51B2034A13440A4683F8502000BF5E
:10A8BC0004B070471C25002082B00190044A019B13
:10A8CC0013443033FF221A7000BF02B0704700BF30
:10A8DC001C25002000B583B0019004490198FFF7B6
:10A8EC0060FF00BF03B05DF804FB00BF70250020C3
:10A8FC0082B00190044A019B1344303393F9003029
:10A90C00184602B0704700BF1C25002082B0019091
:10A91C00034A019B52F82330184602B0704700BF1F
:10A92C001C25002084B00190074A019B134450332E
:10A93C0093F900308DF80F309DF80F3023F0C003E1
:10A94C00184604B0704700BF1C25002084B001904D
:10A95C00074A019B1344503393F900308DF80F30A4
:10A96C009DF80F309B09DBB2184604B0704700BF4E
:10A97C001C25002000B589B00390029113468DF878
:10A98C000730FF238DF81F309DF80730002B01D0C6
:10A99C00002300E0082305939DF80730002B01D01D
:10A9AC00082300E00C230493059B069314E00F4A44
:10A9BC00069B52F82330B3F1FF3F0AD19DF80730C4
:10A9CC00029A06990398FFF74FFF069B8DF81F30EC
:10A9DC0006E0069B01330693069A049B9A42E6D343
:10A9EC009DF91F30184609B05DF804FB1C250020AA
:10A9FC0082B003468DF807309DF80730094A4FF0B6
:10AA0C00FF3142F823109DF80730072B07D99DF82A
:10AA1C000730083B034A1344FF2283F8502000BF41
:10AA2C0002B070471C25002000B583B02D4B93F865
:10AA3C005830002B03D008230093009B4EE00023DA
:10AA4C008DF8073011E09DF807301846FFF771FEBE
:10AA5C000346002B04D09DF807301846FFF72CFF57
:10AA6C009DF8073001338DF807309DF807301F2B08
:10AA7C00E9D900238DF8073009E09DF80730184616
:10AA8C00FFF7B6FF9DF8073001338DF807309DF8BE
:10AA9C0007300B2BF1D904220021134806F038FDA6
:10AAAC001248FFF705FC034606211846FFF708FC81
:10AABC000E48FFF7FDFB03461846FFF72DFC4FF43D
:10AACC00BE70FFF74CFC4FF00040FFF771FC054BDC
:10AADC00012283F8582000230093009B184603B0F2
:10AAEC005DF804FB1C250020702500200060004050
:10AAFC00044B93F85830002B14BF01230023DBB216
:10AB0C00184670471C25002000B587B003900291B1
:10AB1C0001920398FFF70DFE0346002B04D1364932
:10AB2C004FF40C70FBF79AFC002305930398FFF786
:10AB3C0089FE0346002B02D00823059357E0029BA5
:10AB4C009B78C3F34003DBB21A4601990398FFF7D5
:10AB5C0011FF03468DF813309DF91330B3F1FF3F0D
:10AB6C0043D0029B9B78C3F38003DBB283F00103D9
:10AB7C00DBB2002B13D0029B9B7803F00103DBB2FA
:10AB8C00002B03D00398FFF715FD05E0029B5B78C3
:10AB9C0019460398FFF7F9FC0398FFF79BFE029BFD
:10ABAC009B7803F00203DBB2002B08D09DF9130055
:10ABBC00029B1B781A460399FFF74AFC17E09DF994
:10ABCC001330083B0D4A134493F95010029B1B7829
:10ABDC009B015AB29DF91330083B0A4351B2074A04
:10ABEC0013440A4683F8502001E004230593059B87
:10ABFC00184607B05DF804FBF41B03001C2500206D
:10AC0C0000B589B001900B468DF803300198FFF721
:10AC1C0090FD0346002B04D13A494FF41870FBF712
:10AC2C001DFC0198FFF70EFE0346002B04D135499D
:10AC3C0040F26120FBF712FC0198FFF7F1FD03468F
:10AC4C00002B2AD00198FFF753FE0346083B184609
:10AC5C00FFF77CFE03468DF80F309DF80F30032B69
:10AC6C000BD10198FFF7F0FC0346002B01D0032316
:10AC7C0000E002238DF81F3008E09DF80F30012B07
:10AC8C0001D1022300E003238DF81F309DF81F3003
:10AC9C0019460198FFF7AAFC30E00198FFF7A2FDD6
:10ACAC000346002B2AD00198FFF722FE0346069399
:10ACBC00069B9BB240339BB29B00ADF81630069BB3
:10ACCC001846FFF799FBBDF816301846FFF747FBFF
:10ACDC009DF80330002B11D00198FFF709FE0346B5
:10ACEC001846FFF713FE0490049B002B06D001229C
:10ACFC00069B02FA03F31846FFF75AFB00BF09B094
:10AD0C005DF804FBF41B030000B585B001900198BD
:10AD1C00FFF70FFD0346002B04D11A4940F28B209C
:10AD2C00FBF79CFB0198FFF78DFD0346002B04D12C
:10AD3C0014494FF42370FBF791FB0198FFF770FD5A
:10AD4C000346002B04D000210198FFF74FFC15E0BF
:10AD5C000198FFF747FD0346002B0FD00198FFF732
:10AD6C00C7FD03460393039B1846FFF75BFB0122C9
:10AD7C00039B02FA03F31846FFF726FB00BF05B04E
:10AD8C005DF804FBF41B030000B583B0019001983F
:10AD9C00FFF7CFFC0346002B04D1094940F2B22047
:10ADAC00FBF75CFB0198FFF74FFC0346002B14BF2D
:10ADBC0001230023DBB2184603B05DF804FB00BF8F
:10ADCC00F41B030000B585B00190019A012100200D
:10ADDC00FFF76DFC002303930BE0039B9B00019A90
:10ADEC0013441B68002B01D0012306E0039B0133A5
:10ADFC000393039B002BF0D00023184605B05DF89D
:10AE0C0004FB000000B587B00190002305935BE0C4
:10AE1C00344A059B1344503393F90030B3F1FF3F90
:10AE2C004ED00598FFF77EFD049001990498FFF72A
:10AE3C00A0FC0346002B44D00598FFF787FD034682
:10AE4C008DF80F300498FFF714FC03468DF80E3084
:10AE5C009DF80E30022B01D1032300E002238DF864
:10AE6C000D309DF80D3019460498FFF7BFFB049880
:10AE7C00FFF74BFC0498FFF73BFD03461846FFF722
:10AE8C0045FD0290029B002B1BD09DF80F30032B2D
:10AE9C000FD09DF80E30022B03D19DF80F30012BF3
:10AEAC0007D09DF80E30032B0BD19DF80F30022BE1
:10AEBC0007D19DF80F20029B11460498984700E09B
:10AECC0000BF059B01330593059B032BA0D901986B
:10AEDC00FFF778FF0346002B97D100BF00BF07B0E8
:10AEEC005DF804FB1C25002000B589B000230693F7
:10AEFC00002300934FF48073ADF8123001230793B5
:10AF0C000023059321E0BDF812301846FFF712FA22
:10AF1C000346002B0ED00798FFF762FA0346002B6E
:10AF2C0008D0BDF812301846FFF719FA069A079B9D
:10AF3C0013430693079B5B000793BDF81230043351
:10AF4C00ADF81230059B01330593059B072BDAD91D
:10AF5C004FF4BE70FFF7EEF90346002B0DD04FF403
:10AF6C00BE70FFF7FCF9069B43F0004306936B465B
:10AF7C001A4601210020FFF79AFB069BDBB2002B3F
:10AF8C0029D0012307930023059321E0079A069B00
:10AF9C001340002B16D00598FFF78CFA03900598F8
:10AFAC00FFF798FA03468DF80B300598FFF7AEFCC7
:10AFBC000190019B002B05D09DF80B20019B1146A5
:10AFCC0003989847079B5B000793059B01330593F8
:10AFDC00059B072BDAD9069B002B03DA6B46184628
:10AFEC00FFF710FF00BF09B05DF804FB08B5064B76
:10AFFC001B68002B03D105495120FBF72FFA024B9C
:10B00C001B68984708BD00BF78250020801C0300F2
:10B01C0082B00190019B044A934201D1034B00E0A2
:10B02C000023184602B0704700200040782500200D
:10B03C0000B587B001900091019B002B03D11C49F6
:10B04C007720FBF70BFA0198FFF7E2FF0590059BC1
:10B05C00002B25D000238DF8133000238DF80B30F6
:10B06C000DF10B03184602F08FFD059B1B79002B8D
:10B07C0003D001238DF8133005E0059B009A1A606C
:10B08C00059B01221A719DF80B30184602F092FDB7
:10B09C009DF81330002B03D011230393039B02E084
:10B0AC0000230393039B184607B05DF804FB00BF15
:10B0BC00801C030000B585B00190019B002B03D1CF
:10B0CC000A499B20FBF7CAF90198FFF7A1FF0390EF
:10B0DC00039B002B05D0039B00221A60039B0022CC
:10B0EC001A7100BF05B05DF804FB00BF801C0300A3
:10B0FC0082B003468DF807309DF90730002B0CDB2E
:10B10C009DF8073003F01F0205499DF907305B09D4
:10B11C00012000FA02F241F8232000BF02B0704770
:10B12C0000E100E082B003468DF807309DF907304E
:10B13C00002B13DB9DF8073003F01F0209499DF922
:10B14C0007305B09012000FA02F2203341F823207A
:10B15C00BFF34F8F00BFBFF36F8F00BF00BF02B0B4
:10B16C00704700BF00E100E082B0034600918DF80B
:10B17C0007309DF90730002B0ADB009BDAB20C4933
:10B18C009DF907305201D2B20B4483F800230BE037
:10B19C00009BDAB207499DF8073003F00F03043B1C
:10B1AC005201D2B20B441A7600BF02B0704700BFF6
:10B1BC0000E100E000ED00E082B00190019B1B0B70
:10B1CC005BB2184602B0704700B583B003460A461E
:10B1DC008DF8073013468DF806309DF80630012B9C
:10B1EC0003D99DF80630032B0BD99DF80630042BA0
:10B1FC0003D99DF80630072B03D908496B20FBF7C0
:10B20C002DF99DF806209DF9073011461846FFF7D9
:10B21C00ABFF00BF03B05DF804FB00BF081D0300CB
:10B22C0000B583B003468DF807309DF907301846FA
:10B23C00FFF75EFF00BF03B05DF804FB00B583B001
:10B24C0003468DF807309DF907301846FFF76AFF63
:10B25C0000BF03B05DF804FB84B001900B46ADF861
:10B26C000230BDF80230019A134400221A60BDF876
:10B27C000230019A13441B680393039B00BF04B074
:10B28C00704782B001900B46ADF80230BDF8023029
:10B29C00019A13441B68002B14BF01230023DBB25B
:10B2AC00184602B0704782B001900091019B009A41
:10B2BC00C3F8042300BF02B0704782B00190009124
:10B2CC00019BD3F80423009B1340002B14BF0123D4
:10B2DC000023DBB2184602B0704782B00190009197
:10B2EC00019B009AC3F8082300BF02B0704784B0DA
:10B2FC000190019BD3F880340393019B039AC3F80C
:10B30C008024039B184604B0704782B00190019BC7
:10B31C000422C3F8002500BF02B0704782B0019030
:10B32C00019B0022C3F8002500BF02B0704784B017
:10B33C00039002910192039B019AC3F81425039B7D
:10B34C00029AC3F80C2500BF04B0704700B583B057
:10B35C0001904FF0FF324FF0FF310198FFF7E7FFFC
:10B36C0000BF03B05DF804FB82B00190019BD3F8E1
:10B37C000C35184602B0704782B00190019BD3F88F
:10B38C001435184602B0704782B00190019BD3F877
:10B39C000835184602B0704782B00190019BD3F873
:10B3AC001035184602B0704784B003900291019298
:10B3BC00039B029AC3F80825039B019AC3F8102536
:10B3CC0000BF04B0704700B583B001904FF0FF325E
:10B3DC004FF0FF310198FFF7E7FF00BF03B05DF8B6
:10B3EC0004FB82B00190019BD3F81835DBB21846F0
:10B3FC0002B0704782B001900B468DF803309DF877
:10B40C000320019BC3F81C2500BF02B0704782B01B
:10B41C0001900B468DF803309DF80330019A1344CC
:10B42C0001221A6000BF02B0704782B001900B4637
:10B43C008DF8033013468DF802309DF803209DF8EB
:10B44C0002301343DBB21A46019BC3F86C2500BFD4
:10B45C0002B0704782B001900091019B009AC3F832
:10B46C00242500BF02B0704700B583B00190019B4A
:10B47C001B68184600F096F80346002B04D10549CA
:10B48C004FF4F670FAF7EAFF4FF0A043184603B0FA
:10B49C005DF804FB381D030000B585B0019008462B
:10B4AC0011461A4603468DF803300B468DF80230D0
:10B4BC0013468DF8013001AB1846FFF7D5FF03900A
:10B4CC009DF803209DF802305B001A439DF8013073
:10B4DC009B001A439DF818301B0242EA03019DF8A9
:10B4EC001C301B04019A1943039B02F5E07243F8CC
:10B4FC00221000BF05B05DF804FB00B585B00390C9
:10B50C0000230193002300930023012201210398BF
:10B51C00FFF7C2FF00BF05B05DF804FB00B585B0B6
:10B52C0003900B468DF80B309DF80B3000220192E6
:10B53C0000220092002200210398FFF7ADFF00BF0C
:10B54C0005B05DF804FB00B585B0039000230193B2
:10B55C00002300930023012200210398FFF79CFF96
:10B56C0000BF05B05DF804FB00B585B0019001ABE0
:10B57C001846FFF779FF0390019B012202FA03F3AF
:10B58C001946039800F004F800BF05B05DF804FB01
:10B59C0082B001900091019B009AC3F8082500BF6E
:10B5AC0002B0704784B00190019B5B0902930023A9
:10B5BC000393029B002B03D14FF0FF33039300BF87
:10B5CC00019B03F01F030193039A019B22FA03F3DF
:10B5DC0003F00103002B14BF01230023DBB2184638
:10B5EC0004B0704700B583B001900091009B1B68BC
:10B5FC00B3F1FF3F09D0009B1B681846FFF7B4FF5F
:10B60C00009B1B681846FFF778FF009B5B68B3F143
:10B61C00FF3F05D0009B5B6800211846FFF77EFFBB
:10B62C00019B1A68009B9B6919461046FFF712FF95
:10B63C00019B1868009B597D009B1B7D1A46FFF7E8
:10B64C00F4FE019B1868009B1968009B5B681A4606
:10B65C00FFF76DFE009B1B7D012B22D1009B9B688D
:10B66C00B3F1FF3F05D0009B9B6800211846FFF704
:10B67C0055FF009BDB68B3F1FF3F09D0009BDB68F3
:10B68C001846FFF771FF009BDB681846FFF735FF84
:10B69C00019B1868009BD968009B9B681A46FFF7B2
:10B6AC0083FE00BF03B05DF804FB000000B583B05F
:10B6BC0001900B468DF80330019B1B684FF48E7183
:10B6CC001846FFF7C9FD019B1B684FF4A271184681
:10B6DC00FFF7C2FD019B1B680E491846FFF7E3FDFF
:10B6EC00019B1B681846FFF767FD03461A469DF839
:10B6FC00033019461046FFF767FD019B1B6818467F
:10B70C00FFF75AFD03461846FFF78AFD00BF03B04A
:10B71C005DF804FB8000020000B583B00190019B32
:10B72C001B6808491846FFF7D8FD019B1B68184693
:10B73C00FFF742FD03461846FFF780FD00BF03B03C
:10B74C005DF804FB8402020000B587B00190019BF8
:10B75C001B681846FFF708FE0590019B1B681846EE
:10B76C00FFF70AFE0490019B1B681846FFF70CFEBE
:10B77C000390019B1B681846FFF70EFE0290019B7D
:10B78C001B681846FFF7E2FD019B1B681846FFF784
:10B79C001AFE059BB3F1FF3F02D00598FFF7D3FECD
:10B7AC00049BB3F1FF3F02D00498FFF7CCFE029B41
:10B7BC00B3F1FF3F02D00298FFF7C5FE039BB3F134
:10B7CC00FF3F02D00398FFF7BEFE00BF07B05DF845
:10B7DC0004FB000000B587B0039002910192029B1C
:10B7EC00002B03D12D49AA20FAF738FE039B1B79B5
:10B7FC001A462C2302FB03F3294A13440493002317
:10B80C000593049B93F82A30002B03D0082305934F
:10B81C00059B3EE0039B1A68039B1B791946214B41
:10B82C0053F8213019461046FFF702FC0346002B53
:10B83C0003D011230593059B2BE002990398FFF786
:10B84C00D1FE049B019A5A60029B1A69049B1A60F0
:10B85C00049B5B68002B05D0029B1B7F1946039849
:10B86C00FFF724FF039B1B681846FFF74EFD049B54
:10B87C0000229A61049B0022DA61049B002283F867
:10B88C002920049B00225A61049B012283F82A2060
:10B89C00059B184607B05DF804FB00BF701D030044
:10B8AC0080250020F41D030000B585B00190019B9C
:10B8BC001B791A462C2302FB03F3114A13440393FE
:10B8CC00019B1B681846FFF729FD039B5B68002B47
:10B8DC0002D00198FFF720FF0198FFF735FF019B7D
:10B8EC001B681846FFF7E6FB039B002283F82A200F
:10B8FC00039B00225A6000BF05B05DF804FB00BF3B
:10B90C008025002000B585B0019000914FF48E7118
:10B91C000198FFF7A1FC009B9A68009B1B6A1344DB
:10B92C001B788DF80F30009B1B6A5A1C009B1A6207
:10B93C009DF80F3019460198FFF75CFD00BF05B06C
:10B94C005DF804FB00B585B001900091009B5B692C
:10B95C00039316E0009B93F82830DBB2002B01D048
:10B96C00002314E04FF48E710198FFF78AFC034614
:10B97C0083F00103DBB2002BECD100990198FFF7A7
:10B98C00C1FF009B1B6A039A9A42EBD8012318460D
:10B99C0005B05DF804FB000000B587B00390029180
:10B9AC000192039B1B791A462C2302FB03F33C4A9E
:10B9BC0013440493049B93F82A30012B04D0394987
:10B9CC004FF48C70FAF74AFD029B002B04D13549D9
:10B9DC0040F21910FAF742FD019B002B04D13149BA
:10B9EC004FF48D70FAF73AFD039800F05DF80346BA
:10B9FC00002B03D011230593059B4CE0049B019A6B
:10BA0C005A61049B029A9A60049B00221A62049B5E
:10BA1C00002283F8282000230593039B1B684FF416
:10BA2C008E711846FFF718FC039B1B6808211846FB
:10BA3C00FFF7EDFC039B1B6804991846FFF762FFA8
:10BA4C00049B5B68002B25D1039B1B68049918464B
:10BA5C00FFF778FF034683F00103DBB2002B02D023
:10BA6C000F23059313E000BF039B1B684FF48E71EB
:10BA7C001846FFF706FC034683F00103DBB2002BEC
:10BA8C00F2D1039B1B680C211846FFF7C0FC049BEA
:10BA9C0000225A61059B184607B05DF804FB00BFF5
:10BAAC0080250020701D030082B00190019B1B7942
:10BABC001946074A2C2301FB03F3134414331B6868
:10BACC00002B14BF01230023DBB2184602B07047D1
