:020000022000DC
:1060000000000120DD6002003561020037610200FE
:10601000396102003B6102003D61020000000000A6
:106020000000000000000000000000003F610200CE
:10603000416102000000000043610200456102006E
:10604000819902004B610200A1A702004F6102008A
:106050005161020053610200C1A4020057610200B5
:10606000596102005B6102005D6102005F61020034
:106070006161020063610200656102006761020004
:10608000696102000DD102006D6102006F610200C2
:106090004DD1020073610200B1FC02007761020081
:1060A000796102007B6102007D6102007F61020074
:1060B00081610200836102004761020047610200C2
:1060C0008561020087610200896102008B61020024
:0C60D0008D6102008F61020091610200EE
:1060DC000F484FF00701884385460E4880470E480D
:1060EC00016841F470010160BFF34F8FBFF36F8FF4
:1060FC0000F04AB809480A490A4A884207D0521A9D
:10610C0005D0037801300B700131013AF9D1704799
:10611C00000001203D6D020088ED00E0D403030077
:10612C00B8220020EC220020FEE7FEE7FEE7FEE7A7
:10613C00FEE7FEE7FEE7FEE7FEE7FEE7FEE7FEE72B
:10614C00FEE7FEE7FEE7FEE7FEE7FEE7FEE7FEE71B
:10615C00FEE7FEE7FEE7FEE7FEE7FEE7FEE7FEE70B
:10616C00FEE7FEE7FEE7FEE7FEE7FEE7FEE7FEE7FB
:10617C00FEE7FEE7FEE7FEE7FEE7FEE7FEE7FEE7EB
:10618C00FEE7FEE7FEE700BF344935480A1A02D0A5
:10619C00072291438D46334933480A1A06D0072209
:1061AC00914381F30988022282F314882F483049E5
:1061BC00304A00F041F830483049314A00F03CF8A0
:1061CC0030483149314A00F037F831483149324AC8
:1061DC0000F032F831483249324A00F02DF832489A
:1061EC003249334A00F028F832483349334A00F038
:1061FC0023F833483349002200F029F83248334958
:10620C00002200F024F832483249091A0AF06AF8E0
:10621C00314A90471F482049884205D00268043013
:10622C0003B4904703BCF7E700208646EC460020F9
:10623C0000212A4A9047FEE7884207D0521A05D01F
:10624C00037801300B700131013AF9D17047884263
:10625C0002D002700130FAE7704700000000012004
:10626C0000E000200000012000000120902003002D
:10627C00EC22002078230020EC620200EC62020089
:10628C000403030090200300EC220020EC220020E9
:10629C0008040300080403000804030008040300B6
:1062AC0008040300080403000804030008040300A6
:1062BC008D2003001C21030078230020782300206C
:1062CC0078230020782C0020782C0020782C0020BB
:1062DC00782C0020784C002001610200A96C02008F
:1062EC0072DF704700BF184673DF704700BF184657
:1062FC0076DF704700BF18467ADF704700BF18463C
:10630C007CDF704700BF18467FDF704700BF184620
:10631C008FDF704700BF1846B1DF704700BF1846CB
:10632C0000B583B00190019B1B681F2B04D9054954
:10633C0040F2C71000F086F84FF0A043184603B0A7
:10634C005DF804FB0804030000B585B00190084615
:10635C0011461A4603468DF803300B468DF8023071
:10636C0013468DF8013001AB1846FFF7D9FF0390A7
:10637C009DF803209DF802305B001A439DF8013014
:10638C009B001A439DF818301B0242EA03019DF84A
:10639C001C301B04019A1943039B02F5E07243F86D
:1063AC00221000BF05B05DF804FB00B585B003906A
:1063BC000023019300230093002301220121039861
:1063CC00FFF7C2FF00BF05B05DF804FB00B585B058
:1063DC00019001AB1846FFF7A3FF0390019B01222C
:1063EC0002FA03F31946039800F018F800BF05B041
:1063FC005DF804FB00B585B0019001AB1846FFF7C2
:10640C008FFF0390019B012202FA03F319460398B4
:10641C0000F00EF800BF05B05DF804FB82B00190EF
:10642C000091019B009AC3F8082500BF02B0704789
:10643C0082B001900091019B009AC3F80C2500BF1B
:10644C0002B0704700B583B003460091ADF806303A
:10645C00BDF80630009A1946034806F09FF800BFB5
:10646C0003B05DF804FB00BFEFBEADDE08B5112034
:10647C00FFF79BFF1220FFF798FF1320FFF795FF04
:10648C0000BF08BD00B583B006F060FE0190019B13
:10649C000093009B002B04D0044AA721009806F01F
:1064AC007DF800BF03B05DF804FB00BF38040300A7
:1064BC0000B587B09DF80030012262F303038DF81C
:1064CC0000309DF80030012262F307138DF8003084
:1064DC006B4606221A491846FFF712FF0590059BDA
:1064EC000493049B002B04D0164ABB21049806F09D
:1064FC0055F801AB08220021184609F0C3FE5023C1
:10650C00ADF80430A023ADF806300023ADF8083008
:10651C004FF4C873ADF80A3001AB1846FFF7ECFE28
:10652C000590059B0393039B002B04D0054AC521C2
:10653C00039806F033F800BF07B05DF804FB00BF0A
:10654C00D40403003804030000B583B000210948CB
:10655C0002F0A6FA0190019B0093009B002B04D043
:10656C00054ACE21009806F019F800BF03B05DF87B
:10657C0004FB00BF902300203804030000B5ABB02F
:10658C0041F22353ADF81C30364B9B7C8DF81E30FA
:10659C0017AB3C220021184609F074FE02238DF83B
:1065AC005C3001238DF85E3006238DF85F3008AB2C
:1065BC003C220021184609F065FE0123ADF830306D
:1065CC0007AB0D93284B196817AB284A184601F0F6
:1065DC0008FB2990299B2893289B002B04D0244A44
:1065EC00EC21289805F0DAFF1F4B996808AB214A7B
:1065FC00184601F0F6FA2990299B2793279B002B2C
:10660C0004D01B4AEF21279805F0C8FF01AB1822D4
:10661C000021184609F036FE01238DF819300023AD
:10662C00ADF8103001238DF80430002302930023C1
:10663C008DF818304023039301AB1A460A490E48D3
:10664C00FFF74EFE2990299B2693269B002B04D006
:10665C00074AFE21269805F0A1FF00BF2BB05DF87C
:10666C0004FB00BF78230020F0220020F42200203D
:10667C0038040300FC220020EE22002000B583B079
:10668C000190054A40F20B11019805F087FF00BFFD
:10669C0003B05DF804FB00BF3804030000B583B001
:1066AC0003460091ADF8063013468DF805309DF881
:1066BC000530002B0CD01120FFF788FE0C4B1B88EB
:1066CC001B0443F003030B49184608F057FC0BE07E
:1066DC001120FFF78FFE064B1B881B0443F00303AE
:1066EC000549184608F04AFC00BF03B05DF804FBEE
:1066FC00CC220020DC040300F004030000B587B0BA
:10670C000023029300230193144B019301AB194610
:10671C00134802F0A7FA0590059B0493049B002BE9
:10672C0005D0104A40F23B11049805F037FF0E4B90
:10673C00029302AB19460D4802F01EFD0590059B15
:10674C000393039B002B05D0064A40F2411103989A
:10675C0005F024FF00BF07B05DF804FB896602005A
:10676C00A423002038040300A9660200782300202B
:10677C0000B585B00190019B1B78002B11D10B4B00
:10678C001B883B211846FFF7B3FD0390039B029334
:10679C00029B002B05D0064A40F25711029805F0D7
:1067AC00FDFE00BF05B05DF804FB00BFEC2200202D
:1067BC003804030000B583B00190054A4FF4B17161
:1067CC00019805F0EBFE00BF03B05DF804FB00BFC1
:1067DC003804030000B58BB001AB1C220021184615
:1067EC0009F050FD002301934FF4202302934FF442
:1067FC002033039303238DF810300023ADF81230AF
:10680C0000238DF814300C4B06930C4B079301AB03
:10681C00184601F02BFC0990099B0893089B002B50
:10682C0005D0074A40F27911089805F0B7FE00BF71
:10683C000BB05DF804FB00BF7D670200C16702006E
:10684C003804030000B583B00C4B1B7801211846AB
:10685C00FFF74AFD0190019B0093009B002B05D094
:10686C00074A4FF4C271009805F098FE1320FFF709
:10687C00ADFD00BF03B05DF804FB00BFEE220020AD
:10688C003804030000B58DB001900091019B1B886A
:10689C00562B00F0E880562B00F3F880522B00F0BA
:1068AC00BB80522B00F3F280212B2DDC102BC0F27D
:1068BC00ED80103B112B00F2E98001A252F823F07D
:1068CC001D69020087690200996A0200C969020009
:1068DC00996A0200996A0200996A0200996A020098
:1068EC00996A0200996A0200996A0200996A020088
:1068FC00996A0200996A0200996A0200996A020078
:10690C00996A0200F16902003B2B00F09980BDE00E
:10691C00674B1B881B0443F003036649184608F0B9
:10692C002DFB1220FFF752FD1320FFF763FD019B97
:10693C009A88614B1A80604B1B8819465F4802F09D
:10694C00B3F90B900B9B0493049B002B05D05C4A72
:10695C0040F29B11049805F021FE05F075FD0B909B
:10696C000B9B0393039B002B00F09280544A40F244
:10697C009D11039805F012FE8AE04D4B1B881B04F9
:10698C0043F003034F49184608F0F8FA1220FFF7BA
:10699C0031FD494B4FF6FF721A8005F081FD0B90CB
:1069AC000B9B0593059B002B05D0454A40F2A51186
:1069BC00059805F0F3FDFFF745FF74E03E4B188892
:1069CC00002300228521FFF79FFC0B900B9B069365
:1069DC00069B002B5ED03A4A40F2AF11069805F0A8
:1069EC00DDFD57E000238DF8083000238DF80930C9
:1069FC00019B9B8802AA11461846FFF789FC0B9055
:106A0C000B9B0793079B002B46D02D4A40F2BB11E2
:106A1C00079805F0C3FD3FE0274B188800230022A0
:106A2C000021FFF779FC0B900B9B0993099B002B22
:106A3C0034D0234A40F2C111099805F0AFFD2DE086
:106A4C00019B9B8813211846FFF752FC0B900B9B64
:106A5C000893089B002B23D0194A40F2C9110898BF
:106A6C0005F09CFD1CE0019B9B8813211846FFF749
:106A7C003FFC0B900B9B0A930A9B002B12D0104AE5
:106A8C0040F2D1110A9805F089FD0BE000BF0AE035
:106A9C0000BF08E000BF06E000BF04E000BF02E05A
:106AAC0000BF00E000BF00BF0DB05DF804FB00BFED
:106ABC00CC22002004050300EC220020A42300209B
:106ACC00380403001005030000B587B009F066F820
:106ADC000590059B0493049B002B05D0164A4FF49C
:106AEC00F271049805F05AFD0023019301AB19468D
:106AFC00012009F00DF90590059B0393039B002BD6
:106B0C0005D00D4A4FF4F571039805F047FD01AB24
:106B1C00184609F0E9F90590059B0293029B002B9E
:106B2C0005D0054A4FF4F771029805F037FD00BF08
:106B3C0007B05DF804FB00BF3804030000B585B056
:106B4C0003460A468DF8073013468DF806309DF83B
:106B5C0007300D2B2DD11E4B1B881B0443F0030358
:106B6C001C49184608F00AFA1B4B1B889DF8062096
:106B7C001A49184602F052FB0390039B002B21D0BC
:106B8C00039B43F2020293421CD0039B082B19D0A7
:106B9C00039B43F20142934214D0039B0293029B4A
:106BAC00002B0FD00E4A4FF40271029805F0F6FC40
:106BBC0008E09DF807300A4A40F20D21184605F00E
:106BCC00EDFC00E000BF00BF05B05DF804FB00BFAA
:106BDC00CC22002020050300EC220020782300208A
:106BEC003804030000B583B040F266620121094805
:106BFC0005F0AEFB0190019B0093009B002B05D090
:106C0C00054A40F22121009805F0C8FC00BF03B0F2
:106C1C005DF804FB002300203804030000B583B0AA
:106C2C004FF40041002007F08FFE0190019B009370
:106C3C00009B002B05D0064A4FF40A71009805F012
:106C4C00ADFC07F01BFE00BF03B05DF804FB00BFFA
:106C5C003804030000B583B007F086FB0190019B5C
:106C6C000093009B002B05D0044A4FF40D71009843
:106C7C0005F094FC00BF03B05DF804FB380403007E
:106C8C0008B508F0D7F9034683F00103DBB2002BFB
:106C9C0001D007F07FFB00BF08BD000008B5FFF76F
:106CAC00BDFFFFF7E3FBFFF7EDFBFFF79BFFFFF7E4
:106CBC00D1FFFFF709FFFFF7FBFBFFF745FCFFF7E1
:106CCC001DFDFFF75BFCFFF785FD074B1B881B04C5
:106CDC0043F003030549184608F050F9FFF7B2FDDD
:106CEC00FFF7CEFFFCE700BFCC2200203C050300E1
:106CFC00BFF34F8F00BF074BDB6803F4E06205491D
:106D0C00054B1343CB60BFF34F8F00BF00BF00BFD9
:106D1C00FCE700BF00ED00E00400FA05024B034A5B
:106D2C001A6000BF704700BF082300200090D003FA
:106D3C0008B500F069F90346002B06D0A04B1B6880
:106D4C001B0AA04A03F01F03136000F089F90346E5
:106D5C00002B02D09C4B9D4A1A6000F09DF9034613
:106D6C00002B06D09A4B1B685B0B9A4A03F0070367
:106D7C00136000F0BDF90346002B05D0964BDB6881
:106D8C00954A23F08073D36000F0CEF90346002BB4
:106D9C000ED04FF080430022C3F80C214FF08043FB
:106DAC000022C3F810214FF080430022C3F838258D
:106DBC0000F0E6F90346002B02D0884B03221A6040
:106DCC0000F0FAF90346002B0BD0854B05221A6014
:106DDC00844B01221A60844B00221A60834B3F22A1
:106DEC001A6000F005FA0346002B76D04FF0805362
:106DFC007F4AD3F80434C2F820354FF080537C4AD4
:106E0C00D3F80834C2F824354FF08053784AD3F8BD
:106E1C000C34C2F828354FF08053754AD3F810342F
:106E2C00C2F82C354FF08053714AD3F81434C2F8A1
:106E3C0030354FF080536E4AD3F81834C2F83435DD
:106E4C004FF080536A4AD3F81C34C2F840354FF0E7
:106E5C008053674AD3F82034C2F844354FF080533E
:106E6C00634AD3F82434C2F848354FF08053604A53
:106E7C00D3F82834C2F84C354FF080535C4AD3F821
:106E8C002C34C2F850354FF08053594AD3F8303473
:106E9C00C2F854354FF08053554AD3F83434C2F805
:106EAC0060354FF08053524AD3F83834C2F8643509
:106EBC004FF080534E4AD3F83C34C2F868354FF04B
:106ECC0080534B4AD3F84034C2F86C354FF08053A2
:106EDC00474AD3F84434C2F8703500F0A5F903469C
:106EEC00002B05D0434B1B68434A03F04F03136040
:106EFC0000F0C6F90346002B0DD04FF08043D3F8B9
:106F0C00003403F00103002B05D04FF080436FF0E9
:106F1C000102C3F8002400F0DFF90346002B05D072
:106F2C00364B1B68354A43F480631360344BD3F8FB
:106F3C008830334A43F47003C2F88830BFF34F8F64
:106F4C0000BFBFF36F8F00BF4FF01023D3F8003298
:106F5C00002B05DB4FF01023D3F80432002B2BDA77
:106F6C00284B0122C3F8042500BF264BD3F800346C
:106F7C00002BFAD04FF010231522C3F8002200BFCB
:106F8C00204BD3F80034002BFAD04FF010231522ED
:106F9C00C3F8042200BF1B4BD3F80034002BFAD0EB
:106FAC00184B0022C3F8042500BF164BD3F800344D
:106FBC00002BFAD0FFF79CFEFFF7B0FE00BF08BD18
:106FCC00240300104035014074C007400DF0ADBAE9
:106FDC00440200103C050040F0ED00E0A00500402C
:106FEC001056004088560040185600401456004079
:106FFC0000C0004058020010E40E00403C17004056
:10700C0000ED00E000E00140124B1B68DBB2062BE8
:10701C001DD1114B1B6803F00F03002B17D10F4B25
:10702C001B6803F0F003302B01D1012310E00B4B54
:10703C001B6803F0F003402B01D1012308E0074B40
:10704C001B6803F0F003502B01D1012300E0002357
:10705C0018467047E00F00F0E40F00F0E80F00F066
:10706C000A4B1B68DBB2062B0DD1094B1B6803F0D6
:10707C000F03002B07D1074B1B6803F0F003302BD9
:10708C0001D1012300E0002318467047E00F00F007
:10709C00E40F00F0E80F00F0124B1B68DBB2062B7C
:1070AC001DD1114B1B6803F00F03002B17D10F4B95
:1070BC001B6803F0F003302B01D1012310E00B4BC4
:1070CC001B6803F0F003402B01D1012308E0074BB0
:1070DC001B6803F0F003502B01D1012300E00023C7
:1070EC0018467047E00F00F0E40F00F0E80F00F0D6
:1070FC000A4B1B68DBB2062B0DD1094B1B6803F046
:10710C000F03002B07D1074B1B6803F0F003302B48
:10711C0001D1012300E0002318467047E00F00F076
:10712C00E40F00F0E80F00F0124B1B68DBB2062BEB
:10713C001DD1114B1B6803F00F03002B17D10F4B04
:10714C001B6803F0F003302B01D1012310E00B4B33
:10715C001B6803F0F003402B01D1012308E0074B1F
:10716C001B6803F0F003502B01D1012300E0002336
:10717C0018467047E00F00F0E40F00F0E80F00F045
:10718C000A4B1B68DBB2062B0DD1094B1B6803F0B5
:10719C000F03002B07D1074B1B6803F0F003302BB8
:1071AC0001D1012300E0002318467047E00F00F0E6
:1071BC00E40F00F0E80F00F00A4B1B68DBB2062B63
:1071CC000DD1094B1B6803F00F03002B07D1074BA4
:1071DC001B6803F0F003302B01D1012300E00023E6
:1071EC0018467047E00F00F0E40F00F0E80F00F0D5
:1071FC000A4B1B68DBB2062B0DD1094B1B6803F045
:10720C000F03002B07D1074B1B6803F0F003502B27
:10721C0001D1012300E0002318467047E00F00F075
:10722C00E40F00F0E80F00F0124B1B68DBB2062BEA
:10723C001DD1114B1B6803F00F03002B17D10F4B03
:10724C001B6803F0F003302B01D1012310E00B4B32
:10725C001B6803F0F003402B01D1012308E0074B1E
:10726C001B6803F0F003502B01D1012300E0002335
:10727C0018467047E00F00F0E40F00F0E80F00F044
:10728C00124B1B68DBB2062B1DD1114B1B6803F094
:10729C000F03002B17D10F4B1B6803F0F003302B9F
:1072AC0001D1012310E00B4B1B6803F0F003402BC2
:1072BC0001D1012308E0074B1B6803F0F003502BAE
:1072CC0001D1012300E0002318467047E00F00F0C5
:1072DC00E40F00F0E80F00F0064B1B68062B05D1FD
:1072EC00054B1B68062B01D1012300E00023184637
:1072FC00704700BF30010010340100106DDF704783
:10730C0000BF184679DF704700BF18467DDF704715
:10731C0000BF184664DF704700BF184682B00346B2
:10732C000091ADF80630BDF80630DAB2009B1A7049
:10733C00BDF806301B0A9AB2009B0133D2B21A7008
:10734C000223184602B0704700B589B00390029131
:10735C001346ADF80630029B1B8803F10902BDF8F9
:10736C0006309A4201D90C2353E004AB1846FFF7C0
:10737C00C5FF0790079B0693069B002B01D0069B2D
:10738C0047E0029B1B881A46039B134408221A7081
:10739C00029B1B8801339AB2029B1A80029B1B88AA
:1073AC001A46039B13441B221A70029B1B88013341
:1073BC009AB2029B1A80029B1B881A46039B981850
:1073CC0004AB01330622194608F026FF029B1B88EA
:1073DC0006339AB2029B1A809DF8103023F00103F9
:1073EC00DBB2002B07D1029B1B881A46039B13446C
:1073FC0000221A7006E0029B1B881A46039B13445A
:10740C0001221A70029B1B8801339AB2029B1A80CC
:10741C000023184609B05DF804FB00B589B0039051
:10742C0002910192ADF80230039B1B78012B05D120
:10743C00039B5B78002B01D107238BE0019B1B88FE
:10744C009A1CBDF802309A420ED8039B1B78012B74
:10745C000CD1019B1B881A46039B5B7813449A1C26
:10746C00BDF802309A4201D90C2373E0019B1B88B2
:10747C00BDF80220D31A9BB2023BADF81C30BDF80C
:10748C001C30ADF81230019B1B880233029A134456
:10749C000DF1120211461846FFF738FF0690069BB5
:1074AC000593059B002B01D0059B53E0039B1B7898
:1074BC00022B09D1BDF81230BDF81C209A4203D31F
:1074CC0009238DF81F3017E008238DF81F30039B1C
:1074DC001B78012B0CD1039B5B789BB2BDF81C2055
:1074EC009A4205D3039B5B789BB2ADF8123003E054
:1074FC00BDF81C30ADF81230BDF81230FE2B01D99E
:10750C000C2327E0BDF81230DAB2019B1B88194618
:10751C00029B0B440132D2B21A70019B1B880133BF
:10752C009AB2019B1A80019B1B881A46029B13443A
:10753C009DF81F201A70019B1B8801339AB2019B86
:10754C001A80019B1A88BDF8123013449AB2019B21
:10755C001A800023184609B05DF804FB00B589B009
:10756C00039002911346ADF80630029B1B881A1D3E
:10757C00BDF806309A4201D90C233BE00DF11603FD
:10758C001846FFF7BFFE0790079B0693069B002B40
:10759C0001D0069B2EE0029B1B881A46039B1344CA
:1075AC0003221A70029B1B8801339AB2029B1A8029
:1075BC00029B1B881A46039B134419221A70029BC8
:1075CC001B8801339AB2029B1A80BDF81620029BCD
:1075DC001B881946039B0B4419461046FFF79EFE69
:1075EC0003461946029B1A888BB213449AB2029B2B
:1075FC001A800023184609B05DF804FB84B0029190
:10760C0001921A4603468DF80F301346ADF80C3034
:10761C00019B1B88DA1CBDF80C309A4201D90C2353
:10762C0028E0019B1B881A46029B134402221A7005
:10763C00019B1B8801339AB2019B1A80019B1B880A
:10764C001A46029B134401221A70019B1B880133BA
:10765C009AB2019B1A80019B1B881A46029B134409
:10766C009DF80F201A70019B1B8801339AB2019B65
:10767C001A800023184604B0704784B0029101921E
:10768C001A4603468DF80F301346ADF80C30019BAB
:10769C001B88DA1CBDF80C309A4201D90C2328E067
:1076AC00019B1B881A46029B134402221A70019BF1
:1076BC001B8801339AB2019B1A80019B1B881A46C6
:1076CC00029B13440A221A70019B1B8801339AB245
:1076DC00019B1A80019B1B881A46029B13449DF840
:1076EC000F201A70019B1B8801339AB2019B1A80E0
:1076FC000023184604B0704700B58FB00390019377
:10770C000B468DF80B3013468DF80A3000238DF89C
:10771C003330109B1B88ADF8303000230D9371E093
:10772C00039B5A680D9B9B001A4405AB10681860AC
:10773C000DF11B0105AB00221846FFF7EBFD0A907B
:10774C000A9B0993099B002B01D0099B7CE09DF8B7
:10775C001B309DF80A209A4251D19DF83330002BF2
:10776C0001D0002300E002238DF82330109B1B88EE
:10777C001A469DF81B301A449DF823301A44BDF864
:10778C0044309A4201DD0C235EE09DF8333083F0E7
:10779C000103DBB2002B16D0109B1B8801339AB26D
:1077AC00109B1A80109B1B881A46019B13449DF852
:1077BC000B201A70109B1B8801339AB2109B1A80F5
:1077CC0001238DF83330109B1B881A46019B1A44F9
:1077DC000DF11B0105AB1846FFF79CFD0A900A9BA7
:1077EC000793079B002B01D0079B2DE0109B1A8859
:1077FC009DF81B309BB213449AB2109B1A800D9BC0
:10780C0001330D93039B1B881A460D9B934287DB18
:10781C009DF83330002B16D0109B1A88BDF83030F1
:10782C00D31A9BB2013BADF82E30BDF82E30FF2B96
:10783C0001D90C2308E0BDF83030019A1344BDF88F
:10784C002E20D2B21A70002318460FB05DF804FB3C
:10785C0000B58BB0059003930B468DF8133013468F
:10786C008DF812309DF81310BDF8343001930C9B39
:10787C000093039B02220598FFF73EFF0990099B9A
:10788C000893089B002B01D0089B14E09DF8121064
:10789C00BDF8343001930C9B0093039B1022059888
:1078AC00FFF72AFF0990099B0793079B002B01D038
:1078BC00079B00E0002318460BB05DF804FB82B078
:1078CC000190019B1B88052B0AD9019B1B88B3F5E2
:1078DC00486F07D9019B1B884FF6FF72934201D06A
:1078EC00072325E0019B5B88052B0AD9019B5B884C
:1078FC00B3F5486F07D9019B5B884FF6FF72934233
:10790C0001D0072314E0019B1B884FF6FF729342B2
:10791C000DD0019B5B884FF6FF72934207D0019B01
:10792C001A88019B5B889A4201D9072300E0002347
:10793C00184602B0704700B587B0039002910192CF
:10794C00ADF80230019B1B889A1DBDF802309A429B
:10795C0001D90C234DE00398FFF7B1FF0590059B6F
:10796C000493049B002B01D0049B42E0019B1B88D9
:10797C001A46029B134405221A70019B1B88013383
:10798C009AB2019B1A80019B1B881A46029B1344D6
:10799C0012221A70019B1B8801339AB2019B1A8028
:1079AC00039B1A88019B1B881946029B0B441946A2
:1079BC001046FFF7B3FC03461946019B1A888BB29D
:1079CC0013449AB2019B1A80039B5A88019B1B8813
:1079DC001946029B0B4419461046FFF79FFC0346C1
:1079EC001946019B1A888BB213449AB2019B1A80D8
:1079FC000023184607B05DF804FB00B587B0039070
:107A0C0002910192ADF80230039B9B8802330593DF
:107A1C00019B1B881A46059B13449A1CBDF8023027
:107A2C009A4201D90C2354E0059BFE2B01D90C235F
:107A3C004FE0059BDAB2019B1B881946029B0B4455
:107A4C000132D2B21A70019B1B8801339AB2019B8E
:107A5C001A80019B1B881A46029B1344FF221A7042
:107A6C00019B1B8801339AB2019B1A80039B1A88D5
:107A7C00019B1B881946029B0B4419461046FFF7C5
:107A8C004DFC03461946019B1A888BB213449AB2DB
:107A9C00019B1A80039B9B88002B19D0039B9B682E
:107AAC00002B01D1072314E0019B1B881A46029B73
:107ABC009818039B9968039B9B881A4608F0ACFBAB
:107ACC00019B1A88039B9B8813449AB2019B1A80D2
:107ADC000023184607B05DF804FB00B589B003908D
:107AEC0002910192ADF80230039B9B6A002B01D1ED
:107AFC00072372E000238DF81F3066E0039B996A20
:107B0C009DF81F2013465B0013449B000B44069307
:107B1C00069B9B8802330593059BFE2B01D90C23F6
:107B2C005BE0059BDAB2019B1B881946029B0B4458
:107B3C000132D2B21A70019B1B8801339AB2019B9D
:107B4C001A80019B1B881A46029B134416221A703A
:107B5C00019B1B8801339AB2019B1A80069B1A88E1
:107B6C00019B1B881946029B0B4419461046FFF7D4
:107B7C00D5FB03461946019B1A888BB213449AB263
:107B8C00019B1A80069B9B88002B19D0069B9B6837
:107B9C00002B01D1072320E0019B1B881A46029B76
:107BAC009818069B9968069B9B881A4608F034FB2C
:107BBC00019B1A88069B9B8813449AB2019B1A80DE
:107BCC009DF81F3001338DF81F30039B93F82C3038
:107BDC009DF81F209A4291D30023184609B05DF8F6
:107BEC0004FB00B595B00590049103920023139308
:107BFC00039B1B88ADF84A30039B00221A80059B1F
:107C0C0093F82D30002B0ED0BDF84A301A4603994C
:107C1C000498FFF799FB1390139B1193119B002B66
:107C2C0001D0119BD8E0059B9B78002B0ED0BDF8A2
:107C3C004A301A4603990498FFF790FC1390139B53
:107C4C001093109B002B01D0109BC5E0059BDB789B
:107C5C00002B10D0059BDB7858B2BDF84A30039A44
:107C6C000499FFF7CBFC1390139B0F930F9B002BE6
:107C7C0001D00F9BB0E0059B5B68002B11D0059BDE
:107C8C005B6893F90000BDF84A30039A0499FFF73A
:107C9C00F4FC1390139B0E930E9B002B01D00E9BA8
:107CAC009AE0059B1B89002B14D0059B03F108005F
:107CBC00BDF84A300193039B0093049B06220221DA
:107CCC00FFF7C6FD1390139B0D930D9B002B01D05A
:107CDC000D9B81E0059B1B8A002B14D0059B03F1A7
:107CEC001000BDF84A300193039B0093049B0722BC
:107CFC000321FFF7ADFD1390139B0C930C9B002BF2
:107D0C0001D00C9B68E0059B1B8B002B14D0059BB2
:107D1C0003F11800BDF84A300193039B0093049BB8
:107D2C0015221421FFF794FD1390139B0B930B9BBF
:107D3C00002B01D00B9B4FE0059B1B6A002B0FD037
:107D4C00059B186ABDF84A30039A0499FFF7F3FDB6
:107D5C001390139B0A930A9B002B01D00A9B3BE0C8
:107D6C00059B5B6A002B0FD0059B586ABDF84A3007
:107D7C00039A0499FFF741FE1390139B0993099BF7
:107D8C00002B01D0099B27E0059B93F82C30002B8E
:107D9C000ED0BDF84A30039A04990598FFF79DFE62
:107DAC001390139B0893089B002B01D0089B13E0A6
:107DBC00059B1B78002B0ED0BDF84A30039A049912
:107DCC000598FFF72AFB1390139B0793079B002B37
:107DDC0001D0079B00E0139B184615B05DF804FB1F
:107DEC0075DF704700BF184676DF704700BF184636
:107DFC007ADF704700BF18467BDF704700BF18461C
:107E0C0084B00346ADF806300023039316E00F4907
:107E1C00039A13469B0013449B000B441B88BDF82C
:107E2C0006209A4207D1039A13469B0013449B00E9
:107E3C00064A134406E0039B01330393039B002B78
:107E4C00E5D00023184604B0704700BF1024002072
:107E5C0082B001900B46ADF80230019BBDF80220B8
:107E6C001A80019B00221A72019B054903F10A0238
:107E7C000B4603CB1060516000BF02B0704700BFCF
:107E8C004024002082B00190019B4FF6FF721A80B3
:107E9C0000BF02B0704788B00390029111461A4699
:107EAC000B46ADF806301346ADF80430039B9B88A7
:107EBC001A46BDF8063013440793039B9B8819465A
:107ECC00039B9B88BDF80620934228BF13469BB2A8
:107EDC00CB1A0693039BDB881A46BDF80430134477
:107EEC000593039BDB881946039BDB88BDF80420B4
:107EFC00934228BF13469BB2CB1A0493029B5A8819
:107F0C00039B1B889A4205D3029B5A88039B5B8870
:107F1C009A4201D900231CE0029B9B881A46069BBF
:107F2C00934205D8029B9B881A46079B934201D229
:107F3C0000230EE0029BDB881A46049B934205D873
:107F4C00029BDB881A46059B934201D2002300E07A
:107F5C000123184608B0704700B583B00190064B5A
:107F6C009B69002B03D0044B9B690198984700BF79
:107F7C0003B05DF804FB00BF2424002000B585B0DD
:107F8C0003460091ADF80630BDF80630009918464E
:107F9C00FFF726FF0390039B002B05D0039B112BAF
:107FAC0002D00398FFF7D8FF039B002B0CBF0123D3
:107FBC000023DBB2184605B05DF804FB00B589B0B0
:107FCC000190019B0793079B9BB21846FFF718FF84
:107FDC000690069B002B42D0069B1A7A224B1B7BE9
:107FEC009A4215D2079B9AB2069B0A331946104641
:107FFC00FFF7C4FF03468DF813309DF81330002BA8
:10800C002DD0069B1B7A0133DAB2069B1A7226E03E
:10801C00069B00221A72144B1B7C002B0FD0079B63
:10802C009BB23B211846FFF7DFFE0590059B002B0A
:10803C0005D0059B082B02D00598FFF78DFF0A4B46
:10804C005B69002B0BD000238DF80C30079B9BB287
:10805C00ADF80E30044B5B6903AA1046984700BF7D
:10806C0009B05DF804FB00BF2424002030B587B0B4
:10807C000190019B002B01D10E2353E02B4A019B55
:10808C0014461D460FCD0FC495E8070084E8070081
:10809C00264B274A1A60019B1B68002B11D0019BB1
:1080AC001B681846FFF7A4FE0490049B002B01D01C
:1080BC00049B37E0019B1A681D4B1068516803C381
:1080CC0008E01B48FFF798FE0490049B002B01D09E
:1080DC00049B27E00023059320E0059A13469B00A0
:1080EC0013449B00134A134403930398FFF7CAFEEF
:1080FC00059B5B01104A1A44039B5A60039B043393
:10810C000E4A0021184605F055F80490049B002BEC
:10811C0001D0032306E0059B01330593059B002B3F
:10812C00DBD00023184607B030BD00BF242400204C
:10813C004024002010240020F0230020C97F0200DE
:10814C0000B587B003460091ADF80630009B5B7A12
:10815C00002B1AD1009B1B7A002B03D1164B5B68AA
:10816C00059302E0144B9B680593009B5B68BDF87C
:10817C0006200599184605F04DF80490049B002B39
:10818C0016D00498FFF7E8FE12E0009B00221A724A
:10819C00094B5B69002B0BD001238DF80C30BDF81B
:1081AC000630ADF80E30044B5B6903AA10469847B5
:1081BC0000BF07B05DF804FB2424002000B585B097
:1081CC000190019BDB7B8DF80F30019B9B88ADF8F8
:1081DC000C309DF80F30012B2CD14FF6FF70FFF7B0
:1081EC000FFE0290029B002B03D10420FFF7B4FE7C
:1081FC0021E0BDF80C3019460298FFF729FE029BCE
:10820C0003F10A00019B03F110014FF6FF7340F2DA
:10821C00F312FFF740FE03461A46029B5A72074BB5
:10822C00DB89002B07D1BDF80C3002991846FFF7FB
:10823C0087FF00E000BF05B05DF804FB242400209C
:10824C0000B587B00190019B9B88ADF81630BDF846
:10825C0016301846FFF7D4FD0490049B002B0ED06B
:10826C00049B5B68184605F007F80390039B002BF2
:10827C0002D00398FFF770FE0498FFF703FE00BFCF
:10828C0007B05DF804FB000000B587B00190019BBE
:10829C0006330593059B1A88194BDB899A422BD11F
:1082AC00059B5B89022B27D1019B9B88ADF8123073
:1082BC00BDF812301846FFF7A3FD0390039B002B6B
:1082CC001AD0059B0C33184600F0BCF90346002B62
:1082DC0006D0BDF8123003991846FFF731FF0BE0BA
:1082EC00039B5B68184604F0C7FF0290029B002BAF
:1082FC0002D00298FFF730FE00BF07B05DF804FB18
:10830C002424002000B585B00190019B9B88ADF81A
:10831C000E30BDF80E301846FFF772FD0290029B2E
:10832C00002B15D0029B03F10A00019B03F10801FD
:10833C004FF6FF7340F2F312FFF7ADFD03461A46FA
:10834C00029B5A72BDF80E3002991846FFF7F8FEE0
:10835C0000BF05B05DF804FB00B583B0019000913F
:10836C00019B1B88502B12D0502B18DC122B12D0D7
:10837C00122B14DC102B02D0112B04D00FE001981F
:10838C00FFF71CFF0CE00198FFF75AFF08E001987B
:10839C00FFF77AFF04E00198FFF7B4FF00E000BF9D
:1083AC0000BF03B05DF804FB30B58FB001900091B5
:1083BC0000230293009B002B1AD000230D9314E092
:1083CC006B460D99184605F06BF80346002B09D047
:1083DC00029B5A1C02920D9A92B25B0038336B448A
:1083EC0023F82C2C0D9B01330D930D9B132BE7D9EC
:1083FC00019B1D4602AC0FCC0FC50FCC0FC594E8EA
:10840C00070085E8070001980FB030BD00B583B0B8
:10841C000346ADF80630BDF80630132B01D9002306
:10842C000CE0BDF806301946064805F008F8BDF812
:10843C0006301946044805F002F80123184603B02B
:10844C005DF804FB502400204C24002000B585B0BE
:10845C000346ADF80630002303930DE0039B9B000D
:10846C00094A13440433BDF806201146184604F09B
:10847C00FEFF039B01330393039B1C2BEED900BF20
:10848C0000BF05B05DF804FB4824002000B583B0A4
:10849C000346ADF80630BDF806301946034804F023
:1084AC00E6FF00BF03B05DF804FB00BF50240020C2
:1084BC0030B59BB0184B9B68DB431893164B5A682E
:1084CC0018AB1146184605F04AF8189A6B46114637
:1084DC001846FFF769FF0DAC6D460FCD0FC40FCDDD
:1084EC000FC495E8070084E80700002319930BE0FC
:1084FC00199B5B0068336B4433F8303C1846FFF72C
:10850C00A5FF199B013319930D9B199A9A42EFD32E
:10851C0000BF00BF1BB030BD4824002000B585B0A3
:10852C0001900091019B9B88ADF80E30019B1B883C
:10853C001A2B2AD01A2B68DC102B02D0112B1ED030
:10854C0063E0FFF7B5FFBDF80E301846FFF75EFF8E
:10855C00034683F00103DBB2002B05D02D4AE32147
:10856C00042004F01BF84FE0019BDB7B012B4BD06C
:10857C00BDF80E301946284804F061FF44E0BDF800
:10858C000E301846FFF782FF3FE0019B1B7AC3F3C6
:10859C000313DBB2012B8CBF012300238DF80D30AC
:1085AC00019B1B7AC3F30313DBB2022B8CBF012399
:1085BC0000238DF80C309DF80D30002B17D0BDF832
:1085CC000E301946154804F03AFF9DF80C30002B7C
:1085DC0006D0BDF80E301946114804F030FF14E0F7
:1085EC00BDF80E3019460E4804F041FF0DE0BDF801
:1085FC000E301946094804F03AFFBDF80E30194602
:10860C00074804F034FF00E000BF00BF05B05DF880
:10861C0004FB00BF54050300542400205824002000
:10862C005C24002082B00190019B1B781AB2019B44
:10863C0001331B781B021BB213431BB29BB21846AF
:10864C0002B0704700B585B001900198FFF7EAFFC2
:10865C000346ADF80E30BDF80E3003F00103002BCD
:10866C0014BF01230023DBB2184605B05DF804FBF0
:10867C0090DF704700BF1846A5DF704700BF184653
:10868C00B5DF704700BF184682B00190019B1722DE
:10869C001A80019B17225A80019B00221A71019BA0
:1086AC0000225A71019B1B229A71019B1B22DA71C9
:1086BC0000BF02B07047000030B589B003460A46CF
:1086CC00ADF806301346ADF80430BDF80430ADF803
:1086DC001430BDF80430ADF816300023ADF8183066
:1086EC000023ADF81A3003AB00221A609A8003AA5B
:1086FC0005A9BDF806301846FFF7BAFF0790079B8F
:10870C00002B36D01D4B1B881B0443F001031D4668
:10871C00BDF80640079805F0BDFE034622461849F1
:10872C00284606F04AFCBDF80C30002B03D1BDF8EE
:10873C000E30002B0DD0114B1B881B0443F0010392
:10874C001846BDF80C301A46BDF80E300D4906F02F
:10875C0034FCBDF81030002B0BD0084B1B881B04CD
:10876C0043F001031846BDF810301A46064906F0CE
:10877C0013FC079B184609B030BD00BFD82200205F
:10878C00E4050300300603007006030010B586B044
:10879C0001900091009B9B88ADF80E30BDF80E3017
:1087AC00DB00019A134406330593019B1A79059B50
:1087BC009A71009BDB7B012B02D0022B05D009E0C8
:1087CC00019B1A88059B1A8004E0019B5A88059B23
:1087DC001A8000BF059B1A88059B5B889A4225D995
:1087EC00059B1A88BDF80E3011461846FFF744FF5A
:1087FC000490049B002B03D1059B01225A7115E0B8
:10880C00049B112B03D1059B01221A710EE0104B16
:10881C001B881B0443F001031C46049805F03AFE28
:10882C0003461A460B49204606F0B6FB059B9A797F
:10883C00059BDB799A4208D9059B9B799AB2BDF8C6
:10884C000E3011461846FFF737FF00BF06B010BDBB
:10885C00D8220020C806030000B583B00190009117
:10886C00009B9B88DB00019A134406331846FFF7E4
:10887C000BFF00BF03B05DF804FB00B587B001909F
:10888C000091009B9B88ADF81630009B5B89ADF87E
:10889C001430BDF81630DB00019A134406330493F0
:1088AC00049B1B88BDF81420934228BF13469AB230
:1088BC00049B5A80049B5B88172B38BF17239AB2F2
:1088CC00049B5A80019B1B69002B15D0049B5B7980
:1088DC00002B11D040F67723ADF80830BDF81630D8
:1088EC00ADF80A30049B5B88ADF80C30019B1B691A
:1088FC0002AA114601989847049B00225A71049BC6
:10890C0000221A7100BF07B05DF804FB10B588B0E7
:10891C0001900091009B9B88ADF81A30009BDB887E
:10892C00ADF81830BDF81A30DB00019A1344063349
:10893C000593BDF81830172B38BF1723ADF8183036
:10894C00059B1B88BDF81820934228BF13469AB28A
:10895C00059B5A80059B00221A71059B1A88BDF84D
:10896C001A3011461846FFF78BFE0790079B002B19
:10897C000ED0164B1B881B0443F001031C460798B2
:10898C0005F088FD03461A461149204606F004FB03
:10899C00059B5B79002B16D1019B1B69002B13D017
:1089AC0040F67723ADF80C30BDF81A30ADF80E3028
:1089BC00059B5B88ADF81030019B1B6903AA11461F
:1089CC000198984700E000BF08B010BDD8220020E5
:1089DC00FC06030030B591B001900091009B04ACF3
:1089EC001D1D0FCD0FC40FCD0FC495E8070084E8F3
:1089FC000700BDF81030ADF83E30BDF81420BDF8BE
:108A0C003E30D1B2019ADB0013440A465A73019BE3
:108A1C001B69002B19D002AB00221A609A804DF60C
:108A2C007A23ADF80830BDF83E30ADF80A30BDF809
:108A3C003E30019ADB0013445B7B8DF80C30019BBC
:108A4C001B6902AA11460198984700BF11B030BDAE
:108A5C0000B587B001900091009B04330593059BF2
:108A6C001B88DB00019A134406330493059B9B88F7
:108A7C008DF80F30049B9B799DF80F20934228BFF3
:108A8C0013468DF80E30059B1B889DF80E2092B274
:108A9C0011461846FFF710FE00BF07B05DF804FB47
:108AAC0000B585B001900091019B002B01D10E23E4
:108ABC001DE0019B009A1A61019B17221A80019BF1
:108ACC0017225A80019B1B221A71002303930AE080
:108ADC00039BDB00019A134406331846FFF7D4FDC1
:108AEC00039B01330393039B002BF1D00023184607
:108AFC0005B05DF804FB000010B586B00190009144
:108B0C00009B0593019B9B88ADF81230BDF8123089
:108B1C00002B40F09780019B1B88552B48D0552B80
:108B2C0055DC242B32DC102B51DB103B142B4ED894
:108B3C0001A252F823F000BF9F8B0200A98B020008
:108B4C00DB8B0200DB8B0200DB8B0200DB8B020079
:108B5C00DB8B0200DB8B0200DB8B0200DB8B020069
:108B6C00DB8B0200DB8B0200DB8B0200DB8B020059
:108B7C00DB8B0200DB8B0200DB8B0200DB8B020049
:108B8C00DB8B0200D18B0200C78B02003A2B0AD080
:108B9C001DE001990598FFF7F9FD19E00199059879
:108BAC00FFF75AFE14E001990598FFF766FE0FE0F7
:108BBC0001990598FFF7AAFE0AE001990598FFF7BD
:108BCC0009FF05E001990598FFF742FF00E000BF9F
:108BDC00BDF81230059ADB0013449B7A002B32D07F
:108BEC00BDF81230059ADB001344DA88BDF8123058
:108BFC0011461846FFF740FD0390039B002B0ED146
:108C0C00BDF81230059ADB00134400229A72BDF8AD
:108C1C001230059ADB0013440122DA7213E0039B35
:108C2C00112B10D0094B1B881B0443F001031C466D
:108C3C00039805F02FFC03461A460549204606F01A
:108C4C00ABF900E000BF06B010BD00BFD822002079
:108C5C00C8060300B0DF704700BF184666DF7047D8
:108C6C0000BF184682B001900091019B002B01D1EE
:108C7C000E2316E0009B002B01D10E2311E0019B6B
:108C8C001B78DE2B01D108230BE0009B1A68019B9B
:108C9C005A60019BDE221A70019B4FF6FF725A80BC
:108CAC000023184602B0704782B001900B46ADF815
:108CBC000230019B002B01D10E230AE0019B1B7893
:108CCC00DE2B01D0082304E0019BBDF802205A8062
:108CDC000023184602B0704700B585B00190019B87
:108CEC001B7A002B18D0019B5B8800211846FFF7DC
:108CFC00B5FF0390039B002B03D1019B00221A723A
:108D0C000AE0039B112B03D1019B01221A7203E091
:108D1C00019B5B680398984700BF05B05DF804FBA6
:108D2C0000B583B001900091009B1B79012B0BD1F6
:108D3C00009B1A88019B5B889A4205D1019B0122FA
:108D4C001A720198FFF7C8FF00BF03B05DF804FB6F
:108D5C0082B00190009100BF02B0704700B589B09D
:108D6C0001900091009B1A88019B5B889A4236D136
:108D7C00009B02330793079B1B78022B31D1079B77
:108D8C001B7A042B07D0079B1B7A062B03D0079B5F
:108D9C001B7A052B27D102AB00221A605A609A600D
:108DAC00DA6002238DF808304FF4C073ADF80C3044
:108DBC00079B1B7A052B02D10023ADF80C30009BCE
:108DCC001B8802AA11461846FFF744FF0690069B23
:108DDC00002B09D0019B5B680698984704E000BF04
:108DEC0002E000BF00E000BF09B05DF804FB00B575
:108DFC0085B001900091009B002B43D0019B002B70
:108E0C0040D0009B0393039B1B78DE2B3AD1019B34
:108E1C009A88039B5B889A4202D10398FFF75CFF08
:108E2C00019B1B88512B18D0512B28DC112B1BD0EC
:108E3C00112B24DC012B02D0022B07D01FE0019B4D
:108E4C00043319460398FFF76BFF1BE0019B0433B7
:108E5C0019460398FFF77CFF14E0019B0433194675
:108E6C000398FFF77BFF0DE0019B9A88039B5B88BF
:108E7C009A4206D1039B4FF6FF725A8001E000BF65
:108E8C0000E000BF05B05DF804FBA8DF704700BF31
:108E9C001846AADF704700BF1846AEDF704700BF08
:108EAC00184662DF704700BF184600B585B00190C8
:108EBC000091009B06330393039B1A88019B5B88EC
:108ECC009A420FD1039B5B89012B0BD1019B5B69F0
:108EDC00002B07D0019B5B69009A9088039A127B48
:108EEC000199984700BF05B05DF804FB00B585B04B
:108EFC0001900091009B0393019B1B88502B04D184
:108F0C0001990398FFF7D1FF00E000BF00BF05B047
:108F1C005DF804FB00B591B00190009109AB1C22E7
:108F2C000021184607F0AEF99DF8243043F00203F7
:108F3C008DF824309DF8243043F008038DF824304C
:108F4C0000230A9300230C9300230D9300230E930C
:108F5C0000230F93019B9B7C8DF80E3041F225531F
:108F6C00ADF80C3002AB03220021184607F08AF949
:108F7C009DF80830012262F303038DF808309DF848
:108F8C000830012262F307138DF808309DF8093080
:108F9C00012262F303038DF809309DF80930012298
:108FAC0062F307138DF809309DF80A30012262F341
:108FBC0042038DF80A309DF80A306FF3C3038DF825
:108FCC000A309DF80A306FF304138DF80A309DF8BF
:108FDC000A306FF300038DF80A3004AB1422002121
:108FEC00184607F04FF903AB049302AB059301232A
:108FFC00ADF818300023ADF81A300123ADF81C3051
:10900C0000230893019B1888019B023304AA09A929
:10901C00FFF73FFF0346184611B05DF804FB00B59F
:10902C0093B0019000910AAB03220021184607F07F
:10903C0029F99DF82830012262F303038DF82830BA
:10904C009DF82830012262F307138DF828309DF823
:10905C002930012262F303038DF829309DF8293061
:10906C00012262F307138DF829309DF82A30012272
:10907C0062F342038DF82A300BAB1C2200211846F8
:10908C0007F000F99DF82C3043F002038DF82C30DA
:10909C009DF82C3043F010038DF82C3000230C93EA
:1090AC0000230E9300230F930AAB1093002311930C
:1090BC00019B9B7C8DF8123041F22453ADF810309B
:1090CC0003AB03220021184607F0DCF89DF80C30A6
:1090DC00012262F303038DF80C309DF80C30012251
:1090EC0062F307138DF80C309DF80D306FF303030A
:1090FC008DF80D309DF80D306FF307138DF80D3092
:10910C009DF80E30012262F342038DF80E309DF86B
:10911C000E306FF3C3038DF80E309DF80E306FF3E5
:10912C0004138DF80E309DF80E306FF300038DF89C
:10913C000E3005AB14220021184607F0A3F804AB3F
:10914C00059303AB06930123ADF81C300023ADF857
:10915C001E300123ADF8203000230993019B1888A1
:10916C00019B0A3305AA0BA9FFF793FE0346184689
:10917C0013B05DF804FB000010B58CB001900091A9
:10918C00009B1A68019B5A61234B02AC0FCB84E8FD
:10919C000F00019B03F1120202AB11461846FFF7B8
:1091AC0080FE0B900B9B0A930A9B002B01D00A9B11
:1091BC002EE0019B9B7C8DF81A3041F22353ADF8C5
:1091CC001830019A06AB19460120FFF75EFE0B9092
:1091DC000B9B0993099B002B01D0099B18E000996C
:1091EC000198FFF71CFF0B900B9B0893089B002B1F
:1091FC0001D0089B0CE000990198FFF78BFE0B90B7
:10920C000B9B0793079B002B01D0079B00E00023CF
:10921C0018460CB010BD00BF2C07030000B589B078
:10922C0003460091ADF8063013468DF80530012346
:10923C00ADF80E3004AB10220021184607F022F8CE
:10924C0001238DF81230009B5B89ADF810300DF1C5
:10925C00050307930DF10E03069304AABDF806301F
:10926C0011461846FFF719FE0346184609B05DF87B
:10927C0004FB000082B003468DF807309DF80730E0
:10928C0003F01F0206499DF907305B09012000FA23
:10929C0002F2203341F8232000BF02B0704700BF18
:1092AC0000E100E008B506F0CFFC034683F00103B3
:1092BC00DBB2002B03D105497920FDF7C3F800F090
:1092CC003FFB034B00229A7000BF08BD440703000C
:1092DC00C024002000B583B000230193144B1B78ED
:1092EC00002B02D0852301931CE0114B00229A60C5
:1092FC000F4B00225A600E4B00221A610C4B0022BD
:10930C00DA600C4800F0E2FA019006F09DFC03468E
:10931C0083F00103DBB2002B01D000F0FDFA044B0B
:10932C0001221A70019B184603B05DF804FB00BFC4
:10933C00C02400201994020084B00190019B1B688A
:10934C000393039B002B03D0039B1A68019B1A60A9
:10935C00039B184604B0704700B583B0164B1B78BE
:10936C00002B04D115494FF48470FDF76BF8124BA8
:10937C00DB68002B04D1114940F20910FDF762F8AB
:10938C0000238DF807300DF10703184604F00AF896
:10939C00094BDB68013B084AD360074BDB68002BA9
:1093AC0001D1FFF77FFF9DF80730184604F010F845
:1093BC0000BF03B05DF804FBC02400204407030089
:1093CC0000B585B003468DF807309DF80730002BAB
:1093DC0002D10C4B039301E00B4B03930398FFF763
:1093EC00ABFF0290029B002B06D0029B5B689DF8A2
:1093FC00072010469847F1E700BF00BF05B05DF8A5
:10940C0004FB00BFC8240020D024002000B583B08A
:10941C0003468DF807309DF80730002B05D10A4B19
:10942C0001225A700020FFF7CBFF9DF80730012B6B
:10943C0005D1054B01229A700120FFF7C1FF00BF37
:10944C0003B05DF804FB00BFC024002000B583B05E
:10945C0001900091019B002B05D1054B01225A7004
:10946C000020FFF7ADFF00BF03B05DF804FB00BFA9
:10947C00C024002000B585B0034600918DF807305C
:10948C009DF80730032B29D0032B35DC002B02D0A1
:10949C00012B04D030E00020FFF7ECFE2DE0002380
:1094AC008DF80F300DF10F03184603F07BFF154BB1
:1094BC001B7883F00103DBB2002B01D0FFF70AFF0E
:1094CC00104BDB6801330F4AD3600E4B01229A70AC
:1094DC009DF80F30184603F07BFF0EE0094B1B780C
:1094EC00002B04D1084940F24320FCF7ABFF00F0FD
:1094FC0013FAFFF731FF00E000BF00BF05B05DF8C5
:10950C0004FB00BFC02400204407030000B589B051
:10951C0001900091009B0793019B1B788DF80C30F8
:10952C00019B5B680493019B1B7A8DF81430019BA3
:10953C00DB680693074A079B52F823300649079AC3
:10954C0051F8221003AA1046984700BF09B05DF8E5
:10955C0004FB00BFD4240020D824002000B589B01F
:10956C0001900091009B0793019B1B788DF80C30A8
:10957C00019B5B680493019B9B68DBB28DF81430F4
:10958C00019BDB680693074A079B52F82330064978
:10959C00079A51F8221003AA1046984700BF09B049
:1095AC005DF804FBD4240020D824002030B58FB003
:1095BC00039002910192039B1B780C9326490C9B00
:1095CC00019A41F82320029B1A6924490C9B41F80B
:1095DC002320029B5B7F1946214A0C9B13440A46AD
:1095EC001A70029B04AC1D460FCD0FC495E80F00FA
:1095FC0084E80F000C9B089300230D93039B1B78AE
:10960C001A46174B9B5C002B0DD0039B181D019B1E
:10961C00002B01D0134A00E0002204AB194602F0E3
:10962C00F3FA0D9014E0039B1B781A460C4B9B5CD1
:10963C00002B0DD1039B03F10C00019B002B01D0DF
:10964C00094A00E0002204AB194601F087FC0D909A
:10965C000D9B18460FB030BDD4240020D824002018
:10966C00DC240020199502006995020082B00346A3
:10967C008DF807309DF8073003F01F0205499DF95E
:10968C0007305B09012000FA02F241F8232000BFE9
:10969C0002B0704700E100E082B003468DF807305D
:1096AC009DF8073003F01F0206499DF907305B094E
:1096BC00012000FA02F2603341F8232000BF02B00F
:1096CC00704700BF00E100E082B0034600918DF8C6
:1096DC0007309DF90730002B0CDA009BDAB20C49ED
:1096EC009DF8073003F00F03043B5201D2B20B4438
:1096FC001A7609E0009BDAB206499DF9073052014F
:10970C00D2B20B4483F8002300BF02B0704700BFF5
:10971C0000ED00E000E100E000B583B003460A462E
:10972C008DF8073013468DF806309DF80630012B66
:10973C0003D99DF80630032B0BD99DF80630042B6A
:10974C0003D99DF80630072B03D908496B20FCF789
:10975C0079FE9DF806209DF9073011461846FFF753
:10976C00B3FF00BF03B05DF804FB00BFC4070300E8
:10977C0000B583B003468DF807309DF907301846C5
:10978C00FFF78AFF9DF907301846FFF76FFF00BF00
:10979C0003B05DF804FB000082B003468DF807307F
:1097AC000F4A9DF90730002B00DA1F335B115BB2B7
:1097BC0052F823209DF90730594203F01F0301F0A2
:1097CC001F0158BF4B425BB222FA03F303F00103B3
:1097DC00002B14BF01230023DBB2184602B07047E4
:1097EC0000E100E082B001904FF08042019BC2F892
:1097FC00083300BF02B0704782B003468DF80730C3
:10980C009DF8073003F1804301221A6000BF02B0BB
:10981C00704784B00346ADF80630BDF8063003F14E
:10982C00804300221A60BDF8063003F180431B68A8
:10983C000393039B00BF04B0704782B00346ADF89E
:10984C000630BDF8063003F180431B68002B14BFB3
:10985C0001230023DBB2184602B0704782B00346E6
:10986C008DF807309DF807304FF0804203F003036A
:10987C00C2F8183500BF02B070474FF08043D3F8E0
:10988C0018341B0C03F00103002B14BF012300231D
:10989C00DBB21846704700B583B007238DF807304C
:1098AC000020FFF779FF034683F00103DBB2002BA6
:1098BC0008D09DF8073019460020FFF72DFF002037
:1098CC00FFF756FF00BF03B05DF804FB00B585B091
:1098DC000190019B002B03D10D49A220FCF7B2FD96
:1098EC00002303930B4B1B79002B02D0852303938E
:1098FC0008E0084A019B1360064B01221A71054BC4
:10990C0000225A71039B184605B05DF804FB00BF9A
:10991C00FC070300E024002008B5074B1B79002B43
:10992C0003D10649BB20FCF78DFDFFF7B4FF0120E6
:10993C00FFF794FF00BF08BDE0240020FC070300E4
:10994C0008B50A4B1B79002B03D10949F220FCF70F
:10995C0079FD0C20FFF750FF00BFFFF78EFF034689
:10996C00002BFAD100BF00BF08BD00BFE0240020CF
:10997C00FC07030008B54FF48070FFF75EFF034649
:10998C00002B14D04FF48070FFF743FF0120FFF73A
:10999C0029FF114B5B7983F00103DBB2002B06D05E
:1099AC000D4B01225A710C4B1B68002098474FF449
:1099BC008270FFF742FF0346002B0AD04FF48270EF
:1099CC00FFF727FF0220FFF70DFF034B1B68012059
:1099DC00984700BF08BD00BFE024002082B00346BA
:1099EC008DF807309DF8073003F01F0205499DF9EB
:1099FC0007305B09012000FA02F241F8232000BF76
:109A0C0002B0704700E100E082B003468DF80730E9
:109A1C009DF8073003F01F0206499DF907305B09DA
:109A2C00012000FA02F2603341F8232000BF02B09B
:109A3C00704700BF00E100E082B0034600918DF852
:109A4C0007309DF90730002B0CDA009BDAB20C4979
:109A5C009DF8073003F00F03043B5201D2B20B44C4
:109A6C001A7609E0009BDAB206499DF907305201DB
:109A7C00D2B20B4483F8002300BF02B0704700BF82
:109A8C0000ED00E000E100E000B583B003460A46BB
:109A9C008DF8073013468DF806309DF80630012BF3
:109AAC0003D99DF80630032B0BD99DF80630042BF7
:109ABC0003D99DF80630072B03D908496B20FCF716
:109ACC00C1FC9DF806209DF9073011461846FFF79A
:109ADC00B3FF00BF03B05DF804FB00BF7C080300BC
:109AEC0000B583B003468DF807309DF90730184652
:109AFC00FFF78AFF9DF907301846FFF76FFF00BF8D
:109B0C0003B05DF804FB00B583B00346ADF8063036
:109B1C00BDF80630184600F026F803461B68012BEA
:109B2C000CBF01230023DBB2184603B05DF804FB25
:109B3C0000B585B00346ADF80630BDF806301846C2
:109B4C0000F011F803461A4600231360BDF80630E6
:109B5C00184600F008F803461B680393039B00BFEC
:109B6C0005B05DF804FB82B00346ADF80630BDF8D5
:109B7C00063003F1804303F5C043184602B070472A
:109B8C0082B00190034A019BC2F8043300BF02B0BB
:109B9C00704700BF0060004082B00190034A019BF7
:109BAC00C2F8083300BF02B0704700BF006000402D
:109BBC0082B00190034BD3F80423019B1340184649
:109BCC0002B070470060004082B00190084A019BCF
:109BDC0003F5A27352F82330054943F00102019BAF
:109BEC0003F5A27341F8232000BF02B0704700BFF9
:109BFC000060004082B00190084A019B03F5A273FB
:109C0C0052F82330054923F00102019B03F5A2739E
:109C1C0041F8232000BF02B0704700BF0060004035
:109C2C0084B00390029113468DF80730144A039BBD
:109C3C0003F5A27352F82330114923F4473323F46C
:109C4C004073039A02F5A27241F822300C4A039B2E
:109C5C0003F5A27352F82320029B1B0203F4F85164
:109C6C009DF807301B0403F440330B4304491A439B
:109C7C00039B03F5A27341F8232000BF04B0704787
:109C8C000060004082B00190054A019B03F5A2736D
:109C9C0052F823301B0A03F01F03184602B070471A
:109CAC000060004082B00190064A019B03F5A2734C
:109CBC0052F823301B0C03F00303DBB2184602B03E
:109CCC00704700BF0060004000B583B00190019B5D
:109CDC001B681F2B04D9054940F2C710FCF7B2FBD7
:109CEC004FF0A043184603B05DF804FBAC0803002A
:109CFC0000B585B00190084611461A4603468DF80A
:109D0C0003300B468DF8023013468DF8013001AB51
:109D1C001846FFF7D9FF03909DF803209DF80230F9
:109D2C005B001A439DF801309B001A439DF81830D4
:109D3C001B0242EA03019DF81C301B04019A1943D3
:109D4C00039B02F5E07243F8221000BF05B05DF8EA
:109D5C0004FB00B585B003900B468DF80B309DF8D5
:109D6C000B30002201920022009200220021039865
:109D7C00FFF7BEFF00BF05B05DF804FB00B585B072
:109D8C00019001AB1846FFF79FFF0390019A039BCC
:109D9C0002F5E07253F8223023F002030293019A89
:109DAC00039B02F5E072029943F8221000BF05B044
:109DBC005DF804FB00B585B001900B468DF80330BF
:109DCC0001AB1846FFF780FF0390019A039B02F545
:109DDC00E07253F82230019A23F44031039B02F5D0
:109DEC00E07243F82210019A039B02F5E07253F8DB
:109DFC0022309DF8032012041146019A1943039B4B
:109E0C0002F5E07243F8221000BF05B05DF804FBC8
:109E1C0000B585B0019001AB1846FFF755FF0390D4
:109E2C00039800F020F80246019B22FA03F303F09A
:109E3C000103184605B05DF804FB00B585B0019030
:109E4C0001AB1846FFF740FF0390019A039B02F504
:109E5C00E07253F822301B0C03F00303DBB21846FC
:109E6C0005B05DF804FB82B00190019BD3F810356E
:109E7C00184602B07047000000B587B003900291FD
:109E8C0001924FF0A0430493039A029B1344012BBD
:109E9C0004D9124940F2DF20FCF7D4FA039B059356
:109EAC0011E0059B9B0018336B4453F8083C184693
:109EBC00FFF7D9FF0246019B1A60019B0433019303
:109ECC00059B01330593039A029B1344059A9A420E
:109EDC00E7D300BF00BF07B05DF804FBAC0803007C
:109EEC0084B001900091009B0393019BDB080293CB
:109EFC00019B03F0070301930122019B02FA03F378
:109F0C000399029A0A4412781340184604B0704719
:109F1C0084B001900091009B0393019BDB0802939A
:109F2C00019B03F007030193039A029B13441B78D4
:109F3C005AB20121019B01FA03F35BB2134359B2EC
:109F4C00039A029B1344CAB21A7000BF04B0704744
:109F5C0082B001900C4A019B1344303393F90030CA
:109F6C00002B09DB084A019B1344303393F9003072
:109F7C00072B01DC012300E0002303F00103DBB21B
:109F8C00184602B0704700BFE824002082B0019050
:109F9C00064A019B1344303393F90030072BCCBF96
:109FAC0001230023DBB2184602B07047E8240020DE
:109FBC0082B00190064A019B1344303393F9003070
:109FCC00DB43DBB2DB09DBB2184602B0704700BFE3
:109FDC00E824002084B00390029101928DF80330A4
:109FEC00029B59B20E4A039B134430330A461A7033
:109FFC000B49029B019A41F823209DF8033083F012
:10A00C000103DBB2002B08D0029B083B039A51B230
:10A01C00034A13440A4683F8502000BF04B070472B
:10A02C00E824002082B00190044A019B1344303391
:10A03C00FF221A7000BF02B0704700BFE824002056
:10A04C0000B583B0019004490198FFF761FF00BF90
:10A05C0003B05DF804FB00BF3C25002082B00190EA
:10A06C00044A019B1344303393F90030184602B074
:10A07C00704700BFE824002082B00190034A019B86
:10A08C0052F82330184602B0704700BFE824002075
:10A09C0000B589B00390029113468DF80730FF2369
:10A0AC008DF81F309DF80730002B01D0002300E005
:10A0BC00082305939DF80730002B01D0082300E0FE
:10A0CC000C230493059B069314E00F4A069B52F84D
:10A0DC002330B3F1FF3F0AD19DF80730029A06995D
:10A0EC000398FFF777FF069B8DF81F3006E0069B61
:10A0FC0001330693069A049B9A42E6D39DF91F30CE
:10A10C00184609B05DF804FBE824002082B0034631
:10A11C008DF807309DF80730094A4FF0FF3142F8AF
:10A12C0023109DF80730072B07D99DF80730083B03
:10A13C00034A1344FF2283F8502000BF02B070473B
:10A14C00E824002000B583B0254B93F85830002B41
:10A15C0003D008230093009B3EE000238DF80730CA
:10A16C0009E09DF807301846FFF75CFF9DF80730B3
:10A17C0001338DF807309DF807301F2BF1D90023E0
:10A18C008DF8073009E09DF807301846FFF7BEFF41
:10A19C009DF8073001338DF807309DF807300B2BF5
:10A1AC00F1D9042200210F4806F06CF80721062093
:10A1BC00FFF76AFC0620FFF793FC4FF4BE70FFF725
:10A1CC00B7FC4FF00040FFF7DBFC054B012283F896
:10A1DC00582000230093009B184603B05DF804FB45
:10A1EC00E82400203C250020044B93F85830002B29
:10A1FC0014BF01230023DBB218467047E82400206B
:10A20C0000B587B0039002910192039B1F2B04D9D8
:10A21C0036494FF40170FCF715F9002305930398A8
:10A22C00FFF7C6FE0346002B02D00823059357E028
:10A23C00029B9B78C3F34003DBB21A460199039847
:10A24C00FFF726FF03468DF813309DF91330B3F159
:10A25C00FF3F43D0029B9B78C3F38003DBB283F0B8
:10A26C000103DBB2002B13D0029B9B7803F001039C
:10A27C00DBB2002B03D00398FFF780FD05E0029BB7
:10A28C005B7819460398FFF764FD0398FFF7D8FE37
:10A29C00029B9B7803F00203DBB2002B08D09DF9E4
:10A2AC001300029B1B781A460399FFF7B9FC17E0C1
:10A2BC009DF91330083B0E4A134493F95010029B3E
:10A2CC001B789B015AB29DF91330083B0A4351B2DB
:10A2DC00074A13440A4683F8502001E004230593EF
:10A2EC00059B184607B05DF804FB00BFE4080300AB
:10A2FC00E824002000B589B001900B468DF803309E
:10A30C00019B1F2B04D93D494FF40D70FCF79AF8B3
:10A31C000198FFF74DFE0346002B04D1374940F25C
:10A32C003520FCF78FF80198FFF730FE0346002B21
:10A33C002FD00198FFF792FE0346083B304A134496
:10A34C0093F950308DF80F309DF80F309B098DF834
:10A35C000E309DF80E30032B0BD10198FFF758FDF2
:10A36C000346002B01D0032300E002238DF81F309D
:10A37C0008E09DF80E30012B01D1022300E00323ED
:10A38C008DF81F309DF81F3019460198FFF712FD0C
:10A39C0030E00198FFF7DCFD0346002B2AD0019832
:10A3AC00FFF75CFE03460693069B9BB240339BB2C1
:10A3BC009B00ADF81630069B1846FFF705FCBDF860
:10A3CC0016301846FFF7B4FB9DF80330002B11D064
:10A3DC000198FFF743FE03461846FFF74DFE049025
:10A3EC00049B002B06D00122069B02FA03F31846AD
:10A3FC00FFF7C6FB00BF09B05DF804FBE4080300DF
:10A40C00E824002000B585B00190019B1F2B04D9D6
:10A41C001A4940F26120FCF715F80198FFF7C8FDC6
:10A42C000346002B04D1154940F26220FCF70AF8D0
:10A43C000198FFF7ABFD0346002B04D000210198D7
:10A44C00FFF7B8FC15E00198FFF782FD0346002BDF
:10A45C000FD00198FFF702FE03460393039B1846A7
:10A46C00FFF7C8FB0122039B02FA03F31846FFF720
:10A47C0093FB00BF05B05DF804FB00BFE4080300CC
:10A48C0000B583B00190019B1F2B04D9084940F201
:10A49C008520FBF7D7FF0198FFF7BAFC0346002B8A
:10A4AC0014BF01230023DBB2184603B05DF804FB94
:10A4BC00E408030000B595B0002310930023039328
:10A4CC004FF48073ADF84C300123129300230F939B
:10A4DC0021E0BDF84C301846FFF715FB0346002B66
:10A4EC000ED01298FFF764FB0346002B08D0BDF882
:10A4FC004C301846FFF71CFB109A129B1343109319
:10A50C00129B5B001293BDF84C300433ADF84C3009
:10A51C000F9B01330F930F9B072BDAD94FF4BE70AF
:10A52C00FFF7F1FA0346002B0DD04FF4BE70FFF786
:10A53C00FFFA109B43F00043109303AB1A46012122
:10A54C000020FFF799FC109BDBB2002B29D00123D4
:10A55C00129300230F9321E0129A109B1340002BAF
:10A56C0016D00F98FFF78EFB0D900F98FFF79AFB04
:10A57C0003468DF833300F98FFF77EFD0B900B9B45
:10A58C00002B05D09DF833200B9B11460D98984756
:10A59C00129B5B0012930F9B01330F930F9B072BA6
:10A5AC00DAD9109B002B80F2EE8000238DF84F300F
:10A5BC0000230293002311930AE0119B9B0050335C
:10A5CC006B444FF0FF3243F84C2C119B0133119329
:10A5DC00119B002BF1D000238DF84F3000230F93EB
:10A5EC0078E06B4A0F9B1344503393F900308DF88D
:10A5FC002B309DF82B3023F0C0030993644A0F9B3A
:10A60C001344503393F90030B3F1FF3F5FD001ABEB
:10A61C0019460998FFF764FC0346002B57D09DF8A8
:10A62C002B309B098DF823300998FFF717FD034653
:10A63C001846FFF721FD0790079B002B03D19DF8CF
:10A64C002330032B43D19DF82330032B04D102ABD1
:10A65C0019460998FFF75CFC0998FFF7EEFB0346D7
:10A66C008DF81B3003AB19460998FFF739FC0590A0
:10A67C00059B002B03D09DF81B30022B06D0059BAD
:10A68C00002B24D19DF81B30032B20D19DF82330B7
:10A69C00032B13D19DF81B30022B01D1032300E0B7
:10A6AC0002238DF813309DF8133019460998FFF7E3
:10A6BC0081FB9DF84F3001338DF84F30079B002BF9
:10A6CC0005D09DF82320079B1146099898470F9BAE
:10A6DC0001330F930F9B032B83D99DF84F30002B25
:10A6EC004CD001238DF83B306B461A4601210020DB
:10A6FC00FFF7C2FB0023119314E0119B9B00503316
:10A70C006B4453F8502C119B9B0050336B4453F803
:10A71C00443C9A4203D000238DF83B3005E0119B5A
:10A72C0001331193119B002BE7D09DF83B30002B8C
:10A73C0003D000238DF84F3020E0002311931AE052
:10A74C00119B9B0050336B4453F8502C119B9B0076
:10A75C0050336B4443F8442C119B9B0050336B4497
:10A76C0053F8482C119B9B0050336B4443F84C2CF2
:10A77C00119B01331193119B002BE1D09DF84F30AD
:10A78C00002B7FF428AF00BF15B05DF804FB00BFB1
:10A79C00E824002008B5064B1B68002B03D10549A3
:10A7AC005120FBF74FFE024B1B68984708BD00BFBA
:10A7BC00442500206C09030082B00190019B044ADF
:10A7CC00934201D1034B00E00023184602B07047BE
:10A7DC00002000404425002000B587B00190009176
:10A7EC00019B002B03D11C497720FBF72BFE019812
:10A7FC00FFF7E2FF0590059B002B25D000238DF879
:10A80C00133000238DF80B300DF10B03184602F0BA
:10A81C00C9FD059B1B79002B03D001238DF8133048
:10A82C0005E0059B009A1A60059B01221A719DF8A0
:10A83C000B30184602F0CCFD9DF81330002B03D0E2
:10A84C0011230393039B02E000230393039B1846FD
:10A85C0007B05DF804FB00BF6C09030000B585B0C0
:10A86C000190019B002B03D10A499B20FBF7EAFDC9
:10A87C000198FFF7A1FF0390039B002B05D0039BCE
:10A88C0000221A60039B00221A7100BF05B05DF80C
:10A89C0004FB00BF6C09030082B003468DF807303F
:10A8AC009DF8073003F01F0205499DF907305B093D
:10A8BC00012000FA02F241F8232000BF02B07047D9
:10A8CC0000E100E082B003468DF807309DF80730B8
:10A8DC0003F01F0206499DF907305B09012000FABD
:10A8EC0002F2203341F8232000BF02B0704700BFB2
:10A8FC0000E100E082B003468DF807309DF8073088
:10A90C0003F01F0206499DF907305B09012000FA8C
:10A91C0002F2603341F8232000BF02B0704700BF41
:10A92C0000E100E082B0034600918DF807309DF9FC
:10A93C000730002B0CDA009BDAB20C499DF807307B
:10A94C0003F00F03043B5201D2B20B441A7609E018
:10A95C00009BDAB206499DF907305201D2B20B4482
:10A96C0083F8002300BF02B0704700BF00ED00E089
:10A97C0000E100E084B00190019B1B0B8DF80F30BF
:10A98C009DF90F30184604B07047000000B583B035
:10A99C0003460A468DF8073013468DF806309DF8AD
:10A9AC000630012B03D99DF80630032B0BD99DF8EB
:10A9BC000630042B03D99DF80630072B03D9084920
:10A9CC006B20FBF73FFD9DF806209DF907301146E3
:10A9DC001846FFF7A7FF00BF03B05DF804FB00BFEC
:10A9EC00EC09030000B583B003468DF807309DF9E0
:10A9FC0007301846FFF77EFF9DF907301846FFF722
:10AA0C004BFF00BF03B05DF804FB00B583B00346F9
:10AA1C008DF807309DF907301846FFF753FF00BF3C
:10AA2C0003B05DF804FB84B001900B46ADF8023026
:10AA3C00BDF80230019A134400221A60BDF80230AE
:10AA4C00019A13441B680393039B00BF04B0704727
:10AA5C0082B001900B46ADF80230BDF80230019A7D
:10AA6C0013441B68002B14BF01230023DBB21846D0
:10AA7C0002B0704782B001900091019B009AC3F81C
:10AA8C00042300BF02B0704782B001900091019B7B
:10AA9C00D3F80423009B1340002B14BF0123002385
:10AAAC00DBB2184602B0704782B001900091019B56
:10AABC00009AC3F8082300BF02B0704784B001901D
:10AACC00019BD3F880340393019B039AC3F8802431
:10AADC00039B184604B0704782B00190019B04227E
:10AAEC00C3F8002500BF02B0704782B00190019BF3
:10AAFC000022C3F8002500BF02B0704784B0039059
:10AB0C0002910192039B019AC3F81425039B029AAC
:10AB1C00C3F80C2500BF04B0704700B583B001909A
:10AB2C004FF0FF324FF0FF310198FFF7E7FF00BF06
:10AB3C0003B05DF804FB82B00190019BD3F80C3597
:10AB4C00184602B0704782B00190019BD3F81435BF
:10AB5C00184602B0704782B00190019BD3F80835BB
:10AB6C00184602B0704782B00190019BD3F81035A3
:10AB7C00184602B0704784B0039002910192039B77
:10AB8C00029AC3F80825039B019AC3F8102500BF4D
:10AB9C0004B0704700B583B001904FF0FF324FF016
:10ABAC00FF310198FFF7E7FF00BF03B05DF804FB2E
:10ABBC0082B00190019BD3F81835DBB2184602B075
:10ABCC00704782B001900B468DF803309DF803203E
:10ABDC00019BC3F81C2500BF02B0704782B00190E6
:10ABEC000B468DF803309DF80330019A1344012273
:10ABFC001A6000BF02B0704782B001900B468DF80E
:10AC0C00033013468DF802309DF803209DF8023076
:10AC1C001343DBB21A46019BC3F86C2500BF02B08C
:10AC2C00704782B001900091019B009AC3F82425D3
:10AC3C0000BF02B07047000000B583B00190019BCB
:10AC4C001B681F2B04D9054940F2C710FBF7FAFB10
:10AC5C004FF0A043184603B05DF804FB1C0A030038
:10AC6C0000B585B00190084611461A4603468DF88A
:10AC7C0003300B468DF8023013468DF8013001ABD2
:10AC8C001846FFF7D9FF03909DF803209DF802307A
:10AC9C005B001A439DF801309B001A439DF8183055
:10ACAC001B0242EA03019DF81C301B04019A194354
:10ACBC00039B02F5E07243F8221000BF05B05DF86B
:10ACCC0004FB00B585B0039000230193002300938F
:10ACDC000023012201210398FFF7C2FF00BF05B03A
:10ACEC005DF804FB00B585B003900B468DF80B3076
:10ACFC009DF80B30002201920022009200220021CC
:10AD0C000398FFF7ADFF00BF05B05DF804FB00B57D
:10AD1C0085B00390002301930023009300230122AC
:10AD2C0000210398FFF79CFF00BF05B05DF804FB02
:10AD3C0000B585B0019001AB1846FFF77DFF03907D
:10AD4C00019B012202FA03F31946039800F004F860
:10AD5C0000BF05B05DF804FB82B001900091019B2F
:10AD6C00009AC3F8082500BF02B0704700B583B045
:10AD7C0001900091009B1B68B3F1FF3F09D0009B31
:10AD8C001B681846FFF7D4FF009B1B681846FFF79B
:10AD9C0098FF009B5B68B3F1FF3F05D0009B5B689D
:10ADAC0000211846FFF79EFF019B1A68009B9B69C8
:10ADBC0019461046FFF735FF019B1868009B597D1B
:10ADCC00009B1B7D1A46FFF717FF019B1868009B21
:10ADDC001968009B5B681A46FFF790FE009B1B7D71
:10ADEC00012B22D1009B9B68B3F1FF3F05D0009B48
:10ADFC009B6800211846FFF775FF009BDB68B3F1D9
:10AE0C00FF3F09D0009BDB681846FFF791FF009BC2
:10AE1C00DB681846FFF755FF019B1868009BD96843
:10AE2C00009B9B681A46FFF7A6FE00BF03B05DF8B7
:10AE3C0004FB000000B583B001900B468DF8033085
:10AE4C00019B1B684FF48E711846FFF7ECFD019BBC
:10AE5C001B684FF4A2711846FFF7E5FD019B1B68B8
:10AE6C000E491846FFF706FE019B1B681846FFF7B4
:10AE7C0081FD03461A469DF8033019461046FFF72C
:10AE8C0085FD019B1B681846FFF774FD03461846A9
:10AE9C00FFF7A8FD00BF03B05DF804FB80000200C3
:10AEAC0000B583B00190019B1B6808491846FFF759
:10AEBC00FBFD019B1B681846FFF75CFD034618461B
:10AECC00FFF7A3FD00BF03B05DF804FB8402020092
:10AEDC0000B587B00190019B1B681846FFF72BFE4D
:10AEEC000590019B1B681846FFF72DFE0490019BF3
:10AEFC001B681846FFF72FFE0390019B1B68184632
:10AF0C00FFF731FE0290019B1B681846FFF705FE08
:10AF1C00019B1B681846FFF73DFE059BB3F1FF3FF5
:10AF2C0002D00598FFF7F3FE049BB3F1FF3F02D06C
:10AF3C000498FFF7ECFE029BB3F1FF3F02D002989E
:10AF4C00FFF7E5FE039BB3F1FF3F02D00398FFF739
:10AF5C00DEFE00BF07B05DF804FB000000B587B053
:10AF6C00039002910192029B002B03D12D49AA2040
:10AF7C00FBF768FA039B1B791A462C2302FB03F39D
:10AF8C00294A1344049300230593049B93F82A3015
:10AF9C00002B03D008230593059B3EE0039B1A6806
:10AFAC00039B1B791946214B53F821301946104647
:10AFBC00FFF712FC0346002B03D011230593059BCE
:10AFCC002BE002990398FFF7D1FE049B019A5A607B
:10AFDC00029B1A69049B1A60049B5B68002B05D0CA
:10AFEC00029B1B7F19460398FFF724FF039B1B68EA
:10AFFC001846FFF771FD049B00229A61049B002206
:10B00C00DA61049B002283F82920049B00225A61F8
:10B01C00049B012283F82A20059B184607B05DF893
:10B02C0004FB00BF540A03004C250020D00A030087
:10B03C0000B585B00190019B1B791A462C2302FBAD
:10B04C0003F3114A13440393019B1B681846FFF743
:10B05C004CFD039B5B68002B02D00198FFF720FF8F
:10B06C000198FFF735FF019B1B681846FFF7F6FBAD
:10B07C00039B002283F82A20039B00225A6000BF06
:10B08C0005B05DF804FB00BF4C25002000B585B071
:10B09C00019000914FF48E710198FFF7C4FC009B56
:10B0AC009A68009B1B6A13441B788DF80F30009B29
:10B0BC001B6A5A1C009B1A629DF80F3019460198A6
:10B0CC00FFF77FFD00BF05B05DF804FB00B583B052
:10B0DC000190009116E0009B93F82830DBB2002B16
:10B0EC0001D0002315E04FF48E710198FFF7B0FCEE
:10B0FC00034683F00103DBB2002BECD100990198DD
:10B10C00FFF7C4FF009B1A6A009B5B699A42EAD363
:10B11C000123184603B05DF804FB000000B587B0AE
:10B12C00039002910192039B1B791A462C2302FB7C
:10B13C0003F33C4A13440493049B93F82A30012BE9
:10B14C0004D0394940F21510FBF77CF9029B002B17
:10B15C0004D135494FF48B70FBF774F9019B002B2C
:10B16C0004D1314940F21710FBF76CF9039800F049
:10B17C005DF80346002B03D011230593059B4CE08F
:10B18C00049B019A5A61049B029A9A60049B0022C8
:10B19C001A62049B002283F8282000230593039B4A
:10B1AC001B684FF48E711846FFF73DFC039B1B6820
:10B1BC0008211846FFF712FD039B1B6804991846DB
:10B1CC00FFF764FF049B5B68002B25D1039B1B6876
:10B1DC0004991846FFF77AFF034683F00103DBB2AC
:10B1EC00002B02D00F23059313E000BF039B1B68B9
:10B1FC004FF48E711846FFF72BFC034683F00103C6
:10B20C00DBB2002BF2D1039B1B680C211846FFF715
:10B21C00E5FC049B00225A61059B184607B05DF8BB
:10B22C0004FB00BF4C250020540A030082B001909F
:10B23C00019B1B791946074A2C2301FB03F313448A
:10B24C0014331B68002B14BF01230023DBB21846F8
:10B25C0002B070474C25002010B582B001900091CF
:10B26C00009B9B69002B08D14FF484710198FFF768
:10B27C00DAFB0198FFF79CFC13E04FF48471019802
:10B28C00FFF7D1FB009BDA68009B5B6AD41801982E
:10B29C00FFF78EFC03462370009B5B6A5A1C009BD5
:10B2AC005A6202B010BD00B589B0039002910192B0
:10B2BC0001238DF81030029B0693019B0593039B91
:10B2CC005B68039A116804AA1046984700BF09B03E
:10B2DC005DF804FB00B587B00190009100238DF858
:10B2EC000830009B0493019B9B680393019B0022F5
:10B2FC005A61019B5B68019A116802AA1046984733
:10B30C0000BF07B05DF804FB00B589B00190009157
:10B31C004FF400710198FFF7B7FB0346002B39D0AF
:10B32C004FF492710198FFF793FB0346002B31D039
:10B33C004FF492710198FFF776FB4FF4017101986D
:10B34C00FFF7B2FB009B93F8293083F00103DBB2CB
:10B35C00002B03D004210198FFF740FC02238DF849
:10B36C0008300198FFF7AAFB03460593009B9B69E5
:10B37C000493009BDB680393009B00229A61009B63
:10B38C000022DA61009B5B68009A116802AA1046E1
:10B39C00984752E004210198FFF776FB0346002BF7
:10B3AC004BD04FF484710198FFF752FB0346002BEE
:10B3BC0043D000990198FFF74FFF009B9A69009BBF
:10B3CC005B6A9A4239D1009BDB69002B19D0009B38
:10B3DC00DB680793009B5B6A0693009BDA69009B12
:10B3EC009A61009B1A69009BDA60009B0022DA616B
:10B3FC00009B00225A62079A06990098FFF753FFA8
:10B40C001BE0009B93F8293083F00103DBB2002B87
:10B41C0003D004210198FFF7E1FB4FF4017101986F
:10B42C00FFF742FB009B00229A61009B596A009B2C
:10B43C00DB681A460098FFF736FF4FF48E710198BF
:10B44C00FFF706FB0346002B22D0009B1A6A009BD9
:10B45C005B699A420DD2009B93F82830DBB283F0E3
:10B46C000103DBB2002B04D000990198FFF70EFE0C
:10B47C000EE04FF48E710198FFF7D5FA009B5B69D3
:10B48C00002B05D0009B5B6919460098FFF722FF43
:10B49C004FF4A2710198FFF7DBFA0346002B1CD086
:10B4AC004FF4A2710198FFF7BEFA009B93F8293074
:10B4BC00002B03D000210198FFF790FB009B9B69A8
:10B4CC00002B0AD0009B00229A61009B596A009BBA
:10B4DC00DB681A460098FFF7E6FE00BF09B05DF87E
:10B4EC0004FB000008B503490348FFF70DFF00BF3C
:10B4FC0008BD00BF4C2500200020004082B0034650
:10B50C008DF807309DF8073003F01F0205499DF9AF
:10B51C0007305B09012000FA02F241F8232000BF3A
:10B52C0002B0704700E100E082B003468DF80730AE
:10B53C009DF8073003F01F0206499DF907305B099F
:10B54C00012000FA02F2203341F8232000BF02B0A0
:10B55C00704700BF00E100E082B003468DF8073071
:10B56C009DF8073003F01F0206499DF907305B096F
:10B57C00012000FA02F2603341F8232000BF02B030
:10B58C00704700BF00E100E082B0034600918DF8E7
:10B59C0007309DF90730002B0CDA009BDAB20C490E
:10B5AC009DF8073003F00F03043B5201D2B20B4459
:10B5BC001A7609E0009BDAB206499DF90730520170
:10B5CC00D2B20B4483F8002300BF02B0704700BF17
:10B5DC0000ED00E000E100E082B00190019B03F07F
:10B5EC006043B3F1005F0CBF01230023DBB21846AC
:10B5FC0002B0704784B00190019B1B0B8DF80F308B
:10B60C009DF90F30184604B07047000000B583B0A8
:10B61C0003460A468DF8073013468DF806309DF820
:10B62C000630012B03D99DF80630032B0BD99DF85E
:10B63C000630042B03D99DF80630072B03D9084993
:10B64C006B20FAF7FFFE9DF806209DF90730114696
:10B65C001846FFF799FF00BF03B05DF804FB00BF6D
:10B66C00D40A030000B583B003468DF807309DF96A
:10B67C0007301846FFF770FF9DF907301846FFF7A3
:10B68C003DFF00BF03B05DF804FB00B583B003467B
:10B69C008DF807309DF907301846FFF745FF00BFBE
:10B6AC0003B05DF804FB84B001900B46ADF802309A
:10B6BC00BDF80230019A134400221A60BDF8023022
:10B6CC00019A13441B680393039B00BF04B070479B
:10B6DC0082B001900B46ADF80230BDF80230019AF1
:10B6EC0013441B68002B14BF01230023DBB2184644
:10B6FC0002B0704782B001900091019BD3F80022F8
:10B70C00009BDB431A40019BC3F8002200BF02B030
:10B71C00704782B001900091019B009AC3F80423FA
:10B72C0000BF02B0704782B001900091019B009A5B
:10B73C00C3F8082300BF02B0704784B00190019B8E
:10B74C00D3F880340393019B039AC3F88024039BA2
:10B75C00184604B0704782B00190019B0822C3F8D0
:10B76C00002500BF02B0704782B00190019B0022FF
:10B77C00C3F8002500BF02B0704784B0039002915B
:10B78C000192039B029AC3F80C25039B019AC3F800
:10B79C00142500BF04B0704700B583B001904FF082
:10B7AC00FF324FF0FF310198FFF7E7FF00BF03B006
:10B7BC005DF804FB82B00190019BD3F80C35184660
:10B7CC0002B0704782B00190019BD3F81435184633
:10B7DC0002B0704782B00190019BD3F8083518462F
:10B7EC0002B0704782B00190019BD3F81035184617
:10B7FC0002B0704784B0039002910192039B029AAD
:10B80C00C3F80825039B019AC3F8102500BF04B0A8
:10B81C00704700B583B001904FF0FF324FF0FF310D
:10B82C000198FFF7E7FF00BF03B05DF804FB82B09F
:10B83C0001900B468DF803309DF80330019A1344A8
:10B84C0001221A6000BF02B0704782B001900B4613
:10B85C008DF8033013468DF802309DF803209DF8C7
:10B86C0002301343DBB21A46019BC3F86C2500BFB0
:10B87C0002B0704782B001900091019B009AC3F80E
:10B88C00242500BF02B0704784B00390029101924E
:10B89C00029A039BC3F84425039B019AC3F84825DD
:10B8AC0000BF04B0704782B00190019BD3F84C35B7
:10B8BC00184602B0704782B00190019BD3F83C351A
:10B8CC00184602B07047000000B583B00190019B90
:10B8DC001B681F2B04D9054940F2C710FAF7B2FDBB
:10B8EC004FF0A043184603B05DF804FB040B0300B3
:10B8FC0000B585B00190084611461A4603468DF8EE
:10B90C0003300B468DF8023013468DF8013001AB35
:10B91C001846FFF7D9FF03909DF803209DF80230DD
:10B92C005B001A439DF801309B001A439DF81830B8
:10B93C001B0242EA03019DF81C301B04019A1943B7
:10B94C00039B02F5E07243F8221000BF05B05DF8CE
:10B95C0004FB00B585B003900023019300230093F2
:10B96C000023012201210398FFF7C2FF00BF05B09D
:10B97C005DF804FB00B585B003900B468DF80B30D9
:10B98C009DF80B300022019200220092002200212F
:10B99C000398FFF7ADFF00BF05B05DF804FB00B5E1
:10B9AC0085B0039000230193002300930023012210
:10B9BC0000210398FFF79CFF00BF05B05DF804FB66
:10B9CC0000B585B0019001AB1846FFF77DFF0390E1
:10B9DC00019B012202FA03F31946039800F004F8C4
:10B9EC0000BF05B05DF804FB82B001900091019B93
:10B9FC00009AC3F8082500BF02B0704700B583B0A9
:10BA0C0001900091009B1B68B3F1FF3F09D0009B94
:10BA1C001B681846FFF7D4FF009B1B681846FFF7FE
:10BA2C0098FF009B5B68B3F1FF3F05D0009B5B6800
:10BA3C0000211846FFF79EFF019B1A68009B9B692B
:10BA4C0019461046FFF716FF019B1868009B597D9D
:10BA5C00009B1B7D1A46FFF7F8FE019B1868009BA4
:10BA6C001968009B5B681A46FFF787FE009B1B7DDD
:10BA7C00012B22D1009B9B68B3F1FF3F05D0009BAB
:10BA8C009B6800211846FFF775FF009BDB68B3F13C
:10BA9C00FF3F09D0009BDB681846FFF791FF009B26
:10BAAC00DB681846FFF755FF019B1868009BD968A7
:10BABC00009B9B681A46FFF79DFE00BF03B05DF824
:10BACC0004FB000000B583B001900B468DF80330E9
