:020000022000DC
:1060000000000120356202008D6202008F620200F2
:10601000916202009362020095620200000000009B
:106020000000000000000000000000009762020075
:1060300099620200000000009B6202009D62020063
:106040008DA70200A3620200ADB50200A7620200A4
:10605000A9620200AB620200CDB20200AF62020090
:10606000B1620200B3620200B5620200B7620200D0
:10607000B9620200BB620200BD620200BF620200A0
:10608000C16202005D860200C5620200C7620200B2
:106090009D860200CB620200B1FC0200CF620200CA
:1060A000D1620200D3620200D5620200D762020010
:1060B000D9620200DB6202009F6202009F6202005E
:1060C000DD620200DF620200E1620200E3620200C0
:0C60D000E5620200E7620200E9620200E3
:1060DC00344935480A1A02D0072291438D46334978
:1060EC0033480A1A06D00722914381F30988022209
:1060FC0082F314882F483049304A00F041F8304878
:10610C003049314A00F03CF830483149314A00F00E
:10611C0037F831483149324A00F032F831483249C7
:10612C00324A00F02DF832483249334A00F028F850
:10613C0032483349334A00F023F8334833490022BC
:10614C0000F029F832483349002200F024F8324894
:10615C003249091A0AF0C6F8314A90471F482049BB
:10616C00884205D00268043003B4904703BCF7E7BB
:10617C0000208646EC46002000212A4A9047FEE784
:10618C00884207D0521A05D0037801300B700131C8
:10619C00013AF9D17047884202D002700130FAE717
:1061AC00704700000000012000E0002000000120EA
:1061BC0000000120BC200300EC22002078230020EA
:1061CC00EC620200EC62020004030300BC2003003A
:1061DC00EC220020EC220020080403000804030039
:1061EC000804030008040300080403000804030067
:1061FC000804030008040300B9200300482103002D
:10620C007823002078230020782300207C2C002089
:10621C007C2C00207C2C00207C2C00207C4C002032
:10622C00596202005DD802000F484FF00701884305
:10623C0085460E4880470E48016841F470010160A4
:10624C00BFF34F8FBFF36F8FFFF742BF09480A4967
:10625C000A4A884207D0521A05D0037801300B70D5
:10626C000131013AF9D1704700000120C19A0200B6
:10627C0088ED00E0D4030300B8220020EC220020BB
:10628C00FEE7FEE7FEE7FEE7FEE7FEE7FEE7FEE7DA
:10629C00FEE7FEE7FEE7FEE7FEE7FEE7FEE7FEE7CA
:1062AC00FEE7FEE7FEE7FEE7FEE7FEE7FEE7FEE7BA
:1062BC00FEE7FEE7FEE7FEE7FEE7FEE7FEE7FEE7AA
:1062CC00FEE7FEE7FEE7FEE7FEE7FEE7FEE7FEE79A
:1062DC00FEE7FEE7FEE7FEE7FEE7FEE7FEE700BFB0
:1062EC0000B5A1B00590049103920293049803F0B9
:1062FC00AFF9039B1593029B16930023179300236E
:10630C008DF8603000231993229B1A9300231F935E
:10631C000FA91F9B0822049803F058FA08231F9317
:10632C00119B1293BDF84030ADF84C30BDF84230A3
:10633C00ADF84E3000238DF851309DF83C3003F011
:10634C000303DBB2012B26D10F9BC3F395231C93C4
:10635C009DF83C30C3F3C203DBB28DF85030BDF86E
:10636C003C30C3F38313DBB21B931B9B9A0009A92C
:10637C001F9B049803F02AFA1B9B9B001F9A134443
:10638C001F9312AA09A915AB009313461B9A1C98CC
:10639C0001F00CF82FE09DF83C3003F00303DBB266
:1063AC00022B28D1BDF83E30C3F389139BB21E9348
:1063BC009DF83C30C3F3C203DBB28DF850301E9B0A
:1063CC00082B28BF08231D9307A91F9B1D9A04980F
:1063DC0003F0FCF91F9A1D9B13441F931E9A1D9BDF
:1063EC00D31A1E9315AB12AA07A81D9901F080F8B9
:1063FC001E9B002BE3D1049803F039F900BF21B0A8
:10640C005DF804FB00B583B00190019B1B781A4624
:10641C000C4B9B5C002B05D0019B0433184606F0FB
:10642C005FFB0BE0019B1B781A46064B9B5C002B19
:10643C0004D1019B0C33184605F000FD00BF03B0DE
:10644C005DF804FB682A002000B587B00390029128
:10645C0013468DF8073000230593039B1B781A46CF
:10646C00114B9B5C002B09D0039B04339DF8072038
:10647C000299184606F062FB05900FE0039B1B780F
:10648C001A46094B9B5C002B08D1039B0C339DF8DF
:10649C0007200299184605F047FD0590059B184604
:1064AC0007B05DF804FB00BF682A002082B00190A1
:1064BC000091034B01221A7000BF02B0704700BF5D
:1064CC00B823002030B58DB003468DF807301A4B39
:1064DC0002AC1D460FCD0FC495E80F0084E80F00E9
:1064EC00062302934FF0FF3303934FF0FF330493D3
:1064FC004FF0FF3305934FF0EB7308939DF8073083
:10650C00002B01D00D4A00E0002202AB19460C48CA
:10651C0003F052FF0B900B9B0A930A9B002B04D0A9
:10652C00084A43210A9801F0E1FA074A9DF807301E
:10653C00137000BF0DB030BDA4040300B964020099
:10654C00EC22002008040300B923002000B583B01E
:10655C0001238DF807309DF807301846FFF7B2FF7E
:10656C0000BF03B05DF804FB00B589B00390029145
:10657C000192019B8DF81F30124B00221A709DF86E
:10658C001F301A4602991048FFF75EFF0690069BD3
:10659C000593059B002B04D00C4A5321059801F060
:1065AC00A5FA00BF0A4B1B78002B07D0054B1B78B4
:1065BC00DBB283F00103DBB2002BF3D100BF09B0D7
:1065CC005DF804FBB8230020EC2200200804030033
:1065DC00B923002000B585B003900291054B0093C0
:1065EC004023054A02990398FFF77AFE00BF05B0D5
:1065FC005DF804FB756502007823002082B00190E1
:10660C0000BF02B07047000000B583B00190054890
:10661C00FFF7F8FE0020FFF755FF00BF03B05DF851
:10662C0004FB00BFEC22002082B00190019B0122F0
:10663C005A7200BF02B0704700B583B04FF0FF3301
:10664C000193FFF783FF0421084800F0CFFD019070
:10665C00019B002B03DA0649482006F0CDFC0348C9
:10666C00FFF7E2FF00BF03B05DF804FB002300203E
:10667C00D004030000B583B001900091019B1B680E
:10668C001B6800990198984700BF03B05DF804FBA4
:10669C0000B583B00190019B1B685B68019898471B
:1066AC0000BF03B05DF804FB00B583B00190019B03
:1066BC001B689B680198984700BF03B05DF804FB0A
:1066CC0082B001900B468DF80330019B9DF803209E
:1066DC001A7200BF02B0704782B00190019B1B7A06
:1066EC00184602B0704782B00190019B01225A7289
:1066FC0000BF02B0704782B00190019B5B7A1846D4
:10670C0002B0704700B587B0019000911D4BFF227D
:10671C009A601C4B00221A601A4B00225A60194BCB
:10672C000022C3F81824174B0022C3F81424154B6D
:10673C00002283F82024144802F0EEFE0490049BFF
:10674C00002B01D0049B18E0104A114BD31ADB0824
:10675C000393002305930BE0059B9B000D4A134408
:10676C000293059B9AB2029B1A80059B01330593F9
:10677C00059A039B9A42EFD30023184607B05DF8A5
:10678C0004FB00BF8C240020A4030300A40303001B
:10679C003C030300B8220020024A034BD31ADB0847
:1067AC0018467047A40303003C03030000B587B0F0
:1067BC0001900B468DF803309DF80330002B1FD051
:1067CC00FFF7EAFF04900023059313E0059B9B0061
:1067DC000E4A13440393039B5B881A46019B1B6868
:1067EC009A4204D1019B059A1A60002309E0059B8B
:1067FC0001330593059A049B9A42E7D3052300E0E5
:10680C000023184607B05DF804FB00BFB822002037
:10681C0000B585B001900B468DF803309DF8032030
:10682C0001AB11461846FFF7C1FF0346002B07D1F9
:10683C00019BDB00054A13440393039B1B6800E098
:10684C000023184605B05DF804FB00BF3C030300B1
:10685C0084B001900B468DF80330019BDB00174A86
:10686C00134402939DF80330013B032B1CD801A267
:10687C0052F823F09168020099680200A1680200A6
:10688C00AB68020002238DF80F3011E004238DF861
:10689C000F300DE0029B1B798DF80F3008E0029B46
:1068AC005B798DF80F3003E000238DF80F3000BFBB
:1068BC009DF80F30184604B0704700BF3C0303002E
:1068CC0000B585B00190009100238DF80F30019B2D
:1068DC001B7803F00303DBB2002B06D0019B1B7863
:1068EC0003F00403DBB2002B43D0019B1B7803F0B5
:1068FC000403DBB2002B27D0019B1B78C3F30103ED
:10690C00DBB2012B02D0022B0CD017E0009B1B68D2
:10691C00019A1288C2F38312D2B213449A1C009BC0
:10692C001A6023E0009B1B68019A5288C2F38912FB
:10693C0092B213449A1C009B1A6017E010494FF452
:10694C00A47006F059FB11E0009B1A68019B5B8850
:10695C00C3F389139BB21946019B1B88C3F389139C
:10696C009BB20B4413445A1C009B1A6001238DF8F4
:10697C000F309DF80F30184605B05DF804FB00BFD2
:10698C008805030000B58BB00023ADF826303E48D7
:10699C0002F0D5F83D4802F0D2F83D4B5B68049309
:1069AC003B4B9B680693049A069B134002339B0057
:1069BC00374A13440433089304AB19460898FFF77D
:1069CC007FFF0346002B09D0049A069B1340023329
:1069DC009B002F4A134404330893EDE700BF0023B8
:1069EC00079311E0049B5A1C0492069A1340079AD1
:1069FC00920001A90A44264902339B000B445B68B0
:106A0C001360079B01330793079B012BEAD99DF871
:106A1C000430C3F30103DBB2012B10D0022B1CD1C9
:106A2C00BDF80A30ADF82630BDF80630C3F3891333
:106A3C009BB203339A08049B1344049313E0BDF8F0
:106A4C000A30ADF82630BDF80430C3F38313DBB243
:106A5C001A46049B1344049305E00E494FF4C2708C
:106A6C0006F0CAFA00BF094802F075F80590059BBC
:106A7C00002B02D0049B064A5360BDF82630184602
:106A8C000BB05DF804FB00BFA4280020A028002058
:106A9C008C2400208805030000B585B00021074830
:106AAC0001F0BEFF0390039B0293029B83F3100340
:106ABC000193019B184605B05DF804FBA828002043
:106ACC0000B589B00390029101920093039B1B0CBB
:106ADC000793FFF7E1FF0690FFF75EFE0246079B68
:106AEC00934204D3214940F2A91006F085FA069B83
:106AFC001904009B5A1C0A9B1340079A0A431C4911
:106B0C0002339B000B445A60009A0A9B13400233D9
:106B1C009B00174A134404330593039B03F00703AC
:106B2C00D9B2059A137861F3C5031370019B03F076
:106B3C000F03D9B2059A138861F389131380029B52
:106B4C00C3F31501059A136861F39F231360059A2B
:106B5C001378012161F301031370059A13786FF315
:106B6C008203137000BF09B05DF804FB88050300B5
:106B7C008C24002000B58DB00390029113468DF843
:106B8C000730039B02330A9301238DF8273000232F
:106B9C008DF81B300DF11B03184601F0ABFE404B7A
:106BAC001A68029B1A603E4B9A683D4B59683C4BE5
:106BBC001B68CB1A134401330B9314E001213948A1
:106BCC0001F08DFFFFF7DEFE07900799354801F0C5
:106BDC0086FF334B9A68324B5968314B1B68CB1A82
:106BEC00134401330B930A9A0B9B9A42E6D89DF8F7
:106BFC002730002B48D0002305939DF80730002B3D
:106C0C0017D09DF81430012262F301038DF8143073
:106C1C009DF8143043F004038DF81430039B03F0FB
:106C2C000F03DAB2BDF8143062F38913ADF81430E7
:106C3C0016E09DF81430022262F301038DF8143033
:106C4C009DF8143043F004038DF81430039BC3F308
:106C5C0009039AB2BDF8163062F38F13ADF81630F3
:106C6C000F4B1A680E4B9B68134002339B000C4A67
:106C7C00134404330893059A089B1A60084B1A684E
:106C8C000A9B1344064A13609DF81B30184601F00A
:106C9C0047FE9DF8273018460DB05DF804FB00BF89
:106CAC008C240020A828002000B58BB005900491FE
:106CBC00039202931F4B9B68079306AB0122194664
:106CCC000298FFF757FF0346002B24D0069B023394
:106CDC0009930023089311E0089B9B00039A1A4424
:106CEC00099B591C099107990B40126811490233F1
:106CFC009B000B445A60089B01330893089A029B33
:106D0C009A42E9D3069A079B00931346029A049978
:106D1C000598FFF7D5FE074B93F82034002B04D0D1
:106D2C0000F066F80346002BFAD100BF0BB05DF8FB
:106D3C0004FB00BF8C24002000B583B001900091AF
:106D4C000023002200990198FFF7AEFF00BF03B0AB
:106D5C005DF804FB00B587B0039002910192019B92
:106D6C00059305AA012302990398FFF79DFF00BF25
:106D7C0007B05DF804FB00B587B003900291019257
:106D8C000093019B0493009B059304AA0223029990
:106D9C000398FFF789FF00BF07B05DF804FB00B54F
:106DAC008BB00390029101920093019B0593009B81
:106DBC0006930C9B07930D9B08930E9B099305AAB6
:106DCC00052302990398FFF76FFF00BF0BB05DF826
:106DDC0004FB0000054B5A68044B1B689A420CBF1D
:106DEC0001230023DBB21846704700BF8C2400201F
:106DFC0000B599B0FFF7EEFF0346002B01D000233E
:106E0C00B6E1994B0022C3F81824BFF34F8F00BF93
:106E1C00954B5B680493944B9B681093049A109B5E
:106E2C00134002339B00904A134404331293002303
:106E3C0017930023169300230F9304AB1946129853
:106E4C00FFF73EFD0346002B14D0874B1A68049BBA
:106E5C009A4205D8844B1B68834A5360002387E110
:106E6C00049A109B134002339B007F4A1344043353
:106E7C001293E2E700BF0023159311E0049B5A1C08
:106E8C000492109A1340159A920001A90A4476496B
:106E9C0002339B000B445B681360159B0133159305
:106EAC00159B012BEAD99DF8043003F00303DBB2E8
:106EBC00022B40F09C80BDF80630C3F389139BB2C3
:106ECC000D93BDF80630C3F389139BB2502B28BF2A
:106EDC0050239BB20C930C9BC3F309039AB2BDF8DD
:106EEC00063062F38F13ADF806300C9B08330B930E
:106EFC009DF80430C3F3C203DBB20F930B995B48CC
:106F0C0002F015FB1790179B002B00F0D1801798FF
:106F1C0002F09EFB01A9169B0822179802F044FC74
:106F2C00169B08331693049BDA43109B13400133D2
:106F3C009B000A930C9A0A9B9A4242D90A9B002BFB
:106F4C0008D0049A109B134002339B00464A13440A
:106F5C00043300E0464B08930A9B002B02D00A9B9B
:106F6C00DBB201E00C9BDBB28DF81F300A9B002BCF
:106F7C0001D03F4B00E0002306930A9B002B06D068
:106F8C000C9BDAB20A9BDBB2D31ADBB200E0002313
:106F9C008DF817309DF81F20169B0899179802F052
:106FAC0003FC9DF81F30169A13441693069B002B76
:106FBC0016D09DF81720169B0699179802F0F4FB33
:106FCC000EE0049A109B134002339B00264A134494
:106FDC0004330993169B0C9A0999179802F0E4FB59
:106FEC000D9B03339A08049B1344049360E09DF8B3
:106FFC00043003F00303DBB2012B59D1BDF804308C
:10700C00C3F38313DBB2062B28BF0623DAB2BDF819
:10701C00043062F38913ADF80430BDF80430C3F3C7
:10702C008313DBB202330E939DF80430C3F3C20317
:10703C00DBB20F930E9B9B0019460C4802F077FABB
:10704C001790179B002B33D0179802F001FB01A966
:10705C00169B0822179802F0A7FB169B0833169371
:10706C00002315931BE000BF8C240020A403030015
:10707C0098240020049B5A1C0492109A134002334B
:10708C009B003D4A1344191D169B0422179802F0CD
:10709C008BFB169B04331693159B01331593BDF88C
:1070AC000430C3F38313DBB21A46159B9342E1D32E
:1070BC00179B002B3FD0304BD3F8103414932E4B2E
:1070CC00D3F81834002B1AD0179802F0D0FA49E0F4
:1070DC0000238DF84F301498FFF70DFB0346002B5F
:1070EC0002D001238DF84F309DF84F30002B03D088
:1070FC0017991498FFF7BEFA149B5B681493149BB2
:10710C00002BE5D1179802F0B2FA00238DF803306A
:10711C000DF10303184601F0EDFB174BD3F81834AF
:10712C00002B02D1049B144A53609DF8033018467F
:10713C0001F0F6FB16E0104BD3F81034119305E078
:10714C001198FFF7B1FA119B5B681193119B002BFF
:10715C00F6D10A4B1B881B0443F00203084918465E
:10716C00FFF7EAFDFFF736FE034683F00103DBB2BF
:10717C00184619B05DF804FB8C240020CC220020AA
:10718C002006030000B585B00023039322E0164BC4
:10719C00D3F81034029301238DF807300EE00298D7
:1071AC00FFF79AFA03461A46039B934203D1002336
:1071BC008DF8073005E0029B5B680293029B002B65
:1071CC00EDD19DF80730002B01D0039B07E0039B0A
:1071DC0001330393039B092BD9DD4FF0FF33184682
:1071EC0005B05DF804FB00BF8C24002000B585B011
:1071FC0001900B468DF80330FFF7C4FF0390039BFF
:10720C00B3F1FF3F01D1039B1EE0039BDBB2194698
:10721C000198FFF755FA0E4BD3F81034002B07D119
:10722C000B4A019BC2F81034019B00225A600AE001
:10723C00074BD3F810345A68019B5A60044BD3F8AF
:10724C001034019A5A60039B184605B05DF804FB94
:10725C008C24002000B583B00C4BD3F81034019370
:10726C000A4B012283F8202408E00198FFF73BFA2F
:10727C000198FFF70DFA019B5B680193019B002BB2
:10728C00F3D100BF00BF03B05DF804FB8C240020D9
:10729C0082B00190009100BF02B0704710B584B06D
:1072AC0003900291039BDB88002B0AD0039BDB88A5
:1072BC001A461F4B009313461E4A1F49029801F0B1
:1072CC0087FD039B1B7A052B2ED0039B5B7A002B2F
:1072DC0012D0039B9B881A46039B1B7A19461046B7
:1072EC00FFF7B6FA03461A46144B53F822301A46E7
:1072FC001349029801F06CFD039B1B681946029818
:10730C00FFF7C6FF039B1B7A1A460E4B53F822401D
:10731C00039B9B8800211846FFF77AFA0346224606
:10732C000949029801F054FD00BF04B010BD00BF24
:10733C0054060300640603009C060300202300206F
:10734C00B40603000C230020B806030000B585B07A
:10735C000390029113468DF80730039B1B7A052B83
:10736C000FD0039B5B7A002B06D00D4B1B681A4683
:10737C000C49029801F02CFD0B49029801F028FDF4
:10738C0007E09DF80730002B03D00749029801F065
:10739C001FFD029801F0FAFC00BF05B05DF804FB7C
:1073AC0020230020B4060300C406030030B58BB0C4
:1073BC0007900691059204930E9B1B7B8DF827304A
:1073CC000E9B00221A730E990498FFF767FF059B1A
:1073DC00062B7FD801A252F823F000BF05740200DF
:1073EC000F7402001F740200337402005174020007
:1073FC0079740200A974020007990E9801F0E8FC58
:10740C0069E0069B1B681A4607990E9801F0E0FC90
:10741C0061E0069B1A68069B04331B6807990E985B
:10742C0001F0D6FC57E0069B1A68069B04331968DA
:10743C00069B08331B6800930B4607990E9801F0C6
:10744C00C7FC48E0069B1968069B04331868069B2A
:10745C0008331B68069A0C3212680192009303469B
:10746C000A4607990E9801F0B3FC34E0069B1868A5
:10747C00069B04331C68069B08331B68069A0C3267
:10748C001268069910310968029101920093234603
:10749C00024607990E9801F09BFC1CE0069B1C68A9
:1074AC00069B04331D68069B08331B68069A0C3236
:1074BC001268069910310968069814300068039018
:1074CC000291019200932B46224607990E9801F0E7
:1074DC007FFC00E000BF00220E990498FFF736FFF6
:1074EC000E9B9DF827201A7300BF0BB030BD00BF58
:1074FC0000B587B00390029101920093029B082B78
:10750C005CD8009B1B7B8DF81330009B00221A73F8
:10751C0000990198FFF7C2FE0023059314E0059A29
:10752C00029B9A4209D2039A059B13441B781A4674
:10753C002449009801F04CFC03E02349009801F029
:10754C0047FC059B01330593059B072BE7D91F4986
:10755C00009801F03DFC0023059322E0059A029B64
:10756C009A4217D2039A059B13441B788DF812305C
:10757C009DF81230184608F0E4FD0346002B02D0AB
:10758C009DF8123000E02E231A461149009801F0A4
:10759C001FFC03E00F49009801F01AFC059B013316
:1075AC000593059B072BD9D9012200990198FFF768
:1075BC00CDFE009B9DF813201A7300E000BF07B0AE
:1075CC005DF804FBC8060300D0060300D4060300D4
:1075DC00D8060300DC0603002DE9F04F93B00B90A6
:1075EC0000238DF84730B0E05E4B1A689DF84730A9
:1075FC00DB0013441093109B1B781C464FF00102C8
:10760C004FF00003A4F12001C4F1200003FA04FBA5
:10761C0002FA01F14BEA010B22FA00F04BEA000BE3
:10762C0002FA04FACDE90EAB4F4BD3E90001DDE9C8
:10763C000E2300EA020400940B400193DDE90012D2
:10764C000B4613437CD0DDE90E23D1430291DB437F
:10765C000393454BD3E90023DDE902452146114054
:10766C00049129460B4005933F4BDDE90412C3E915
:10767C000012109B1B78184603F008FE03468DF889
:10768C003730109B1B781C464FF001024FF0000363
:10769C00A4F12001C4F1200003FA04F902FA01F16B
:1076AC0049EA010922FA00F049EA000902FA04F851
:1076BC002E4BD3E9002308EA0201069109EA0303E1
:1076CC0007939DF83730002208930992109B1B7882
:1076DC001946A1F12003C1F12002DDE90845284635
:1076EC0000FA01F7204600FA03F31F43234623FA5E
:1076FC0002F21743234603FA01F6DDE906120B46A4
:10770C00BA4208BFB3421BD19DF83720109B5B785F
:10771C00012B0CBF01230023DBB29A420CBF0123C7
:10772C000023DBB20C93109B5B68002B08D0109BE2
:10773C005C68109B1A780C9BDBB219461046A0476C
:10774C009DF8473001338DF84730094B1A789DF876
:10775C0047309342FFF448AF00BF00BF13B0BDE801
:10776C00F08F00BFB0280020E8280020E02800207F
:10777C00B42800202DE9704F90B00B900B468DF87B
:10778C002B304FF001024FF000030B9EA6F12001AD
:10779C00C6F1200003FA06F502FA01F10D4322FAB4
:1077AC0000F0054302FA06F4CDE90E45384B1846B5
:1077BC0001F00AF80D900D9B002B65D1354BD3E9E8
:1077CC000001DDE90E2300EA020400940B40019352
:1077DC00DDE900120B46134341D10B9803F056FD23
:1077EC000346002B0FD02C4BD3E90001DDE90E230F
:1077FC0040EA020402940B430393274BDDE9021287
:10780C00C3E9001213E0DDE90E236FEA020A6FEA06
:10781C00030B214BD3E900230AEA020104910BEA82
:10782C00030305931C4BDDE90412C3E90012194B49
:10783C00D3E90001DDE90E2340EA020406940B4370
:10784C000793144BDDE90612C3E900121048134BE1
:10785C001B680022194600F085FF0D9015E0DDE94C
:10786C000E236FEA02086FEA03090A4BD3E90023DF
:10787C0008EA0201089109EA03030993054BDDE9C3
:10788C000812C3E9001200E000BF10B0BDE8708F11
:10789C00BC280020E8280020E0280020B828002080
:1078AC0000B58BB003900B4601928DF80B30019B09
:1078BC00042B01D807235AE003F09CFB034683F00A
:1078CC000103DBB2002B09D003F042FB0990099BAA
:1078DC000893089B002B01D0089B48E0264A039B89
:1078EC001360264A9DF80B301370254A019B1360D8
:1078FC0024494FF000024FF00003C1E90023224954
:10790C004FF000024FF00003C1E9002322E09DF884
:10791C000B30DB00039A1344079305AB00210A4696
:10792C001A800A469A7003238DF81430079B9B78B3
:10793C008DF81530079B1B78184605AB134A194672
:10794C0003F064FB0990099B0693069B002B01D066
:10795C00069B0CE09DF80B305A1E8DF80B20002B6B
:10796C00D5D10B4A00210B4800F0CCFE034618463B
:10797C000BB05DF804FB00BFB0280020B428002039
:10798C00B8280020E0280020E82800208177020099
:10799C00E5750200E006030000B583B0114B1B68CF
:1079AC00002B03D11049BA2005F026FB00230193CC
:1079BC000CE00C4B1A68019BDB0013441B78012173
:1079CC00184603F09DFB019B01330193074B1B7879
:1079DC001A46019B9342ECD30023184603B05DF882
:1079EC0004FB00BFB0280020E4060300B4280020EC
:1079FC0000B583B0124B1B68002B03D11149C82072
:107A0C0005F0FAFA002301930BE00D4B1A68019B69
:107A1C00DB0013441B78184603F0FAFB019B01337F
:107A2C000193094B1B781A46019B9342EDD3074BEC
:107A3C00184600F0C9FE0346184603B05DF804FB77
:107A4C00B0280020E4060300B4280020BC28002045
:107A5C0086B003900291019201238DF817309DF8A6
:107A6C001730214A039B13601F4A029B53601E4A26
:107A7C00019B9360039B44F20102934213D0039B3E
:107A8C0044F20202934221D1019B174AD360164B58
:107A9C00DB681B881A46144B9A61134BDB685B68D6
:107AAC00114AD36112E0019B0F4A13610E4B1B6903
:107ABC009B680D4A53610C4B1B691B680A4A936106
:107ACC00094B1B695B68084AD36100BF72B600BFE3
:107ADC0000BF9DF81730DBB2002BFAD162B600BFA5
:107AEC0000BF06B0704700BFF028002000B583B07F
:107AFC0002900091019244F2010071466A4600F036
:107B0C0003F803B000BD00BF30B58BB007900691F1
:107B1C00059272B600BFFFF79DFBFFF769F90346AC
:107B2C00002BFAD1079B44F2020293422BD0079B05
:107B3C0044F20202934261D8079B44F20102934241
:107B4C0032D0079B44F20102934257D8079B012B7A
:107B5C0005D0079B41F2010293420AD04EE0344B10
:107B6C001B881B0443F0010332491846FFF7E4F865
:107B7C004FE02F4B1B881B0443F001032E49184682
:107B8C00FFF7DAF845E0059B0993294B1B881B048A
:107B9C0043F001031846099B5B681A46099B1B8836
:107BAC002649FFF7E8F834E0059B0893204B1B8827
:107BBC001B0443F001031D46089B9C68089B9B68B3
:107BCC00184601F00FFF03461846089B5B681946E0
:107BDC00089B1B68069A0292019300910346224669
:107BEC0017492846FFF7DBF8114B1B881B0443F0A1
:107BFC00010314491846FFF79FF80AE00C4B1B8849
:107C0C001B0443F00103069A0F491846FFF7A2F82C
:107C1C0000BF0E4B1B6803F00103002B00D000BE0D
:107C2C00059A06990798FFF713FF00BF0BB030BDFC
:107C3C00CC2200206807030088070300AC07030070
:107C4C00C8070300F007030004080300F0ED00E090
:107C5C0082B003468DF807309DF8073003F01F0201
:107C6C0005499DF907305B09012000FA02F241F841
:107C7C00232000BF02B0704700E100E082B0034651
:107C8C008DF807309DF8073003F01F0206499DF967
:107C9C0007305B09012000FA02F2203341F823205F
:107CAC0000BF02B0704700BF00E100E082B00346A5
:107CBC008DF807309DF8073003F01F0206499DF937
:107CCC0007305B09012000FA02F2403341F823200F
:107CDC0000BF02B0704700BF00E100E082B0034675
:107CEC008DF807309DF8073003F01F0206499DF907
:107CFC0007305B09012000FA02F2603341F82320BF
:107D0C0000BF02B0704700BF00E100E082B0034644
:107D1C0000918DF807309DF90730002B0CDA009B91
:107D2C00DAB20C499DF8073003F00F03043B520103
:107D3C00D2B20B441A7609E0009BDAB206499DF9DF
:107D4C0007305201D2B20B4483F8002300BF02B0BB
:107D5C00704700BF00ED00E000E100E000B585B029
:107D6C000190019B002B0AD0074B43F001030393B6
:107D7C00019B9B010293039B0298984700E000BF74
:107D8C0005B05DF804FB00BF2008030000B583B00C
:107D9C000190064A019BC2F8083507211120FFF714
:107DAC00B5FF00BF03B05DF804FB00BF001001403D
:107DBC0008B50D4B4FF48032C3F844230A4B4FF4F3
:107DCC008032C3F804231120FFF788FF1120FFF73E
:107DDC003FFF054B01221A602F20FFF7BFFF034B1B
:107DEC0001221A7000BF08BD001001402E2A00208D
:107DFC0008B51120FFF742FF0E4B4FF48032C3F849
:107E0C0048230C4B4FF48032C3F80823094B012252
:107E1C005A602F20FFF7A2FF064B01229A60064BF7
:107E2C0000221A602F20FFF799FF044B00221A70D2
:107E3C0000BF08BD00100140202A00202E2A00207F
:107E4C00024BD3F804351846704700BF00100140B0
:107E5C0082B001900091019A009BD31A23F07F43CA
:107E6C00184602B07047000082B00190034A019B93
:107E7C00C2F8403500BF02B0704700BF001001408F
:107E8C0086B00190284B1B68002B03D1264A019B1E
:107E9C00136045E0019B1A68234B1B681B689A42D0
:107EAC0010D8214B1B681968019B1A681E4B1B6864
:107EBC008A1A1A601C4B1A68019BDA611A4A019BD8
:107ECC0013602DE0019B1B680393174B1B680593F4
:107EDC00154B1B68049309E0049B1B68039AD31A87
:107EEC000393049B0593049BDB690493049B002B75
:107EFC0004D0049B1B68039A9A42EDD8049B002B78
:107F0C0005D0049B1A68039BD21A049B1A60019B30
:107F1C00039A1A60019B049ADA61059B019ADA6153
:107F2C0000BF06B0704700BF1C2A002000B587B008
:107F3C0001902A4B1B680393284B1B680593059BE8
:107F4C00049308E0049A019B9A4208D0049B059381
:107F5C00049BDB690493049B002BF3D100E000BF6E
:107F6C00049B002B01D1002333E0059A049B9A4219
:107F7C0014D11A4B1B68DB69184A1360174B1B682A
:107F8C00002B0BD1164B01229A60164B00221A6063
:107F9C00154B01221A702F20FFF7E0FE049B1B6883
:107FAC000293049BDA69059BDA61059BDB690493F8
:107FBC00049B002B05D0049B1A68029B1A44049B5B
:107FCC001A60064B1B68039A9A4214BF01230023C4
:107FDC00DBB2184607B05DF804FB00BF1C2A00207A
:107FEC0000100140202A00202F2A002008B5112063
:107FFC00FFF75CFE00BF08BD08B51420FFF756FE66
:10800C0000BF08BD00B583B00190019B5B69019A6C
:10801C0092691046984700BF03B05DF804FB00005E
:10802C0000B585B02B4B1B68002B4ED00023019361
:10803C00FFF706FF0246284B1B6819461046FFF750
:10804C0007FF0290234B1B6803931DE0039B1B68E7
:10805C00029A9A421CD3039B1B68029AD31A02936E
:10806C00039B1B68019A13440193039B0093039B8E
:10807C00DB690393009B1B7C002B05D0009B00222B
:10808C001A740098FFF7BEFF039B002BDED100E0B3
:10809C0000BF124B1A78124B1B789A420CD1104B22
:1080AC001B780133DAB20E4B1A700D4B1B78022B76
:1080BC0002D10B4B00221A70094B1B781946094A46
:1080CC00019B42F82130FFF797FF00BF05B05DF828
:1080DC0004FB00BF1C2A0020202A00202C2A002090
:1080EC002D2A0020242A002082B00190184B1A78E7
:1080FC00184B1B789A4223D0154B1B780133DAB2FC
:10810C00134B1A70124B1B78022B02D1104B00220E
:10811C001A700F4B1B781A460F4B53F82220019BF9
:10812C001A60019B1A680D4B1B6813440B4A1360B1
:10813C000A4B1B6823F07F43084A1360012303E0BA
:10814C00019B00221A600023184602B0704700BF42
:10815C002C2A00202D2A0020242A0020202A00204E
:10816C0088B00390029101920023079338E0204BD2
:10817C001B680693069B1B68039A9A4206D2069BC1
:10818C001A68039BD21A069B1A602EE0069B1B688A
:10819C00039AD31A0393069B1B68079A13440793FD
:1081AC00069B00221A60124B1B680593069BDB6929
:1081BC000F4A1360069BDB68002B11D0029A079BB9
:1081CC00134423F07F42069B5A60069BDA68069B99
:1081DC009A60019B1A68069BDA61019B059A1A60EA
:1081EC00034B1B68002BC2D100BF00BF08B0704707
:1081FC001C2A002000B589B0019000238DF81F3097
:10820C00664B1B680593AAE0019B002B05D0019BD4
:10821C000693069BDB69019361E0614B1B781A4660
:10822C0013465B001344DB005D4A13440433049390
:10823C005B4B1B780133DAB2594B1A70584B1A78D6
:10824C00574B9B789A4202D1554B00221A70049BD3
:10825C005B680693049B1B78032B1ED0032B7EDCE0
:10826C00012B1FD0022B7AD1049B5B681846FFF7B9
:10827C005DFE0346002B02D001238DF81F30069BB8
:10828C0000221A746BE0454B1B680393039B00227E
:10829C001A74039BDB69414A1360404B1B68002B2B
:1082AC00F1D15CE000BF069B1B7C002B00D056E09C
:1082BC00049B9A68069B5A60049BDA68069B9A603A
:1082CC00049B1A69069BDA60049B5A69069B9A61A7
:1082DC00344B1B78002B02D0069B00225A60069B65
:1082EC005A68314B1B68D31A23F07F432F4A9342B1
:1082FC000ED8069B5B682C4A126811461846FFF78D
:10830C00A7FD0246069B9B681A44069B1A6017E061
:10831C00254B1A68069B5B6819461046FFF798FDBB
:10832C000290069B9B68029A9A4206D2069B9A6818
:10833C00029BD21A069B1A6002E0069B00221A606E
:10834C00069B00225A60069B00229A60069B012223
:10835C001A74069B0022DA610698FFF791FD019BC7
:10836C00002B7FF451AF0E4B1A780D4B5B789A4271
:10837C007FF44AAF9DF81F30002B04D1074B1B68CC
:10838C00059A9A4201D0012300E0002303F0010377
:10839C00DBB2184609B05DF804FB00BF1C2A0020B4
:1083AC00102900202F2A0020202A0020FEFF7F0009
:1083BC0010B588B00190274B1B68002B44D0254B7F
:1083CC001B681B680793FFF73BFD0690224B1B684D
:1083DC00059305990698FFF73BFD03460333049379
:1083EC001E4B1B7883F00103DBB2002B01D0FFF78F
:1083FC00DFFC049A079B934238BF1346059A13443B
:10840C000593059B23F07F4305930598FFF72CFDFF
:10841C00FFF716FD039006990398FFF719FD034625
:10842C00DC1C06990598FFF713FD03469C420DD9F9
:10843C00FFF706FD03461846FFF716FD2F20FFF742
:10844C008DFCFFF7D3FD01E0FFF7D2FC00BF08B0B5
:10845C0010BD00BF1C2A0020202A00202E2A00203C
:10846C0000B587B00023019300238DF81730194B0A
:10847C001B680493184B1B6803936B461846FFF755
:10848C0033FE03468DF80B309DF80B30002B08D0D3
:10849C00009B01AA04991846FFF762FE01238DF890
:1084AC001730019B1846FFF7A5FE0346002B02D0A0
:1084BC0001238DF817309DF81730002B02D003984C
:1084CC00FFF776FF054B00221A7000BF07B05DF86E
:1084DC0004FB00BF202A00201C2A00202F2A002089
:1084EC0082B003468DF80730034A9DF8073053706D
:1084FC0000BF02B0704700BF1029002084B001906B
:10850C00144B5B7801338DF80F30124B9B789DF830
:10851C000F209A4202D100238DF80F300D4B1B789F
:10852C009DF80F209A4201D100230FE0019B9DF88A
:10853C000F201A70074B5B781A4613465B001344E6
:10854C00DB00044A134404330293029B184604B024
:10855C00704700BF1029002000B589B0039002912C
:10856C00019200930023079300238DF816300DF130
:10857C001603184600F0BEF90DF117031846FFF765
:10858C00BDFF0690069B002B02D10423079318E035
:10859C00069B01221A70069B039A5A60FFF750FC47
:1085AC000246069B9A60069B029ADA60069B019A29
:1085BC001A61069B009A5A619DF817301846FFF70E
:1085CC008FFF9DF81630184600F0AAF9079B002B78
:1085DC0001D1FFF711FD079B184609B05DF804FBAC
:1085EC0000B587B001900B468DF80330002305933E
:1085FC0000238DF80E300DF10E03184600F07AF9B9
:10860C000DF10F031846FFF779FF0490049B002B24
:10861C0002D1042305930BE0049B9DF803201A70F0
:10862C00049B019A5A609DF80F301846FFF758FFCB
:10863C009DF80E30184600F073F9059B002B01D104
:10864C00FFF7DAFC059B184607B05DF804FB000049
:10865C0008B50E4B0022C3F840210C4B0022C3F886
:10866C0044210A4B0022C3F84821084B0022C3F8CE
:10867C004C21064B0022C3F80021044B0022C3F806
:10868C000421FFF7CDFC00BF08BD00BF0010014066
:10869C0008B5FFF7E5FE00BF08BD000008B5FFF701
:1086AC00A7FB134B00221A70114B00225A70104B6F
:1086BC000B229A700F4B00221A600F4B00221A707B
:1086CC000E4B00221A701420FFF708FB0721142010
:1086DC00FFF71CFB1420FFF7BBFA0020FFF756FB3B
:1086EC00FFF7AEFB0346064A13600023184608BD8D
:1086FC00102900201C2A00202C2A00202D2A0020C2
:10870C00202A002086B003900B4601928DF80B3086
:10871C00134B9B78002B01D108231EE0019B002BEF
:10872C0001D1072319E0039B002B01D1072314E08F
:10873C00039B1B681B7C002B01D008230DE0039BC3
:10874C001B680593059B00221A74059B9DF80B2052
:10875C005A74059B019A5A610023184606B070475B
:10876C001029002000B587B0039002910192039B61
:10877C000593144B9B78002B01D108231EE0039B1F
:10878C00002B01D1082319E0029B042B01D80723ED
:10879C0014E0059B5B69002B01D108230EE0059BBF
:1087AC005B7C012B01D1029B00E000230493019B15
:1087BC00049A02990598FFF7CFFE0346184607B0B6
:1087CC005DF804FB1029002000B585B00190019BD9
:1087DC0003930D4B9B78002B01D1082310E0019BD8
:1087EC00002B03D0039B5B69002B01D1082307E00E
:1087FC00039B00221A7402210398FFF7F1FE034633
:10880C00184605B05DF804FB1029002082B0EFF388
:10881C0010830093009B019372B600BF019B184616
:10882C0002B0704762B600BF00BF704700B585B09C
:10883C000190FFF7EBFF0390164B9B68002B1BD1AD
:10884C00144B01229A60144BD3F88020134B134025
:10885C00104A1360104B114AC3F880200E4BD3F80A
:10886C0084300C4A53600C4B4FF0FF32C3F8842019
:10887C00019B00221A7002E0019B01221A70039BDB
:10888C00002B01D1FFF7CEFF0023184605B05DF891
:10889C0004FB00BF302A002000E100E0FC06FFBD15
:1088AC0000B585B003468DF80730104B9B68002B44
:1088BC0016D09DF80730002B12D1FFF7A7FF0390BD
:1088CC000B4A0A4B1B681360094A084B5B685360E0
:1088DC00064B00229A60039B002B01D1FFF7A2FFED
:1088EC000023184605B05DF804FB00BF302A0020B9
:1088FC0000E100E000B583B0019000F02BF80346D6
:10890C00012B03D00549432004F076FB0198FFF7B7
:10891C008DFF00BF03B05DF804FB00BF2808030007
:10892C0000B583B003468DF8073000F013F803460A
:10893C00012B03D00649512004F05EFB9DF8073053
:10894C001846FFF7ADFF00BF03B05DF804FB00BF96
:10895C002808030084B0EFF305830193019BC3F354
:10896C0008030393039B002B0DD1EFF314830093A7
:10897C00009B0293029B03F00103002B0CBF01230D
:10898C000023DBB200E00123184604B0704700B5A9
:10899C0085B001900091009B5B099B00019A1A44E1
:1089AC00009B03F01F03012101FA03F31946104643
:1089BC0000F04DF8039000BF05B05DF804FB00B566
:1089CC0085B001900091009B5B099B00019A1A44B1
:1089DC00009B03F01F03012101FA03F3DB4319464B
:1089EC00104600F064F8039000BF05B05DF804FB7E
:1089FC0082B001900091009B5B099B00019A13448B
:108A0C001A68009B03F01F0322FA03F303F001031F
:108A1C00002B14BF01230023DBB2184602B07047B1
:108A2C0010B487B001900091019B009A53E8004F5D
:108A3C00104643E8000191F0000FF7D10594049023
:108A4C000391059B184607B05DF8044B704710B4B2
:108A5C0087B001900091019B009A53E8004F44EAC3
:108A6C00020043E8000191F0000FF6D10594049048
:108A7C000391049B184607B05DF8044B704710B483
:108A8C0087B001900091019B009A53E8004F04EAD3
:108A9C00020043E8000191F0000FF6D10594049018
:108AAC000391059B184607B05DF8044B704710B452
:108ABC0087B001900091019B009A53E8004F04EAA3
:108ACC00020043E8000191F0000FF6D105940490E8
:108ADC000391049B184607B05DF8044B704710B423
:108AEC0087B001900091019B009A53E8004F04EB72
:108AFC00020043E8000191F0000FF6D105940490B8
:108B0C000391049B184607B05DF8044B704710B4F2
:108B1C0087B001900091019B009A53E8004FA4EBA1
:108B2C00020043E8000191F0000FF6D10594049087
:108B3C000391049B184607B05DF8044B704700B5D1
:108B4C0083B0019001210198FFF781FF034618467D
:108B5C0003B05DF804FB00B583B0019000210198CF
:108B6C00FFF78DFF0346184603B05DF804FB0000C9
:108B7C0000B583B001900B468DF80330019B002BA0
:108B8C0003D10849E82004F037FA019BDA689DF814
:108B9C0003300199898A01FB03F31344184603B08F
:108BAC005DF804FBB008030000B583B001900091A0
:108BBC00019B002B03D10849F52004F01DFA009B02
:108BCC00019AD2689B1A019A928AB3FBF2F3DBB238
:108BDC00184603B05DF804FBB008030000B585B07F
:108BEC000190019B002B01D10E234CE0019B1B68D3
:108BFC00002B03D12649FF2004F0FEF9019B5B6892
:108C0C00002B04D122494FF4807004F0F5F9019B3C
:108C1C009B68002B04D11E4940F2011004F0ECF9C2
:108C2C00019BDB68002B04D119494FF4817004F0CF
:108C3C00E3F9019B9B8A002B04D1154940F20310E8
:108C4C0004F0DAF9019B9A68019B5B68D31A8DF8E2
:108C5C000F30019B1B68019A52681A6007E0019B58
:108C6C001A681368591C11609DF80F201A709DF832
:108C7C000F305A1E8DF80F20002BF0D1019B1B6872
:108C8C0000221A710023184605B05DF804FB00BFE2
:108C9C00B008030000B585B00190019B002B04D1F6
:108CAC001F494FF4927004F0A7F90023039300239B
:108CBC008DF80A300DF10A031846FFF71BFE019BD5
:108CCC001B681A68019B5B689A421FD9019B1B6841
:108CDC001A68013A1A601B681B7819460198FFF74D
:108CEC0047FF0390019B9A68019B1B681B68D31A72
:108CFC008DF80B30019B1B681B799DF80B209A4259
:108D0C0004D9019B1B689DF80B201A719DF80A3041
:108D1C001846FFF705FE039B184605B05DF804FBEB
:108D2C00B008030010B584B001900091019B002B9A
:108D3C0004D1154940F2471004F05EF9009B002B5A
:108D4C0004D111494FF4A47004F056F9009B03931D
:108D5C0000238DF80B300DF10B031846FFF7CAFDFD
:108D6C00019B1B681C68621C1A6003990198FFF731
:108D7C001BFF034623709DF80B301846FFF7D0FD00
:108D8C0000BF04B010BD00BFB008030000B583B035
:108D9C000190019B002B03D10C49312004F02CF9DC
:108DAC00019B9B68002B0CD0019B5B69019A10699D
:108DBC00019A1168019A92689847019B00229A6067
:108DCC0000E000BF03B05DF804FB00BF34090300F2
:108DDC000EB400B584B00190019B002B03D118494F
:108DEC00422004F009F9019B5B69002B03D1144963
:108DFC00432004F001F9019B1B68002B03D110499F
:108E0C00442004F0F9F8019B5B68002B03D10C495A
:108E1C00452004F0F1F8059B002B0AD000230393A6
:108E2C0006AB039303AB1A460599019800F0B0F911
:108E3C0000E000BF04B05DF804EB03B0704700BF66
:108E4C003409030000B583B001900B468DF8033054
:108E5C00019B1A68019B9B68581C019988601344FC
:108E6C009DF803201A70019B9A68019B5B689A42DB
:108E7C0002D30198FFF78AFF00BF03B05DF804FB33
:108E8C0000B587B0039002910192009300230593E3
:108E9C00009B03F00103002B24D00BE0029B013359
:108EAC000293059B013305939DF8133019460398E3
:108EBC00FFF7C8FF029B1B788DF813309DF8133019
:108ECC00002BEBD106E0019B013B01932021039881
:108EDC00FFF7B8FF019A059B9A422ED9019B002BF4
:108EEC00F1D12AE0029B002B0BD0029807F064F919
:108EFC00059006E0019B013B019320210398FFF7AD
:108F0C00A1FF019A059B9A420FD9019B002BF1D12D
:108F1C000BE0029B01330293059B013305939DF8F3
:108F2C00133019460398FFF78DFF029B1B788DF8C1
:108F3C0013309DF81330002BEBD100BF07B05DF858
:108F4C0004FB000000B589B00390029101920093DC
:108F5C00029B07930123069307E0079A019BB2FB40
:108F6C00F3F30793069B01330693079A019B9A42EE
:108F7C00F3D2009A069B9A4201D9009B06930B9B55
:108F8C0003F00103002B22D10A9B002B1FD00B9B5B
:108F9C0003F00203002B06D0009B002B03D13023DF
:108FAC008DF8173002E020238DF8173008E00A9B6B
:108FBC00013B0A939DF8173019460398FFF742FFBF
:108FCC000A9B002B03D0069A0A9B9A42EFD30123EB
:108FDC000793009B012B03D9009B013B009309E0F5
:108FEC00029A079BB2FBF3F30493049A019B9A42F7
:108FFC0000D205E0079B019A02FB03F30793E8E715
:10900C00029A079BB2FBF3F30493049B079A02FBAF
:10901C0003F3029AD31A0293154A049B13441B7848
:10902C0019460398FFF70EFF079A019BB2FBF3F367
:10903C000793079B002BE3D10B9B03F00103002B41
:10904C0011D00A9B002B0ED006E00A9B013B0A9321
:10905C0020210398FFF7F6FE0A9B002B03D0069AFB
:10906C000A9B9A42F1D300BF09B05DF804FB00BF24
:10907C00300A030000B589B0059004910392029365
:10908C00049B002BB8BF5B4206930123079307E0B8
:10909C00039B069A92FBF3F30693079B013307930A
:1090AC00039B069A9A42F3DA029A079B9A4201D9D9
:1090BC00029B07930A9B002B0AD0049B002B04DB1A
:1090CC000B9B03F00403002B02D00A9B013B0A9379
:1090DC000B9B03F00203002B02D0029B002B16D03B
:1090EC000B9B03F00103002B11D10A9B002B0ED01C
:1090FC0006E00A9B013B0A9320210598FFF7A2FE8C
:10910C000A9B002B03D0079A0A9B9A42F1D3049B2B
:10911C00002B07DA049B5B4204932D210598FFF783
:10912C0091FE08E00B9B03F00403002B03D02B21D2
:10913C000598FFF787FE0B9B03F00203002B19D059
:10914C000B9B03F00103002B14D1029B002B11D1BC
:10915C000A9B002B0ED006E00A9B013B0A933021A0
:10916C000598FFF76FFE0A9B002B03D0079A0A9B0A
:10917C009A42F1D304990B9B01930A9B0093029B97
:10918C00039A0598FFF7DEFE00BF09B05DF804FBFB
:10919C0000B58FB0059004910392059B002B04D170
:1091AC00AD494FF49F7003F027FF059B5B69002BC3
:1091BC0004D1A9494FF4A07003F01EFF059B1B6856
:1091CC00002B04D1A44940F2411003F015FF059B7C
:1091DC005B68002B04D1A0494FF4A17003F00CFF85
:1091EC00049B002B00F09381049B1B788DF8373087
:1091FC00049B013304939DF83730002B00F07E81E3
:10920C009DF83730252B40F06D8100230A93012304
:10921C000C93049B1B788DF837309DF83730302B2E
:10922C000DD0302B1BDC2B2B11D02D2B17D10A9BE7
:10923C0043F001030A93049B0133049312E00A9B4D
:10924C0043F002030A93049B013304930AE00A9B44
:10925C0043F004030A93049B0133049302E00023BC
:10926C000C9300BF0C9B002BD3D1002309939DF8CA
:10927C0037302A2B0CD1039B1B68191D039A1160E4
:10928C001B68099A13440993049B013304931AE055
:10929C00049B1B788DF837309DF837302F2B12D963
:1092AC009DF83730392B0ED8049B01330493099A5F
:1092BC0013469B0013445B001A469DF83730134449
:1092CC00303B0993D3E700230B93049B1B788DF859
:1092DC0037309DF837302E2B1DD1049B013304936E
:1092EC00049B1B788DF837309DF837302F2B12D913
:1092FC009DF83730392B0ED8049B013304930B9A0D
:10930C0013469B0013445B001A469DF837301344F8
:10931C00303B0B93E4E7049B1B788DF837309DF8BA
:10932C0037306C2B03D09DF83730682B07D1049B5A
:10933C0001330493049B1B788DF83730EFE79DF8CD
:10934C003730252B00F0C480252BC0F2C680782B3B
:10935C0000F3C380582BC0F2C080583B202B00F286
:10936C00BC8001A252F823F069940200E794020039
:10937C00E7940200E7940200E7940200E7940200ED
:10938C00E7940200E7940200E7940200E7940200DD
:10939C00E7940200F99302001B940200E794020088
:1093AC00E7940200E7940200E79402001B94020089
:1093BC00E7940200E7940200E7940200E7940200AD
:1093CC00E7940200E7940200A9940200E7940200DB
:1093DC00E79402008D940200E79402003F9402008F
:1093EC00E7940200E794020069940200039B1B6857
:1093FC00191D039A11601B680C930C9B8DF81F3080
:10940C009DF81F3019460598FFF71CFD66E0039B7D
:10941C001B68191D039A11601B680C930A9B01931E
:10942C00099B00930B9B0A220C990598FFF722FECF
:10943C0054E0039B1B68191D039A11601B680C9365
:10944C000C990A9B0193099B00930B9B0A2205988C
:10945C00FFF778FD42E000BFB0090300039B1B68D7
:10946C00191D039A11601B680C930C990A9B0193AC
:10947C00099B00930B9B10220598FFF763FD2DE0D1
:10948C00039B1B68191D039A11601B6808930A9BA8
:10949C00099A08990598FFF7F3FC1FE0039B1B68DA
:1094AC00191D039A11601B680C9330210598FFF766
:1094BC00C9FC78210598FFF7C5FC0C990023019392
:1094CC0008230093082310220598FFF73BFD05E0C5
:1094DC0025210598FFF7B6FC00E000BF049B013383
:1094EC00049305E09DF8373019460598FFF7AAFC60
:1094FC00049B1B78002B7FF477AE00E000BF059B2C
:10950C001B7B002B04D00598FFF740FC00E000BF4C
:10951C000FB05DF804FB00BF00B583B0019001985B
:10952C00FFF75CFB0346184603B05DF804FB00B57F
:10953C008BB001900091019B9B8A043B0793009A8E
:10954C00079B1344DA1C079BB2FBF3F38DF81B301B
:10955C000198FFF79FFB0590059B002B01D1002381
:10956C0038E0059B00221A71059B01225A71079B5A
:10957C009AB2059BDA80059B09939DF81B30013B41
:10958C000493099B019A1A60002308931DE001982B
:10959C00FFF780FB0390039B002B0ED0059B5B79A0
:1095AC000133DAB2059B5A71099B039A1A60039B2B
:1095BC00019A1A60039B099304E0059800F00EF8D9
:1095CC00002307E0089B01330893089A049B9A42F6
:1095DC00DDD3059B18460BB05DF804FB00B58BB0D2
:1095EC000190019B0793079B5B798DF81B30019BC6
:1095FC0008939DF81B30013B05930023099305E06C
:10960C00089B1B680893099B01330993099A059BD6
:10961C009A42F5D3089B1B680493019B0893002383
:10962C0009930BE0089B1B68039308990498FFF7B8
:10963C0079FB039B0893099B013309939DF81B301D
:10964C00099A9A42EED300BF00BF0BB05DF804FB41
:10965C0000B585B00190019B0393039B043301215A
:10966C001846FFF73CFA00BF05B05DF804FB00B5E7
:10967C0087B00190019B0593059B0433012118468B
:10968C00FFF745FA0346039303AB0493049B1B7843
:10969C00002B02D10198FFF7A1FF00BF07B05DF8C6
:1096AC0004FB000000B58DB0039002910192009371
:1096BC00039B0693069BDB880593039B0B93009BF4
:1096CC001A1D059BB2FBF3F30A93009B0433059A16
:1096DC00B3FBF2F2059901FB02F29B1A0993009A73
:1096EC00019B1A44059B1344DA1C059BB2FBF3F354
:1096FC008DF81330069B5B799DF813209A420AD99A
:10970C002849BA2003F078FC05E00B9B1B680B93EF
:10971C000A9B013B0A930A9B002BF6D1002308936A
:10972C00059A099BD31A0793079A019B934228BF6A
:10973C00134607932DE09DF83830002B0BD0029A7E
:10974C00089BD0180B9A099B13440433079A1946AB
:10975C0006F062FD0AE00B9A099B1344181D029A4D
:10976C00089B1344079A194606F056FD00230993EB
:10977C000B9B1B680B93019A079BD31A0193089AB6
:10978C00079B13440893059A019B934228BF1346E9
:10979C000793019B002BCED100BF00BF0DB05DF82D
:1097AC0004FB00BF400A030000B587B0059004918C
:1097BC000392029300230093029B039A0499059849
:1097CC00FFF770FF00BF07B05DF804FB00B587B072
:1097DC00059004910392029301230093029B039A38
:1097EC0004990598FFF75EFF00BF07B05DF804FB16
:1097FC0082B003468DF807309DF8073003F01F0246
:10980C0006499DF907305B09012000FA02F260332A
:10981C0041F8232000BF02B0704700BF00E100E018
:10982C0000B583B00190019B002B03D10649722037
:10983C0003F0E2FB019B00221A60BFF35F8F00BFB5
:10984C0000BF03B05DF804FB240B030041DF70473D
:10985C0000BF184600B585B000238DF803300DF11C
:10986C0003031846FFF746F8F1EE103A0193019BFB
:10987C000393039B23F09F030293029BE1EE103AA8
:10988C0000BFBFF35F8F00BF2620FFF7B1FF9DF82D
:10989C0003301846FFF744F8039B03F00703002B33
:1098AC0003D00449762003F0A7FB00BF05B05DF898
:1098BC0004FB00BF680B030008B5064B00221A70AE
:1098CC000548FFF7ADFF0549054800F02FF80023C8
:1098DC00184608BD402A00203C2A0020F00B03004B
:1098EC00442A002000B583B0FFF7B4FF06F0ACF9B2
:1098FC000346002B0ED0FFF7A9FF0190019B002B14
:10990C000ED0019B022B0BD0074940F2591003F0EB
:10991C0073FB05E020BF00BF40BF00BF20BF00BFEE
:10992C0000BF03B05DF804FB680B030000B583B007
:10993C0001900091019B002B03D11049502003F0A2
:10994C005BFB009B002B03D10C49512003F054FB13
:10995C00019B009A1A60019B1B681A68019B5A6054
:10996C00019B5A68019B1B685B689A4202D1019B60
:10997C0000225A6000BF03B05DF804FBFC0B03002F
:10998C0000B583B00190019B002B03D114496320D7
:10999C0003F032FB019B1B68002B03D110496420A0
:1099AC0003F02AFB019B5B68002B14D0019B5B68C6
:1099BC001A46019B1B689B6813441A46019B5A600C
:1099CC00019B5A68019B1B685B689A4204D1019BFE
:1099DC0000225A6000E000BF03B05DF804FB00BF3A
:1099EC00FC0B030000B585B00190019800F00EF857
:1099FC000390039B002B01D0039B00E0024B184605
:109A0C0005B05DF804FB00BF980C030086B0019014
:109A1C00164B0593164B04931FE0049A059BD31A1F
:109A2C00DB10DA0F13445B10DB00059A134403932D
:109A3C00039B1B680293029A019B9A4202D9039BD7
:109A4C0004930AE0029A019B9A4203D2039B0833C7
:109A5C00059302E0039B5B6804E0059A049B9A4221
:109A6C00DBD30023184606B0704700BF98100300E4
:109A7C00C0110300BFF34F8F00BF074BDB6803F42B
:109A8C00E0620549054B1343CB60BFF34F8F00BF1A
:109A9C0000BF00BFFCE700BF00ED00E00400FA05CA
:109AAC00024B034A1A6000BF704700BF44230020DA
:109ABC000090D00308B500F069F90346002B06D0DE
:109ACC00A04B1B681B0AA04A03F01F03136000F095
:109ADC0089F90346002B02D09C4B9D4A1A6000F07A
:109AEC009DF90346002B06D09A4B1B685B0B9A4AD8
:109AFC0003F00703136000F0BDF90346002B05D0FB
:109B0C00964BDB68954A23F08073D36000F0CEF956
:109B1C000346002B0ED04FF080430022C3F80C21DB
:109B2C004FF080430022C3F810214FF080430022F5
:109B3C00C3F8382500F0E6F90346002B02D0884B19
:109B4C0003221A6000F0FAF90346002B0BD0854B68
:109B5C0005221A60844B01221A60844B00221A6081
:109B6C00834B3F221A6000F005FA0346002B76D097
:109B7C004FF080537F4AD3F80434C2F820354FF0AD
:109B8C0080537C4AD3F80834C2F824354FF0805304
:109B9C00784AD3F80C34C2F828354FF08053754A04
:109BAC00D3F81034C2F82C354FF08053714AD3F8E7
:109BBC001434C2F830354FF080536E4AD3F8183451
:109BCC00C2F834354FF080536A4AD3F81C34C2F8CB
:109BDC0040354FF08053674AD3F82034C2F84435EF
:109BEC004FF08053634AD3F82434C2F848354FF011
:109BFC008053604AD3F82834C2F84C354FF0805368
:109C0C005C4AD3F82C34C2F850354FF08053594A83
:109C1C00D3F83034C2F854354FF08053554AD3F84A
:109C2C003434C2F860354FF08053524AD3F838348C
:109C3C00C2F864354FF080534E4AD3F83C34C2F826
:109C4C0068354FF080534B4AD3F84034C2F86C352A
:109C5C004FF08053474AD3F84434C2F8703500F0C3
:109C6C00A5F90346002B05D0434B1B68434A03F070
:109C7C004F03136000F0C6F90346002B0DD04FF0D4
:109C8C008043D3F8003403F00103002B05D04FF0D0
:109C9C0080436FF00102C3F8002400F0DFF90346A3
:109CAC00002B05D0364B1B68354A43F48063136098
:109CBC00344BD3F88830334A43F47003C2F88830FD
:109CCC00BFF34F8F00BFBFF36F8F00BF4FF0102358
:109CDC00D3F80032002B05DB4FF01023D3F80432FD
:109CEC00002B2BDA284B0122C3F8042500BF264B8E
:109CFC00D3F80034002BFAD04FF010231522C3F800
:109D0C00002200BF204BD3F80034002BFAD04FF0C8
:109D1C0010231522C3F8042200BF1B4BD3F80034C8
:109D2C00002BFAD0184B0022C3F8042500BF164BA9
:109D3C00D3F80034002BFAD0FFF79CFEFFF7B0FEEF
:109D4C0000BF08BD240300104035014074C007401B
:109D5C000DF0ADBA440200103C050040F0ED00E0FF
:109D6C00A005004010560040885600401856004090
:109D7C001456004000C0004058020010E40E004091
:109D8C003C17004000ED00E000E00140124B1B6866
:109D9C00DBB2062B1DD1114B1B6803F00F03002BFC
:109DAC0017D10F4B1B6803F0F003302B01D10123AB
:109DBC0010E00B4B1B6803F0F003402B01D1012387
:109DCC0008E0074B1B6803F0F003502B01D1012373
:109DDC0000E0002318467047E00F00F0E40F00F09D
:109DEC00E80F00F00A4B1B68DBB2062B0DD1094BB8
:109DFC001B6803F00F03002B07D1074B1B6803F004
:109E0C00F003302B01D1012300E0002318467047EA
:109E1C00E00F00F0E40F00F0E80F00F0124B1B68AD
:109E2C00DBB2062B1DD1114B1B6803F00F03002B6B
:109E3C0017D10F4B1B6803F0F003302B01D101231A
:109E4C0010E00B4B1B6803F0F003402B01D10123F6
:109E5C0008E0074B1B6803F0F003502B01D10123E2
:109E6C0000E0002318467047E00F00F0E40F00F00C
:109E7C00E80F00F00A4B1B68DBB2062B0DD1094B27
:109E8C001B6803F00F03002B07D1074B1B6803F073
:109E9C00F003302B01D1012300E00023184670475A
:109EAC00E00F00F0E40F00F0E80F00F0124B1B681D
:109EBC00DBB2062B1DD1114B1B6803F00F03002BDB
:109ECC0017D10F4B1B6803F0F003302B01D101238A
:109EDC0010E00B4B1B6803F0F003402B01D1012366
:109EEC0008E0074B1B6803F0F003502B01D1012352
:109EFC0000E0002318467047E00F00F0E40F00F07C
:109F0C00E80F00F00A4B1B68DBB2062B0DD1094B96
:109F1C001B6803F00F03002B07D1074B1B6803F0E2
:109F2C00F003302B01D1012300E0002318467047C9
:109F3C00E00F00F0E40F00F0E80F00F00A4B1B6894
:109F4C00DBB2062B0DD1094B1B6803F00F03002B62
:109F5C0007D1074B1B6803F0F003302B01D1012311
:109F6C0000E0002318467047E00F00F0E40F00F00B
:109F7C00E80F00F00A4B1B68DBB2062B0DD1094B26
:109F8C001B6803F00F03002B07D1074B1B6803F072
:109F9C00F003502B01D1012300E000231846704739
:109FAC00E00F00F0E40F00F0E80F00F0124B1B681C
:109FBC00DBB2062B1DD1114B1B6803F00F03002BDA
:109FCC0017D10F4B1B6803F0F003302B01D1012389
:109FDC0010E00B4B1B6803F0F003402B01D1012365
:109FEC0008E0074B1B6803F0F003502B01D1012351
:109FFC0000E0002318467047E00F00F0E40F00F07B
:10A00C00E80F00F0124B1B68DBB2062B1DD1114B75
:10A01C001B6803F00F03002B17D10F4B1B6803F0C9
:10A02C00F003302B01D1012310E00B4B1B6803F024
:10A03C00F003402B01D1012308E0074B1B6803F010
:10A04C00F003502B01D1012300E000231846704788
:10A05C00E00F00F0E40F00F0E80F00F0064B1B6877
:10A06C00062B05D1054B1B68062B01D1012300E003
:10A07C0000231846704700BF300100103401001057
:10A08C0082B003468DF807309DF8073003F01F02AD
:10A09C0006499DF907305B09012000FA02F22033D2
:10A0AC0041F8232000BF02B0704700BF00E100E080
:10A0BC0008B505F0C9FD034683F00103DBB2002BA4
:10A0CC0003D10549792002F097FF00F03FFB034BC9
:10A0DC0000229A7000BF08BDC81103004C2A002052
:10A0EC0000B583B000230193144B1B78002B02D0D6
:10A0FC00852301931CE0114B00229A600F4B002228
:10A10C005A600E4B00221A610C4B0022DA600C488C
:10A11C0000F0E2FA019005F097FD034683F001038D
:10A12C00DBB2002B01D000F0FDFA044B01221A70B7
:10A13C00019B184603B05DF804FB00BF4C2A0020BD
:10A14C0025A2020084B00190019B1B680393039B22
:10A15C00002B03D0039B1A68019B1A60039B1846C3
:10A16C0004B0704700B583B0164B1B78002B04D19C
:10A17C0015494FF4847002F03FFF124BDB68002B43
:10A18C0004D1114940F2091002F036FF00238DF87A
:10A19C0007300DF107031846FEF7ACFB094BDB68E3
:10A1AC00013B084AD360074BDB68002B01D1FFF75A
:10A1BC007FFF9DF807301846FEF7B2FB00BF03B0D7
:10A1CC005DF804FB4C2A0020C811030000B585B0D3
:10A1DC0003468DF807309DF80730002B02D10C4B4D
:10A1EC00039301E00B4B03930398FFF7ABFF029033
:10A1FC00029B002B06D0029B5B689DF80720104643
:10A20C009847F1E700BF00BF05B05DF804FB00BF45
:10A21C00542A00205C2A002000B583B003468DF838
:10A22C0007309DF80730002B05D10A4B01225A70DC
:10A23C000020FFF7CBFF9DF80730012B05D1054B14
:10A24C0001229A700120FFF7C1FF00BF03B05DF837
:10A25C0004FB00BF4C2A002000B583B00190009194
:10A26C00019B002B05D1054B01225A700020FFF7F2
:10A27C00ADFF00BF03B05DF804FB00BF4C2A00200B
:10A28C0000B585B0034600918DF807309DF8073076
:10A29C00032B29D0032B35DC002B02D0012B04D04F
:10A2AC0030E00020FFF7ECFE2DE000238DF80F309E
:10A2BC000DF10F031846FEF71DFB154B1B7883F0B1
:10A2CC000103DBB2002B01D0FFF70AFF104BDB6858
:10A2DC0001330F4AD3600E4B01229A709DF80F3058
:10A2EC001846FEF71DFB0EE0094B1B78002B04D122
:10A2FC00084940F2432002F07FFE00F013FAFFF70A
:10A30C0031FF00E000BF00BF05B05DF804FB00BFEB
:10A31C004C2A0020C811030000B589B001900091AF
:10A32C00009B0793019B1B788DF80C30019B5B689D
:10A33C000493019B1B7A8DF81430019BDB68069308
:10A34C00074A079B52F823300649079A51F8221006
:10A35C0003AA1046984700BF09B05DF804FB00BF84
:10A36C00602A0020642A002000B589B00190009179
:10A37C00009B0793019B1B788DF80C30019B5B684D
:10A38C000493019B9B68DBB28DF81430019BDB6856
:10A39C000693074A079B52F823300649079A51F84F
:10A3AC00221003AA1046984700BF09B05DF804FBC1
:10A3BC00602A0020642A002030B58FB003900291EF
:10A3CC000192039B1B780C9326490C9B019A41F834
:10A3DC002320029B1A6924490C9B41F82320029BE1
:10A3EC005B7F1946214A0C9B13440A461A70029B48
:10A3FC0004AC1D460FCD0FC495E80F0084E80F0088
:10A40C000C9B089300230D93039B1B781A46174B48
:10A41C009B5C002B0DD0039B181D019B002B01D0C6
:10A42C00134A00E0002204AB194602F0F3FA0D9037
:10A43C0014E0039B1B781A460C4B9B5C002B0DD134
:10A44C00039B03F10C00019B002B01D0094A00E097
:10A45C00002204AB194601F087FC0D900D9B1846A9
:10A46C000FB030BD602A0020642A0020682A00202A
:10A47C0025A3020075A3020082B003468DF80730B5
:10A48C009DF8073003F01F0205499DF907305B0961
:10A49C00012000FA02F241F8232000BF02B07047FD
:10A4AC0000E100E082B003468DF807309DF80730DC
:10A4BC0003F01F0206499DF907305B09012000FAE1
:10A4CC0002F2603341F8232000BF02B0704700BF96
:10A4DC0000E100E082B0034600918DF807309DF951
:10A4EC000730002B0CDA009BDAB20C499DF80730D0
:10A4FC0003F00F03043B5201D2B20B441A7609E06D
:10A50C00009BDAB206499DF907305201D2B20B44D6
:10A51C0083F8002300BF02B0704700BF00ED00E0DD
:10A52C0000E100E000B583B003460A468DF8073021
:10A53C0013468DF806309DF80630012B03D99DF893
:10A54C000630032B0BD99DF80630042B03D99DF84C
:10A55C000630072B03D908496B2002F04DFD9DF8FE
:10A56C0006209DF9073011461846FFF7B3FF00BFD0
:10A57C0003B05DF804FB00BF4C12030000B583B0C0
:10A58C0003468DF807309DF907301846FFF78AFF10
:10A59C009DF907301846FFF76FFF00BF03B05DF859
:10A5AC0004FB000082B003468DF807300F4A9DF97A
:10A5BC000730002B00DA1F335B115BB252F82320FB
:10A5CC009DF90730594203F01F0301F01F0158BFDA
:10A5DC004B425BB222FA03F303F00103002B14BFCE
:10A5EC0001230023DBB2184602B0704700E100E003
:10A5FC0082B001904FF08042019BC2F8083300BF3B
:10A60C0002B0704782B003468DF807309DF80730D2
:10A61C0003F1804301221A6000BF02B0704784B07E
:10A62C000346ADF80630BDF8063003F18043002236
:10A63C001A60BDF8063003F180431B680393039B3B
:10A64C0000BF04B0704782B00346ADF80630BDF8C9
:10A65C00063003F180431B68002B14BF0123002339
:10A66C00DBB2184602B0704782B003468DF8073053
:10A67C009DF807304FF0804203F00303C2F8183501
:10A68C0000BF02B070474FF08043D3F818341B0C56
:10A69C0003F00103002B14BF01230023DBB2184687
:10A6AC00704700B583B007238DF807300020FFF703
:10A6BC0079FF034683F00103DBB2002B08D09DF831
:10A6CC00073019460020FFF72DFF0020FFF756FF3B
:10A6DC0000BF03B05DF804FB00B585B00190019B91
:10A6EC00002B03D10D49A22002F086FC002303931A
:10A6FC000B4B1B79002B02D08523039308E0084AEF
:10A70C00019B1360064B01221A71054B00225A71F2
:10A71C00039B184605B05DF804FB00BF84120300D0
:10A72C006C2A002008B5074B1B79002B03D1064976
:10A73C00BB2002F061FCFFF7B4FF0120FFF794FF90
:10A74C0000BF08BD6C2A00208412030008B50A4B18
:10A75C001B79002B03D10949F22002F04DFC0C208F
:10A76C00FFF750FF00BFFFF78EFF0346002BFAD117
:10A77C0000BF00BF08BD00BF6C2A0020841203007C
:10A78C0008B54FF48070FFF75EFF0346002B14D022
:10A79C004FF48070FFF743FF0120FFF729FF114BA7
:10A7AC005B7983F00103DBB2002B06D00D4B012249
:10A7BC005A710C4B1B68002098474FF48270FFF7BE
:10A7CC0042FF0346002B0AD04FF48270FFF727FF9D
:10A7DC000220FFF70DFF034B1B680120984700BFB9
:10A7EC0008BD00BF6C2A002082B003468DF80730EC
:10A7FC009DF8073003F01F0205499DF907305B09EE
:10A80C00012000FA02F241F8232000BF02B0704789
:10A81C0000E100E082B003468DF807309DF8073068
:10A82C0003F01F0206499DF907305B09012000FA6D
:10A83C0002F2603341F8232000BF02B0704700BF22
:10A84C0000E100E082B0034600918DF807309DF9DD
:10A85C000730002B0CDA009BDAB20C499DF807305C
:10A86C0003F00F03043B5201D2B20B441A7609E0F9
:10A87C00009BDAB206499DF907305201D2B20B4463
:10A88C0083F8002300BF02B0704700BF00ED00E06A
:10A89C0000E100E000B583B003460A468DF80730AE
:10A8AC0013468DF806309DF80630012B03D99DF820
:10A8BC000630032B0BD99DF80630042B03D99DF8D9
:10A8CC000630072B03D908496B2002F095FB9DF845
:10A8DC0006209DF9073011461846FFF7B3FF00BF5D
:10A8EC0003B05DF804FB00BF0413030000B583B094
:10A8FC0003468DF807309DF907301846FFF78AFF9D
:10A90C009DF907301846FFF76FFF00BF03B05DF8E5
:10A91C0004FB00B583B00346ADF80630BDF8063035
:10A92C00184600F026F803461B68012B0CBF0123C8
:10A93C000023DBB2184603B05DF804FB00B585B00C
:10A94C000346ADF80630BDF80630184600F011F895
:10A95C0003461A4600231360BDF80630184600F073
:10A96C0008F803461B680393039B00BF05B05DF812
:10A97C0004FB82B00346ADF80630BDF8063003F197
:10A98C00804303F5C043184602B0704782B0019073
:10A99C00034A019BC2F8043300BF02B0704700BFEA
:10A9AC000060004082B00190034A019BC2F808335A
:10A9BC0000BF02B0704700BF0060004082B0019041
:10A9CC00034BD3F80423019B1340184602B0704785
:10A9DC000060004082B00190084A019B03F5A2730D
:10A9EC0052F82330054943F00102019B03F5A27391
:10A9FC0041F8232000BF02B0704700BF0060004048
:10AA0C0082B00190084A019B03F5A27352F82330DF
:10AA1C00054923F00102019B03F5A27341F82320A1
:10AA2C0000BF02B0704700BF0060004084B00390CC
:10AA3C00029113468DF80730144A039B03F5A27359
:10AA4C0052F82330114923F4473323F44073039A0B
:10AA5C0002F5A27241F822300C4A039B03F5A27353
:10AA6C0052F82320029B1B0203F4F8519DF8073087
:10AA7C001B0403F440330B4304491A43039B03F5B3
:10AA8C00A27341F8232000BF04B07047006000405F
:10AA9C0082B00190054A019B03F5A27352F8233052
:10AAAC001B0A03F01F03184602B0704700600040F9
:10AABC0082B00190064A019B03F5A27352F8233031
:10AACC001B0C03F00303DBB2184602B0704700BF47
:10AADC000060004000B583B00190019B1B681F2BE8
:10AAEC0004D9054940F2C71002F086FA4FF0A04392
:10AAFC00184603B05DF804FB3413030000B585B0B1
:10AB0C000190084611461A4603468DF803300B4651
:10AB1C008DF8023013468DF8013001AB1846FFF763
:10AB2C00D9FF03909DF803209DF802305B001A4377
:10AB3C009DF801309B001A439DF818301B0242EA25
:10AB4C0003019DF81C301B04019A1943039B02F569
:10AB5C00E07243F8221000BF05B05DF804FB00B5AD
:10AB6C0085B003900B468DF80B309DF80B3000220E
:10AB7C00019200220092002200210398FFF7BEFFF1
:10AB8C0000BF05B05DF804FB00B585B0019001ABCA
:10AB9C001846FFF79FFF0390019A039B02F5E072A2
:10ABAC0053F8223023F002030293019A039B02F51F
:10ABBC00E072029943F8221000BF05B05DF804FB67
:10ABCC0000B585B001900B468DF8033001AB1846EB
:10ABDC00FFF780FF0390019A039B02F5E07253F894
:10ABEC002230019A23F44031039B02F5E07243F8C2
:10ABFC002210019A039B02F5E07253F822309DF863
:10AC0C00032012041146019A1943039B02F5E072CA
:10AC1C0043F8221000BF05B05DF804FB00B585B009
:10AC2C00019001AB1846FFF755FF0390039800F015
:10AC3C0020F80246019B22FA03F303F001031846A5
:10AC4C0005B05DF804FB00B585B0019001AB18466A
:10AC5C00FFF740FF0390019A039B02F5E07253F853
:10AC6C0022301B0C03F00303DBB2184605B05DF871
:10AC7C0004FB82B00190019BD3F81035184602B04A
:10AC8C007047000000B587B00390029101924FF01D
:10AC9C00A0430493039A029B1344012B04D9124939
:10ACAC0040F2DF2002F0A8F9039B059311E0059B0D
:10ACBC009B0018336B4453F8083C1846FFF7D9FF38
:10ACCC000246019B1A60019B04330193059B0133DF
:10ACDC000593039A029B1344059A9A42E7D300BF4B
:10ACEC0000BF07B05DF804FB3413030084B001907F
:10ACFC000091009B0393019BDB080293019B03F0E3
:10AD0C00070301930122019B02FA03F30399029AB0
:10AD1C000A4412781340184604B0704784B001906E
:10AD2C000091009B0393019BDB080293019B03F0B2
:10AD3C0007030193039A029B13441B785AB2012117
:10AD4C00019B01FA03F35BB2134359B2039A029BC2
:10AD5C001344CAB21A7000BF04B0704782B001909D
:10AD6C000C4A019B1344303393F90030002B09DB60
:10AD7C00084A019B1344303393F90030072B01DC54
:10AD8C00012300E0002303F00103DBB2184602B0FC
:10AD9C00704700BF742A002082B00190064A019BC4
:10ADAC001344303393F90030072BCCBF012300231D
:10ADBC00DBB2184602B07047742A002082B00190B2
:10ADCC00064A019B1344303393F90030DB43DBB26A
:10ADDC00DB09DBB2184602B0704700BF742A0020B2
:10ADEC0084B00390029101928DF80330029B59B20A
:10ADFC000E4A039B134430330A461A700B49029BCC
:10AE0C00019A41F823209DF8033083F00103DBB253
:10AE1C00002B08D0029B083B039A51B2034A1344FF
:10AE2C000A4683F8502000BF04B07047742A0020F3
:10AE3C0082B00190044A019B13443033FF221A70F4
:10AE4C0000BF02B0704700BF742A002000B583B069
:10AE5C00019004490198FFF761FF00BF03B05DF852
:10AE6C0004FB00BFC82A002082B00190044A019B59
:10AE7C001344303393F90030184602B0704700BFCA
:10AE8C00742A002082B00190034A019B52F82330AF
:10AE9C00184602B0704700BF742A002000B589B074
:10AEAC000390029113468DF80730FF238DF81F3065
:10AEBC009DF80730002B01D0002300E008230593F8
:10AECC009DF80730002B01D0082300E00C230493DD
:10AEDC00059B069314E00F4A069B52F82330B3F1FE
:10AEEC00FF3F0AD19DF80730029A06990398FFF7A5
:10AEFC0077FF069B8DF81F3006E0069B0133069307
:10AF0C00069A049B9A42E6D39DF91F30184609B065
:10AF1C005DF804FB742A002082B003468DF80730DC
:10AF2C009DF80730094A4FF0FF3142F823109DF885
:10AF3C000730072B07D99DF80730083B034A134409
:10AF4C00FF2283F8502000BF02B07047742A002003
:10AF5C0000B583B0254B93F85830002B03D0082351
:10AF6C000093009B3EE000238DF8073009E09DF82C
:10AF7C0007301846FFF75CFF9DF8073001338DF85A
:10AF8C0007309DF807301F2BF1D900238DF80730BF
:10AF9C0009E09DF807301846FFF7BEFF9DF8073013
:10AFAC0001338DF807309DF807300B2BF1D90422B3
:10AFBC0000210F4805F066F907210620FFF76AFC0F
:10AFCC000620FFF793FC4FF4BE70FFF7B7FC4FF071
:10AFDC000040FFF7DBFC054B012283F858200023CF
:10AFEC000093009B184603B05DF804FB742A002004
:10AFFC00C82A0020044B93F85830002B14BF0123AF
:10B00C000023DBB218467047742A002000B587B0C5
:10B01C00039002910192039B1F2B04D936494FF4E4
:10B02C00017001F0E9FF002305930398FFF7C6FEBA
:10B03C000346002B02D00823059357E0029B9B7814
:10B04C00C3F34003DBB21A4601990398FFF726FFBE
:10B05C0003468DF813309DF91330B3F1FF3F43D005
:10B06C00029B9B78C3F38003DBB283F00103DBB25A
:10B07C00002B13D0029B9B7803F00103DBB2002B57
:10B08C0003D00398FFF780FD05E0029B5B7819461F
:10B09C000398FFF764FD0398FFF7D8FE029B9B789B
:10B0AC0003F00203DBB2002B08D09DF91300029BC6
:10B0BC001B781A460399FFF7B9FC17E09DF913307A
:10B0CC00083B0E4A134493F95010029B1B789B01CA
:10B0DC005AB29DF91330083B0A4351B2074A134444
:10B0EC000A4683F8502001E004230593059B18467B
:10B0FC0007B05DF804FB00BF6C130300742A00203A
:10B10C0000B589B001900B468DF80330019B1F2BC5
:10B11C0004D93D494FF40D7001F06EFF0198FFF713
:10B12C004DFE0346002B04D1374940F2352001F087
:10B13C0063FF0198FFF730FE0346002B2FD00198D8
:10B14C00FFF792FE0346083B304A134493F9503004
:10B15C008DF80F309DF80F309B098DF80E309DF84F
:10B16C000E30032B0BD10198FFF758FD0346002B33
:10B17C0001D0032300E002238DF81F3008E09DF876
:10B18C000E30012B01D1022300E003238DF81F3078
:10B19C009DF81F3019460198FFF712FD30E0019819
:10B1AC00FFF7DCFD0346002B2AD00198FFF75CFE6D
:10B1BC0003460693069B9BB240339BB29B00ADF8B3
:10B1CC001630069B1846FFF705FCBDF816301846DE
:10B1DC00FFF7B4FB9DF80330002B11D00198FFF75B
:10B1EC0043FE03461846FFF74DFE0490049B002BCC
:10B1FC0006D00122069B02FA03F31846FFF7C6FBA2
:10B20C0000BF09B05DF804FB6C130300742A002026
:10B21C0000B585B00190019B1F2B04D91A4940F24F
:10B22C00612001F0E9FE0198FFF7C8FD0346002BF1
:10B23C0004D1154940F2622001F0DEFE0198FFF7BF
:10B24C00ABFD0346002B04D000210198FFF7B8FC9E
:10B25C0015E00198FFF782FD0346002B0FD00198F3
:10B26C00FFF702FE03460393039B1846FFF7C8FB48
:10B27C000122039B02FA03F31846FFF793FB00BF6E
:10B28C0005B05DF804FB00BF6C13030000B583B080
:10B29C000190019B1F2B04D9084940F2852001F035
:10B2AC00ABFE0198FFF7BAFC0346002B14BF012339
:10B2BC000023DBB2184603B05DF804FB6C130300EB
:10B2CC0000B595B000231093002303934FF48073C3
:10B2DC00ADF84C300123129300230F9321E0BDF8FD
:10B2EC004C301846FFF715FB0346002B0ED0129876
:10B2FC00FFF764FB0346002B08D0BDF84C30184612
:10B30C00FFF71CFB109A129B13431093129B5B00CC
:10B31C001293BDF84C300433ADF84C300F9B013315
:10B32C000F930F9B072BDAD94FF4BE70FFF7F1FA8E
:10B33C000346002B0DD04FF4BE70FFF7FFFA109BA5
:10B34C0043F00043109303AB1A4601210020FFF792
:10B35C0099FC109BDBB2002B29D001231293002304
:10B36C000F9321E0129A109B1340002B16D00F98CC
:10B37C00FFF78EFB0D900F98FFF79AFB03468DF8A5
:10B38C0033300F98FFF77EFD0B900B9B002B05D0F5
:10B39C009DF833200B9B11460D989847129B5B0030
:10B3AC0012930F9B01330F930F9B072BDAD9109B32
:10B3BC00002B80F2EE8000238DF84F300023029397
:10B3CC00002311930AE0119B9B0050336B444FF008
:10B3DC00FF3243F84C2C119B01331193119B002B22
:10B3EC00F1D000238DF84F3000230F9378E06B4A97
:10B3FC000F9B1344503393F900308DF82B309DF88C
:10B40C002B3023F0C0030993644A0F9B1344503331
:10B41C0093F90030B3F1FF3F5FD001AB19460998A7
:10B42C00FFF764FC0346002B57D09DF82B309B098B
:10B43C008DF823300998FFF717FD03461846FFF7E0
:10B44C0021FD0790079B002B03D19DF82330032B84
:10B45C0043D19DF82330032B04D102AB1946099834
:10B46C00FFF75CFC0998FFF7EEFB03468DF81B30E9
:10B47C0003AB19460998FFF739FC0590059B002B87
:10B48C0003D09DF81B30022B06D0059B002B24D13A
:10B49C009DF81B30032B20D19DF82330032B13D1A7
:10B4AC009DF81B30022B01D1032300E002238DF801
:10B4BC0013309DF8133019460998FFF781FB9DF85E
:10B4CC004F3001338DF84F30079B002B05D09DF882
:10B4DC002320079B1146099898470F9B01330F9324
:10B4EC000F9B032B83D99DF84F30002B4CD001239D
:10B4FC008DF83B306B461A4601210020FFF7C2FB4A
:10B50C000023119314E0119B9B0050336B4453F8B0
:10B51C00502C119B9B0050336B4453F8443C9A4283
:10B52C0003D000238DF83B3005E0119B01331193C0
:10B53C00119B002BE7D09DF83B30002B03D0002350
:10B54C008DF84F3020E0002311931AE0119B9B00E3
:10B55C0050336B4453F8502C119B9B0050336B446D
:10B56C0043F8442C119B9B0050336B4453F8482CEC
:10B57C00119B9B0050336B4443F84C2C119B0133B3
:10B58C001193119B002BE1D09DF84F30002B7FF4D1
:10B59C0028AF00BF15B05DF804FB00BF742A002073
:10B5AC0008B5064B1B68002B03D10549512001F04F
:10B5BC0023FD024B1B68984708BD00BFD02A002012
:10B5CC00F413030082B00190019B044A934201D111
:10B5DC00034B00E00023184602B0704700200040E7
:10B5EC00D02A002000B587B001900091019B002B60
:10B5FC0003D11C49772001F0FFFC0198FFF7E2FF13
:10B60C000590059B002B25D000238DF813300023CB
:10B61C008DF80B300DF10B031846FDF76BF9059BFC
:10B62C001B79002B03D001238DF8133005E0059B0B
:10B63C00009A1A60059B01221A719DF80B3018466E
:10B64C00FDF76EF99DF81330002B03D011230393F3
:10B65C00039B02E000230393039B184607B05DF89D
:10B66C0004FB00BFF413030000B585B00190019BEF
:10B67C00002B03D10A499B2001F0BEFC0198FFF777
:10B68C00A1FF0390039B002B05D0039B00221A60A3
:10B69C00039B00221A7100BF05B05DF804FB00BFCC
:10B6AC00F413030082B003468DF807309DF8073081
:10B6BC0003F01F0205499DF907305B09012000FAD0
:10B6CC0002F241F8232000BF02B0704700E100E015
:10B6DC0082B003468DF807309DF8073003F01F0247
:10B6EC0006499DF907305B09012000FA02F220336C
:10B6FC0041F8232000BF02B0704700BF00E100E01A
:10B70C0082B003468DF807309DF8073003F01F0216
:10B71C0006499DF907305B09012000FA02F26033FB
:10B72C0041F8232000BF02B0704700BF00E100E0E9
:10B73C0082B0034600918DF807309DF90730002B3D
:10B74C000CDA009BDAB20C499DF8073003F00F03BA
:10B75C00043B5201D2B20B441A7609E0009BDAB2D8
:10B76C0006499DF907305201D2B20B4483F80023ED
:10B77C0000BF02B0704700BF00ED00E000E100E048
:10B78C0084B00190019B1B0B8DF80F309DF90F308D
:10B79C00184604B07047000000B583B003460A4653
:10B7AC008DF8073013468DF806309DF80630012BC6
:10B7BC0003D99DF80630032B0BD99DF80630042BCA
:10B7CC0003D99DF80630072B03D908496B2001F0EB
:10B7DC0013FC9DF806209DF9073011461846FFF71B
:10B7EC00A7FF00BF03B05DF804FB00BF7814030093
:10B7FC0000B583B003468DF807309DF90730184625
:10B80C00FFF77EFF9DF907301846FFF74BFF00BF8F
:10B81C0003B05DF804FB00B583B003468DF8073028
:10B82C009DF907301846FFF753FF00BF03B05DF8D2
:10B83C0004FB84B001900B46ADF80230BDF8023029
:10B84C00019A134400221A60BDF80230019A134485
:10B85C001B680393039B00BF04B0704782B0019038
:10B86C000B46ADF80230BDF80230019A13441B6848
:10B87C00002B14BF01230023DBB2184602B0704723
:10B88C0082B001900091019B009AC3F8042300BF81
:10B89C0002B0704782B001900091019BD3F8042351
:10B8AC00009B1340002B14BF01230023DBB218466E
:10B8BC0002B0704782B001900091019B009AC3F8CE
:10B8CC00082300BF02B0704784B00190019BD3F8ED
:10B8DC0080340393019B039AC3F88024039B18467E
:10B8EC0004B0704782B00190019B0422C3F800257C
:10B8FC0000BF02B0704782B00190019B0022C3F8D8
:10B90C00002500BF02B0704784B0039002910192F1
:10B91C00039B019AC3F81425039B029AC3F80C25C8
:10B92C0000BF04B0704700B583B001904FF0FF32F8
:10B93C004FF0FF310198FFF7E7FF00BF03B05DF850
:10B94C0004FB82B00190019BD3F80C35184602B071
:10B95C00704782B00190019BD3F81435184602B0A1
:10B96C00704782B00190019BD3F80835184602B09D
:10B97C00704782B00190019BD3F81035184602B085
:10B98C00704784B0039002910192039B029AC3F812
:10B99C000825039B019AC3F8102500BF04B070471B
:10B9AC0000B583B001904FF0FF324FF0FF3101989A
:10B9BC00FFF7E7FF00BF03B05DF804FB82B0019016
:10B9CC00019BD3F81835DBB2184602B0704782B031
:10B9DC0001900B468DF803309DF80320019BC3F8B2
:10B9EC001C2500BF02B0704782B001900B468DF849
:10B9FC0003309DF80330019A134401221A6000BFF2
:10BA0C0002B0704782B001900B468DF8033013469C
:10BA1C008DF802309DF803209DF802301343DBB201
:10BA2C001A46019BC3F86C2500BF02B0704782B068
:10BA3C0001900091019B009AC3F8242500BF02B02D
:10BA4C007047000000B583B00190019B1B681F2B51
:10BA5C0004D9054940F2C71001F0CEFA4FF0A043CB
:10BA6C00184603B05DF804FBA814030000B585B0BC
:10BA7C000190084611461A4603468DF803300B46D2
:10BA8C008DF8023013468DF8013001AB1846FFF7E4
:10BA9C00D9FF03909DF803209DF802305B001A43F8
:10BAAC009DF801309B001A439DF818301B0242EAA6
:10BABC0003019DF81C301B04019A1943039B02F5EA
:10BACC00E07243F8221000BF05B05DF804FB00B52E
