:020000022000DC
:1060000000000120DD6002003561020037610200FE
:10601000396102003B6102003D61020000000000A6
:106020000000000000000000000000003F610200CE
:10603000416102000000000043610200456102006E
:1060400031BF02004B61020015D002004F61020017
:106050005161020053610200B1C902001DD4020067
:106060009DE00200B5E002005D6102005F61020098
:106070006161020063610200656102006761020004
:1060800069610200C90A03006D6102006F610200CC
:10609000090B030073610200FD3003007761020009
:1060A000796102007B6102007D6102007F61020074
:1060B00081610200836102004761020047610200C2
:1060C0008561020087610200896102008B61020024
:0C60D0008D6102008F61020091610200EE
:1060DC000F484FF00701884385460E4880470E480D
:1060EC00016841F470010160BFF34F8FBFF36F8FF4
:1060FC0000F04AB809480A490A4A884207D0521A9D
:10610C0005D0037801300B700131013AF9D1704799
:10611C00000001202185020088ED00E0EC46030020
:10612C00982A0020E02A0020FEE7FEE7FEE7FEE7C3
:10613C00FEE7FEE7FEE7FEE7FEE7FEE7FEE7FEE72B
:10614C00FEE7FEE7FEE7FEE7FEE7FEE7FEE7FEE71B
:10615C00FEE7FEE7FEE7FEE7FEE7FEE7FEE7FEE70B
:10616C00FEE7FEE7FEE7FEE7FEE7FEE7FEE7FEE7FB
:10617C00FEE7FEE7FEE7FEE7FEE7FEE7FEE7FEE7EB
:10618C00FEE7FEE7FEE700BF344935480A1A02D0A5
:10619C00072291438D46334933480A1A06D0072209
:1061AC00914381F30988022282F314882F483049E5
:1061BC00304A00F041F830483049314A00F03CF8A0
:1061CC0030483149314A00F037F831483149324AC8
:1061DC0000F032F831483249324A00F02DF832489A
:1061EC003249334A00F028F832483349334A00F038
:1061FC0023F833483349002200F029F83248334958
:10620C00002200F024F832483249091A0EF0CAF97B
:10621C00314A90471F482049884205D00268043013
:10622C0003B4904703BCF7E700208646EC460020F9
:10623C0000212A4A9047FEE7884207D0521A05D01F
:10624C00037801300B700131013AF9D17047884263
:10625C0002D002700130FAE7704700000000012004
:10626C0000E0002000000120000001200068030075
:10627C00E02A00204C2B0020EC620200EC620200B1
:10628C00C445030000680300E02A0020E02A002037
:10629C0034470300344703003447030034470300FA
:1062AC0034470300344703003447030034470300EA
:1062BC00006803006C6803004C2B00204C2B002062
:1062CC004C2B0020A4380020A4380020A438002037
:1062DC00A4380020A458002001610200557402006B
:1062EC0076DF704700BF18467ADF704700BF18464C
:1062FC007CDF704700BF18467FDF704700BF184631
:10630C008FDF704700BF1846B1DF704700BF1846DB
:10631C0033DF704700BF184600B583B00190009181
:10632C00019B002B01D1054B01930099019807F0BB
:10633C0097F90346184603B05DF804FB5449030073
:10634C0082B001900B46ADF80230BDF80230019AD4
:10635C001344184602B0704782B00190019BD3F8E9
:10636C001035DBB2184602B0704782B00190019B29
:10637C009BB250339BB29B009BB2184602B0704745
:10638C0000B585B001900B468DF803309DF80330B5
:10639C000393019B094A934204D9094940F26E20A8
:1063AC0000F044F8019B4FF47A5203FB02F2039B7A
:1063BC0022FA03F3184605B05DF804FB93180400A9
:1063CC003447030010B582B001900091019B5B79BA
:1063DC001A46009B934204D3094940F2751000F011
:1063EC0025F8019B1C680098FFF7BFFF0346194670
:1063FC002046FFF7A5FF0346184602B010BD00BFAC
:10640C006447030000B583B001900091019B1B68A9
:10641C001846FFF7A1FF034619460098FFF7B0FF97
:10642C000346184603B05DF804FB000000B583B0CA
:10643C0003460091ADF80630BDF80630009A1946B7
:10644C00034809F0DFFC00BF03B05DF804FB00BF9C
:10645C00EFBEADDE00B583B00AF056FB0190019B98
:10646C000093009B002B04D0044A6B21009809F088
:10647C00C9FC00BF03B05DF804FB00BFA0470300DC
:10648C0000B587B09DF80030012262F303038DF84C
:10649C0000309DF80030012262F307138DF80030B4
:1064AC006B4607221A491846FFF722FF0590059BF9
:1064BC000493049B002B04D0164A7E21049809F007
:1064CC00A1FC01AB0822002118460DF0E3FC1023BF
:1064DC00ADF804303C23ADF806300023ADF808309D
:1064EC004FF4C873ADF80A3001AB1846FFF7FCFE49
:1064FC000590059B0393039B002B04D0054A882130
:10650C00039809F07FFC00BF07B05DF804FB00BFE7
:10651C003C480300A047030000B583B00190044A37
:10652C009521019809F06EFC00BF03B05DF804FBE7
:10653C00A047030000B587B00190019B1B78002B8E
:10654C0041D10023059328E0019B1A69059B134454
:10655C001B7818460AF076FD0490049B002B16D08D
:10656C00049B112B13D01A4B1B881B0443F0010303
:10657C00049A184918460CF065F8049B0393039B86
:10658C00002B04D0144AB321039809F03BFC049B64
:10659C00112BD9D0059B01330593019B9B8A1A467D
:1065AC00059B9342D0D3019B1A69019B9B8A013BAB
:1065BC0013441B780D2B06D100BF0A200AF042FDB4
:1065CC000346112BF9D000BF07B05DF804FB00BFE8
:1065DC00B42A002044480300A047030000B587B04C
:1065EC0000230193164B019301AB1946154804F097
:1065FC00F7FC0590059B0493049B002B04D0124AD6
:10660C00CD21049809F0FEFB02AB042200211846B0
:10661C000DF040FC0D4B029302AB19460C4805F0F3
:10662C0045F80590059B0393039B002B04D0064A69
:10663C00D521039809F0E6FB00BF07B05DF804FB19
:10664C0025650200642B0020A04703004165020071
:10665C00E82A002000B585B00190019B1B78002B27
:10666C0010D10A4B1B883B211846FFF739FE0390CB
:10667C00039B0293029B002B04D0054AEB2102984A
:10668C0009F0C0FB00BF05B05DF804FB042B002033
:10669C00A047030000B583B00190044AF62101988D
:1066AC0009F0B0FB00BF03B05DF804FBA04703008A
:1066BC0000B58BB001AB1C22002118460DF0EAFB93
:1066CC00002301934FF4203302934FF47023039370
:1066DC0003238DF810300023ADF8123000238DF811
:1066EC0014300C4B06930C4B079301AB184603F07C
:1066FC00E9FD0990099B0893089B002B05D0074ADC
:10670C0040F20D11089809F07DFB00BF0BB05DF84D
:10671C0004FB00BF61660200A1660200A0470300F3
:10672C0000B585B0002001F0C9FC0390039B0293D7
:10673C00029B002B05D0134A4FF48C71029809F080
:10674C0061FB01F044FE0390039B0193019B002B22
:10675C0005D00C4A4FF48E71019809F053FBFFF7EA
:10676C00D7FD0390039B0093009B002B05D0054A9B
:10677C004FF49071009809F045FB00BF05B05DF82F
:10678C0004FB00BFA047030000B585B003468DF89D
:10679C0007309DF80730002B11D0032B12D10220AB
:1067AC0001F08CFC0390039B0293029B002B0BD0FB
:1067BC00084A4FF49971029809F024FB04E0FFF7A2
:1067CC00AFFF02E000BF00E000BF00BF05B05DF806
:1067DC0004FB00BFA047030000B58DB001900091F1
:1067EC00019B1B88562B00F0CE80562B00F3DE80CD
:1067FC00522B00F0A180522B00F3D880212B2DDCE2
:10680C00102BC0F2D380103B112B00F2CF8001A2D1
:10681C0052F823F06F680200CD680200B9690200DB
:10682C001D690200B9690200B9690200B969020068
:10683C00B9690200B9690200B9690200B9690200BC
:10684C00B9690200B9690200B9690200B9690200AC
:10685C00B9690200B9690200E96802003B2B7FD0DC
:10686C00A4E05B4B1B881B0443F0030359491846F7
:10687C000BF0DAFE072001F021FC0B900B9B05932B
:10688C00059B002B05D0544A40F24B11059809F09A
:10689C00B9FA019B9A88514B1A80504B1B881946A8
:1068AC004F4804F0BFFB0B900B9B0493049B002BF5
:1068BC007ED0494A4FF4A771049809F0A3FA77E007
:1068CC00434B1B881B0443F00303464918460BF04B
:1068DC00ABFE424B4FF6FF721A8074E000238DF82A
:1068EC000C3000238DF80D30019B9B8803AA1146B8
:1068FC001846FFF705FD0B900B9B0793079B002B8E
:10690C0058D0354A4FF4B071079809F07BFA51E032
:10691C00324B1888002300228521FFF7EDFC0B90E9
:10692C000B9B0693069B002B46D02B4A4FF4B3715E
:10693C00069809F067FA3FE0284B188800230022DC
:10694C000021FFF7E1FC0B900B9B0993099B002B9B
:10695C0034D0214A4FF4B671099809F053FA2DE05E
:10696C00019B9B8813211846FFF7BAFC0B900B9BDD
:10697C000893089B002B23D0174A40F273110898F8
:10698C0009F040FA1CE0019B9B8813211846FFF785
:10699C00A7FC0B900B9B0A930A9B002B12D00E4A60
:1069AC004FF4BD710A9809F02DFA0BE000BF0AE014
:1069BC0000BF08E000BF06E000BF04E000BF02E03B
:1069CC0000BF00E000BF00BF0DB05DF804FB00BFCE
:1069DC00B42A002070480300A0470300042B0020B9
:1069EC00642B00207C48030000B587B00CF09EFAA5
:1069FC000590059B0493049B002B05D0164A40F28E
:106A0C008D11049809F0FEF90023019301AB19468E
:106A1C0001200CF0A3FB0590059B0393039B002B1B
:106A2C0005D00D4A40F29311039809F0EBF901AB34
:106A3C0018460CF0A9FC0590059B0293029B002BB9
:106A4C0005D0054A40F29711029809F0DBF900BF16
:106A5C0007B05DF804FB00BFA047030000B583B08E
:106A6C0001900091009B5A88104B1B889A4219D1B7
:106A7C00009B1B8840F67722934213D1009B9B8886
:106A8C00033B9AB20A4B1A800A4B1B881B0443F037
:106A9C0003031846064B1B881A46054B1B880649F0
:106AAC000BF0E1FD00BF03B05DF804FB042B0020EC
:106ABC00062B0020B42A00208C48030000B585B0BA
:106ACC001149124804F08EF90390039B0293029B28
:106ADC00002B05D00E4A4FF4D971029809F092F9A7
:106AEC00F7210A4804F0A9F90390039B0193019B39
:106AFC00002B05D0064A40F2B511019809F082F935
:106B0C0000BF05B05DF804FB696A0200502B002041
:106B1C00A047030000B587B003468DF807309DF8F9
:106B2C0007300A2B06D00A2B36DC042B05D0072B9A
:106B3C0019D031E0FFF7F4FD33E01C4B1B88132117
:106B4C001846FFF7CDFB0590059B082B26D0059B1F
:106B5C000393039B002B21D0154A4FF4E571039846
:106B6C0009F050F91AE0114B1B884FF6FF72934253
:106B7C0016D1104803F028FA0590059B082B0FD06E
:106B8C00059B0493049B002B0AD0094A4FF4EA712D
:106B9C00049809F037F903E000BF02E000BF00E001
:106BAC0000BF00BF07B05DF804FB00BF042B002042
:106BBC00A0470300702B002000B587B00190019B0B
:106BCC001B78022B56D0022B66DC002B02D0012B3B
:106BDC0059D061E0344B1B781A46344B1344184699
:106BEC000AF0F6F9304B1B780133DAB22E4B1A70DF
:106BFC002D4B1B78013B2D4AD35C0A2B0DD02A4B15
:106C0C001B78013B294AD35C0D2B06D0264B1B78F5
:106C1C009AB2274B1B889A4240D3234B1B78012BEB
:106C2C0024D9214B1B789BB2ADF80E30214B1B881D
:106C3C000DF10E021D49204804F092FD0590059BB4
:106C4C00082B10D0059B132B0DD0059B052B0AD0C0
:106C5C00059B0493049B002B05D0184A40F203219A
:106C6C00049809F0CFF8059B132BDAD00E4B0022B9
:106C7C001A7013E0019B5B68104A40F20D21184614
:106C8C0009F0C0F80BE0019B5B680C4A40F2112143
:106C9C00184609F0B7F802E000BF00E000BF00BFE3
:106CAC0007B05DF804FB00BF402C0020442C0020F2
:106CBC00062B0020042B0020E82A0020A04703000C
:106CCC0030B58DB0134B04AC1D460FCD0FC495E8F9
:106CDC00030084E80300104B00934FF4807301937E
:106CEC000E4B02934FF480730393694604A8072359
:106CFC000B4A0AF0DDF80B900B9B0A930A9B002BB6
:106D0C0005D0084A40F236210A9809F07BF800BFFA
:106D1C000DB030BDA8480300382D0020382E0020BF
:106D2C00C56B0200A047030000B5AFB001ABAC22AD
:106D3C00002118460DF0AEF802238DF80430002324
:106D4C008DF8063005238DF807300123ADF850304F
:106D5C00124B159301238DF880304023239344F27A
:106D6C00506324930E4B2A9301AB19460D4802F045
:106D7C00DAFE2D902D9B2C932C9B002B05D00A4AD0
:106D8C0040F251212C9809F03DF80121054802F000
:106D9C00BDFE00BF2FB05DF804FB00BF082B002028
:106DAC0095670200702B0020A047030000B587B048
:106DBC0001901749032001F09BF90590059B049362
:106DCC00049B002B05D0134A4FF41871049809F05A
:106DDC0019F80DF10B031946002001F05BFB05902F
:106DEC00059B0393039B002B05D00A4A40F26321B9
:106DFC00039809F007F89DF80B30022B0CBF012308
:106E0C000023DAB2019B1A7000BF07B05DF804FBD7
:106E1C00216B0200A047030000B583B04FF4004182
:106E2C0000200BF071F90190019B0093009B002B4B
:106E3C0005D0064A40F26E21009808F0E3FF0BF0F3
:106E4C0027F900BF03B05DF804FB00BFA0470300A7
:106E5C0000B583B00BF03EF80190019B0093009BB2
:106E6C00002B05D0044A40F27A21009808F0CAFFA2
:106E7C0000BF03B05DF804FBA047030008B50BF09E
:106E8C0045FC0BF03DF800BF08BD000000B583B019
:106E9C000321094802F020FF0190019B0093009B05
:106EAC00002B05D0054A40F28E21009808F0AAFF6D
:106EBC0000BF03B05DF804FB702B0020A04703005B
:106ECC0082B003460091ADF8063000BF02B07047A7
:106EDC0000B58DB004F0E4FD0B900B9B0A930A9B5C
:106EEC00002B05D0344A4FF427710A9808F08AFF1A
:106EFC0000238DF8083000238DF8093000238DF81D
:106F0C000A3007238DF80B300023039303238DF8ED
:106F1C000A3009238DF8083002AB284A1946284854
:106F2C0006F0D6FE0B900B9B0993099B002B05D00A
:106F3C00214A40F2A221099808F064FFFA21204866
:106F4C00FFF760FA0890002300930123089A0021B0
:106F5C001B4807F026F81A4806F0BCFF0021184819
:106F6C00FFF730FA079006F081FC0690154805F003
:106F7C0027FF0B900B9B0593059B002B05D00E4A0E
:106F8C0040F2AE21059808F03DFF0E4B1B78069A97
:106F9C000799184605F090FF0B900B9B0493049BEC
:106FAC00002B05D0044A40F2B121049808F02AFFC6
:106FBC0000BF0DB05DF804FBA0470300CD6E0200CE
:106FCC004C490300382C002000B583B00A4B1B78C9
:106FDC00184605F0CFFF0190019B0093009B002BFE
:106FEC0005D0064A4FF42E71009808F00BFF00BF35
:106FFC0003B05DF804FB00BF382C0020A047030051
:10700C0000000000F0B599B00390039B1B78002B97
:10701C0040F09981039B5B680421184606F038FC0C
:10702C001690169B1593159B002B05D0C94A40F260
:10703C00C721159808F0E6FE0023179343E0C64BD2
:10704C001B881B0443F003031846039B5A68179BC9
:10705C005B001344B3F900301A46C0490BF0F2FA46
:10706C00039B5A68179B5B001344B3F90030184616
:10707C000CF09CFDB5A3D3E900230CF0ADFB02464C
:10708C000B46104619464FF00002B54B0CF03CFC79
:10709C0002460B46104619460CF076FD0346ADF839
:1070AC004E30AD4B1B881B0443F003031846AD490F
:1070BC00BDF84E30002200920A46AB490BF0E7FABD
:1070CC00179B01331793179B032BB8DD039B5B684E
:1070DC00B3F9003018460CF069FD9CA3D3E90023EA
:1070EC000CF07AFB02460B46104619464FF0000294
:1070FC009B4B0CF009FC02460B46104619464FF010
:10710C0000024FF000030CF0FDFC0346002B22D0D4
:10711C00039B5B68B3F9003018460CF047FD8BA35A
:10712C00D3E900230CF058FB02460B4610461946D7
:10713C004FF000028A4B0CF0E7FB02460B46104660
:10714C0019464FF00002894B0CF0C0FC0346002B93
:10715C0001D0874E00E0834E039B5B68B3F900308F
:10716C0018460CF023FD79A3D3E900230CF034FB73
:10717C0002460B46104619464FF00002784B0CF0B5
:10718C00C3FB02460B46104619460CF0D7FC0746CB
:10719C00039B5B68B3F9003018460CF007FD6BA33A
:1071AC00D3E900230CF018FB02460B461046194697
:1071BC004FF000026A4B0CF0A7FB02460B46104640
:1071CC0019464FF000024FF000030CF07FFC034611
:1071DC00002B42D0039B5B68B3F9003018460CF0CF
:1071EC00E5FC5AA3D3E900230CF0F6FA02460B4651
:1071FC00104619464FF00002594B0CF085FB024625
:10720C000B4614461D46039B5B68B3F900301846C9
:10721C000CF0CCFC4DA3D3E900230CF0DDFA0246B4
:10722C000B46104619464FF000024D4B0CF06CFB10
:10723C0002460B46104619460CF080FC03461846D5
:10724C000CF0B4FC02460B46204629460CF0C0FA62
:10725C0002460B46104619463FE0039B5B68B3F9A8
:10726C00003018460CF0A2FC38A3D3E900230CF034
:10727C00B3FA02460B46104619464FF00002384B43
:10728C000CF042FB02460B46104619460CF056FC1D
:10729C00034618460CF08AFC04460D46039B5B68BB
:1072AC00B3F9003018460CF081FC28A3D3E9002375
:1072BC000CF092FA02460B46104619464FF00002AB
:1072CC00274B0CF021FB02460B46204629460CF0BE
:1072DC007FFA02460B46104619464FF00002254B2A
:1072EC000CF07AFA02460B46104619460CF026FCB6
:1072FC00034604A800933B4632461F490CF094FE0B
:10730C0003469BB2ADF842301C4B1B880DF1420278
:10731C0004A91B4804F024FA1690169B082B0DD0D8
:10732C00169B052B0AD0169B1493149B002B05D08F
:10733C00084A4FF43A71149808F064FD114B1B681D
:10734C000133104A136000BF19B0F0BDCDCCCCCCCA
:10735C00CCCC0C40A0470300B42A0020C04803004A
:10736C000000B040C4480300C84803000000F0BF50
:10737C00E448030000005940E8480300042B0020B7
:10738C00E82A00203C2C002000B58BB0284B1B6851
:10739C00049302238DF81030264A01AB07CA03C3AD
:1073AC001A7004AB24491846FEF7B6FF0990099BE6
:1073BC000893089B002B05D0204A4FF44371089882
:1073CC0008F020FD01AB1946002006F0B5F9099034
:1073DC00099B0793079B002B05D0184A40F20F31ED
:1073EC00079808F00FFD0421154806F051FA099092
:1073FC00099B0693069B002B05D0104A4FF446714F
:10740C00069808F0FFFC04210E4806F041FA09909A
:10741C00099B0593059B002B05D0084A40F21A31B5
:10742C00059808F0EFFC00BF0BB05DF804FB00BF43
:10743C00FC4803000049030011700200A047030040
:10744C00282C0020302C002000B583B0FFF738FC2E
:10745C00FFF7E2FCFEF7FEFF0DF107031846FFF7FE
:10746C00A5FCFFF7F5FCFFF7BFFAFFF709F8FFF7EC
:10747C0025FBFFF7B3F8FFF757FCFFF719F9FFF7F8
:10748C0027FDFFF781FFFFF79FFD0B4B1B881B04AC
:10749C0043F00303094918460BF0C6F8064B1B884A
:1074AC001B0443F00303064918460BF0BDF8FFF725
:1074BC00EDFCFFF7E3FCFCE7B42A00200C490300C9
:1074CC002049030000B583B00190019B1B681F2B62
:1074DC0004D9054940F2C710FEF7A8FF4FF0A043AE
:1074EC00184603B05DF804FB5849030000B585B09D
:1074FC000190084611461A4603468DF803300B4698
:10750C008DF8023013468DF8013001AB1846FFF7A9
:10751C00D9FF03909DF803209DF802305B001A43BD
:10752C009DF801309B001A439DF818301B0242EA6B
:10753C0003019DF81C301B04019A1943039B02F5AF
:10754C00E07243F8221000BF05B05DF804FB00B5F3
:10755C0085B00390002301930023009300230122A4
:10756C0001210398FFF7C2FF00BF05B05DF804FBD3
:10757C0000B585B003900B468DF80B309DF80B30A1
:10758C000022019200220092002200210398FFF7B2
:10759C00ADFF00BF05B05DF804FB00B585B00190F0
:1075AC0001AB1846FFF78EFF0390019B012202FAF4
:1075BC0003F31946039800F086F800BF05B05DF898
:1075CC0004FB00B585B0019001AB1846FFF77AFFBC
:1075DC000390019B012202FA03F31946039800F071
:1075EC007CF800BF05B05DF804FB00B585B00190D8
:1075FC0001AB1846FFF766FF0390039BD3F80435E5
:10760C000293029BDA43019B012101FA03F31A4016
:10761C00039BC3F80825019B01229A40029B1A4048
:10762C00039BC3F80C2500BF05B05DF804FB00B547
:10763C0083B001900091009B002B03D10198FFF7C0
:10764C00C0FF02E00198FFF7A8FF00BF03B05DF890
:10765C0004FB00B585B0019001AB1846FFF732FF73
:10766C000390039800F01FF80246019B22FA03F3E3
:10767C0003F00103184605B05DF804FB00B585B0B6
:10768C00019001AB1846FFF71DFF0390039800F023
:10769C0012F80246019B22FA03F303F00103184689
:1076AC0005B05DF804FB82B00190019BD3F8103556
:1076BC00184602B0704782B00190019BD3F8043594
:1076CC00184602B0704782B001900091019B009A5D
:1076DC00C3F8082500BF02B0704782B0019000913A
:1076EC00019B009AC3F80C2500BF02B07047000044
:1076FC0000B585B00190019B032B03D911493A20A9
:10770C00FEF794FE104A019B13441B781846FFF7B2
:10771C00B5FF0346002B14BF012300238DF80F3057
:10772C009DF80F30002B14BF01230023DBB283F034
:10773C000103DBB203F00103DBB2184605B05DF8C0
:10774C0004FB00BF88490300FC49030000B583B06B
:10775C000190019B032B03D907494120FEF766FEDC
:10776C00064A019B13441B7800211846FFF75FFF64
:10777C0000BF03B05DF804FB88490300FC4903001B
:10778C0000B583B00190019B032B03D90749472017
:10779C00FEF74CFE064A019B13441B780121184648
:1077AC00FFF745FF00BF03B05DF804FB88490300F9
:1077BC00FC49030000B583B00023019305E0019858
:1077CC00FFF7DEFF019B01330193019B032BF6D9DD
:1077DC0000BF00BF03B05DF804FB00B583B000230D
:1077EC00019305E00198FFF7B1FF019B0133019371
:1077FC00019B032BF6D900BF00BF03B05DF804FB5F
:10780C0000B583B00190019B032B03D907495F207E
:10781C00FEF70CFE064A019B13441B781846FFF733
:10782C00E4FE00BF03B05DF804FB00BF8849030011
:10783C00FC49030000B583B00023019309E0094A19
:10784C00019B13441B781846FFF781FE019B013303
:10785C000193019B032BF2D9FFF7ACFF00BF03B0E0
:10786C005DF804FBFC49030000B585B00190019B59
:10787C00032B03D91149AC20FEF7D8FD104A019B0C
:10788C0013441B781846FFF7E4FE0346002B14BF85
:10789C00012300238DF80F309DF80F30002B14BFFF
:1078AC0001230023DBB283F00103DBB203F00103FD
:1078BC00DBB2184605B05DF804FB00BF8849030035
:1078CC00004A030000B583B0002301930AE0094A83
:1078DC00019B13441B7803211846FFF749FE019BBB
:1078EC0001330193019B032BF1D900BF00BF03B0FF
:1078FC005DF804FB004A030084B001904FF0FF33A5
:10790C000293002303930DE00A4A039B13441B7854
:10791C001A46019B934202D1039B029305E0039B01
:10792C0001330393039B032BEED9029B184604B03F
:10793C00704700BF004A030000B583B00190019B63
:10794C00032B03D90549CB20FEF770FD044A019B9C
:10795C0013441B78184603B05DF804FB88490300F8
:10796C00004A030000B583B00190019B03F00103B2
:10797C00002B01D0FFF75EFF019B03F00203002BED
:10798C0001D0FFF79FFF00BF03B05DF804FB0000C0
:10799C0000B583B00190019B1B681F2B04D90549CE
:1079AC0040F2C710FEF742FD4FF0A043184603B05B
:1079BC005DF804FB044A030000B585B001900B464A
:1079CC008DF8033001AB1846FFF7E2FF0390019AE4
:1079DC00039B02F5E07253F82230019A23F44031F4
:1079EC00039B02F5E07243F82210019A039B02F507
:1079FC00E07253F822309DF8032012041146019ACC
:107A0C001943039B02F5E07243F8221000BF05B046
:107A1C005DF804FB00B583B00190019B032B04D8E7
:107A2C000198FFF721FF034600E00023184603B03E
:107A3C005DF804FB00B587B003460A468DF80730A5
:107A4C0013468DF8063000238DF81730002304936D
:107A5C009DF807301846FFF74FFF0490049B032B4B
:107A6C0062D89DF80630022B52D0022B5CDC002B26
:107A7C0031D0012B58D13549049A13465B0013447D
:107A8C000B441B788DF817303049049A13465B0071
:107A9C0013440B4401331B78002B0ED02C4B2D4A76
:107AAC004FF40041184609F093F80390039B002B08
:107ABC0003D1284A9DF8073013702449049A1346C1
:107ACC005B0013440B4402331978234A049B134480
:107ADC000A461A7028E01E4B184609F0ABF81E4AED
:107AEC00049B134419781948049A13465B001344F9
:107AFC00034402331B78994215D11449049A134656
:107B0C005B0013440B4402331B788DF817300AE0EA
:107B1C000E49049A13465B0013440B4401331B7843
:107B2C008DF8173000E000BF9DF81730002B09D0FE
:107B3C000A4B1B68002B05D0084B1B689DF81720BF
:107B4C001046984700BF07B05DF804FB882F002053
:107B5C00942F0020B42F0020B82F0020842F002059
:107B6C0000B583B00190019B1B7802211846FFF7EA
:107B7C0061FF00BF03B05DF804FB000000B583B0EB
:107B8C000C4B1B78002B0FD00023019308E0019BBA
:107B9C00022B02D00198FFF7F3FD019B01330193F7
:107BAC00019B032BF3D901E0FFF704FE00BF03B0E8
:107BBC005DF804FB402F00202DE9D04F92B0034616
:107BCC008DF83F300023119300231093C94B1B7881
:107BDC00002B04D0C74A00231370FFF7CFFF9DF88A
:107BEC003F30172B00F2398201A252F823F000BF6C
:107BFC005D7C02006B7C02006B7C0200077D020046
:107C0C00A37D02001F7E0200B37E0200D37E020021
:107C1C00E37E02000D7F02002B7F0200497F0200F1
:107C2C00677F0200757F0200757F0200757F02007E
:107C3C00757F0200757F0200098002001780020028
:107C4C002B8002003F800200598002005980020004
:107C5C00FFF794FFA84A9DF83F301370FEE1002017
:107C6C00FFF746FD0346002B0DD00020FFF788FDE3
:107C7C009DF83F30022B02D14FF4E16301E04FF449
:107C8C007A6310930BE00020FFF760FD9DF83F3006
:107C9C00022B01D1C82301E04FF4C8731093964A0C
:107CAC009DF83F301370954C109B0022009301926D
:107CBC004FF000024FF00003DDE900673946CB03BB
:107CCC00314643EA51433146CA0312F5FA71029127
:107CDC0043F1000303934FF47A724FF00003DDE994
:107CEC0002010BF075FF02460B46134600221946A3
:107CFC00204608F06DFF1190B0E10020FFF7F8FC72
:107D0C000346002B0DD00020FFF73AFD9DF83F30C5
:107D1C00032B02D14FF4487301E04FF47A631093B4
:107D2C000BE00020FFF712FD9DF83F30032B01D133
:107D3C00C82301E04FF4C87310936F4A9DF83F308D
:107D4C0013706E4C109B0022049305924FF00002AE
:107D5C004FF00003DDE904673946CB03314643EAB3
:107D6C0051433146CA0312F5FA71069143F10003EF
:107D7C0007934FF47A724FF00003DDE906010BF024
:107D8C0027FF02460B46134600221946204608F0F0
:107D9C001FFF119062E10020FFF7AAFC0346002BA5
:107DAC0006D00020FFF7ECFC4FF47A63109305E04B
:107DBC000020FFF7CBFC4FF4C87310934E4A9DF88C
:107DCC003F3013704D4C109B00229A4693464FF057
:107DDC0000024FF000034FEACB3343EA5A434FEA19
:107DEC00CA3212F5FA71089143F1000309934FF46A
:107DFC007A724FF00003DDE908010BF0E9FE024650
:107E0C000B46134600221946204608F0E1FE11905D
:107E1C0024E10020FFF76CFC0346002B0CD0002063
:107E2C00FFF7AEFC9DF83F30052B01D1C82301E0D4
:107E3C004FF47A6310930BE00020FFF787FC9DF85A
:107E4C003F30052B01D1C82301E04FF4C8731093C8
:107E5C00294A9DF83F301370284C109B00229846FD
:107E6C0091464FF000024FF000034FEAC93343EA4A
:107E7C0058434FEAC83212F5FA710A9143F10003E4
:107E8C000B934FF47A724FF00003DDE90A010BF00B
:107E9C009FFE02460B46134600221946204608F068
:107EAC0097FE1190DAE00020FFF7AAFC124A9DF829
:107EBC003F301370114B002240F6CD41184608F0AC
:107ECC0087FE1190CAE00020FFF740FC0A4A9DF89B
:107EDC003F301370C2E0074B01221A700120FFF7EC
:107EEC008FFC064B002240F6CD41184608F070FE80
:107EFC001190B3E0392F0020382F0020442F0020A0
:107F0C00594B01221A700120FFF77AFC574B0022C3
:107F1C004FF48041184608F05BFE11909EE0524BE6
:107F2C0001221A700120FFF76BFC504B002240F627
:107F3C00CD41184608F04CFE11908FE04A4B0122BF
:107F4C001A700120FFF75CFC484B00224FF4804173
:107F5C00184608F03DFE119080E0FFF73EFC444AC5
:107F6C009DF83F30137079E0424B184608F062FEE2
:107F7C0011909DF83F30C3F111031093109B002B0F
:107F8C0035D0119B002B32D1109B012B28D9394CA9
:107F9C00109B9BB21A46C82302FB03F3DA171E464A
:107FAC0017464FF000024FF00003FB0343EA564321
:107FBC00F20312F5FA710C9143F100030D934FF497
:107FCC007A724FF00003DDE90C010BF001FE024662
:107FDC000B46134600221946204608F0F9FD119075
:107FEC000220FFF7B3FB244B01221A7036E002206B
:107FFC00FFF7C6FB204B00221A702FE0FFF7BEFDE7
:10800C001B4A9DF83F30137028E0FFF7B7FD0020A6
:10801C00FFF79CFB164A9DF83F3013701EE0FFF7EC
:10802C00ADFD0120FFF792FB114A9DF83F30137014
:10803C0014E0FFF7A3FD0020FFF788FB0120FFF7FA
:10804C0085FB0B4A9DF83F30137007E0FFF7C5FB2B
:10805C00074A9DF83F30137000E000BF119B184693
:10806C0012B0BDE8D08F00BF392F0020442F002064
:10807C00382F0020642F0020402F002000B583B043
:10808C000190074B1B6803F00103002B04D0054B38
:10809C001B781846FFF790FD00BF03B05DF804FB9A
:1080AC003C2F0020382F002000B583B00190022017
:1080BC00FFF7A6FB00BF03B05DF804FB00B585B06D
:1080CC0003468DF8073000230393084B1B6803F01D
:1080DC000103002B05D09DF807301846FFF76CFD07
:1080EC000390039B184605B05DF804FB3C2F002061
:1080FC0000B585B001900091002303932A4A019B9F
:10810C0013602A4A009B1360019B03F00203002BAF
:10811C002AD00023029308E001220121029800F0EA
:10812C0055F80390029B01330293029B032B02D858
:10813C00039B002BF0D0039B002B06D140F2666210
:10814C0004211B4807F068FD0390039B002B02D110
:10815C0007F0DEFD0390039B002B05D1154A00218F
:10816C00154808F005FD0390019B03F00103002B5B
:10817C0014D00120FFF7F6FB039B002B05D10F4A0F
:10818C0000210F4808F0F4FC0390039B002B05D151
:10819C000C4A01210C4808F0EBFC0390039B184699
:1081AC0005B05DF804FB00BF3C2F0020842F00209D
:1081BC00404A03006D7B02003C4A030089800200A8
:1081CC00344A0300B5800200384A030084B00190A1
:1081DC000B468DF8033013468DF8023000230393C1
:1081EC00019B032B3CD89DF80230012B0BD19DF841
:1081FC000330012B04D1019BDBB20E33DBB200E068
:10820C0000238DF802309DF80330022B0FD0022B87
:10821C0023DC002B16D0012B1FD11449019A1346D5
:10822C005B0013440B449DF802201A701AE00F49AE
:10823C00019A13465B0013440B4401339DF8022052
:10824C001A700FE00949019A13465B0013440B4462
:10825C0002339DF802201A7004E00723039301E017
:10826C0007230393039B184604B07047882F002004
:10827C0000B585B001900B468DF80330019B032BA4
:10828C0014D89DF80330002B01D0032300E0002309
:10829C008DF80F300198FFF74FFB02469DF80F3019
:1082AC0019461046FFF788FB002300E0062318460A
:1082BC0005B05DF804FB00B583B001900121019875
:1082CC00FFF7D6FF0346184603B05DF804FB00B574
:1082DC0083B0012200210020FFF778FF0190019B61
:1082EC00002B04D0019B072B01D0019B1CE0072223
:1082FC0002210120FFF76AFF0190019B002B04D0A3
:10830C00019B072B01D0019B0EE0042202210020CF
:10831C00FFF75CFF0190019B002B04D0019B072B06
:10832C0001D0019B00E00023184603B05DF804FB6C
:10833C0000B583B0012202210020FFF747FF019016
:10834C00019B002B04D0019B072B01D0019B1CE04F
:10835C00072202210120FFF739FF0190019B002B1E
:10836C0004D0019B072B01D0019B0EE00A220021B7
:10837C000020FFF72BFF0190019B002B04D0019BE9
:10838C00072B01D0019B00E00023184603B05DF8D9
:10839C0004FB00B583B001900120FFF73BFB0346C3
:1083AC00002B03D0019B02221A700CE00020FFF777
:1083BC0031FB0346002B03D0019B0B221A7002E009
:1083CC00019B00221A7000BF03B05DF804FB00B5DE
:1083DC0083B00020FFF76FFF0190019B002B04D0AE
:1083EC00019B062B01D0019B0CE00120FFF763FFE2
:1083FC000190019B002B04D0019B062B01D0019B0B
:10840C0000E00023184603B05DF804FB00B585B00E
:10841C0001900091019B1B88102B02D0112B18D0BE
:10842C002FE01A4B1B68002B0DD1FFF750FF039068
:10843C00039B002B07D0164B1B68002B03D0144B4F
:10844C001B6803989847114B1B6801330F4A136044
:10845C0017E00E4B1B68013B0C4A13600B4B1B685F
:10846C00002B0DD1FFF764FF0390039B002B07D06B
:10847C00074B1B68002B03D0054B1B6803989847D0
:10848C0000BF00BF05B05DF804FB00BFC02F00208B
:10849C00BC2F002000B585B0019000910023039300
:1084AC000A4A019B1360009B002B02D00098FFF737
:1084BC0070FF074B1B68002B02D1FFF739FF0390AD
:1084CC00039B184605B05DF804FB00BFBC2F0020D1
:1084DC00C02F0020BFF34F8F00BF074BDB6803F4A6
:1084EC00E0620549054B1343CB60BFF34F8F00BFD0
:1084FC0000BF00BFFCE700BF00ED00E00400FA0580
:10850C00024B034A1A6000BF704700BF0C2B0020BF
:10851C000090D00308B500F069F90346002B06D093
:10852C00A04B1B681B0AA04A03F01F03136000F04A
:10853C0089F90346002B02D09C4B9D4A1A6000F02F
:10854C009DF90346002B06D09A4B1B685B0B9A4A8D
:10855C0003F00703136000F0BDF90346002B05D0B0
:10856C00964BDB68954A23F08073D36000F0CEF90C
:10857C000346002B0ED04FF080430022C3F80C2191
:10858C004FF080430022C3F810214FF080430022AB
:10859C00C3F8382500F0E6F90346002B02D0884BCF
:1085AC0003221A6000F0FAF90346002B0BD0854B1E
:1085BC0005221A60844B01221A60844B00221A6037
:1085CC00834B3F221A6000F005FA0346002B76D04D
:1085DC004FF080537F4AD3F80434C2F820354FF063
:1085EC0080537C4AD3F80834C2F824354FF08053BA
:1085FC00784AD3F80C34C2F828354FF08053754ABA
:10860C00D3F81034C2F82C354FF08053714AD3F89C
:10861C001434C2F830354FF080536E4AD3F8183406
:10862C00C2F834354FF080536A4AD3F81C34C2F880
:10863C0040354FF08053674AD3F82034C2F84435A4
:10864C004FF08053634AD3F82434C2F848354FF0C6
:10865C008053604AD3F82834C2F84C354FF080531D
:10866C005C4AD3F82C34C2F850354FF08053594A39
:10867C00D3F83034C2F854354FF08053554AD3F800
:10868C003434C2F860354FF08053524AD3F8383442
:10869C00C2F864354FF080534E4AD3F83C34C2F8DC
:1086AC0068354FF080534B4AD3F84034C2F86C35E0
:1086BC004FF08053474AD3F84434C2F8703500F079
:1086CC00A5F90346002B05D0434B1B68434A03F026
:1086DC004F03136000F0C6F90346002B0DD04FF08A
:1086EC008043D3F8003403F00103002B05D04FF086
:1086FC0080436FF00102C3F8002400F0DFF9034659
:10870C00002B05D0364B1B68354A43F4806313604D
:10871C00344BD3F88830334A43F47003C2F88830B2
:10872C00BFF34F8F00BFBFF36F8F00BF4FF010230D
:10873C00D3F80032002B05DB4FF01023D3F80432B2
:10874C00002B2BDA284B0122C3F8042500BF264B43
:10875C00D3F80034002BFAD04FF010231522C3F8B5
:10876C00002200BF204BD3F80034002BFAD04FF07E
:10877C0010231522C3F8042200BF1B4BD3F800347E
:10878C00002BFAD0184B0022C3F8042500BF164B5F
:10879C00D3F80034002BFAD0FFF79CFEFFF7B0FEA5
:1087AC0000BF08BD240300104035014074C00740D1
:1087BC000DF0ADBA440200103C050040F0ED00E0B5
:1087CC00A005004010560040885600401856004046
:1087DC001456004000C0004058020010E40E004047
:1087EC003C17004000ED00E000E00140124B1B681C
:1087FC00DBB2062B1DD1114B1B6803F00F03002BB2
:10880C0017D10F4B1B6803F0F003302B01D1012360
:10881C0010E00B4B1B6803F0F003402B01D101233C
:10882C0008E0074B1B6803F0F003502B01D1012328
:10883C0000E0002318467047E00F00F0E40F00F052
:10884C00E80F00F00A4B1B68DBB2062B0DD1094B6D
:10885C001B6803F00F03002B07D1074B1B6803F0B9
:10886C00F003302B01D1012300E0002318467047A0
:10887C00E00F00F0E40F00F0E80F00F0124B1B6863
:10888C00DBB2062B1DD1114B1B6803F00F03002B21
:10889C0017D10F4B1B6803F0F003302B01D10123D0
:1088AC0010E00B4B1B6803F0F003402B01D10123AC
:1088BC0008E0074B1B6803F0F003502B01D1012398
:1088CC0000E0002318467047E00F00F0E40F00F0C2
:1088DC00E80F00F00A4B1B68DBB2062B0DD1094BDD
:1088EC001B6803F00F03002B07D1074B1B6803F029
:1088FC00F003302B01D1012300E000231846704710
:10890C00E00F00F0E40F00F0E80F00F0124B1B68D2
:10891C00DBB2062B1DD1114B1B6803F00F03002B90
:10892C0017D10F4B1B6803F0F003302B01D101233F
:10893C0010E00B4B1B6803F0F003402B01D101231B
:10894C0008E0074B1B6803F0F003502B01D1012307
:10895C0000E0002318467047E00F00F0E40F00F031
:10896C00E80F00F00A4B1B68DBB2062B0DD1094B4C
:10897C001B6803F00F03002B07D1074B1B6803F098
:10898C00F003302B01D1012300E00023184670477F
:10899C00E00F00F0E40F00F0E80F00F00A4B1B684A
:1089AC00DBB2062B0DD1094B1B6803F00F03002B18
:1089BC0007D1074B1B6803F0F003302B01D10123C7
:1089CC0000E0002318467047E00F00F0E40F00F0C1
:1089DC00E80F00F00A4B1B68DBB2062B0DD1094BDC
:1089EC001B6803F00F03002B07D1074B1B6803F028
:1089FC00F003502B01D1012300E0002318467047EF
:108A0C00E00F00F0E40F00F0E80F00F0124B1B68D1
:108A1C00DBB2062B1DD1114B1B6803F00F03002B8F
:108A2C0017D10F4B1B6803F0F003302B01D101233E
:108A3C0010E00B4B1B6803F0F003402B01D101231A
:108A4C0008E0074B1B6803F0F003502B01D1012306
:108A5C0000E0002318467047E00F00F0E40F00F030
:108A6C00E80F00F0124B1B68DBB2062B1DD1114B2B
:108A7C001B6803F00F03002B17D10F4B1B6803F07F
:108A8C00F003302B01D1012310E00B4B1B6803F0DA
:108A9C00F003402B01D1012308E0074B1B6803F0C6
:108AAC00F003502B01D1012300E00023184670473E
:108ABC00E00F00F0E40F00F0E80F00F0064B1B682D
:108ACC00062B05D1054B1B68062B01D1012300E0B9
:108ADC0000231846704700BF30010010340100100D
:108AEC006DDF704700BF184679DF704700BF18462E
:108AFC007DDF704700BF184664DF704700BF184623
:108B0C0082B003460091ADF80630BDF80630DAB2FB
:108B1C00009B1A70BDF806301B0A9AB2009B0133F9
:108B2C00D2B21A700223184602B0704700B589B051
:108B3C00039002911346ADF80630029B1B8803F19B
:108B4C000902BDF806309A4201D90C2353E004AB5C
:108B5C001846FFF7C5FF0790079B0693069B002B53
:108B6C0001D0069B47E0029B1B881A46039B1344CB
:108B7C0008221A70029B1B8801339AB2029B1A803E
:108B8C00029B1B881A46039B13441B221A70029BE0
:108B9C001B8801339AB2029B1A80029B1B881A46CF
:108BAC00039B981804AB0133062219460BF03CF9D1
:108BBC00029B1B8806339AB2029B1A809DF81030D8
:108BCC0023F00103DBB2002B07D1029B1B881A4652
:108BDC00039B134400221A7006E0029B1B881A4662
:108BEC00039B134401221A70029B1B8801339AB217
:108BFC00029B1A800023184609B05DF804FB00B5EF
:108C0C0089B0039002910192ADF80230039B1B785E
:108C1C00012B05D1039B5B78002B01D107238BE043
:108C2C00019B1B889A1CBDF802309A420ED8039BFC
:108C3C001B78012B0CD1019B1B881A46039B5B787C
:108C4C0013449A1CBDF802309A4201D90C2373E0EC
:108C5C00019B1B88BDF80220D31A9BB2023BADF8D6
:108C6C001C30BDF81C30ADF81230019B1B88023350
:108C7C00029A13440DF1120211461846FFF738FF01
:108C8C000690069B0593059B002B01D0059B53E09A
:108C9C00039B1B78022B09D1BDF81230BDF81C20A8
:108CAC009A4203D309238DF81F3017E008238DF85F
:108CBC001F30039B1B78012B0CD1039B5B789BB261
:108CCC00BDF81C209A4205D3039B5B789BB2ADF890
:108CDC00123003E0BDF81C30ADF81230BDF8123084
:108CEC00FE2B01D90C2327E0BDF81230DAB2019B20
:108CFC001B881946029B0B440132D2B21A70019B9D
:108D0C001B8801339AB2019B1A80019B1B881A465F
:108D1C00029B13449DF81F201A70019B1B88013382
:108D2C009AB2019B1A80019B1A88BDF81230134429
:108D3C009AB2019B1A800023184609B05DF804FB17
:108D4C0000B589B0039002911346ADF80630029B32
:108D5C001B881A1DBDF806309A4201D90C233BE042
:108D6C000DF116031846FFF7BFFE0790079B0693FD
:108D7C00069B002B01D0069B2EE0029B1B881A46FB
:108D8C00039B134403221A70029B1B8801339AB273
:108D9C00029B1A80029B1B881A46039B13441922C0
:108DAC001A70029B1B8801339AB2029B1A80BDF881
:108DBC001620029B1B881946039B0B441946104630
:108DCC00FFF79EFE03461946029B1A888BB213448A
:108DDC009AB2029B1A800023184609B05DF804FB76
:108DEC0084B0029101921A4603468DF80F30134657
:108DFC00ADF80C30019B1B88DA1CBDF80C309A4284
:108E0C0001D90C2328E0019B1B881A46029B1344B2
:108E1C0002221A70019B1B8801339AB2019B1A80A3
:108E2C00019B1B881A46029B134401221A70019B5A
:108E3C001B8801339AB2019B1A80019B1B881A462E
:108E4C00029B13449DF80F201A70019B1B88013361
:108E5C009AB2019B1A800023184604B0704784B064
:108E6C00029101921A4603468DF80F301346ADF865
:108E7C000C30019B1B88DA1CBDF80C309A4201D9CE
:108E8C000C2328E0019B1B881A46029B13440222E8
:108E9C001A70019B1B8801339AB2019B1A80019BAB
:108EAC001B881A46029B13440A221A70019B1B88CA
:108EBC0001339AB2019B1A80019B1B881A46029BB4
:108ECC0013449DF80F201A70019B1B8801339AB232
:108EDC00019B1A800023184604B0704700B58FB070
:108EEC00039001930B468DF80B3013468DF80A3026
:108EFC0000238DF83330109B1B88ADF830300023E5
:108F0C000D9371E0039B5A680D9B9B001A4405ABB3
:108F1C00106818600DF11B0105AB00221846FFF715
:108F2C00EBFD0A900A9B0993099B002B01D0099B2E
:108F3C007CE09DF81B309DF80A209A4251D19DF897
:108F4C003330002B01D0002300E002238DF82330B6
:108F5C00109B1B881A469DF81B301A449DF8233031
:108F6C001A44BDF844309A4201DD0C235EE09DF8B2
:108F7C00333083F00103DBB2002B16D0109B1B881F
:108F8C0001339AB2109B1A80109B1B881A46019BC6
:108F9C0013449DF80B201A70109B1B8801339AB256
:108FAC00109B1A8001238DF83330109B1B881A46B6
:108FBC00019B1A440DF11B0105AB1846FFF79CFDF4
:108FCC000A900A9B0793079B002B01D0079B2DE06F
:108FDC00109B1A889DF81B309BB213449AB2109BBD
:108FEC001A800D9B01330D93039B1B881A460D9B16
:108FFC00934287DB9DF83330002B16D0109B1A88D8
:10900C00BDF83030D31A9BB2013BADF82E30BDF811
:10901C002E30FF2B01D90C2308E0BDF83030019A1B
:10902C001344BDF82E20D2B21A70002318460FB08C
:10903C005DF804FB00B58BB0059003930B468DF8DF
:10904C00133013468DF812309DF81310BDF83430E0
:10905C0001930C9B0093039B02220598FFF73EFFA4
:10906C000990099B0893089B002B01D0089B14E0E6
:10907C009DF81210BDF8343001930C9B0093039BA8
:10908C0010220598FFF72AFF0990099B0793079B6D
:10909C00002B01D0079B00E0002318460BB05DF8B5
:1090AC0004FB82B00190019B1B88052B0AD9019B04
:1090BC001B88B3F5486F07D9019B1B884FF6FF72CD
:1090CC00934201D0072325E0019B5B88052B0AD92D
:1090DC00019B5B88B3F5486F07D9019B5B884FF602
:1090EC00FF72934201D0072314E0019B1B884FF6BB
:1090FC00FF7293420DD0019B5B884FF6FF72934237
:10910C0007D0019B1A88019B5B889A4201D90723DF
:10911C0000E00023184602B0704700B587B00390FA
:10912C0002910192ADF80230019B1B889A1DBDF88B
:10913C0002309A4201D90C234DE00398FFF7B1FF9E
:10914C000590059B0493049B002B01D0049B42E0EB
:10915C00019B1B881A46029B134405221A70019B23
:10916C001B8801339AB2019B1A80019B1B881A46FB
:10917C00029B134412221A70019B1B8801339AB272
:10918C00019B1A80039B1A88019B1B881946029B22
:10919C000B4419461046FFF7B3FC03461946019BD6
:1091AC001A888BB213449AB2019B1A80039B5A887B
:1091BC00019B1B881946029B0B4419461046FFF76E
:1091CC009FFC03461946019B1A888BB213449AB232
:1091DC00019B1A800023184607B05DF804FB00B50C
:1091EC0087B0039002910192ADF80230039B9B88EB
:1091FC0002330593019B1B881A46059B13449A1C4A
:10920C00BDF802309A4201D90C2354E0059BFE2B89
:10921C0001D90C234FE0059BDAB2019B1B88194640
:10922C00029B0B440132D2B21A70019B1B88013392
:10923C009AB2019B1A80019B1B881A46029B13440D
:10924C00FF221A70019B1B8801339AB2019B1A8072
:10925C00039B1A88019B1B881946029B0B441946D9
:10926C001046FFF74DFC03461946019B1A888BB23A
:10927C0013449AB2019B1A80039B9B88002B19D034
:10928C00039B9B68002B01D1072314E0019B1B88D7
:10929C001A46029B9818039B9968039B9B881A4655
:1092AC000AF0C2FD019B1A88039B9B8813449AB257
:1092BC00019B1A800023184607B05DF804FB00B52B
:1092CC0089B0039002910192ADF80230039B9B6A26
:1092DC00002B01D1072372E000238DF81F3066E0CC
:1092EC00039B996A9DF81F2013465B0013449B0057
:1092FC000B440693069B9B8802330593059BFE2B20
:10930C0001D90C235BE0059BDAB2019B1B88194643
:10931C00029B0B440132D2B21A70019B1B880133A1
:10932C009AB2019B1A80019B1B881A46029B13441C
:10933C0016221A70019B1B8801339AB2019B1A806A
:10934C00069B1A88019B1B881946029B0B441946E5
:10935C001046FFF7D5FB03461946019B1A888BB2C2
:10936C0013449AB2019B1A80069B9B88002B19D040
:10937C00069B9B68002B01D1072320E0019B1B88D7
:10938C001A46029B9818069B9968069B9B881A465E
:10939C000AF04AFD019B1A88069B9B8813449AB2DB
:1093AC00019B1A809DF81F3001338DF81F30039BF1
:1093BC0093F82C309DF81F209A4291D30023184625
:1093CC0009B05DF804FB00B595B0059004910392CB
:1093DC0000231393039B1B88ADF84A30039B002298
:1093EC001A80059B93F82D30002B0ED0BDF84A3017
:1093FC001A4603990498FFF799FB1390139B11934A
:10940C00119B002B01D0119BD8E0059B9B78002B66
:10941C000ED0BDF84A301A4603990498FFF790FC19
:10942C001390139B1093109B002B01D0109BC5E045
:10943C00059BDB78002B10D0059BDB7858B2BDF870
:10944C004A30039A0499FFF7CBFC1390139B0F93AC
:10945C000F9B002B01D00F9BB0E0059B5B68002B92
:10946C0011D0059B5B6893F90000BDF84A30039A54
:10947C000499FFF7F4FC1390139B0E930E9B002B97
:10948C0001D00E9B9AE0059B1B89002B14D0059BE9
:10949C0003F10800BDF84A300193039B0093049B31
:1094AC0006220221FFF7C6FD1390139B0D930D9B13
:1094BC00002B01D00D9B81E0059B1B8A002B14D047
:1094CC00059B03F11000BDF84A300193039B0093F8
:1094DC00049B07220321FFF7ADFD1390139B0C9304
:1094EC000C9B002B01D00C9B68E0059B1B8B002B6D
:1094FC0014D0059B03F11800BDF84A300193039B6F
:10950C000093049B15221421FFF794FD1390139BD9
:10951C000B930B9B002B01D00B9B4FE0059B1B6A05
:10952C00002B0FD0059B186ABDF84A30039A04999A
:10953C00FFF7F3FD1390139B0A930A9B002B01D0AA
:10954C000A9B3BE0059B5B6A002B0FD0059B586A7E
:10955C00BDF84A30039A0499FFF741FE1390139B10
:10956C000993099B002B01D0099B27E0059B93F8DD
:10957C002C30002B0ED0BDF84A30039A0499059874
:10958C00FFF79DFE1390139B0893089B002B01D0B3
:10959C00089B13E0059B1B78002B0ED0BDF84A30BE
:1095AC00039A04990598FFF72AFB1390139B0793D2
:1095BC00079B002B01D0079B00E0139B184615B0AE
:1095CC005DF804FB86B0039001921A460B46ADF889
:1095DC000A3013468DF80930039B002B02D0019BF7
:1095EC00002B01D100233CE00023ADF816300CE039
:1095FC00BDF81630039A13441B789AB2BDF8163096
:10960C0013449BB20133ADF81630019B1B88BDF897
:10961C0016209A4209D3BDF816300133039A13442D
:10962C001B789DF809209A4205D0BDF81620BDF88C
:10963C000A309A42DCD3BDF81620BDF80A309A42A3
:10964C0001D300230DE0BDF8163002339AB2019B12
:10965C001A80BDF81630039A13441B789BB2013B59
:10966C009BB2184606B0704700B585B001900B460A
:10967C00ADF8023013468DF801300023ADF80C30F4
:10968C009DF8013003AABDF802100198FFF79AFF6C
:10969C000346ADF80E30BDF80E30002B01D100237F
:1096AC0004E0BDF80C301A46019B1344184605B073
:1096BC005DF804FB72DF704700BF184673DF70471C
:1096CC0000BF184674DF704700BF184682B0019087
:1096DC00019B93F8B430184602B0704784B00190E7
:1096EC00002303930AE0019A039B13441B78002B7D
:1096FC0001D0012306E0039B01330393039B052B4D
:10970C00F1D90023184604B07047000082B003461C
:10971C008DF807309DF807305A1C074B83FB02135A
:10972C005910D317C91A0B469B000B44D11ACBB254
:10973C00184602B0704700BF6766666682B001903B
:10974C000091009BDB7B012B04D1009B9A88019B31
:10975C00A3F8A82000BF02B0704700B585B00190F7
:10976C000091019B002283F8B220009B9A88019BF8
:10977C00B3F8A8309A4216D1019B1B7983F00103F0
:10978C00DBB2002B0FD00121019800F0A5FA039059
:10979C00039B002B07D0019B9B6B002B03D0019BE1
:1097AC009B6B0398984700BF05B05DF804FB00B5B0
:1097BC0085B001900091009B1B88262B1ED1009B2D
:1097CC001B7A012B03D0009B1B7A022B17D1019B18
:1097DC009B781846FFF79AFF03461946019800F04C
:1097EC007BFA0390039B002B09D0019B9B6B002BF6
:1097FC0005D0019B9B6B0398984700E000BF05B018
:10980C005DF804FB08B5002007F074FF034618460A
:10981C0008BD000000B585B001900B468DF80330F3
:10982C00019BAB331846FFF759FF03468DF80F30F9
:10983C009DF80330013B032B32D801A252F823F0E0
:10984C005D9802008198020095980200A198020090
:10985C00019B9B79002B0DD0019B93F8243083F056
:10986C000103DBB2002B05D09DF80F30002B01D08B
:10987C00012316E0019BDB79002B05D09DF80F30FE
:10988C00002B01D002230CE0019B1B7A002B01D092
:10989C00032306E0019B5B7A002B01D0042300E03C
:1098AC000023184605B05DF804FB00BF82B00190A0
:1098BC000091019B012283F83120019B0022C3F807
:1098CC00A420019B03F1AA02009B5A60009B00227A
:1098DC009A60009B02221A70009B80229A810023BE
:1098EC00184602B0704782B001900091019B022291
:1098FC0083F83120019B93F82430002B03D0009B7C
:10990C0007221A7002E0009B03221A70019B1B694C
:10991C009AB2009B9A81019B0022C3F8A420019B60
:10992C0003F1AA02009B5A60019BDA68009B9A60C3
:10993C000023184602B0704700B583B00190019B1C
:10994C005B79002B0FD0019B93F8B23083F00103AD
:10995C00DBB2002B07D00198FFF7B8FE0346002BB3
:10996C0001D0012300E0002303F00103DBB2184611
:10997C0003B05DF804FB00B585B001900B468DF883
:10998C000330019BD3F89400019BB3F8983001226B
:10999C001946FFF769FE0390039B002B03D0039B32
:1099AC009DF803201A70019B03F15400019B03F1F5
:1099BC009401019B3C331A46FFF77CFE0346184684
:1099CC0005B05DF804FB00B585B001900091019BDA
:1099DC005A69009B9A60019B9B699AB2009B9A8181
:1099EC00019B93F82430002B04D0019B062283F8B2
:1099FC003C2003E0019B012283F83C200198FFF7F7
:109A0C009BFF0346002B13D0009B02221A750421E6
:109A1C000198FFF7B0FF0390039B0293029B002B6E
:109A2C0001D0029B0FE0019B052283F8312003E05B
:109A3C00019B032283F83120019B03F19402019BCB
:109A4C00C3F8A4200023184605B05DF804FB00B54C
:109A5C0085B001900091019BDA69009B9A60019B93
:109A6C001B6A9AB2009B9A81019B93F82430002BBD
:109A7C0004D0019B062283F83C2003E0019B0122C9
:109A8C0083F83C200198FFF757FF0346002B13D0B7
:109A9C00009B02221A7504210198FFF76CFF0390BA
:109AAC00039B0293029B002B01D0029B0FE0019BB6
:109ABC00062283F8312003E0019B042283F8312035
:109ACC00019B03F19402019BC3F8A42000231846C8
:109ADC0005B05DF804FB82B00190019B9B78002BD4
:109AEC0006D0019B93F82030002B01D000230AE014
:109AFC00019B9B6A042B03D0019B5B6A042B01D155
:109B0C00002300E00123184602B0704782B0019098
:109B1C000B468DF80330019B9DF8032083F8302011
:109B2C0000BF02B0704730B587B001900091009B28
:109B3C00002B02D0019B002B01D10E23B9E0009B1E
:109B4C0078331846FFF7C7FF034683F00103DBB2F7
:109B5C00002B01D00723ACE0019B00229A70019AE4
:109B6C00009B141D03F178050FCD0FC40FCD0FC44E
:109B7C0095E8070084E80700019B002283F8302059
:109B8C00009BD3F8A420019B5A63009BD3F8A82018
:109B9C00019B9A63019B4FF6FF72A3F8A820019BCF
:109BAC0003F19402019BC3F8A420019BAA33072262
:109BBC00002118460AF06EF9019B1B7883F0010313
:109BCC00DBB2002B03D0019BFF2283F85420019BB6
:109BDC0003F15502019BC3F89420019B1F22A3F8AB
:109BEC0098200098019B03F15501019B98331A466C
:109BFC00FFF7E9FB0590059B0493049B002B01D018
:109C0C00049B56E0009B3C33002B1CD0019B03F1C2
:109C1C007402019BC3F89C20019B1F22A3F8A02077
:109C2C00009B03F13C00019BD3F89C10019BA033DB
:109C3C001A46FFF7C8FB0590059B0393039B002B6B
:109C4C0009D0039B35E0019B0022C3F89C20019BAB
:109C5C000022A3F8A020019B012283F85120019B34
:109C6C009B699AB2019BA3F84820019B012283F8BF
:109C7C003C20019B00221A64019B002283F8502097
:109C8C00019B5A69019B5A64019B03F15400019B8F
:109C9C003C331A460021FFF70DFD0590059B0293FE
:109CAC00029B002B01D0029B03E0019B01221A7046
:109CBC00059B184607B030BD82B00190019B1B6814
:109CCC00012B03D0019B1B68022B01D1012300E067
:109CDC000023184602B0704700B585B001900B46C2
:109CEC008DF80330019B1B7883F00103DBB2002B52
:109CFC0001D0082313E1019B9DF803209A70FFF714
:109D0C0081FD0346002B04D0019B01225A700023D5
:109D1C0005E1019BAA330722002118460AF0BAF884
:109D2C00019B9B79002B03D0019B9B78012B0FD0BF
:109D3C00019BDB79002B03D0019B9B78012B07D077
:109D4C00019BDB79002B14D0019B9B78022B10D14B
:109D5C00019B5B6B002B08D0019B012283F8B12087
:109D6C00019B5B6B0820984703E0019B002283F862
:109D7C00B1209DF8033019460198FFF74BFD0346BF
:109D8C001A46019B9A70019B5B6B002B20D0019BA8
:109D9C009B78032B03D0019B9B78042B18D1019B40
:109DAC005B79002B14D0019B93F8B23083F0010344
:109DBC00DBB2002B0CD0019B002283F8B420019B5A
:109DCC00012283F8B320019B5B6B0720984703E0CB
:109DDC00019B002283F8B320019B3C331822002105
:109DEC0018460AF057F8019B012283F83C20019B8E
:109DFC002C331846FFF760FF0346002B06D0019B5F
:109E0C00DB6ADAB2019B83F8512003E0019B01224B
:109E1C0083F85120019B93F82430002B12D0019B26
:109E2C002C331846FFF748FF0346002B06D0019B46
:109E3C009B6ADAB2019B83F8522003E0019B01225A
:109E4C0083F85220019B002283F85020019B9B78C1
:109E5C00042B32D801A252F823F000BFBD9E0200A1
:109E6C007D9E02008D9E02009D9E0200AD9E020012
:109E7C00019B3C3319460198FFF718FD03901DE038
:109E8C00019B3C3319460198FFF72DFD039015E01B
:109E9C00019B3C3319460198FFF795FD03900DE0AB
:109EAC00019B3C3319460198FFF7D1FD039005E067
:109EBC00019B002283F8312000E000BF019B9B78BE
:109ECC00002B20D0019B03F15400019BD3F8A4106C
:109EDC00019B3C331A46FFF7EDFB0390039B002BD1
:109EEC0001D0039B1BE0019B93F85420019B93F83A
:109EFC00303019461046FFF7E1FB0390039B002B13
:109F0C0001D0039B0BE0019B5B6B002B06D0019BEC
:109F1C005B6B019A92F83120104698470023184643
:109F2C0005B05DF804FB00BF00B585B00190009151
:109F3C00009B0393019B1B88262B10D0262B13DC34
:109F4C00102B02D0112B05D00EE001990398FFF7CE
:109F5C00F5FB0AE001990398FFF7FFFB05E0019977
:109F6C000398FFF724FC00E000BF00BF05B05DF8CC
:109F7C0004FB00B585B001900091009B0393019BFD
:109F8C00023B012B19D8039B5B78002B17D0039B4A
:109F9C0000225A70039B9B7819460398FFF79CFE8E
:109FAC000290029B002B0AD0039B9B6B002B06D0CC
:109FBC00039B9B6B0298984701E000BF00E000BF39
:109FCC0000BF05B05DF804FB00B585B00190019BA6
:109FDC0093F854301846FFF775FB019B012283F868
:109FEC00B220019B002283F8B420019B002283F84D
:109FFC00502006210198FFF7BEFC0390039B0293AF
:10A00C00029B002B01D0029B12E0019B9B7819460E
:10A01C000198FFF761FE0390039B002B07D0019B77
:10A02C009B6B002B03D0019B9B6B039898470023E1
:10A03C00184605B05DF804FB75DF704700BF184685
:10A04C0076DF704700BF18467ADF704700BF1846AE
:10A05C007BDF704700BF184684B00346ADF806306E
:10A06C000023039316E00F49039A13469B001344F5
:10A07C009B000B441B88BDF806209A4207D1039A1B
:10A08C0013469B0013449B00064A134406E0039BB3
:10A09C0001330393039B002BE5D00023184604B037
:10A0AC00704700BFE42F002082B001900B46ADF842
:10A0BC000230019BBDF802201A80019B00221A720B
:10A0CC00019B054903F10A020B4603CB106051605A
:10A0DC0000BF02B0704700BF1430002082B0019066
:10A0EC00019B4FF6FF721A8000BF02B0704788B018
:10A0FC000390029111461A460B46ADF806301346F2
:10A10C00ADF80430039B9B881A46BDF80630134407
:10A11C000793039B9B881946039B9B88BDF80620DD
:10A12C00934228BF13469BB2CB1A0693039BDB8842
:10A13C001A46BDF8043013440593039BDB8819467B
:10A14C00039BDB88BDF80420934228BF13469BB2C7
:10A15C00CB1A0493029B5A88039B1B889A4205D303
:10A16C00029B5A88039B5B889A4201D900231CE00E
:10A17C00029B9B881A46069B934205D8029B9B88A0
:10A18C001A46079B934201D200230EE0029BDB8808
:10A19C001A46049B934205D8029BDB881A46059B02
:10A1AC00934201D2002300E00123184608B0704707
:10A1BC0000B583B00190064B9B69002B03D0044B78
:10A1CC009B690198984700BF03B05DF804FB00BF82
:10A1DC00F82F002000B585B003460091ADF806308D
:10A1EC00BDF8063000991846FFF726FF0390039B35
:10A1FC00002B05D0039B112B02D00398FFF7D8FF3F
:10A20C00039B002B0CBF01230023DBB2184605B0C7
:10A21C005DF804FB00B589B00190019B0793079B87
:10A22C009BB21846FFF718FF0690069B002B42D0F6
:10A23C00069B1A7A224B1B7B9A4215D2079B9AB229
:10A24C00069B0A3319461046FFF7C4FF03468DF8E8
:10A25C0013309DF81330002B2DD0069B1B7A013345
:10A26C00DAB2069B1A7226E0069B00221A72144B75
:10A27C001B7C002B0FD0079B9BB23B211846FFF792
:10A28C00DFFE0590059B002B05D0059B082B02D00B
:10A29C000598FFF78DFF0A4B5B69002B0BD0002351
:10A2AC008DF80C30079B9BB2ADF80E30044B5B69FC
:10A2BC0003AA1046984700BF09B05DF804FB00BF25
:10A2CC00F82F002030B587B00190019B002B01D1F5
:10A2DC000E2353E02B4A019B14461D460FCD0FC491
:10A2EC0095E8070084E80700264B274A1A60019B73
:10A2FC001B68002B11D0019B1B681846FFF7A4FEAE
:10A30C000490049B002B01D0049B37E0019B1A683E
:10A31C001D4B1068516803C308E01B48FFF798FEFB
:10A32C000490049B002B01D0049B27E00023059391
:10A33C0020E0059A13469B0013449B00134A1344D8
:10A34C0003930398FFF7CAFE059B5B01104A1A445E
:10A35C00039B5A60039B04330E4A0021184606F0F7
:10A36C0007FC0490049B002B01D0032306E0059B03
:10A37C0001330593059B002BDBD00023184607B057
:10A38C0030BD00BFF82F002014300020E42F002037
:10A39C00C42F002021A2020000B587B00346009113
:10A3AC00ADF80630009B5B7A002B1AD1009B1B7A10
:10A3BC00002B03D1164B5B68059302E0144B9B6892
:10A3CC000593009B5B68BDF806200599184606F0BE
:10A3DC00FFFB0490049B002B16D00498FFF7E8FEBB
:10A3EC0012E0009B00221A72094B5B69002B0BD008
:10A3FC0001238DF80C30BDF80630ADF80E30044B4F
:10A40C005B6903AA1046984700BF07B05DF804FBD0
:10A41C00F82F002000B585B00190019BDB7B8DF8F7
:10A42C000F30019B9B88ADF80C309DF80F30012B41
:10A43C002CD14FF6FF70FFF70FFE0290029B002B02
:10A44C0003D10420FFF7B4FE21E0BDF80C3019460F
:10A45C000298FFF729FE029B03F10A00019B03F10E
:10A46C0010014FF6FF7340F2F312FFF740FE034664
:10A47C001A46029B5A72074BDB89002B07D1BDF899
:10A48C000C3002991846FFF787FF00E000BF05B0BB
:10A49C005DF804FBF82F002000B587B00190019BFC
:10A4AC009B88ADF81630BDF816301846FFF7D4FD72
:10A4BC000490049B002B0ED0049B5B68184606F09E
:10A4CC00B9FB0390039B002B02D00398FFF770FE9F
:10A4DC000498FFF703FE00BF07B05DF804FB000013
:10A4EC0000B587B00190019B06330593059B1A8834
:10A4FC00194BDB899A422BD1059B5B89022B27D107
:10A50C00019B9B88ADF81230BDF812301846FFF74E
:10A51C00A3FD0390039B002B1AD0059B0C3318460C
:10A52C0000F032FA0346002B06D0BDF81230039926
:10A53C001846FFF731FF0BE0039B5B68184606F0EB
:10A54C0079FB0290029B002B02D00298FFF730FEA1
:10A55C0000BF07B05DF804FBF82F002000B585B0F4
:10A56C000190019B9B88ADF80E30BDF80E3018465B
:10A57C00FFF772FD0290029B002B15D0029B03F19A
:10A58C000A00019B03F108014FF6FF7340F2F3122E
:10A59C00FFF7ADFD03461A46029B5A72BDF80E300A
:10A5AC0002991846FFF7F8FE00BF05B05DF804FBF2
:10A5BC0000B583B001900091019B1B88502B12D0E9
:10A5CC00502B18DC122B12D0122B14DC102B02D0B7
:10A5DC00112B04D00FE00198FFF71CFF0CE0019841
:10A5EC00FFF75AFF08E00198FFF77AFF04E00198A3
:10A5FC00FFF7B4FF00E000BF00BF03B05DF804FB41
:10A60C0030B58FB00190009100230293009B002B7A
:10A61C001AD000230D9314E06B460D99184606F0E2
:10A62C009BFE0346002B09D0029B5A1C02920D9AEA
:10A63C0092B25B0038336B4423F82C2C0D9B013306
:10A64C000D930D9B132BE7D9019B1D4602AC0FCC30
:10A65C000FC50FCC0FC594E8070085E807000198DB
:10A66C000FB030BD00B583B00346ADF80630BDF871
:10A67C000630132B01D900230CE0BDF80630194627
:10A68C00064806F038FEBDF806301946044806F0B8
:10A69C0032FE0123184603B05DF804FB2430002081
:10A6AC002030002000B585B00346ADF806300023FD
:10A6BC0003930DE0039B9B00094A13440433BDF83C
:10A6CC0006201146184606F02EFE039B0133039319
:10A6DC00039B1C2BEED900BF00BF05B05DF804FB3B
:10A6EC001C30002000B583B00346ADF80630BDF831
:10A6FC0006301946034806F016FE00BF03B05DF89D
:10A70C0004FB00BF2430002030B59BB0184B9B6875
:10A71C00DB431893164B5A6818AB1146184606F0D3
:10A72C007AFE189A6B4611461846FFF769FF0DAC76
:10A73C006D460FCD0FC40FCD0FC495E8070084E80C
:10A74C000700002319930BE0199B5B0068336B44E3
:10A75C0033F8303C1846FFF7A5FF199B01331993CA
:10A76C000D9B199A9A42EFD300BF00BF1BB030BDAE
:10A77C001C30002000B585B001900091019B9B8896
:10A78C00ADF80E30019B1B881A2B2AD01A2B68DCD3
:10A79C00102B02D0112B1ED063E0FFF7B5FFBDF8D4
:10A7AC000E301846FFF75EFF034683F00103DBB261
:10A7BC00002B05D02D4AE321042005F023FB4FE0AC
:10A7CC00019BDB7B012B4BD0BDF80E301946284882
:10A7DC0006F091FD44E0BDF80E301846FFF782FFFD
:10A7EC003FE0019B1B7AC3F30313DBB2012B8CBF3D
:10A7FC00012300238DF80D30019B1B7AC3F3031347
:10A80C00DBB2022B8CBF012300238DF80C309DF89A
:10A81C000D30002B17D0BDF80E301946154806F038
:10A82C006AFD9DF80C30002B06D0BDF80E30194691
:10A83C00114806F060FD14E0BDF80E3019460E48C4
:10A84C0006F071FD0DE0BDF80E301946094806F012
:10A85C006AFDBDF80E301946074806F064FD00E0AD
:10A86C0000BF00BF05B05DF804FB00BF604A0300E9
:10A87C00283000202C3000203030002000B583B070
:10A88C000346ADF80630BDF80630132B01D9002372
:10A89C0006E0BDF806301946034806F05DFD034698
:10A8AC00184603B05DF804FB2030002000B583B0DF
:10A8BC000346ADF80630BDF806301846FFF7DEFF4C
:10A8CC000346002B02D0BDF8063000E014231846D6
:10A8DC0003B05DF804FB00B587B003900B46019202
:10A8EC00ADF80A30019B002B01D10E2338E0019BFF
:10A8FC0000221A60039B002B01D10E2330E0039B36
:10A90C001B68002B01D10E232AE0039BDB8803F08C
:10A91C0003039BB2002B01D0072321E0BDF80A30C2
:10A92C001846FFF7C3FF03468DF817309DF8173014
:10A93C00142B01D1052313E0039B1B799DF81720E1
:10A94C009A4201D304230BE0039B1B689DF817204C
:10A95C000399C98801FB02F21A44019B1A60002377
:10A96C00184607B05DF804FB82B00190019B1B7880
:10A97C001AB2019B01331B781B021BB213431BB28F
:10A98C009BB2184602B0704700B585B00190019893
:10A99C00FFF7EAFF0346ADF80E30BDF80E3003F0BA
:10A9AC000103002B14BF01230023DBB2184605B0B2
:10A9BC005DF804FB90DF704700BF1846A5DF7047B9
:10A9CC0000BF1846B5DF704700BF184682B0019033
:10A9DC00019BF7221A80019B17225A80019B0022AF
:10A9EC001A71019B00225A71019BFB229A71019BE7
:10A9FC001B22DA7100BF02B07047000030B589B07D
:10AA0C0003460A46ADF806301346ADF80430BDF8DF
:10AA1C000430ADF81430BDF80430ADF81630002316
:10AA2C00ADF818300023ADF81A3003AB00221A60D1
:10AA3C009A8003AA05A9BDF806301846FFF7BAFF9D
:10AA4C000790079B002B36D01D4B1B881B0443F033
:10AA5C0001031D46BDF80640079807F0D1FA0346DE
:10AA6C0022461849284607F0FEFDBDF80C30002B95
:10AA7C0003D1BDF80E30002B0DD0114B1B881B04DD
:10AA8C0043F001031846BDF80C301A46BDF80E30E1
:10AA9C000D4907F0E8FDBDF81030002B0BD0084B2A
:10AAAC001B881B0443F001031846BDF810301A46EE
:10AABC00064907F0C7FD079B184609B030BD00BF1B
:10AACC00C82A0020F04A03003C4B03007C4B0300D7
:10AADC0010B586B001900091009B9B88ADF80E30AC
:10AAEC00BDF80E30DB00019A134406330593019B2D
:10AAFC001A79059B9A71009BDB7B012B02D0022BF0
:10AB0C0005D009E0019B1A88059B1A8004E0019B83
:10AB1C005A88059B1A8000BF059B1A88059B5B8889
:10AB2C009A4225D9059B1A88BDF80E301146184655
:10AB3C00FFF744FF0490049B002B03D1059B0122DB
:10AB4C005A7115E0049B112B03D1059B01221A713C
:10AB5C000EE0104B1B881B0443F001031C460498A9
:10AB6C0007F04EFA03461A460B49204607F06AFDD9
:10AB7C00059B9A79059BDB799A4208D9059B9B79B1
:10AB8C009AB2BDF80E3011461846FFF737FF00BFDA
:10AB9C0006B010BDC82A0020D44B030000B583B00A
:10ABAC0001900091009B9B88DB00019A13440633B3
:10ABBC001846FFF70BFF00BF03B05DF804FB00B5B0
:10ABCC0087B001900091009B9B88ADF81630009BDC
:10ABDC005B89ADF81430BDF81630DB00019A1344D4
:10ABEC0006330493049B1B88BDF81420934228BFA2
:10ABFC0013469AB2049B5A80049B5B88172B38BF70
:10AC0C0017239AB2049B5A80019B1B69002B15D009
:10AC1C00049B5B79002B11D040F67723ADF80830FC
:10AC2C00BDF81630ADF80A30049B5B88ADF80C30DB
:10AC3C00019B1B6902AA114601989847049B0022AC
:10AC4C005A71049B00221A7100BF07B05DF804FB17
:10AC5C0010B588B001900091009B9B88ADF81A301C
:10AC6C00009BDB88ADF81830BDF81A30DB00019A78
:10AC7C00134406330593BDF81830172B38BF172330
:10AC8C00ADF81830059B1B88BDF81820934228BFDF
:10AC9C0013469AB2059B5A80059B00221A71059B9C
:10ACAC001A88BDF81A3011461846FFF78BFE07902C
:10ACBC00079B002B0ED0164B1B881B0443F0010383
:10ACCC001C46079807F09CF903461A461149204682
:10ACDC0007F0B8FC059B5B79002B16D1019B1B6917
:10ACEC00002B13D040F67723ADF80C30BDF81A309A
:10ACFC00ADF80E30059B5B88ADF81030019B1B69DD
:10AD0C0003AA11460198984700E000BF08B010BD97
:10AD1C00C82A0020084C030030B591B00190009176
:10AD2C00009B04AC1D1D0FCD0FC40FCD0FC495E8B7
:10AD3C00070084E80700BDF81030ADF83E30BDF8D0
:10AD4C001420BDF83E30D1B2019ADB0013440A4600
:10AD5C005A73019B1B69002B19D002AB00221A609D
:10AD6C009A804DF67A23ADF80830BDF83E30ADF838
:10AD7C000A30BDF83E30019ADB0013445B7B8DF842
:10AD8C000C30019B1B6902AA11460198984700BF21
:10AD9C0011B030BD00B587B001900091009B043319
:10ADAC000593059B1B88DB00019A1344063304931F
:10ADBC00059B9B888DF80F30049B9B799DF80F2089
:10ADCC00934228BF13468DF80E30059B1B889DF8C7
:10ADDC000E2092B211461846FFF710FE00BF07B0C6
:10ADEC005DF804FB00B585B001900091019B002B30
:10ADFC0001D10E231DE0019B009A1A61019BF722E1
:10AE0C001A80019BF7225A80019BFB221A710023A6
:10AE1C0003930AE0039BDB00019A134406331846A4
:10AE2C00FFF7D4FD039B01330393039B002BF1D05D
:10AE3C000023184605B05DF804FB82B001900B4668
:10AE4C00ADF80230019B002B01D10E230EE0BDF8B2
:10AE5C000230162B03D9BDF80230F72B01D907238A
:10AE6C0004E0019BBDF802201A800023184602B0B2
:10AE7C007047000010B586B001900091009B0593BF
:10AE8C00019B9B88ADF81230BDF81230002B40F0BE
:10AE9C009780019B1B88552B48D0552B55DC242BB8
:10AEAC0032DC102B51DB103B142B4ED801A252F884
:10AEBC0023F000BF1BAF020025AF020057AF02000A
:10AECC0057AF020057AF020057AF020057AF020056
:10AEDC0057AF020057AF020057AF020057AF020046
:10AEEC0057AF020057AF020057AF020057AF020036
:10AEFC0057AF020057AF020057AF020057AF020026
:10AF0C004DAF020043AF02003A2B0AD01DE001996D
:10AF1C000598FFF7DDFD19E001990598FFF73EFE56
:10AF2C0014E001990598FFF74AFE0FE00199059886
:10AF3C00FFF78EFE0AE001990598FFF7EDFE05E09C
:10AF4C0001990598FFF726FF00E000BFBDF812300D
:10AF5C00059ADB0013449B7A002B32D0BDF81230DB
:10AF6C00059ADB001344DA88BDF8123011461846F6
:10AF7C00FFF724FD0390039B002B0ED1BDF812307C
:10AF8C00059ADB00134400229A72BDF81230059A20
:10AF9C00DB0013440122DA7213E0039B112B10D057
:10AFAC00094B1B881B0443F001031C46039807F054
:10AFBC0027F803461A460549204607F043FB00E0F4
:10AFCC0000BF06B010BD00BFC82A0020D44B030040
:10AFDC00B0DF704700BF184666DF704700BF1846E9
:10AFEC0082B001900091019B002B01D10E2316E041
:10AFFC00009B002B01D10E2311E0019B1B78DE2B53
:10B00C0001D108230BE0009B1A68019B5A60019B3D
:10B01C00DE221A70019B4FF6FF725A8000231846ED
:10B02C0002B0704782B001900B46ADF80230019B24
:10B03C00002B01D10E230AE0019B1B78DE2B01D0E3
:10B04C00082304E0019BBDF802205A800023184617
:10B05C0002B0704700B585B00190019B1B7A002BA4
:10B06C0018D0019B5B8800211846FFF7B5FF0390B1
:10B07C00039B002B03D1019B00221A720AE0039B55
:10B08C00112B03D1019B01221A7203E0019B5B6817
:10B09C000398984700BF05B05DF804FB00B583B07A
:10B0AC0001900091009B1B79012B0BD1009B1A88FE
:10B0BC00019B5B889A4205D1019B01221A7201986F
:10B0CC00FFF7C8FF00BF03B05DF804FB82B001902E
:10B0DC00009100BF02B0704700B589B0019000919B
:10B0EC00009B1A88019B5B889A4236D1009B0233E5
:10B0FC000793079B1B78022B31D1079B1B7A042BE0
:10B10C0007D0079B1B7A062B03D0079B1B7A052BBA
:10B11C0027D102AB00221A605A609A60DA600223CF
:10B12C008DF808304FF4C073ADF80C30079B1B7AC8
:10B13C00052B02D10023ADF80C30009B1B8802AA12
:10B14C0011461846FFF744FF0690069B002B09D0CA
:10B15C00019B5B680698984704E000BF02E000BFC3
:10B16C0000E000BF09B05DF804FB00B585B00190AC
:10B17C000091009B002B43D0019B002B40D0009BE7
:10B18C000393039B1B78DE2B3AD1019B9A88039B7C
:10B19C005B889A4202D10398FFF75CFF019B1B88E6
:10B1AC00512B18D0512B28DC112B1BD0112B24DC4C
:10B1BC00012B02D0022B07D01FE0019B0433194650
:10B1CC000398FFF76BFF1BE0019B043319460398B0
:10B1DC00FFF77CFF14E0019B043319460398FFF73B
:10B1EC007BFF0DE0019B9A88039B5B889A4206D1FA
:10B1FC00039B4FF6FF725A8001E000BF00E000BFD6
:10B20C0005B05DF804FBA8DF704700BF1846AADF45
:10B21C00704700BF1846ADDF704700BF1846AEDF61
:10B22C00704700BF184662DF704700BF184600B574
:10B23C008FB00190009100230393019B5869009BF0
:10B24C009B8803AA1946FFF746FB0D9005AB082215
:10B25C000021184608F01EFE04AB06930223ADF83D
:10B26C0014300023ADF81630009B9888019B1B8A84
:10B27C0005AA1946FFF7CFFF0D900D9B002B26D189
:10B28C00019B9B69002B22D0069B1846FFF77CFB89
:10B29C000346002B1BD0039B002B02D0039B0122E7
:10B2AC001A7007AB18220021184608F0F3FD022390
:10B2BC008DF81C30019B0893009B9B88ADF82430C3
:10B2CC00039B0A93019B9B6907AA1046984700BFF2
:10B2DC000FB05DF804FB00B58DB001900091009BA0
:10B2EC0006330B93019B5869009B9B8803AA194654
:10B2FC00FFF7F1FA0A9004AB18220021184608F067
:10B30C00C9FD019B0593009B9B88ADF81830039BEE
:10B31C0007930B9B1A88019B1B899A4225D10B9B87
:10B32C005B89022B21D1039B002B38D00B9B0C3358
:10B33C001846FFF729FB0346002B06D0039B01227E
:10B34C001A7002238DF8103005E0039B00221A704E
:10B35C0003238DF81030019B9B69002B1FD0019BA0
:10B36C009B6904AA1046984719E00B9B1A88019B0D
:10B37C009B899A4214D1019B9B69002B10D000230E
:10B38C008DF810300B9B0C3308930B9B5B89ADF83D
:10B39C002430019B9B6904AA1046984700E000BF2B
:10B3AC0000BF0DB05DF804FB00B58BB001900091AF
:10B3BC00019B5869009B9B8802AA1946FFF78BFAE0
:10B3CC000990099B002B1AD1029B1B78002B17D0DC
:10B3DC0003AB18220021184608F05CFD01238DF800
:10B3EC000C30019B0493009B9B88ADF81430029B9E
:10B3FC000693019B9B6903AA1046984700E000BF87
:10B40C000BB05DF804FB00B593B0019000910AAB52
:10B41C0003220021184608F03DFD9DF8283001223A
:10B42C0062F303038DF828309DF82830012262F373
:10B43C0007138DF828309DF82930012262F303039D
:10B44C008DF829309DF82930012262F307138DF80D
:10B45C0029309DF82A30012262F342038DF82A30FC
:10B46C000BAB1C220021184608F014FD9DF82C3063
:10B47C0043F010038DF82C3000230C9300230E9313
:10B48C0000230F930AAB109300231193019B1B789D
:10B49C008DF812300323ADF8103003AB03220021DA
:10B4AC00184608F0F7FC9DF80C30012262F30303F8
:10B4BC008DF80C309DF80C30012262F307138DF8D7
:10B4CC000C309DF80D30012262F303038DF80D3022
:10B4DC009DF80D30012262F307138DF80D309DF8A5
:10B4EC000E30012262F342038DF80E309DF80E30BF
:10B4FC006FF3C3038DF80E309DF80E306FF3041309
:10B50C008DF80E309DF80E3043F001038DF80E309F
:10B51C0005AB14220021184608F0BCFC04AB0593C3
:10B52C0003AB06930123ADF81C300023ADF81E309D
:10B53C00F423ADF82030019B5888019B043305AAF5
:10B54C000BA9FFF764FE0346184613B05DF804FB25
:10B55C0000B591B00190009109AB1C220021184656
:10B56C0008F098FC9DF8243043F008038DF8243043
:10B57C009DF8243043F004038DF8243000230A9303
:10B58C0000230C9300230D9300230E9300230F93A1
:10B59C00019B1B788DF80E300223ADF80C3002ABFA
:10B5AC0003220021184608F075FC9DF80830012292
:10B5BC0062F303038DF808309DF80830012262F322
:10B5CC0007138DF808309DF80930012262F303034C
:10B5DC008DF809309DF80930012262F307138DF8BC
:10B5EC0009309DF80A30012262F342038DF80A30CB
:10B5FC009DF80A306FF3C3038DF80A309DF80A30BA
:10B60C006FF304138DF80A309DF80A3043F00103F0
:10B61C008DF80A3004AB14220021184608F03AFCCD
:10B62C0003AB049302AB05930123ADF81830002350
:10B63C00ADF81A30F423ADF81C30019B5888019BEF
:10B64C000C3304AA09A9FFF7E2FD0346184611B012
:10B65C005DF804FB00B585B001900091009B002BB8
:10B66C001ED0019B002B1BD0009B0393019B1B88BE
:10B67C00572B10D0572B15DC102B02D0502B05D08C
:10B68C0010E001990398FFF7D2FD0CE001990398A3
:10B69C00FFF721FE07E001990398FFF785FE02E012
:10B6AC0000BF00E000BF05B05DF804FB10B58CB026
:10B6BC0001900091294B02AC0FCB84E80F00019B49
:10B6CC00002B01D10E2345E0009B002B01D10E2352
:10B6DC0040E0009B1A68019B9A61019A02AB1146EB
:10B6EC001846FFF7A0FD0B900B9B0A930A9B002BAF
:10B6FC0001D00A9B2EE0019B1B788DF81A30012398
:10B70C00ADF81830019B9A1C06AB19460120FFF7C7
:10B71C007AFD0B900B9B0993099B002B01D0099B85
:10B72C0018E000990198FFF713FF0B900B9B0893FF
:10B73C00089B002B01D0089B0CE000990198FFF7A7
:10B74C0062FE0B900B9B0793079B002B01D0079B72
:10B75C0000E0002318460CB010BD00BF404C0300A5
:10B76C0000B58DB0039002910192ADF80230039BAD
:10B77C00002B01D10E2342E0039B5B6905AABDF8A7
:10B78C0002101846FFF7A7F80B900B9B0A930A9B25
:10B79C00002B01D00A9B32E0BDF802304FF6FF724D
:10B7AC00934202D0059B002B01D1052327E0059B7A
:10B7BC001B7883F00103DBB2002B01D008231EE0C1
:10B7CC00019B1B88F42B01D9072318E006AB102230
:10B7DC000021184608F05EFB039B9B88ADF81830DF
:10B7EC00029B0993019B089301238DF81A3006AA3A
:10B7FC00BDF8023011461846FFF711FD03461846F6
:10B80C000DB05DF804FB000082B003468DF80730E4
:10B81C009DF8073003F01F0206499DF907305B09BC
:10B82C00012000FA02F2203341F8232000BF02B0BD
:10B83C00704700BF00E100E008B507F02BFC0346A1
:10B84C0083F00103DBB2002B03D105497920FAF711
:10B85C00EDFD00F04DFB034B00229A7000BF08BDBC
:10B86C00584C03009430002000B583B000230193A2
:10B87C00144B1B78002B02D0852301931CE0114B39
:10B88C0000229A600F4B00225A600E4B00221A6164
:10B89C000C4B0022DA600C4800F0F0FA019007F033
:10B8AC00F9FB034683F00103DBB2002B01D000F05F
:10B8BC000BFB044B01221A70019B184603B05DF878
:10B8CC0004FB00BF94300020ADB9020084B001909D
:10B8DC00019B1B680393039B002B03D0039B1A68EB
:10B8EC00019B1A60039B184604B0704700B583B0E7
:10B8FC00164B1B78002B04D115494FF48470FAF7C2
:10B90C0095FD124BDB68002B04D1114940F2091054
:10B91C00FAF78CFD00238DF807300DF1070318465C
:10B92C0005F034FC094BDB68013B084AD360074B3C
:10B93C00DB68002B01D1FFF77FFF9DF8073018461D
:10B94C0005F03AFC00BF03B05DF804FB9430002016
:10B95C00584C030000B585B003468DF807309DF8B0
:10B96C000730002B02D10C4B039301E00B4B0393DC
:10B97C000398FFF7ABFF0290029B002B06D0029BB3
:10B98C005B689DF8072010469847F1E700BF00BFA1
:10B99C0005B05DF804FB00BF9C300020A4300020F3
:10B9AC0000B583B003468DF807309DF80730002BA7
:10B9BC0005D10A4B01225A700020FFF7CBFF9DF8EE
:10B9CC000730012B05D1054B01229A700120FFF79E
:10B9DC00C1FF00BF03B05DF804FB00BF9430002032
:10B9EC0000B583B001900091019B002B05D1054B54
:10B9FC0001225A700020FFF7ADFF00BF03B05DF8C5
:10BA0C0004FB00BF9430002000B585B003460091C4
:10BA1C008DF807309DF80730032B29D0032B35DC2C
:10BA2C00002B02D0012B04D030E00020FFF7ECFEFD
:10BA3C002DE000238DF80F300DF10F03184605F0A3
:10BA4C00A5FB154B1B7883F00103DBB2002B01D057
:10BA5C00FFF70AFF104BDB6801330F4AD3600E4B24
:10BA6C0001229A709DF80F30184605F0A5FB0EE0E8
:10BA7C00094B1B78002B04D1084940F24320FAF7FC
:10BA8C00D5FC00F021FAFFF731FF00E000BF00BF4A
:10BA9C0005B05DF804FB00BF94300020584C030047
:10BAAC00054B1B78002B04D1034B01221A70002389
:10BABC0000E0852318467047A830002000B589B0F7
:10BACC0001900091009B0793019B1B788DF80C3023
