:1000000000000120DD000000350100003701000084
:10001000390100003B0100003D010000000000002C
:100020000000000000000000000000003F01000090
:1000300041010000000000004301000045010000F4
:10004000490100004B010000750E00004F01000047
:10005000510100005301000055010000A9120000E9
:10006000851900005B0100005D0100005F010000D8
:1000700061010000630100006501000067010000EC
:10008000690100006B0100006D0100006F010000BC
:10009000710100007301000075010000770100008C
:1000A000790100007B0100007D0100007F0100005C
:1000B00081010000830100004701000047010000AA
:1000C0008501000087010000890100008B0100000C
:0C00D0008D0100008F0100009101000074
:1000DC000F484FF00701884385460E4880470E486D
:1000EC00016841F470010160BFF34F8FBFF36F8F54
:1000FC0000F04AB809480A490A4A884207D0521AFD
:10010C0005D0037801300B700131013AF9D17047F9
:10011C00000001204907000088ED00E0385D000078
:10012C000000002020000020FEE7FEE7FEE7FEE7CF
:10013C00FEE7FEE7FEE7FEE7FEE7FEE7FEE7FEE78B
:10014C00FEE7FEE7FEE7FEE7FEE7FEE7FEE7FEE77B
:10015C00FEE7FEE7FEE7FEE7FEE7FEE7FEE7FEE76B
:10016C00FEE7FEE7FEE7FEE7FEE7FEE7FEE7FEE75B
:10017C00FEE7FEE7FEE7FEE7FEE7FEE7FEE7FEE74B
:10018C00FEE7FEE7FEE700BF344935480A1A02D005
:10019C00072291438D46334933480A1A06D0072269
:1001AC00914381F30988022282F314882F48304945
:1001BC00304A00F041F830483049314A00F03CF800
:1001CC0030483149314A00F037F831483149324A28
:1001DC0000F032F831483249324A00F02DF83248FA
:1001EC003249334A00F028F832483349334A00F098
:1001FC0023F833483349002200F029F832483349B8
:10020C00002200F024F832483249091A05F058FD52
:10021C00314A90471F482049884205D00268043073
:10022C0003B4904703BCF7E700208646EC46002059
:10023C0000212A4A9047FEE7884207D0521A05D07F
:10024C00037801300B700131013AF9D170478842C3
:10025C0002D002700130FAE7704700000000012064
:10026C0000E0002000000120000001206870000068
:10027C002000002090000020EC020000EC020000A6
:10028C00E05C0000687000002000002020000020CE
:10029C00585D0000585D0000585D0000585D00007E
:1002AC00585D0000585D0000585D0000585D00006E
:1002BC0065700000D87000009000002090000020B5
:1002CC009000002094060020940600209406002044
:1002DC009406002094260020010100002104000057
:1002EC0000B585B00190019B002B0AD0074B43F061
:1002FC0001030393019B9B010293039B0298984774
:10030C0000E000BF05B05DF804FB00BF305E0000EC
:10031C0000B583B001900091019B002B01D1054BDE
:10032C0001930099019801F0E1F80346184603B0D7
:10033C005DF804FB285E000000B583B00190019BC2
:10034C00002B0AD04FF47A70FFF7CAFF019B013BD8
:10035C000193019B002BF5D100E000BF03B05DF8C9
:10036C0004FB82B0019000BF02B0704700B587B0AB
:10037C006B4600221A605A601A7202238DF8043000
:10038C0001238DF8053001238DF8073003238DF8F8
:10039C00083011490020FFF7BBFF0590059B049323
:1003AC00049B002B04D00D4A3F21049802F01EFF41
:1003BC006B461946002001F005F90590059B039347
:1003CC00039B002B04D0054A4321039802F00EFF37
:1003DC0000BF07B05DF804FB6F030000585D000020
:1003EC0000B583B04FF40041002004F01DF90190DA
:1003FC00019B002B04D0054A4F21019802F0F6FE18
:10040C0004F0ACF800BF03B05DF804FB585D0000CD
:10041C00000000002DE9F04184B0FFF7E1FFFFF789
:10042C00A5FFAE4B1B881B0443F00303AC491846D5
:10043C0004F00CFC0DF10E031946002001F05CF9E0
:10044C00A64B1B881B0443F003031846BDF90E3062
:10045C001A46A44904F008FCA04B1B881B0443F06B
:10046C0003031F46BDF90E30DA0F13445B101BB2A9
:10047C00184605F047FB97A3D3E9002305F06AF96A
:10048C0002460B46104619464FF000024FF08143CE
:10049C0005F0F8F902460B46104619464FF00002DB
:1004AC004FF0000305F0ECFA0346002B25D0BDF904
:1004BC000E30DA0F13445B101BB2184605F022FB0A
:1004CC0084A3D3E9002305F045F902460B461046F8
:1004DC0019464FF000024FF0814305F0D3F9024664
:1004EC000B46104619464FF000027F4B05F0ACFA54
:1004FC000346002B01D07D4E00E07D4EBDF90E3041
:10050C00DA0F13445B101BB2184605F0FBFA71A30B
:10051C00D3E9002305F01EF902460B461046194696
:10052C004FF000024FF0814305F0ACF902460B4648
:10053C001046194605F0C0FA03469846BDF90E3030
:10054C00DA0F13445B101BB2184605F0DBFA61A3FB
:10055C00D3E9002305F0FEF802460B461046194677
:10056C004FF000024FF0814305F08CF902460B4628
:10057C00104619464FF000024FF0000305F064FAE4
:10058C000346002B48D0BDF90E30DA0F13445B1034
:10059C001BB2184605F0B6FA4EA3D3E9002305F0BA
:1005AC00D9F802460B46104619464FF000024FF0A0
:1005BC00814305F067F902460B4614461D46BDF90A
:1005CC000E30DA0F13445B101BB2184605F09AFA82
:1005DC0040A3D3E9002305F0BDF802460B461046B4
:1005EC0019464FF000024FF0814305F04BF90246DB
:1005FC000B461046194605F05FFA0346184605F0FF
:10060C0081FA02460B462046294605F09FF8024621
:10061C000B461046194645E0BDF90E30DA0F13446F
:10062C005B101BB2184605F06DFA2AA3D3E9002320
:10063C0005F090F802460B46104619464FF00002A2
:10064C004FF0814305F01EF902460B461046194641
:10065C0005F032FA0346184605F054FA04460D46E6
:10066C00BDF90E30DA0F13445B101BB2184605F0BF
:10067C0049FA18A3D3E9002305F06CF802460B469F
:10068C00104619464FF000024FF0814305F0FAF87E
:10069C0002460B462046294605F058F802460B4602
:1006AC00104619464FF00002124B05F053F8024663
:1006BC000B461046194605F0FFF9034600934346D6
:1006CC0032460D49384604F0F4FA4FF4FA70FFF74D
:1006DC0033FEAFE6CDCCCCCCCCCC0C4014000020FF
:1006EC00DC5D0000F45D00000000F0BF0C5E00005B
:1006FC00105E000000005940145E0000BFF34F8FE5
:10070C0000BF074BDB6803F4E0620549054B13435C
:10071C00CB60BFF34F8F00BF00BF00BFFCE700BF33
:10072C0000ED00E00400FA05024B034A1A6000BF1A
:10073C00704700BF200000200090D00308B500F0E7
:10074C0069F90346002B06D0A04B1B681B0AA04A74
:10075C0003F01F03136000F089F90346002B02D04D
:10076C009C4B9D4A1A6000F09DF90346002B06D065
:10077C009A4B1B685B0B9A4A03F00703136000F05B
:10078C00BDF90346002B05D0964BDB68954A23F048
:10079C008073D36000F0CEF90346002B0ED04FF0DF
:1007AC0080430022C3F80C214FF080430022C3F891
:1007BC0010214FF080430022C3F8382500F0E6F9F1
:1007CC000346002B02D0884B03221A6000F0FAF982
:1007DC000346002B0BD0854B05221A60844B01225B
:1007EC001A60844B00221A60834B3F221A6000F07F
:1007FC0005FA0346002B76D04FF080537F4AD3F88E
:10080C000434C2F820354FF080537C4AD3F80834B6
:10081C00C2F824354FF08053784AD3F80C34C2F820
:10082C0028354FF08053754AD3F81034C2F82C3564
:10083C004FF08053714AD3F81434C2F830354FF06E
:10084C0080536E4AD3F81834C2F834354FF08053C5
:10085C006A4AD3F81C34C2F840354FF08053674ACB
:10086C00D3F82034C2F844354FF08053634AD3F8A0
:10087C002434C2F848354FF08053604AD3F82834FA
:10088C00C2F84C354FF080535C4AD3F82C34C2F884
:10089C0050354FF08053594AD3F83034C2F85435A0
:1008AC004FF08053554AD3F83434C2F860354FF0CA
:1008BC008053524AD3F83834C2F864354FF0805321
:1008CC004E4AD3F83C34C2F868354FF080534B4A4B
:1008DC00D3F84034C2F86C354FF08053474AD3F804
:1008EC004434C2F8703500F0A5F90346002B05D04E
:1008FC00434B1B68434A03F04F03136000F0C6F9E7
:10090C000346002B0DD04FF08043D3F8003403F096
:10091C000103002B05D04FF080436FF00102C3F8A8
:10092C00002400F0DFF90346002B05D0364B1B6882
:10093C00354A43F480631360344BD3F88830334A20
:10094C0043F47003C2F88830BFF34F8F00BFBFF37E
:10095C006F8F00BF4FF01023D3F80032002B05DB54
:10096C004FF01023D3F80432002B2BDA284B012242
:10097C00C3F8042500BF264BD3F80034002BFAD063
:10098C004FF010231522C3F8002200BF204BD3F8E0
:10099C000034002BFAD04FF010231522C3F8042298
:1009AC0000BF1B4BD3F80034002BFAD0184B00229D
:1009BC00C3F8042500BF164BD3F80034002BFAD033
:1009CC00FFF79CFEFFF7B0FE00BF08BD240300102C
:1009DC004035014074C007400DF0ADBA4402001020
:1009EC003C050040F0ED00E0A00500401056004032
:1009FC0088560040185600401456004000C0004075
:100A0C0058020010E40E00403C17004000ED00E0DE
:100A1C0000E00140124B1B68DBB2062B1DD1114BC1
:100A2C001B6803F00F03002B17D10F4B1B6803F04F
:100A3C00F003302B01D1012310E00B4B1B6803F0AA
:100A4C00F003402B01D1012308E0074B1B6803F096
:100A5C00F003502B01D1012300E00023184670470E
:100A6C00E00F00F0E40F00F0E80F00F00A4B1B68F9
:100A7C00DBB2062B0DD1094B1B6803F00F03002BC7
:100A8C0007D1074B1B6803F0F003302B01D1012376
:100A9C0000E0002318467047E00F00F0E40F00F070
:100AAC00E80F00F0124B1B68DBB2062B1DD1114B6B
:100ABC001B6803F00F03002B17D10F4B1B6803F0BF
:100ACC00F003302B01D1012310E00B4B1B6803F01A
:100ADC00F003402B01D1012308E0074B1B6803F006
:100AEC00F003502B01D1012300E00023184670477E
:100AFC00E00F00F0E40F00F0E80F00F00A4B1B6869
:100B0C00DBB2062B0DD1094B1B6803F00F03002B36
:100B1C0007D1074B1B6803F0F003302B01D10123E5
:100B2C0000E0002318467047E00F00F0E40F00F0DF
:100B3C00E80F00F0124B1B68DBB2062B1DD1114BDA
:100B4C001B6803F00F03002B17D10F4B1B6803F02E
:100B5C00F003302B01D1012310E00B4B1B6803F089
:100B6C00F003402B01D1012308E0074B1B6803F075
:100B7C00F003502B01D1012300E0002318467047ED
:100B8C00E00F00F0E40F00F0E80F00F00A4B1B68D8
:100B9C00DBB2062B0DD1094B1B6803F00F03002BA6
:100BAC0007D1074B1B6803F0F003302B01D1012355
:100BBC0000E0002318467047E00F00F0E40F00F04F
:100BCC00E80F00F00A4B1B68DBB2062B0DD1094B6A
:100BDC001B6803F00F03002B07D1074B1B6803F0B6
:100BEC00F003302B01D1012300E00023184670479D
:100BFC00E00F00F0E40F00F0E80F00F00A4B1B6868
:100C0C00DBB2062B0DD1094B1B6803F00F03002B35
:100C1C0007D1074B1B6803F0F003502B01D10123C4
:100C2C0000E0002318467047E00F00F0E40F00F0DE
:100C3C00E80F00F0124B1B68DBB2062B1DD1114BD9
:100C4C001B6803F00F03002B17D10F4B1B6803F02D
:100C5C00F003302B01D1012310E00B4B1B6803F088
:100C6C00F003402B01D1012308E0074B1B6803F074
:100C7C00F003502B01D1012300E0002318467047EC
:100C8C00E00F00F0E40F00F0E80F00F0124B1B68CF
:100C9C00DBB2062B1DD1114B1B6803F00F03002B8D
:100CAC0017D10F4B1B6803F0F003302B01D101233C
:100CBC0010E00B4B1B6803F0F003402B01D1012318
:100CCC0008E0074B1B6803F0F003502B01D1012304
:100CDC0000E0002318467047E00F00F0E40F00F02E
:100CEC00E80F00F0064B1B68062B05D1054B1B6863
:100CFC00062B01D1012300E000231846704700BFEA
:100D0C00300100103401001000B589B00190009141
:100D1C00009B0793019B1B788DF80C30019B5B6843
:100D2C000493019B1B7A8DF81430019BDB680693AE
:100D3C00074A079B52F823300649079A51F82210AC
:100D4C0003AA1046984700BF09B05DF804FB00BF2A
:100D5C00900000209400002000B589B00190009113
:100D6C00009B0793019B1B788DF80C30019B5B68F3
:100D7C000493019B9B68DBB28DF81430019BDB68FC
:100D8C000693074A079B52F823300649079A51F8F5
:100D9C00221003AA1046984700BF09B05DF804FB67
:100DAC00900000209400002030B58FB00390029189
:100DBC000192039B1B780C9326490C9B019A41F8DA
:100DCC002320029B1A6924490C9B41F82320029B87
:100DDC005B7F1946214A0C9B13440A461A70029BEE
:100DEC0004AC1D460FCD0FC495E80F0084E80F002E
:100DFC000C9B089300230D93039B1B781A46174BEF
:100E0C009B5C002B0DD0039B181D019B002B01D06C
:100E1C00134A00E0002204AB194601F059FF0D9073
:100E2C0014E0039B1B781A460C4B9B5C002B0DD1DA
:100E3C00039B03F10C00019B002B01D0094A00E03D
:100E4C00002204AB194601F0F9F80D900D9B1846E1
:100E5C000FB030BD900000209400002098000020BE
:100E6C00150D0000650D000008B5064B1B68002B26
:100E7C0003D10549512002F0A4FA024B1B68984794
:100E8C0008BD00BF9C0000203C5E000082B00190B9
:100E9C00019B044A934201D1034B00E00023184606
:100EAC0002B07047002000409C00002000B587B0C5
:100EBC0001900091019B002B03D11849772002F07F
:100ECC0080FA0198FFF7E2FF0590059B002B1ED0DE
:100EDC0000238DF81330002002F02CFA059B1B79AF
:100EEC00002B03D001238DF8133005E0059B009AED
:100EFC001A60059B01221A71002002F02FFA9DF84E
:100F0C001330002B03D011230393039B02E0002327
:100F1C000393039B184607B05DF804FB3C5E00008E
:100F2C0000B585B00190019B002B03D10A499B2091
:100F3C0002F047FA0198FFF7A9FF0390039B002BDF
:100F4C0005D0039B00221A60039B00221A7100BF7C
:100F5C0005B05DF804FB00BF3C5E000082B00346A8
:100F6C008DF807309DF8073003F01F0205499DF9F5
:100F7C0007305B09012000FA02F241F8232000BF80
:100F8C0002B0704700E100E082B003468DF80730F4
:100F9C009DF8073003F01F0206499DF907305B09E5
:100FAC00012000FA02F2603341F8232000BF02B0A6
:100FBC00704700BF00E100E082B0034600918DF85D
:100FCC0007309DF90730002B0CDA009BDAB20C4984
:100FDC009DF8073003F00F03043B5201D2B20B44CF
:100FEC001A7609E0009BDAB206499DF907305201E6
:100FFC00D2B20B4483F8002300BF02B0704700BF8D
:10100C0000ED00E000E100E000B583B003460A46C5
:10101C008DF8073013468DF806309DF80630072BF7
:10102C0003D908496B2002F0CCF99DF806209DF9F4
:10103C00073011461846FFF7BFFF00BF03B05DF83D
:10104C0004FB00BFC05E000000B583B003468DF802
:10105C0007309DF907301846FFF796FF9DF90730CA
:10106C001846FFF77BFF00BF03B05DF804FB0000E0
:10107C0000B585B00190019B002B0AD0074B43F0C3
:10108C0001030393019B9B010293039B02989847D6
:10109C0000E000BF05B05DF804FB00BFB05F0000CE
:1010AC0082B003468DF807309DF8073003F180437A
:1010BC0003F5E04301221A6000BF02B0704782B012
:1010CC000346ADF80630BDF8063003F1804303F556
:1010DC00E0431B68002B14BF01230023DBB218462E
:1010EC0002B0704784B00346ADF80630BDF8063048
:1010FC0003F1804303F5E04300221A60BDF806308B
:10110C0003F1804303F5E0431B680393039B00BF8B
:10111C0004B0704782B003468DF807300B468DF84B
:10112C00063013468DF805300A499DF807309DF8B6
:10113C00052051331B010B4404331A6005499DF8FB
:10114C0007309DF8062051331B010B441A6000BF79
:10115C0002B070470070004082B00190034A019BBE
:10116C00C2F8043300BF02B0704700BF00700040EB
:10117C0082B00190034A019BC2F8083300BF02B051
:10118C00704700BF00700040024B0122C3F80025DD
:10119C0000BF704700700040024B0022C3F80025CE
:1011AC0000BF70470070004082B001900091054A6A
:1011BC00019BC2F82C36034A009BC2F8303600BFA4
:1011CC0002B070470070004082B003468DF80730C3
:1011DC00034A9DF80730C2F8F03500BF02B07047E3
:1011EC000070004082B003468DF80730034A9DF82A
:1011FC000730C2F8F43500BF02B0704700700040F1
:10120C00024BD3F8F435DBB218467047007000403F
:10121C0000B583B0034600918DF80730009B1B7816
:10122C0003F00302009B5B781B0103F030031A43AD
:10123C00009B9B781B0203F4E0631A43009BDB7852
:10124C001B0303F480531A43009B1B791B0403F408
:10125C00E0231A43009B5B791B0503F4801342EADD
:10126C000301009B9B791B0603F080720A489DF8D2
:10127C0007300A431B01034403F5A3631A60009B68
:10128C00D979009B1A7A9DF807301846FFF742FF70
:10129C0000BF03B05DF804FB0070004000B58DB0DA
:1012AC004FF48270FFF70BFF0346002B46D04FF430
:1012BC008270FFF717FF8C4B93F82E3083F00103ED
:1012CC00DBB2002B04D1884B93F82F30002B35D098
:1012DC0000238DF81830844B5B680793824B1B8975
:1012EC009BB2ADF82030804BDB68002B03D17E4BDA
:1012FC0000221A7419E07C4B1A8B7B4B5A837A4B65
:10130C00DB68794A5360784B1A8B774B1A81764B92
:10131C000022DA60744B93F82E3083F00103DBB2B9
:10132C00002B02D00020FFF7BBFE6F4B1B6806AAF8
:10133C00104698476C4B002283F82F206A4B93F889
:10134C002E30002B62D04FF48070FFF7B8FE0346AE
:10135C00002B5BD04FF48070FFF7C4FE624B5A8BAE
:10136C00614B93F82D309BB29A421CD95E4B5A8B31
:10137C005D4B93F82D309BB2D31A9AB25A4B5A83C9
:10138C00594B5A68584B1B899BB21946564B5B8B71
:10139C00CB1A5B001344544A92F82D201146184680
:1013AC00FFF702FF2BE0504B5A8B4F4B93F82D302D
:1013BC009BB29A4214D14C4BDB68002B10D04A4B99
:1013CC00012283F82F20484B00225A83464BDB68BE
:1013DC00454A92F82D2011461846FFF7E5FE0EE01F
:1013EC00414B5A8B404B93F82D309BB29A4206D10D
:1013FC003D4B012283F82F203B4B00225A834FF4A4
:10140C008270FFF76FFE0420FFF74AFE4FF48870DE
:10141C00FFF755FE0346002B0ED04FF48870FFF7F4
:10142C0061FE314B00221A7402238DF80C302E4BC6
:10143C001B6803AA104698474FF48A70FFF73FFECB
:10144C000346002B07D04FF48A70FFF74BFE264B58
:10145C0000221A7444E0244B5B690B933DE00B9B18
:10146C00B3FA83F30A934FF000420A9B22FA03F378
:10147C00DB430B9A13400B930A9B9BB246339BB2F4
:10148C009B00ADF82630BDF826301846FFF717FE46
:10149C000346002B21D0BDF826301846FFF722FE5C
:1014AC0001238DF80030BDF82630A3F58C73DB08D2
:1014BC00DBB28DF80430BDF82630A3F58C7303F045
:1014CC000403002B0CBF01230023DBB28DF8053085
:1014DC00054B1B686A46104698470B9B002BBED1E8
:1014EC0000BF0DB05DF804FBA400002000B585B072
:1014FC0001900091019B002B03D13049D62001F0C3
:10150C0060FF009B002B03D12C49D72001F059FF21
:10151C002B4B93F82C30002B03D008230393039B05
:10152C0048E0274A009B1360019B1B781846FFF785
:10153C004BFE019B5B781846FFF754FE019BDA7853
:10154C001F4B83F82E201E4B012283F82C201C4BA2
:10155C0000221A741A4B002283F82D20184B0022FB
:10156C005A61174B002283F82F206FF00040FFF7D1
:10157C00FFFD4FF48270FFF7B5FD4FF48070FFF75D
:10158C00B1FD019B9B7819460720FFF73DFD072015
:10159C00FFF75AFD0220FFF7DFFD094B93F82E30C1
:1015AC00002B02D00120FFF7D7FDFFF7EDFD002344
:1015BC000393039B184605B05DF804FB285F0000FD
:1015CC00A400002000B585B0034600918DF80730CB
:1015DC00474B93F82C30002B04D146494FF49170B3
:1015EC0001F0EFFE9DF80730072B04D9414940F27A
:1015FC00231001F0E6FEFFF703FE0346002B09D093
:10160C003B4B93F82D30002B04D03A4940F2251077
:10161C0001F0D7FE009BDB79092B03D8009BDB790B
:10162C00002B04D1334940F2271001F0CAFE009B75
:10163C001B7A092B04D92F4940F2291001F0C1FE65
:10164C002B4B1B7CDBB2002B03D011230393039B8E
:10165C004AE0009B1B79002B03D0009B1B79012BCC
:10166C0001D1FFF799FD9DF80730214A0C335B003F
:10167C0013441B79002B07D11D4B93F82D300133EC
:10168C00DAB21B4B83F82D209DF80730009AD179E4
:10169C00174A0C335B0013440A461A719DF8073045
:1016AC00009A117A124A0C335B0013440A465A71A1
:1016BC009DF8073000991846FFF7AAFD009BD979D1
:1016CC00009B1A7A9DF807301846FFF723FD009B04
:1016DC001B79002B03D0009B1B79012B01D1FFF749
:1016EC0053FD00230393039B184605B05DF804FBE0
:1016FC00A4000020285F000000B589B003460091CB
:10170C008DF80730504B1B7CDBB2002B03D0112320
:10171C000393039B93E04C4B01221A740320FFF7B5
:10172C0027FD01210098FFF73FFD474B93F82D3023
:10173C00012B0FD90023079309E0079BDBB2002292
:10174C0000211846FFF7E6FC079B01330793079B24
:10175C00072BF2D99DF807303B4A0C335B0013443E
:10176C0019799DF80730384A0C335B0013445A79C9
:10177C009DF807301846FFF7CDFC0020FFF790FCD2
:10178C000420FFF78DFC00238DF81B3042F2107300
:10179C0005934FF48270FFF792FC0346002B03D0A5
:1017AC0001238DF81B3008E00020FFF761FC059B3E
:1017BC00013B0593059B002BEBD19DF81B30002BB7
:1017CC0004D1224940F29B1001F0FBFD4FF48070D4
:1017DC00FFF788FC4FF48270FFF784FC1A4B93F8E8
:1017EC002D30012B19D90023049313E0049BD8B29C
:1017FC00154A049B0C335B0013441979124A049B61
:10180C000C335B0013445B791A46FFF783FC049B93
:10181C0001330493049B072BE8D90B4B93F82E3020
:10182C00002B03D00320FFF797FC02E00220FFF708
:10183C0093FC054B00221A7400230393039B184658
:10184C0009B05DF804FB00BFA4000020285F000075
:10185C0084B001900B46ADF80230BDF80230019A0D
:10186C00134400221A60BDF80230019A13441B681D
:10187C000393039B00BF04B0704782B001900B46EA
:10188C00ADF80230BDF80230019A13441B68002BEE
:10189C0014BF01230023DBB2184602B0704782B09C
:1018AC0001900091019BD3F80423009B1340002B63
:1018BC0014BF01230023DBB2184602B0704782B07C
:1018CC000190019B9BB250339BB29B009BB218467C
:1018DC0002B0704782B001904FF48032019B02FA43
:1018EC0003F3184602B0704700B587B0039002911D
:1018FC0013468DF8073000238DF8173030E09DF833
:10190C0017301846FFF7DBFF0346ADF814309DF88F
:10191C0017301846FFF7DEFF0490BDF81430194657
:10192C000398FFF7AAFF0346002B14D004990398E1
:10193C00FFF7B5FF0346002B0DD0BDF81430194648
:10194C000398FFF785FF029B1B68029A5168BDF84C
:10195C001420104698479DF8173001338DF8173036
:10196C009DF817209DF807309A42C8D300BF00BFDE
:10197C0007B05DF804FB000008B5042202490348D7
:10198C00FFF7B2FF00BF08BDD4000020008000406C
:10199C0082B003468DF807309DF8073003F01F0224
:1019AC0005499DF907305B09012000FA02F241F864
:1019BC00232000BF02B0704700E100E082B0034674
:1019CC008DF807309DF8073003F01F0206499DF98A
:1019DC0007305B09012000FA02F2203341F8232082
:1019EC0000BF02B0704700BF00E100E082B00346C8
:1019FC008DF807309DF8073003F01F0206499DF95A
:101A0C0007305B09012000FA02F2603341F8232011
:101A1C0000BF02B0704700BF00E100E082B0034697
:101A2C0000918DF807309DF90730002B0CDA009BE4
:101A3C00DAB20C499DF8073003F00F03043B520156
:101A4C00D2B20B441A7609E0009BDAB206499DF932
:101A5C0007305201D2B20B4483F8002300BF02B00E
:101A6C00704700BF00ED00E000E100E084B00190A1
:101A7C00019B1B0B8DF80F309DF90F30184604B0ED
:101A8C007047000000B583B003460A468DF8073056
:101A9C0013468DF806309DF80630072B03D90849FC
:101AAC006B2001F08EFC9DF806209DF90730114645
:101ABC001846FFF7B3FF00BF03B05DF804FB00BF8F
:101ACC007060000000B583B003468DF807309DF9B7
:101ADC0007301846FFF78AFF9DF907301846FFF7C5
:101AEC0057FF00BF03B05DF804FB00B583B003469D
:101AFC008DF807309DF907301846FFF75FFF00BFE0
:101B0C0003B05DF804FB84B001900B46ADF80230D5
:101B1C00BDF80230019A134400221A60BDF802305D
:101B2C00019A13441B680393039B00BF04B07047D6
:101B3C0082B001900B46ADF80230BDF80230019A2C
:101B4C0013441B68002B14BF01230023DBB218467F
:101B5C0002B0704782B001900091019B009AC3F8CB
:101B6C00042300BF02B0704782B001900091019B2A
:101B7C00D3F80423009B1340002B14BF0123002334
:101B8C00DBB2184602B0704782B001900091019B05
:101B9C00009AC3F8082300BF02B0704784B00190CC
:101BAC00019BD3F880340393019B039AC3F88024E0
:101BBC00039B184604B0704782B00190019B04222D
:101BCC00C3F8002500BF02B0704782B00190019BA2
:101BDC000022C3F8002500BF02B0704784B0039008
:101BEC0002910192039B019AC3F81425039B029A5C
:101BFC00C3F80C2500BF04B0704700B583B001904A
:101C0C004FF0FF324FF0FF310198FFF7E7FF00BFB5
:101C1C0003B05DF804FB82B00190019BD3F80C3546
:101C2C00184602B0704782B00190019BD3F814356E
:101C3C00184602B0704782B00190019BD3F808356A
:101C4C00184602B0704782B00190019BD3F8103552
:101C5C00184602B0704784B0039002910192039B26
:101C6C00029AC3F80825039B019AC3F8102500BFFC
:101C7C0004B0704700B583B001904FF0FF324FF0C5
:101C8C00FF310198FFF7E7FF00BF03B05DF804FBDD
:101C9C0082B00190019BD3F81835DBB2184602B024
:101CAC00704782B001900B468DF803309DF80320ED
:101CBC00019BC3F81C2500BF02B0704782B0019095
:101CCC000B468DF803309DF80330019A1344012222
:101CDC001A6000BF02B0704782B001900B468DF8BD
:101CEC00033013468DF802309DF803209DF8023026
:101CFC001343DBB21A46019BC3F86C2500BF02B03C
:101D0C00704782B001900091019B009AC3F8242582
:101D1C0000BF02B07047000000B583B00190019B7A
:101D2C001B681F2B04D9054940F2C71001F049FB71
:101D3C004FF0A043184603B05DF804FBA060000010
:101D4C0000B585B00190084611461A4603468DF839
:101D5C0003300B468DF8023013468DF8013001AB81
:101D6C001846FFF7D9FF03909DF803209DF8023029
:101D7C005B001A439DF801309B001A439DF8183004
:101D8C001B0242EA03019DF81C301B04019A194303
:101D9C00039B02F5E07243F8221000BF05B05DF81A
:101DAC0004FB00B585B0039000230193002300933E
:101DBC000023012201210398FFF7C2FF00BF05B0E9
:101DCC005DF804FB00B585B003900B468DF80B3025
:101DDC009DF80B300022019200220092002200217B
:101DEC000398FFF7ADFF00BF05B05DF804FB00B52D
:101DFC0085B003900023019300230093002301225C
:101E0C0000210398FFF79CFF00BF05B05DF804FBB1
:101E1C0000B585B0019001AB1846FFF77DFF03902C
:101E2C00019B012202FA03F31946039800F004F80F
:101E3C0000BF05B05DF804FB82B001900091019BDE
:101E4C00009AC3F8082500BF02B0704700B583B0F4
:101E5C0001900091009B1B68B3F1FF3F09D0009BE0
:101E6C001B681846FFF7D4FF009B1B681846FFF74A
:101E7C0098FF009B5B68B3F1FF3F05D0009B5B684C
:101E8C0000211846FFF79EFF019B1A68009B9B6977
:101E9C0019461046FFF735FF019B1868009B597DCA
:101EAC00009B1B7D1A46FFF717FF019B1868009BD0
:101EBC001968009B5B681A46FFF790FE009B1B7D20
:101ECC00012B22D1009B9B68B3F1FF3F05D0009BF7
:101EDC009B6800211846FFF775FF009BDB68B3F188
:101EEC00FF3F09D0009BDB681846FFF791FF009B72
:101EFC00DB681846FFF755FF019B1868009BD968F3
:101F0C00009B9B681A46FFF7A6FE00BF03B05DF866
:101F1C0004FB000000B583B001900B468DF8033034
:101F2C00019B1B684FF48E711846FFF7ECFD019B6B
:101F3C001B684FF4A2711846FFF7E5FD019B1B6867
:101F4C000E491846FFF706FE019B1B681846FFF763
:101F5C008DFD03461A469DF8033019461046FFF7CF
:101F6C0091FD019B1B681846FFF780FD0346184640
:101F7C00FFF7A8FD00BF03B05DF804FB8000020072
:101F8C0000B583B00190019B1B6808491846FFF708
:101F9C00FBFD019B1B681846FFF768FD03461846BE
:101FAC00FFF7A3FD00BF03B05DF804FB8402020041
:101FBC0000B587B00190019B1B681846FFF72BFEFC
:101FCC000590019B1B681846FFF72DFE0490019BA2
:101FDC001B681846FFF72FFE0390019B1B681846E1
:101FEC00FFF731FE0290019B1B681846FFF705FEB8
:101FFC00019B1B681846FFF73DFE059BB3F1FF3FA5
:10200C0002D00598FFF7F3FE049BB3F1FF3F02D01B
:10201C000498FFF7ECFE029BB3F1FF3F02D002984D
:10202C00FFF7E5FE039BB3F1FF3F02D00398FFF7E8
:10203C00DEFE00BF07B05DF804FB000000B587B002
:10204C00039002910192029B002B03D12D49AA20EF
:10205C0001F0B7F9039B1B791A462C2302FB03F3FF
:10206C00294A1344049300230593049B93F82A30C4
:10207C00002B03D008230593059B3EE0039B1A68B5
:10208C00039B1B791946214B53F8213019461046F6
:10209C00FEF70CFF0346002B03D011230593059B81
:1020AC002BE002990398FFF7D1FE049B019A5A602A
:1020BC00029B1A69049B1A60049B5B68002B05D079
:1020CC00029B1B7F19460398FFF724FF039B1B6899
:1020DC001846FFF771FD049B00229A61049B0022B5
:1020EC00DA61049B002283F82920049B00225A61A8
:1020FC00049B012283F82A20059B184607B05DF843
:10210C0004FB00BFD8600000E00000205861000014
:10211C0000B585B00190019B1B791A462C2302FB5C
:10212C0003F3114A13440393019B1B681846FFF7F2
:10213C004CFD039B5B68002B02D00198FFF720FF3E
:10214C000198FFF735FF019B1B681846FEF7E8FE68
:10215C00039B002283F82A20039B00225A6000BFB5
:10216C0005B05DF804FB00BFE000002000B585B0B1
:10217C00019000914FF48E710198FFF7C4FC009B05
:10218C009A68009B1B6A13441B788DF80F30009BD8
:10219C001B6A5A1C009B1A629DF80F301946019855
:1021AC00FFF77FFD00BF05B05DF804FB00B583B001
:1021BC000190009116E0009B93F82830DBB2002BC5
:1021CC0001D0002315E04FF48E710198FFF7B0FC9D
:1021DC00034683F00103DBB2002BECD1009901988C
:1021EC00FFF7C4FF009B1A6A009B5B699A42EAD313
:1021FC000123184603B05DF804FB000000B587B05E
:10220C00039002910192039B1B791A462C2302FB2B
:10221C0003F33C4A13440493049B93F82A30012B98
:10222C0004D0394940F2151001F0CBF8029B002B79
:10223C0004D135494FF48B7001F0C3F8019B002B8E
:10224C0004D1314940F2171001F0BBF8039800F0AB
:10225C005DF80346002B03D011230593059B4CE03E
:10226C00049B019A5A61049B029A9A60049B002277
:10227C001A62049B002283F8282000230593039BF9
:10228C001B684FF48E711846FFF73DFC039B1B68CF
:10229C0008211846FFF712FD039B1B68049918468A
:1022AC00FFF764FF049B5B68002B25D1039B1B6825
:1022BC0004991846FFF77AFF034683F00103DBB25B
:1022CC00002B02D00F23059313E000BF039B1B6868
:1022DC004FF48E711846FFF72BFC034683F0010375
:1022EC00DBB2002BF2D1039B1B680C211846FFF7C5
:1022FC00E5FC049B00225A61059B184607B05DF86B
:10230C0004FB00BFE0000020D860000082B0019008
:10231C00019B1B791946074A2C2301FB03F3134439
:10232C0014331B68002B14BF01230023DBB21846A7
:10233C0002B07047E000002010B582B0019000910F
:10234C00009B9B69002B08D14FF484710198FFF717
:10235C00DAFB0198FFF79CFC13E04FF484710198B1
:10236C00FFF7D1FB009BDA68009B5B6AD4180198DD
:10237C00FFF78EFC03462370009B5B6A5A1C009B84
:10238C005A6202B010BD00B589B00390029101925F
:10239C0001238DF81030029B0693019B0593039B40
:1023AC005B68039A116804AA1046984700BF09B0ED
:1023BC005DF804FB00B587B00190009100238DF807
:1023CC000830009B0493019B9B680393019B0022A4
:1023DC005A61019B5B68019A116802AA10469847E2
:1023EC0000BF07B05DF804FB00B589B00190009107
:1023FC004FF400710198FFF7B7FB0346002B39D05F
:10240C004FF492710198FFF793FB0346002B31D0E8
:10241C004FF492710198FFF776FB4FF4017101981C
:10242C00FFF7B2FB009B93F8293083F00103DBB27A
:10243C00002B03D004210198FFF740FC02238DF8F8
:10244C0008300198FFF7AAFB03460593009B9B6994
:10245C000493009BDB680393009B00229A61009B12
:10246C000022DA61009B5B68009A116802AA104690
:10247C00984752E004210198FFF776FB0346002BA6
:10248C004BD04FF484710198FFF752FB0346002B9D
:10249C0043D000990198FFF74FFF009B9A69009B6E
:1024AC005B6A9A4239D1009BDB69002B19D0009BE7
:1024BC00DB680793009B5B6A0693009BDA69009BC1
:1024CC009A61009B1A69009BDA60009B0022DA611A
:1024DC00009B00225A62079A06990098FFF753FF57
:1024EC001BE0009B93F8293083F00103DBB2002B37
:1024FC0003D004210198FFF7E1FB4FF4017101981F
:10250C00FFF742FB009B00229A61009B596A009BDB
:10251C00DB681A460098FFF736FF4FF48E7101986E
:10252C00FFF706FB0346002B22D0009B1A6A009B88
:10253C005B699A420DD2009B93F82830DBB283F092
:10254C000103DBB2002B04D000990198FFF70EFEBB
:10255C000EE04FF48E710198FFF7D5FA009B5B6982
:10256C00002B05D0009B5B6919460098FFF722FFF2
:10257C004FF4A2710198FFF7DBFA0346002B1CD035
:10258C004FF4A2710198FFF7BEFA009B93F8293023
:10259C00002B03D000210198FFF790FB009B9B6957
:1025AC00002B0AD0009B00229A61009B596A009B69
:1025BC00DB681A460098FFF7E6FE00BF09B05DF82D
:1025CC0004FB000008B503490348FFF70DFF00BFEB
:1025DC0008BD00BFE00000200020004082B0034690
:1025EC008DF807309DF8073003F01F0205499DF95F
:1025FC0007305B09012000FA02F241F8232000BFEA
:10260C0002B0704700E100E082B003468DF807305D
:10261C009DF8073003F01F0206499DF907305B094E
:10262C00012000FA02F2203341F8232000BF02B04F
:10263C00704700BF00E100E082B003468DF8073020
:10264C009DF8073003F01F0206499DF907305B091E
:10265C00012000FA02F2603341F8232000BF02B0DF
:10266C00704700BF00E100E082B0034600918DF896
:10267C0007309DF90730002B0CDA009BDAB20C49BD
:10268C009DF8073003F00F03043B5201D2B20B4408
:10269C001A7609E0009BDAB206499DF9073052011F
:1026AC00D2B20B4483F8002300BF02B0704700BFC6
:1026BC0000ED00E000E100E082B00190019B03F02E
:1026CC006043B3F1005F0CBF01230023DBB218465B
:1026DC0002B0704784B00190019B1B0B8DF80F303A
:1026EC009DF90F30184604B07047000000B583B058
:1026FC0003460A468DF8073013468DF806309DF8D0
:10270C000630072B03D908496B2000F05AFE9DF8C0
:10271C0006209DF9073011461846FFF7A5FF00BFAC
:10272C0003B05DF804FB00BF5C61000000B583B032
:10273C0003468DF807309DF907301846FFF77CFFEC
:10274C009DF907301846FFF749FF00BF03B05DF84D
:10275C0004FB00B583B003468DF807309DF90730B4
:10276C001846FFF751FF00BF03B05DF804FB84B0BF
:10277C0001900B46ADF80230BDF80230019A1344BB
:10278C0000221A60BDF80230019A13441B680393AF
:10279C00039B00BF04B0704782B001900B46ADF8AC
:1027AC000230BDF80230019A13441B68002B14BF91
:1027BC0001230023DBB2184602B0704782B00190AF
:1027CC000091019BD3F80022009BDB431A40019B34
:1027DC00C3F8002200BF02B0704782B00190009194
:1027EC00019B009AC3F8042300BF02B0704782B06B
:1027FC0001900091019B009AC3F8082300BF02B01E
:10280C00704784B00190019BD3F880340393019BF3
:10281C00039AC3F88024039B184604B0704782B017
:10282C000190019B0822C3F8002500BF02B070473D
:10283C0082B00190019B0022C3F8002500BF02B0BA
:10284C00704784B0039002910192039B029AC3F8E3
:10285C000C25039B019AC3F8142500BF04B07047E4
:10286C0000B583B001904FF0FF324FF0FF3101986B
:10287C00FFF7E7FF00BF03B05DF804FB82B00190E7
:10288C00019BD3F80C35184602B0704782B001900A
:10289C00019BD3F81435184602B0704782B00190F2
:1028AC00019BD3F80835184602B0704782B00190EE
:1028BC00019BD3F81035184602B0704784B00390D2
:1028CC0002910192039B029AC3F80825039B019A7B
:1028DC00C3F8102500BF04B0704700B583B0019059
:1028EC004FF0FF324FF0FF310198FFF7E7FF00BFC9
:1028FC0003B05DF804FB82B001900B468DF80330F9
:10290C009DF80330019A134401221A6000BF02B0F3
:10291C00704782B001900B468DF8033013468DF84A
:10292C0002309DF803209DF802301343DBB21A46A7
:10293C00019BC3F86C2500BF02B0704782B00190B8
:10294C000091019B009AC3F8242500BF02B0704788
:10295C0084B0039002910192029A039BC3F8442520
:10296C00039B019AC3F8482500BF04B0704782B09E
:10297C000190019BD3F84C35184602B0704782B0D9
:10298C000190019BD3F83C35184602B0704700000B
:10299C0000B583B00190019B1B681F2B04D905491E
:1029AC0040F2C71000F00DFD4FF0A043184603B0E5
:1029BC005DF804FB8C61000000B585B00190084601
:1029CC0011461A4603468DF803300B468DF802303B
:1029DC0013468DF8013001AB1846FFF7D9FF039071
:1029EC009DF803209DF802305B001A439DF80130DE
:1029FC009B001A439DF818301B0242EA03019DF814
:102A0C001C301B04019A1943039B02F5E07243F836
:102A1C00221000BF05B05DF804FB00B585B0039033
:102A2C00002301930023009300230122012103982A
:102A3C00FFF7C2FF00BF05B05DF804FB00B585B021
:102A4C0003900B468DF80B309DF80B300022019251
:102A5C0000220092002200210398FFF7ADFF00BF77
:102A6C0005B05DF804FB00B585B00390002301931D
:102A7C00002300930023012200210398FFF79CFF01
:102A8C0000BF05B05DF804FB00B585B0019001AB4B
:102A9C001846FFF77DFF0390019B012202FA03F316
:102AAC001946039800F004F800BF05B05DF804FB6C
:102ABC0082B001900091019B009AC3F8082500BFD9
:102ACC0002B0704700B583B001900091009B1B6869
:102ADC00B3F1FF3F09D0009B1B681846FFF7D4FFEA
:102AEC00009B1B681846FFF798FF009B5B68B3F1CF
:102AFC00FF3F05D0009B5B6800211846FFF79EFF47
:102B0C00019B1A68009B9B6919461046FFF716FF3C
:102B1C00019B1868009B597D009B1B7D1A46FFF793
:102B2C00F8FE019B1868009B1968009B5B681A46AD
:102B3C00FFF787FE009B1B7D012B22D1009B9B681E
:102B4C00B3F1FF3F05D0009B9B6800211846FFF7AF
:102B5C0075FF009BDB68B3F1FF3F09D0009BDB687E
:102B6C001846FFF791FF009BDB681846FFF755FFEF
:102B7C00019B1868009BD968009B9B681A46FFF75D
:102B8C009DFE00BF03B05DF804FB000000B583B0F0
:102B9C0001900B468DF80330019B1B684FF4887134
:102BAC001846FFF7E4FD019B1B684FF49071184623
:102BBC00FFF7DDFD019B1B684FF492711846FFF780
:102BCC00D6FD019B1B684FF4A2711846FFF7CFFD91
:102BDC00019B1B680E491846FFF7FFFD019B1B6804
:102BEC001846FFF777FD03461A469DF80330194641
:102BFC001046FFF77BFD019B1B681846FFF76AFD2B
:102C0C0003461846FFF792FD00BF03B05DF804FBC6
:102C1C001003020000B583B00190019B1B680849AA
:102C2C001846FFF7E4FD019B1B681846FFF752FDA1
:102C3C0003461846FFF78DFD00BF03B05DF804FB9B
:102C4C001003020000B587B00190019B1B68184669
:102C5C00FFF714FE0590019B1B681846FFF716FE44
:102C6C000490019B1B681846FFF718FE0390019B0C
:102C7C001B681846FFF71AFE0290019B1B6818464A
:102C8C00FFF7EEFD019B1B681846FFF726FE059B20
:102C9C00B3F1FF3F02D00598FFF7E5FE049BB3F1BB
:102CAC00FF3F02D00498FFF7DEFE029BB3F1FF3F1B
:102CBC0002D00298FFF7D7FE039BB3F1FF3F02D07F
:102CCC000398FFF7D0FE00BF07B05DF804FB0000CF
:102CDC0000B587B0039002910192029B002B03D1A7
:102CEC002B49BC2000F06DFB039B1B791A46134645
:102CFC00DB0013449B00274A1344049300230593E1
:102D0C00049B93F82030002B03D008230593059BDC
:102D1C003AE0039B1A68039B1B7919461E4B53F828
:102D2C00213019461046FEF7C1F80346002B03D09C
:102D3C0011230593059B27E002990398FFF7C2FE28
:102D4C00049B019A5A60029B1A69049B1A60049BAB
:102D5C005B68002B05D0029B1B7F19460398FFF77D
:102D6C0015FF039B1B681846FFF759FD049B0022B7
:102D7C009A61049B0022DA61049B00225A61049B35
:102D8C00012283F82020059B184607B05DF804FB50
:102D9C00C46100000C0100204462000000B585B045
:102DAC000190019B1B791A461346DB0013449B00D0
:102DBC00104A13440393019B1B681846FFF738FD18
:102DCC00039B5B68002B02D00198FFF723FF01984F
:102DDC00FFF738FF019B1B681846FEF7A1F8039B11
:102DEC00002283F82020039B00225A6000BF05B00C
:102DFC005DF804FB0C01002000B589B00390029132
:102E0C000192039B1B791A461346DB0013449B006B
:102E1C004C4A13440593059B93F82030012B04D0A6
:102E2C00494940F20D1000F0CCFA029B002B04D162
:102E3C0045494FF4877000F0C4FA019B002B04D174
:102E4C00414940F20F1000F0BCFA039B1B79002B98
:102E5C0002D1019BFF2B04D93B494FF4887000F041
:102E6C00B0FA0298FFF728FC034683F00103DBB2AB
:102E7C00002B03D010230793079B5EE0039800F010
:102E8C0065F80346002B03D011230793079B54E0EE
:102E9C00059B019A5A61059B029A9A60002307933D
:102EAC00039B1B684FF490711846FFF760FC039B63
:102EBC001B684FF4AC711846FFF759FC039B18685C
:102ECC00059B9968059B5B691A46FFF741FD039BBF
:102EDC001B6808211846FFF70EFD059B5B68002B4D
:102EEC002AD1039B1B684FF490711846FFF754FCD2
:102EFC0003468DF81B30039B1B684FF4AC711846CE
:102F0C00FFF74AFC03468DF81A309DF81B3083F00E
:102F1C000103DBB2002B06D09DF81A3083F00103BD
:102F2C00DBB2002BDDD19DF81A30002B01D00F2322
:102F3C000793059B00225A61079B184609B05DF860
:102F4C0004FB00BF0C010020C461000082B00190A2
:102F5C00019B1B791946084A0B46DB000B449B006E
:102F6C00134414331B68002B14BF01230023DBB262
:102F7C00184602B0704700BF0C01002000B589B0A4
:102F8C0003900291019201238DF81030029BDBB269
:102F9C008DF81830019B0593039B5B68039A1168AD
:102FAC0004AA1046984700BF09B05DF804FB00B5B1
:102FBC0087B00190009100238DF80830009BDBB2A4
:102FCC008DF81030019B9B680393019B00225A6182
:102FDC00019B5B68019A116802AA1046984700BFD2
:102FEC0007B05DF804FB00B589B0019000914FF477
:102FFC0092710198FFF7D0FB0346002B24D04FF4BD
:10300C0092710198FFF7B3FB02238DF808300198F9
:10301C00FFF7F7FB034605930198FFF7B0FC034657
:10302C00DBB28DF81030009BDB680393009B002211
:10303C009A61009B0022DA61009B5B68009A116820
:10304C0002AA104698473BE04FF488710198FFF7AD
:10305C00A3FB0346002B33D04FF488710198FFF784
:10306C0086FB0198FFF78BFC0790009B9B69079AE6
:10307C009A4225D1009BDB69002B17D0009BDB68A3
:10308C00069320210198FFF799FB009BDA69009BBE
:10309C009A61009B1A69009BDA60009B0022DA613E
:1030AC00069A07990098FFF769FF09E0009B002238
:1030BC009A61009BDB681A4607990098FFF75EFF40
:1030CC004FF4A2710198FFF767FB0346002B15D054
:1030DC004FF4A2710198FFF74AFB009B9B69002BF0
:1030EC000CD0009B00229A610198FFF748FC014626
:1030FC00009BDB681A460098FFF740FF4FF4907175
:10310C000198FFF749FB0346002B10D04FF4907148
:10311C000198FFF72CFB009B5B69002B07D00198F3
:10312C00FFF725FC034619460098FFF740FF00BF48
:10313C0009B05DF804FB000008B503490348FFF72C
:10314C0052FF00BF08BD00BF0C0100200020004052
:10315C0086B003900291019201238DF817309DF8EF
:10316C001730214A039B13601F4A029B53601E4A6F
:10317C00019B9360039B44F20102934213D0039B87
:10318C0044F20202934221D1019B174AD360164BA1
:10319C00DB681B881A46144B9A61134BDB685B681F
:1031AC00114AD36112E0019B0F4A13610E4B1B694C
:1031BC009B680D4A53610C4B1B691B680A4A93614F
:1031CC00094B1B695B68084AD36100BF72B600BF2C
:1031DC0000BF9DF81730DBB2002BFAD162B600BFEE
:1031EC0000BF06B0704700BF3001002000B583B0AF
:1031FC0002900091019244F2010071466A4600F07F
:10320C0003F803B000BD00BF30B58BB0079006913A
:10321C00059272B600BF01F0B7FF01F089FD0346BD
:10322C00002BFAD1079B44F20102934215D0079B65
:10323C0044F2020293423AD1059B0993294B1B8815
:10324C001B0443F001031846099B5B681A46099B53
:10325C001B88254901F019FD34E0059B0893214B8F
:10326C001B881B0443F001031D46089B9C68089BAC
:10327C009B68184600F07EFF03461846089B5B6867
:10328C001946089B1B68069A02920193009103460B
:10329C0022461649284601F022FD124B1B881B04BE
:1032AC0043F001031249184601F0D0FC0AE00D4B23
:1032BC001B881B0443F00103069A0E49184601F0C3
:1032CC00D3FC00BF0C4B1B6803F00103002B00D098
:1032DC0000BE059A06990798FFF73AFF00BF0BB09E
:1032EC0030BD00BF14000020486200006462000082
:1032FC008C620000A0620000F0ED00E072B600BF2E
:10330C00034B1B680133024A136000BF704700BFB8
:10331C0050010020064B1B68013B054A1360044B0F
:10332C001B68002B01D162B600BF00BF704700BF05
:10333C005001002000B583B0019000F025F8034641
:10334C00012B03D00449432000F03BF8FFF7D6FFD4
:10335C0000BF03B05DF804FBB862000000B583B099
:10336C0003468DF8073000F00FF80346012B03D00D
:10337C000449512000F025F8FFF7CCFF00BF03B043
:10338C005DF804FBB862000084B0EFF30583019391
:10339C00019BC3F308030393039B002B0DD1EFF3A5
:1033AC0014830093009B0293029B03F00103002BF8
:1033BC000CBF01230023DBB200E00123184604B04C
:1033CC00704700B585B003460091ADF80630BDF8E6
:1033DC000630ADF80830009B039302AB1A4600216F
:1033EC0044F20200FFF710FF00BF05B05DF804FBCC
:1033FC0010B487B001900091019B009A53E8004FE4
:10340C00104643E8000191F0000FF7D105940490A9
:10341C000391059B184607B05DF8044B704710B438
:10342C0087B001900091019B009A53E8004F44EA49
:10343C00020043E8000191F0000FF6D105940490CE
:10344C000391049B184607B05DF8044B704710B409
:10345C0087B001900091019B009A53E8004F04EA59
:10346C00020043E8000191F0000FF6D1059404909E
:10347C000391059B184607B05DF8044B704710B4D8
:10348C0087B001900091019B009A53E8004F04EB28
:10349C00020043E8000191F0000FF6D1059404906E
:1034AC000391049B184607B05DF8044B704710B4A9
:1034BC0087B001900091019B009A53E8004FA4EB58
:1034CC00020043E8000191F0000FF6D1059404903E
:1034DC000391049B184607B05DF8044B704700B588
:1034EC0083B0019001210198FFF799FF034618461C
:1034FC0003B05DF804FB00B583B001900021019886
:10350C00FFF7A5FF0346184603B05DF804FB000067
:10351C0000B583B001900B468DF80330019B002B56
:10352C0003D10849E820FFF74CFF019BDA689DF8AE
:10353C0003300199898A01FB03F31344184603B045
:10354C005DF804FB4063000000B583B0019000916E
:10355C00019B002B03D10849F520FFF732FF009B9C
:10356C00019AD2689B1A019A928AB3FBF2F3DBB2EE
:10357C00184603B05DF804FB4063000000B585B04D
:10358C000190019B002B01D10E234CE0019B1B6889
:10359C00002B03D12649FF20FFF713FF019B5B682B
:1035AC00002B04D122494FF48070FFF70AFF019BD6
:1035BC009B68002B04D11E4940F20110FFF701FF5C
:1035CC00019BDB68002B04D119494FF48170FFF784
:1035DC00F8FE019B9B8A002B04D1154940F2031085
:1035EC00FFF7EFFE019B9A68019B5B68D31A8DF87D
:1035FC000F30019B1B68019A52681A6007E0019B0F
:10360C001A681368591C11609DF80F201A709DF8E8
:10361C000F305A1E8DF80F20002BF0D1019B1B6828
:10362C0000221A710023184605B05DF804FB00BF98
:10363C004063000000B585B00190019B002B04D1C4
:10364C001C494FF49270FFF7BCFE0023039300203B
:10365C00FFF770FE019B1B681A68019B5B689A421E
:10366C001FD9019B1B681A68013A1A601B681B78EA
:10367C0019460198FFF74CFF0390019B9A68019B38
:10368C001B681B68D31A8DF80B30019B1B681B79C8
:10369C009DF80B209A4204D9019B1B689DF80B20C6
:1036AC001A710020FFF75AFE039B184605B05DF80F
:1036BC0004FB00BF4063000010B584B00190009182
:1036CC00019B002B04D1114940F24710FFF779FE02
:1036DC00009B002B04D10D494FF4A470FFF771FE31
:1036EC00009B03930020FFF725FE019B1B681C68C1
:1036FC00621C1A6003990198FFF726FF034623709A
:10370C000020FFF72BFE00BF04B010BD406300008B
:10371C0000B583B00190019B002B03D10C493120E3
:10372C00FFF74FFE019B9B68002B0CD0019B5B6944
:10373C00019A1069019A1168019A92689847019B45
:10374C0000229A6000E000BF03B05DF804FB00BFEC
:10375C00C46300000EB400B584B00190019B002B33
:10376C0003D118494220FFF72CFE019B5B69002B0B
:10377C0003D114494320FFF724FE019B1B68002B47
:10378C0003D110494420FFF71CFE019B5B68002B02
:10379C0003D10C494520FFF714FE059B002B0AD0E2
:1037AC000023039306AB039303AB1A4605990198C8
:1037BC0000F0B0F900E000BF04B05DF804EB03B01A
:1037CC00704700BFC463000000B583B001900B4686
:1037DC008DF80330019B1A68019B9B68581C01995A
:1037EC00886013449DF803201A70019B9A68019B12
:1037FC005B689A4202D30198FFF78AFF00BF03B0BF
:10380C005DF804FB00B587B0039002910192009320
:10381C0000230593009B03F00103002B24D00BE045
:10382C00029B01330293059B013305939DF81330E2
:10383C0019460398FFF7C8FF029B1B788DF81330CD
:10384C009DF81330002BEBD106E0019B013B01935B
:10385C0020210398FFF7B8FF019A059B9A422ED9B5
:10386C00019B002BF1D12AE0029B002B0BD002987C
:10387C0002F0C4F9059006E0019B013B0193202165
:10388C000398FFF7A1FF019A059B9A420FD9019B60
:10389C00002BF1D10BE0029B01330293059B01330A
:1038AC0005939DF8133019460398FFF78DFF029B83
:1038BC001B788DF813309DF81330002BEBD100BF23
:1038CC0007B05DF804FB000000B589B003900291CD
:1038DC0001920093029B07930123069307E0079A3A
:1038EC00019BB2FBF3F30793069B01330693079AF4
:1038FC00019B9A42F3D2009A069B9A4201D9009BF3
:10390C0006930B9B03F00103002B22D10A9B002B87
:10391C001FD00B9B03F00203002B06D0009B002B47
:10392C0003D130238DF8173002E020238DF81730A7
:10393C0008E00A9B013B0A939DF81730194603983F
:10394C00FFF742FF0A9B002B03D0069A0A9B9A4270
:10395C00EFD301230793009B012B03D9009B013B61
:10396C00009309E0029A079BB2FBF3F30493049AC9
:10397C00019B9A4200D205E0079B019A02FB03F3DC
:10398C000793E8E7029A079BB2FBF3F30493049BBB
:10399C00079A02FB03F3029AD31A0293154A049B6B
:1039AC0013441B7819460398FFF70EFF079A019BE7
:1039BC00B2FBF3F30793079B002BE3D10B9B03F0B4
:1039CC000103002B11D00A9B002B0ED006E00A9BA2
:1039DC00013B0A9320210398FFF7F6FE0A9B002B6C
:1039EC0003D0069A0A9B9A42F1D300BF09B05DF846
:1039FC0004FB00BFC064000000B589B005900491C1
:103A0C0003920293049B002BB8BF5B4206930123E5
:103A1C00079307E0039B069A92FBF3F30693079B2D
:103A2C0001330793039B069A9A42F3DA029A079B97
:103A3C009A4201D9029B07930A9B002B0AD0049B44
:103A4C00002B04DB0B9B03F00403002B02D00A9B1E
:103A5C00013B0A930B9B03F00203002B02D0029B49
:103A6C00002B16D00B9B03F00103002B11D10A9BEA
:103A7C00002B0ED006E00A9B013B0A9320210598EF
:103A8C00FFF7A2FE0A9B002B03D0079A0A9B9A42CF
:103A9C00F1D3049B002B07DA049B5B4204932D218A
:103AAC000598FFF791FE08E00B9B03F00403002B35
:103ABC0003D02B210598FFF787FE0B9B03F0020325
:103ACC00002B19D00B9B03F00103002B14D1029B8C
:103ADC00002B11D10A9B002B0ED006E00A9B013B58
:103AEC000A9330210598FFF76FFE0A9B002B03D039
:103AFC00079A0A9B9A42F1D304990B9B01930A9B58
:103B0C000093029B039A0598FFF7DEFE00BF09B0F5
:103B1C005DF804FB00B58FB0059004910392059BF2
:103B2C00002B04D1AD494FF49F70FFF74AFC059B65
:103B3C005B69002B04D1A9494FF4A070FFF741FC3D
:103B4C00059B1B68002B04D1A44940F24110FFF7E0
:103B5C0038FC059B5B68002B04D1A0494FF4A17085
:103B6C00FFF72FFC049B002B00F09381049B1B7828
:103B7C008DF83730049B013304939DF83730002BBC
:103B8C0000F07E819DF83730252B40F06D810023AD
:103B9C000A9301230C93049B1B788DF837309DF806
:103BAC003730302B0DD0302B1BDC2B2B11D02D2B89
:103BBC0017D10A9B43F001030A93049B013304932E
:103BCC0012E00A9B43F002030A93049B0133049313
:103BDC000AE00A9B43F004030A93049B0133049309
:103BEC0002E000230C9300BF0C9B002BD3D10023CD
:103BFC0009939DF837302A2B0CD1039B1B68191D98
:103C0C00039A11601B68099A13440993049B0133AE
:103C1C0004931AE0049B1B788DF837309DF83730ED
:103C2C002F2B12D99DF83730392B0ED8049B01332A
:103C3C000493099A13469B0013445B001A469DF8A3
:103C4C0037301344303B0993D3E700230B93049B89
:103C5C001B788DF837309DF837302E2B1DD1049BF7
:103C6C0001330493049B1B788DF837309DF8373063
:103C7C002F2B12D99DF83730392B0ED8049B0133DA
:103C8C0004930B9A13469B0013445B001A469DF851
:103C9C0037301344303B0B93E4E7049B1B788DF8CF
:103CAC0037309DF837306C2B03D09DF83730682BAC
:103CBC0007D1049B01330493049B1B788DF8373098
:103CCC00EFE79DF83730252B00F0C480252BC0F290
:103CDC00C680782B00F3C380582BC0F2C080583BB1
:103CEC00202B00F2BC8001A252F823F0ED3D000025
:103CFC006B3E00006B3E00006B3E00006B3E000014
:103D0C006B3E00006B3E00006B3E00006B3E000003
:103D1C006B3E00006B3E00007D3D00009F3D0000AF
:103D2C006B3E00006B3E00006B3E00006B3E0000E3
:103D3C009F3D00006B3E00006B3E00006B3E0000A0
:103D4C006B3E00006B3E00006B3E00002D3E000001
:103D5C006B3E00006B3E0000113E00006B3E00000D
:103D6C00C33D00006B3E00006B3E0000ED3D0000CB
:103D7C00039B1B68191D039A11601B680C930C9B09
:103D8C008DF81F309DF81F3019460598FFF71CFD64
:103D9C0066E0039B1B68191D039A11601B680C934A
:103DAC000A9B0193099B00930B9B0A220C99059883
:103DBC00FFF722FE54E0039B1B68191D039A116048
:103DCC001B680C930C990A9B0193099B00930B9B0A
:103DDC000A220598FFF778FD42E000BF406400001E
:103DEC00039B1B68191D039A11601B680C930C999B
:103DFC000A9B0193099B00930B9B10220598FFF7DC
:103E0C0063FD2DE0039B1B68191D039A11601B6851
:103E1C0008930A9B099A08990598FFF7F3FC1FE091
:103E2C00039B1B68191D039A11601B680C933021AE
:103E3C000598FFF7C9FC78210598FFF7C5FC0C998C
:103E4C000023019308230093082310220598FFF701
:103E5C003BFD05E025210598FFF7B6FC00E000BF0F
:103E6C00049B0133049305E09DF8373019460598FF
:103E7C00FFF7AAFC049B1B78002B7FF477AE00E0C5
:103E8C0000BF059B1B7B002B04D00598FFF740FC63
:103E9C0000E000BF0FB05DF804FB00BF00B583B0BD
:103EAC0001900198FFF76AFB0346184603B05DF8D2
:103EBC0004FB00B58BB001900091019B9B8A043BE5
:103ECC000793009A079B1344DA1C079BB2FBF3F38E
:103EDC008DF81B300198FFF7ADFB0590059B002B6F
:103EEC0001D1002338E0059B00221A71059B0122A9
:103EFC005A71079B9AB2059BDA80059B09939DF832
:103F0C001B30013B0493099B019A1A600023089310
:103F1C001DE00198FFF78EFB0390039B002B0ED046
:103F2C00059B5B790133DAB2059B5A71099B039AA5
:103F3C001A60039B019A1A60039B099304E005988D
:103F4C0000F00EF8002307E0089B01330893089A51
:103F5C00049B9A42DDD3059B18460BB05DF804FB1D
:103F6C0000B58BB00190019B0793079B5B798DF893
:103F7C001B30019B08939DF81B30013B05930023DC
:103F8C00099305E0089B1B680893099B013309936F
:103F9C00099A059B9A42F5D3089B1B680493019BD5
:103FAC000893002309930BE0089B1B680393089963
:103FBC000498FFF781FB039B0893099B013309933A
:103FCC009DF81B30099A9A42EED300BF00BF0BB08C
:103FDC005DF804FB00B585B00190019B0393039B36
:103FEC00043301211846FFF74AFA00BF05B05DF80B
:103FFC0004FB00B587B00190019B0593059B04332E
:10400C0001211846FFF753FA0346039303AB0493BD
:10401C00049B1B78002B02D10198FFF7A1FF00BF76
:10402C0007B05DF804FB000000B58DB00390029161
:10403C0001920093039B0693069BDB880593039BDD
:10404C000B93009B1A1D059BB2FBF3F30A93009B89
:10405C000433059AB3FBF2F2059901FB02F29B1AA9
:10406C000993009A019B1A44059B1344DA1C059B87
:10407C00B2FBF3F38DF81330069B5B799DF813209C
:10408C009A420AD92849BA20FFF79BF905E00B9B05
:10409C001B680B930A9B013B0A930A9B002BF6D1DE
:1040AC0000230893059A099BD31A0793079A019B3F
:1040BC00934228BF134607932DE09DF83830002B10
:1040CC000BD0029A089BD0180B9A099B134404330B
:1040DC00079A194601F0C2FD0AE00B9A099B13449A
:1040EC00181D029A089B1344079A194601F0B6FD55
:1040FC00002309930B9B1B680B93019A079BD31A04
:10410C000193089A079B13440893059A019B9342C9
:10411C0028BF13460793019B002BCED100BF00BFD5
:10412C000DB05DF804FB00BFD064000000B587B093
:10413C00059004910392029300230093029B039A2F
:10414C0004990598FFF770FF00BF07B05DF804FBFA
:10415C0000B587B00590049103920293012300935C
:10416C00029B039A04990598FFF75EFF00BF07B006
:10417C005DF804FB00B585B00190019800F00EF8D5
:10418C000390039B002B01D0039B00E0024B1846CD
:10419C0005B05DF804FB00BF8066000086B001909E
:1041AC00164B0593164B04931FE0049A059BD31AE8
:1041BC00DB10DA0F13445B10DB00059A13440393F6
:1041CC00039B1B680293029A019B9A4202D9039BA0
:1041DC0004930AE0029A019B9A4203D2039B083390
:1041EC00059302E0039B5B6804E0059A049B9A42EA
:1041FC00DBD30023184606B0704700BF546A00009A
:10420C006C6B000000B5A1B0059004910392029371
:10421C000498FFF7DFFE039B1593029B1693002374
:10422C00179300238DF8603000231993229B1A9367
:10423C0000231F930FA91F9B08220498FFF788FFE8
:10424C0008231F93119B1293BDF84030ADF84C30EE
:10425C00BDF84230ADF84E3000238DF851309DF84A
:10426C003C3003F00303DBB2012B26D10F9BC3F3CD
:10427C0095231C939DF83C30C3F3C203DBB28DF83D
:10428C005030BDF83C30C3F38313DBB21B931B9B44
:10429C009A0009A91F9B0498FFF75AFF1B9B9B00D0
:1042AC001F9A13441F9312AA09A915AB0093134626
:1042BC001B9A1C9801F014F82FE09DF83C3003F089
:1042CC000303DBB2022B28D1BDF83E30C3F38913B4
:1042DC009BB21E939DF83C30C3F3C203DBB28DF846
:1042EC0050301E9B082B28BF08231D9307A91F9B2A
:1042FC001D9A0498FFF72CFF1F9A1D9B13441F93C4
:10430C001E9A1D9BD31A1E9315AB12AA07A81D99B2
:10431C0001F088F81E9B002BE3D10498FFF769FE8F
:10432C0000BF21B05DF804FB00B583B00190019B88
:10433C001B781A460C4B9B5C002B05D0019B04335D
:10434C001846FEF72BFD0BE0019B1B781A46064B1B
:10435C009B5C002B04D1019B0C331846FDF7D8FE57
:10436C0000BF03B05DF804FB9800002000B587B0D7
:10437C000390029113468DF8073000230593039B9D
:10438C001B781A46114B9B5C002B09D0039B043302
:10439C009DF8072002991846FEF72EFD05900FE0B8
:1043AC00039B1B781A46094B9B5C002B08D1039B83
:1043BC000C339DF8072002991846FDF71FFF059056
:1043CC00059B184607B05DF804FB00BF9800002061
:1043DC0082B001900091034B01221A7000BF02B011
:1043EC00704700BF9401002030B58DB003468DF8A6
:1043FC0007301A4B02AC1D460FCD0FC495E80F00C9
:10440C0084E80F00062302934FF0FF3303934FF021
:10441C00FF3304934FF0FF3305934FF0EB73089386
:10442C009DF80730002B01D00D4A00E0002202ABB2
:10443C0019460C48FCF7B8FC0B900B9B0A930A9B93
:10444C00002B04D0084A43210A98FEF7CFFE074AF6
:10445C009DF80730137000BF0DB030BD086C000024
:10446C00DD430000240000206C6B0000950100204F
:10447C0000B583B000238DF807309DF8073018463F
:10448C00FFF7B2FF00BF03B05DF804FB00B589B0C5
:10449C00039002910192019B8DF81F30124B002268
:1044AC001A709DF81F301A4602991048FFF75EFFEC
:1044BC000690069B0593059B002B04D00C4A5321B8
:1044CC000598FEF793FE00BF0A4B1B78002B07D014
:1044DC00054B1B78DBB283F00103DBB2002BF3D16D
:1044EC0000BF09B05DF804FB9401002024000020FB
:1044FC006C6B00009501002000B585B00390029113
:10450C00054B00934023054A02990398FFF77AFE66
:10451C0000BF05B05DF804FB994400005401002075
:10452C0082B0019000BF02B07047000000B583B0AC
:10453C0001900548FFF7F8FE0020FFF755FF00BF7C
:10454C0003B05DF804FB00BF2400002082B0019092
:10455C00019B01225A7200BF02B0704700B583B0B4
:10456C004FF0FF330193FFF783FF0421084800F05D
:10457C00D7FD0190019B002B03DA06494820FEF77A
:10458C0020FF0348FFF7E2FF00BF03B05DF804FB18
:10459C0038000020346C000000B583B0019000910D
:1045AC00019B1B681B6800990198984700BF03B0DA
:1045BC005DF804FB00B583B00190019B1B685B6840
:1045CC000198984700BF03B05DF804FB00B583B0B9
:1045DC000190019B1B689B680198984700BF03B032
:1045EC005DF804FB82B001900B468DF80330019B03
:1045FC009DF803201A7200BF02B0704782B0019080
:10460C00019B1B7A184602B0704782B00190019B47
:10461C0001225A7200BF02B0704782B00190019B18
:10462C005B7A184602B0704700B587B001900091D4
:10463C001D4BFF229A601C4B00221A601A4B002261
:10464C005A60194B0022C3F81824174B0022C3F8E8
:10465C001424154B012283F820241448FFF71EFC68
:10466C000490049B002B01D0049B18E0104A114BC2
:10467C00D31ADB080393002305930BE0059B9B00E7
:10468C000D4A13440293059B9AB2029B1A80059B18
:10469C0001330593059A039B9A42EFD300231846E6
:1046AC0007B05DF804FB00BF68020020205D00002D
:1046BC00205D0000E05C000000000020024A034B7B
:1046CC00D31ADB0818467047205D0000E05C000040
:1046DC0000B587B001900B468DF803309DF8033080
:1046EC00002B1FD0FFF7EAFF04900023059313E083
:1046FC00059B9B000E4A13440393039B5B881A464D
:10470C00019B1B689A4204D1019B059A1A600023F5
:10471C0009E0059B01330593059A049B9A42E7D364
:10472C00052300E00023184607B05DF804FB00BF2A
:10473C000000002000B585B001900B468DF80330C9
:10474C009DF8032001AB11461846FFF7C1FF034645
:10475C00002B07D1019BDB00054A13440393039BF9
:10476C001B6800E00023184605B05DF804FB00BF91
:10477C00E05C000084B001900B468DF80330019B87
:10478C00DB00174A134402939DF80330013B032BC3
:10479C001CD801A252F823F0B5470000BD47000019
:1047AC00C5470000CF47000002238DF80F3011E001
:1047BC0004238DF80F300DE0029B1B798DF80F3020
:1047CC0008E0029B5B798DF80F3003E000238DF835
:1047DC000F3000BF9DF80F30184604B0704700BF73
:1047EC00E05C000000B585B00190009100238DF8CD
:1047FC000F30019B1B7803F00303DBB2002B06D0B8
:10480C00019B1B7803F00403DBB2002B43D0019B0C
:10481C001B7803F00403DBB2002B27D0019B1B7821
:10482C00C3F30103DBB2012B02D0022B0CD017E037
:10483C00009B1B68019A1288C2F38312D2B21344F4
:10484C009A1C009B1A6023E0009B1B68019A5288FB
:10485C00C2F3891292B213449A1C009B1A6017E09F
:10486C0010494FF4A470FEF7ACFD11E0009B1A68E0
:10487C00019B5B88C3F389139BB21946019B1B8870
:10488C00C3F389139BB20B4413445A1C009B1A604C
:10489C0001238DF80F309DF80F30184605B05DF8E8
:1048AC0004FB00BFEC6C000000B58BB00023ADF82E
:1048BC0026303E48FEF713FE3D48FEF710FE3D4BFA
:1048CC005B6804933B4B9B680693049A069B1340CE
:1048DC0002339B00374A13440433089304AB194644
:1048EC000898FFF77FFF0346002B09D0049A069B1C
:1048FC00134002339B002F4A134404330893EDE713
:10490C0000BF0023079311E0049B5A1C0492069AE3
:10491C001340079A920001A90A44264902339B00CE
:10492C000B445B681360079B01330793079B012BB8
:10493C00EAD99DF80430C3F30103DBB2012B10D08C
:10494C00022B1CD1BDF80A30ADF82630BDF806306C
:10495C00C3F389139BB203339A08049B1344049347
:10496C0013E0BDF80A30ADF82630BDF80430C3F3BF
:10497C008313DBB21A46049B1344049305E00E49DF
:10498C004FF4C270FEF71DFD00BF0948FEF7B3FDE2
:10499C000590059B002B02D0049B064A5360BDF882
:1049AC00263018460BB05DF804FB00BF80060020D3
:1049BC007C06002068020020EC6C000000B585B07D
:1049CC0000210748FEF714FD0390039B0293029B02
:1049DC0083F310030193019B184605B05DF804FBAB
:1049EC008406002000B589B00390029101920093D7
:1049FC00039B1B0C0793FFF7E1FF0690FFF75EFE8E
:104A0C000246079B934204D3214940F2A910FEF7BA
:104A1C00D8FC069B1904009B5A1C0A9B1340079A4E
:104A2C000A431C4902339B000B445A60009A0A9BB0
:104A3C00134002339B00174A134404330593039B22
:104A4C0003F00703D9B2059A137861F3C503137009
:104A5C00019B03F00F03D9B2059A138861F38913F4
:104A6C001380029BC3F31501059A136861F39F230E
:104A7C001360059A1378012161F301031370059AF1
:104A8C0013786FF38203137000BF09B05DF804FB59
:104A9C00EC6C00006802002000B58BB00390029112
:104AAC0013468DF80730039B0233089301238DF8CE
:104ABC001F300020FEF73EFC3E4B1A68029B1A602A
:104ACC003C4B9A683B4B59683A4B1B68CB1A1344C6
:104ADC000133099314E001213748FEF7D0FCFFF7AE
:104AEC00E3FE059005993448FEF7C9FC314B9A68F2
:104AFC00304B59682F4B1B68CB1A13440133099365
:104B0C00089A099B9A42E6D89DF81F30002B48D092
:104B1C00002304939DF80730002B17D09DF810301C
:104B2C00012262F301038DF810309DF8103043F030
:104B3C0004038DF81030039B03F00F03DAB2BDF8B9
:104B4C00103062F38913ADF8103016E09DF8103078
:104B5C00022262F301038DF810309DF8103043F0FF
:104B6C0004038DF81030039BC3F309039AB2BDF80C
:104B7C00123062F38F13ADF812300E4B1A680D4BD6
:104B8C009B68134002339B000A4A13440433069378
:104B9C00049A069B1A60074B1A68089B1344054A33
:104BAC0013600020FEF7DAFB9DF81F3018460BB09F
:104BBC005DF804FB680200208406002000B58BB071
:104BCC0005900491039202931F4B9B68079306ABCD
:104BDC00012219460298FFF75FFF0346002B24D0F1
:104BEC00069B023309930023089311E0089B9B005A
:104BFC00039A1A44099B591C099107990B40126896
:104C0C00114902339B000B445A60089B01330893F3
:104C1C00089A029B9A42E9D3069A079B0093134683
:104C2C00029A04990598FFF7DDFE074B93F82034A0
:104C3C00002B04D000F07CF80346002BFAD100BF07
:104C4C000BB05DF804FB00BF6802002000B583B018
:104C5C00019000910023002200990198FFF7AEFF0C
:104C6C0000BF03B05DF804FB00B587B00390029160
:104C7C000192019B059305AA012302990398FFF762
:104C8C009DFF00BF07B05DF804FB00B587B0039033
:104C9C00029101920093019B0493009B059304AA3B
:104CAC00022302990398FFF789FF00BF07B05DF854
:104CBC0004FB00B589B00390029101920093019B13
:104CCC000593009B06930A9B079305AA032302995D
:104CDC000398FFF773FF00BF09B05DF804FB00B544
:104CEC008BB00390029101920093019B0593009B62
:104CFC0006930C9B07930D9B08930E9B099305AA97
:104D0C00052302990398FFF759FF00BF0BB05DF81C
:104D1C0004FB0000054B5A68044B1B689A420CBFFD
:104D2C0001230023DBB21846704700BF6802002045
:104D3C0000B599B0FFF7EEFF0346002B01D000231E
:104D4C00AFE1994B0022C3F81824BFF34F8F00BF7B
:104D5C00954B5B680493944B9B681093049A109B3F
:104D6C00134002339B00904A1344043312930023E4
:104D7C0017930023169300230F9304AB1946129834
:104D8C00FFF730FD0346002B14D0874B1A68049BA9
:104D9C009A4205D8844B1B68834A5360002380E1F8
:104DAC00049A109B134002339B007F4A1344043334
:104DBC001293E2E700BF0023159311E0049B5A1CE9
:104DCC000492109A1340159A920001A90A4476494C
:104DDC0002339B000B445B681360159B01331593E6
:104DEC00159B012BEAD99DF8043003F00303DBB2C9
:104DFC00022B40F09C80BDF80630C3F389139BB2A4
:104E0C000D93BDF80630C3F389139BB2502B28BF0A
:104E1C0050239BB20C930C9BC3F309039AB2BDF8BD
:104E2C00063062F38F13ADF806300C9B08330B93EE
:104E3C009DF80430C3F3C203DBB20F930B995B48AC
:104E4C00FFF737F81790179B002B00F0D1801798BD
:104E5C00FFF7C0F801A9169B08221798FFF766F90F
:104E6C00169B08331693049BDA43109B13400133B3
:104E7C009B000A930C9A0A9B9A4242D90A9B002BDC
:104E8C0008D0049A109B134002339B00464A1344EB
:104E9C00043300E0464B08930A9B002B02D00A9B7C
:104EAC00DBB201E00C9BDBB28DF81F300A9B002BB0
:104EBC0001D03F4B00E0002306930A9B002B06D049
:104ECC000C9BDAB20A9BDBB2D31ADBB200E00023F4
:104EDC008DF817309DF81F20169B08991798FFF72F
:104EEC0025F99DF81F30169A13441693069B002B38
:104EFC0016D09DF81720169B06991798FFF716F9F0
:104F0C000EE0049A109B134002339B00264A134474
:104F1C0004330993169B0C9A09991798FFF706F915
:104F2C000D9B03339A08049B1344049360E09DF893
:104F3C00043003F00303DBB2012B59D1BDF804306C
:104F4C00C3F38313DBB2062B28BF0623DAB2BDF8FA
:104F5C00043062F38913ADF80430BDF80430C3F3A8
:104F6C008313DBB202330E939DF80430C3F3C203F8
:104F7C00DBB20F930E9B9B0019460C48FEF799FF72
:104F8C001790179B002B33D01798FFF723F801A924
:104F9C00169B08221798FFF7C9F8169B083316932F
:104FAC00002315931BE000BF68020020205D000069
:104FBC0074020020049B5A1C0492109A1340023372
:104FCC009B003A4A1344191D169B04221798FFF7AD
:104FDC00ADF8169B04331693159B01331593BDF84E
:104FEC000430C3F38313DBB21A46159B9342E1D30F
:104FFC00179B002B38D02D4BD3F8103414932B4B1C
:10500C00D3F81834002B1AD01798FEF7F2FF42E0B1
:10501C0000238DF84F301498FFF7FFFA0346002B4E
:10502C0002D001238DF84F309DF84F30002B03D068
:10503C0017991498FFF7B0FA149B5B681493149BA0
:10504C00002BE5D11798FEF7D4FF0020FEF772F97C
:10505C00164BD3F81834002B02D1049B134A53601F
:10506C000020FEF77BF916E0104BD3F810341193A7
:10507C0005E01198FFF7AAFA119B5B681193119B3D
:10508C00002BF6D10A4B1B881B0443F00203094981
:10509C001846FFF7DBFDFFF73DFE034683F00103E7
:1050AC00DBB2184619B05DF804FB00BF68020020A3
:1050BC0014000020846D000000B585B0002303931C
:1050CC0022E0164BD3F81034029301238DF80730ED
:1050DC000EE00298FFF792FA03461A46039B93429E
:1050EC0003D100238DF8073005E0029B5B68029327
:1050FC00029B002BEDD19DF80730002B01D0039BB8
:10510C0007E0039B01330393039B092BD9DD4FF07D
:10511C00FF33184605B05DF804FB00BF68020020A1
:10512C0000B585B001900B468DF80330FFF7C4FF36
:10513C000390039BB3F1FF3F01D1039B1EE0039B44
:10514C00DBB219460198FFF74DFA0E4BD3F8103429
:10515C00002B07D10B4A019BC2F81034019B002293
:10516C005A600AE0074BD3F810345A68019B5A6016
:10517C00044BD3F81034019A5A60039B184605B0BF
:10518C005DF804FB6802002000B583B00C4BD3F82B
:10519C00103401930A4B012283F8202408E0019873
:1051AC00FFF733FA0198FFF705FA019B5B6801934F
:1051BC00019B002BF3D100BF00BF03B05DF804FBD3
:1051CC006802002082B00190009100BF02B07047CD
:1051DC0010B584B003900291039BDB88002B0AD09E
:1051EC00039BDB881A461F4B009313461E4A1F492C
:1051FC000298FEF7AFFA039B1B7A052B2ED0039B6C
:10520C005B7A002B12D0039B9B881A46039B1B7A5C
:10521C0019461046FFF7AEFA03461A46144B53F8DC
:10522C0022301A4613490298FEF794FA039B1B6826
:10523C0019460298FFF7C6FF039B1B7A1A460E4BC2
:10524C0053F82240039B9B8800211846FFF772FA03
:10525C000346224609490298FEF77CFA00BF04B0C7
:10526C0010BD00BFB86D0000C86D0000006E0000DE
:10527C0058000020186E0000440000201C6E000036
:10528C0000B585B00390029113468DF80730039B4F
:10529C001B7A052B0FD0039B5B7A002B06D00D4B92
:1052AC001B681A460C490298FEF754FA0B490298EF
:1052BC00FEF750FA07E09DF80730002B03D00749A2
:1052CC000298FEF747FA0298FEF722FA00BF05B0E3
:1052DC005DF804FB58000020186E0000286E0000DA
:1052EC0030B58BB007900691059204930E9B1B7BF7
:1052FC008DF827300E9B00221A730E990498FFF735
:10530C0067FF059B062B7FD801A252F823F000BF44
:10531C0039530000435300005353000067530000FF
:10532C0085530000AD530000DD53000007990E9823
:10533C00FEF710FA69E0069B1B681A4607990E984F
:10534C00FEF708FA61E0069B1A68069B04331B689B
:10535C0007990E98FEF7FEF957E0069B1A68069B14
:10536C0004331968069B08331B6800930B46079996
:10537C000E98FEF7EFF948E0069B1968069B04337C
:10538C001868069B08331B68069A0C321268019247
:10539C00009303460A4607990E98FEF7DBF934E0B2
:1053AC00069B1868069B04331C68069B08331B6815
:1053BC00069A0C3212680699103109680291019212
:1053CC0000932346024607990E98FEF7C3F91CE09A
:1053DC00069B1C68069B04331D68069B08331B68E0
:1053EC00069A0C3212680699103109680698143026
:1053FC00006803900291019200932B462246079974
:10540C000E98FEF7A7F900E000BF00220E99049851
:10541C00FFF736FF0E9B9DF827201A7300BF0BB0C9
:10542C0030BD00BF00B587B003900291019200938C
:10543C00029B082B5CD8009B1B7B8DF81330009BC8
:10544C0000221A7300990198FFF7C2FE00230593FE
:10545C0014E0059A029B9A4209D2039A059B1344C5
:10546C001B781A4624490098FEF774F903E0234987
:10547C000098FEF76FF9059B01330593059B072BED
:10548C00E7D91F490098FEF765F90023059322E040
:10549C00059A029B9A4217D2039A059B13441B78D8
:1054AC008DF812309DF81230184600F06CFB034654
:1054BC00002B02D09DF8123000E02E231A46114921
:1054CC000098FEF747F903E00F490098FEF742F900
:1054DC00059B01330593059B072BD9D90122009914
:1054EC000198FFF7CDFE009B9DF813201A7300E086
:1054FC0000BF07B05DF804FB2C6E0000346E00009A
:10550C00386E00003C6E0000406E000030B591EA31
:10551C00030F00F18280841A71EB030C05D212196F
:10552C0053EB0C03001B71EB0C0140F2000CCFF69B
:10553C00E07C1CEA430F52D0BCEB410F5FD90C0D41
:10554C00A4EB135E5FF0010C6CF31F516CF31F5353
:10555C00DEF1200C2AD303FA0CF5401941F10001BD
:10556C0022FA0EF5401923FA0EF5694112FA0CF2E3
:10557C00CD0208D349085FEA30005FEA320228BF47
:10558C0042F001020134013C5FEA500C72F100421E
:10559C0050F1000051EB04514FF4001313EB410F89
:1055AC0038BF30BD6FF31301002030BDBEF1200EAB
:1055BC00BEF1200F1ED223FA0EF5401941F1000165
:1055CC00CEF1200C124218BF012203FA0CF52A432B
:1055DC00CEE711EA5C0F04BF0020002130BD1CEAAD
:1055EC00410F04BF01F00041002030BD01F000412B
:1055FC00002030BD21F4801101EB045130BD00427C
:10560C0018BF41F00101BCEB410F08BF30BD4FF09A
:10561C00FE4141F47801002030BD83F00043841A30
:10562C0071EB030E07D28EF0004E001B71EB0E01D6
:10563C00121953EB0E0340F2000CCFF6E07C1CEA7F
:10564C00430FC6D0BCEB410F72D90C0DA4EB135E0B
:10565C00C90241EA5051C00241F00041DB0243EA69
:10566C005253D20243F00043DEF1200C41D312FA24
:10567C000CF522FA0EF203FA0CF542EA050218BFF9
:10568C0042F0010223FA0EF3801A9941E30AC4F3A3
:10569C000A0411F0404F03D418D0013C400049419A
:1056AC00013C23D44205C00A40EA4150C90A51EAE0
:1056BC00C3715FEA500C72F1004250F1000051EBE3
:1056CC00045130BD01002FD00020203C0029F9D01E
:1056DC00B1FA81FCDCF1200E11FA0CF130FA0EF566
:1056EC0010FA0CF02943A4EB0C04D9E70020D907DD
:1056FC0030BDAEF1200EBEF1200F0DD2CEF1200C3C
:10570C0003FA0CF533FA0EF32A4318BF43F00103E6
:10571C00C01A61F10001B9E721F00041C00A40EA6A
:10572C004150C90A01EB045130BD0020002130BDAD
:10573C00004218BF41F00101BCEB410F7FF467AF91
:10574C00BCEB430F3FF463AF30BD00BF83F00043AD
:10575C00FFF7DCBEF0B540F2FF7681EA030C16EAE7
:10576C00115E1EBFB64516EA1355B54252D021EA5A
:10577C00465141F48011A1FB024723EA465343F4FE
:10578C008013AE44A0FB03650CF0004C36197D4130
:10579C00A1FB034747F10003A0FB0217F619654173
:1057AC0053F10003094218BF46F0010640F2FE74A3
:1057BC00B3F5007F13D2AEF5806EA64523D24CEA2A
:1057CC000331280341EA155140EA165032034508CB
:1057DC0072F1004250F1000051EB0E51F0BDAEF2EF
:1057EC00FF3EA6450FD24CEAC321E80241EA5551CF
:1057FC0040EA5650F202450872F1004250F10000A6
:10580C0051EB0E51F0BD1EEA0E0F2DD50CF00041E0
:10581C000020F0BD16EA115F04BF01F0004100202A
:10582C00004218BF41F0010116EA135F04BF03F0F8
:10583C0000430022124218BF43F0010306EA13543E
:10584C00B44218BFB64503D00CF000410020F0BDA7
:10585C0021F0004123F00043B1EB065F0CD8B3EB11
:10586C00065F09D841B13BB10CF0004141F0FE415B
:10587C0041F470010020F0BD40F20001C7F6F87150
:10588C000020F0BD2DE9F04391EA030E0EF0004E1E
:10589C0040F20007CFF6E07717EA41051EBFBD4284
:1058AC0017EA4305BD4200F09F807F0D17EA13569F
:1058BC0023EA475343F4801317EA115521EA475161
:1058CC0041F48011AD1B05F2FD354FEAD31C1CF1E0
:1058DC00010C4FF00047B7FBFCF77F01A2FB079CC4
:1058EC000024E3FB07C4D9F100096CEB4C0CA0FBC2
:1058FC0007620020E1FB072000275FEAC628E0FBD7
:10590C000987760D46EAC226520DF61900277A4110
:10591C00E0FB0C625FEAC823E2FB09375FEA5858E8
:10592C0048EAC628760D18EB070800214E41E2FB29
:10593C000C8602EBC020DA02E6FB09215B0D43EA80
:10594C00C8235FEA58585B18002758EB0708E6FB9A
:10595C000C38D102E8FB0917520D42EAC3225B0D49
:10596C00D21900277B41E8FB0C2308EBC6265FEA23
:10597C00C128E3FB0987490D41EAC221520DC9191F
:10598C0042F10002E3FB0C12470019EB08095CEB37
:10599C00010C72EB040453EBC62047EB5653002664
:1059AC00B3F5000F7641AD190236D6F1200910FA85
:1059BC0009F4F04013FA09F21043F340E40F001914
:1059CC0043F10003B3F5001F24BF5B08013540F21F
:1059DC00FE77BD4204D24EEA05511944BDE8F0836E
:1059EC002D4224D5714626E0004218BF41F001013A
:1059FC00124218BF43F00103B7EB410F2CBFB7EBBA
:105A0C00430F1BE0B7EB410F04BFB7EB430F15E09F
:105A1C0017EA410F04BF17EA430F0FE017EA410FD3
:105A2C00E0D017EA430F02D0B7EB430FDAD04EF0B9
:105A3C00FE4141F470010020BDE8F08340F200010A
:105A4C00C7F6F871F7E700BF4FF4001C1CEB410FD1
:105A5C0098BF1CEB430F11D851EA030C50EA4C0CC5
:105A6C005CEA020C0AD004D282428B418041404253
:105A7C0070479042994180414042704700207047E6
:105A8C004FF4001C1CEB410F98BF1CEB430F11D8BB
:105A9C0051EA030C50EA4C0C5CEA020C0AD004D21A
:105AAC009042994180414042704782428B418041F3
:105ABC004042704700207047C1F30A5340F21E4227
:105ACC00D21A0EDD202A0AD8CB0243EA505040F0FD
